:020000022000DC
:1060000000F003206D630200556302005763020035
:10601000596302005B6302005D6302000000000040
:106020000000000000000000000000005F630200AC
:106030006163020000000000636302006563020008
:106040006763020067630200676302006763020020
:1060500067630200676302002D730200676302003A
:1060600067630200676302005979030067630200F7
:1060700067630200676302006763020067630200F0
:106080006763020071F80300CDCA02006763020073
:1060900041F903006763020029A40300676302005B
:1060A00067630200676302006763020067630200C0
:1060B0006763020067630200000000000000000048
:1060C00067630200676302006763020067630200A0
:1060D0006763020067630200676302006763020090
:1060E000676302006763020067630200000000004C
:1060F0000000000067630200000000006763020008
:10610000000000000000000000000000000000008F
:10611000000000000000000000000000000000007F
:10612000000000000000000000000000000000006F
:10613000000000000000000000000000000000005F
:10614000000000000000000000000000000000004F
:10615000000000000000000000000000000000003F
:10616000000000000000000000000000000000002F
:10617000000000000000000000000000000000001F
:10618000000000000000000000000000000000000F
:1061900000000000000000000000000000000000FF
:1061A00000000000000000000000000000000000EF
:1061B00000000000000000000000000000000000DF
:1061C00000000000000000000000000000000000CF
:1061D00000000000000000000000000000000000BF
:1061E00000000000000000000000000000000000AF
:1061F000000000000000000000000000000000009F
:10620000344935480A1A02D0072291438D46334952
:1062100033480A1A06D00722914381F309880222E3
:1062200082F314882F483049304A00F042F8304851
:106230003049314A00F03DF830483149314A00F0E8
:1062400038F831483149324A00F033F831483249A0
:10625000324A00F02EF832483249334A00F029F829
:1062600032483349334A00F024F833483349002296
:1062700000F02AF832483349002200F025F832486D
:106280003249091A082902DB0022026041601F48D6
:106290001F49884205D00268043003B4904703BC0C
:1062A000F7E700208646EC4600200021284A904768
:1062B000FEE7884207D0521A05D0037801300B70F0
:1062C0000131013AF9D17047884202D002700130A1
:1062D000FAE7704700F0032000E8032000F00320F5
:1062E00000F00320244B0400A02D0020042F0020E8
:1062F000A4630200A46302002E1F0400244B0400C8
:10630000A02D0020A02D00207C2004007C20040073
:106310007C2004007C2004007C2004007C200400FD
:106320007C2004007C200400244B0400884C0400E2
:10633000042F0020042F0020042F00200D6D0020CA
:10634000106D0020106D0020106D002010710020D5
:106350002D6A0200FEE7FEE7FEE7FEE7FEE7FEE746
:10636000FEE7FEE7FEE7FEE7704700BF094880470B
:1063700009484FF007018843854608488047084888
:10638000016841F470010160BFF34F8FBFF36F8F5D
:10639000FFF736BF6963020000F00320C5A60300C3
:0463A00088ED00E0A4
:1063A4003FDF704741DF704710B5374C236859040D
:1063B40086B00DD5354B1B68032B09DD344B354AAC
:1063C400D3F80435344900920420992207F066FB7F
:1063D400072001F013FD314A9DF8143052F82020B3
:1063E40062F3830303F08C0343F0420305208DF82A
:1063F400143001F003FD2A4B53F820300493062097
:1064040001F0FCFC274B53F82030039306AA4FF409
:106414007A7312E907000AF0E9F907281ED0082860
:1064240002D048BB06B010BD23685A040DD5174BE3
:106434001B68002B09DD164B1B4AD3F80435009268
:10644400A8221549012007F029FB062232214FF426
:10645400F03006B0BDE8104000F0D0BE23685B0405
:10646400F3D50A4B1B68002BEFDD094B0F4AD3F819
:1064740004350092AF22E4E70D4AB62106B0BDE828
:10648400104014F006BA00BF542E0020502E0020F5
:1064940000100140A42304009D230400D420040020
:1064A400B420040094200400D8230400F923040039
:1064B400472304000E4B1B685B0407B50DD50D4B39
:1064C4001B68032B09DD0C4B0C4AD3F804350C492B
:1064D40000920420552207F0E1FA0322C8214FF468
:1064E400F03000F08BFE03B05DF804EB0BF0AEB8B7
:1064F400542E0020502E0020001001407A24040065
:106504009D2304002DE9F04F884C23688DB003F4DB
:10651400804303281ED8DFE810F004007E008B00BF
:10652400DE006BB1824B1B68032B09DD814B824A71
:10653400D3F80435814900920420D82207F0AEFA3A
:10654400042001F05BFC002853D00AF043FAE0B9C0
:10655400FFF72AFF7A4A13780133137023685B0428
:1065640010D5734B1B68032B0CDD724B7349D3F8A6
:10657400043500220192734A009204204FF4887279
:1065840007F08CFA0DB0BDE8F08F23685E040DD5DA
:10659400674B1B68032B09DD664B6B4AD3F8043544
:1065A400664900920420BC2207F078FA0AF000FA47
:1065B4000028CFD0082817D123685D040DD55C4B83
:1065C4001B68002B09DD5B4B604AD3F804355B493B
:1065D40000920120C42207F061FA062232214FF40E
:1065E400F03000F00BFEB5E7594ACB2114F051F915
:1065F400B0E723685804ADD54D4B1B68032BA9DDC8
:106604004C4B544AD3F804350092E1224B49042000
:1066140007F044FA9EE7002B9CD0454B1B68032BE4
:1066240098DD444B4C4AD3F804350092EA22EDE756
:10663400002B8FD03E4E3368032B8BDD3D4D474AF4
:10664400D5F804353D4900920420F12207F026FADA
:10665400236859047FF57EAF3368032B7FF77AAF45
:106664000020D5F8045501F0C9FB0646012001F0CD
:10667400C5FB0746022001F0C1FB8046032001F060
:10668400BDFB8146042001F0B9FB8246052001F0E0
:10669400B5FB334B53F820B0062001F0AFFB314B70
:1066A40053F820300B93072001F0A8FB0B9B2E4AD4
:1066B400019652F820200892CDE906B32B4B0093A3
:1066C400CDE9049ACDE902782B46F5221B49042032
:1066D40007F0E4F93EE76BB1154B1B68032B09DDAA
:1066E400144B234AD3F80435144900920420FB22A6
:1066F40007F0D4F90AF04DFF30B10CF0E5F80AF0D8
:106704003DFFFFF7D7FE25E723685A047FF522AF44
:10671400074B1B68032B7FF71DAF064B154AD3F8B5
:10672400043500924FF4827270E700BF542E0020AB
:10673400502E002000100140C32104009D230400BA
:10674400052F00202C230400DA210400FD2104007D
:10675400472304001A220400232204003A220400DE
:10676400B420040094200400D42004005122040026
:10677400DE220400F52204003038042801D8FFF793
:10678400C1BE704703781C2B01D1FFF793BE70473D
:1067940030B50378153B85B0052B5DD8DFE803F0F1
:1067A400035C5E49728E524C2268530400F1040566
:1067B40010D5504B1B68032B0CDD4F4B8288D3F84C
:1067C400043501924D4A00924D4940F2571204207B
:1067D40007F064F928460AF055F808280BD807286A
:1067E4000BD2002838D0474A40F26B1105B0BDE8FF
:1067F400304014F04EB80E28F5D123685C040FD550
:106804003C4B1B68002B0BDD3B4B3F4AD3F8043554
:106814003B4901900092012040F2631207F03EF9D7
:10682400062232214FF4F03005B0BDE8304000F0CC
:10683400E5BC2F4B1B6858040ED52E4B1B68032B4D
:106844000ADD2D4B314AD3F804352D49009204203A
:1068540040F2731207F022F905B030BD244B1B68D7
:106864005904DDD5234B1B68032BD9DD224B284A61
:10687400D3F8043522490092042040F2771207F03D
:106884000DF9CDE71A4B1B685A0410D5194B1B6838
:10689400032B0CDD184B0289D3F8043501921D4AF1
:1068A400009217494FF4C272042007F0F7F801214F
:1068B4000E2005B0BDE8304000F08ABC0C4B1B68CC
:1068C4005B0412D50B4B1B68032B0EDD0A4B827A3B
:1068D400D3F804350292028901920F4A00920849C2
:1068E4004FF4C972042007F0D9F80021E0E700BF93
:1068F400542E0020502E002000100140F4200400EB
:106904009D230400472304001721040035210400BB
:10691400552104006F210400942104000C4B1B68D2
:106924005B0407B50ED50B4B1B68032B0ADD0A4B22
:106934000A4AD3F804350A49009204204FF4D0726D
:1069440007F0ACF803B05DF804EB01F07DBA00BFCA
:10695400542E0020502E0020001001405A24040020
:106964009D23040010B5044600214FF4F03004EBDD
:10697400840400F039FC620032214FF4C030BDE8D9
:10698400104000F03BBC00F06BBC00001FB5204C75
:10699400226852040ED51F4B1B68032B0ADD1E4BC5
:1069A4001E4AD3F804351E490092042040F23912DD
:1069B40007F074F800F04EFE00F06EFE03A80FF02E
:1069C400B3F823685B0411D5124B1B68032B0DDD50
:1069D400114BBDF80C20D3F804350192114A0092F2
:1069E4000F4940F24512042007F058F8FFF7DCFC89
:1069F40000F036FC00214FF4F03000F0F5FB0422E7
:106A0400C8214FF4F03000F0F9FB04B010BD00BF12
:106A1400542E0020502E0020001001409324040026
:106A24009D230400AD24040000B5514A8DB0052116
:106A34004FF4103007F016F84E4B1B685B040ED56C
:106A44004D4B1B68032B0ADD4C4B4D4AD3F80435E0
:106A54004C49009204204FF4DB7207F01FF819F040
:106A6400BFF820B1484A4FF4DC7113F012FF00F074
:106A740007FC464800F030FC20B1434A4FF4DE7175
:106A840013F007FF00F0CEFD00F0E4FD00F004FE7B
:106A94000021202203A81BF0C1F901238DF80C303A
:106AA40007238DF80F3006238DF81430384B0793E5
:106AB4003849394B0B9303A80AF078FD20B1324AC8
:106AC4004FF4D67113F0E5FE042001F097F910B1EC
:106AD400324804F01BFF0120FFF762FC20B12A4A70
:106AE40040F2C71113F0D5FE042001F087F908B174
:106AF40009F05AFE64212A4800F0FEFA254B1B785F
:106B040083B9284D0FCD03AC0FC495E8030084E886
:106B1400030003A800F098FA20B11B4A40F2DB11ED
:106B240013F0B7FE01F0BEFF00F030FC0AF07EFD6A
:106B340020B1154A4FF4F07113F0ABFE00214FF46D
:106B4400F03000F051FB0222C8214FF4F03000F085
:106B540055FB154A4021F1EE103A23F09F03E1EE74
:106B6400103AF1EE103AC2F88411FFF71BFCF2E779
:106B74003DDA0200542E0020502E00200010014067
:106B84002D2404009D23040047230400096502000A
:106B940089670200042F002021690200A02D002033
:106BA4007D6702007C20040000E100E0036BF7B580
:106BB4000446186819F0C6F8616C49B34FF40040F4
:106BC4004FF4FA760027E0FB01674FF47A72002352
:106BD400304639461AF086FF236B01462246186870
:106BE40019F06AF805468DB11C4B1B685B040DD582
:106BF4001B4B1B68002B09DD1A4B1B4AD3F80435C9
:106C04001A4900920120552206F048FF03B0F0BD56
:106C1400216C0029FAD04FF400404FF4FA76002793
:106C2400E0FB01674FF47A720023304639461AF0CC
:106C340059FF236B0146B1F1807F1868224608D3BF
:106C44006FF07F4119F038F8054619F08BF8A0640D
:106C5400C9E7042998BF0521F4E700BF542E00209A
:106C6400502E002000100140632504005625040026
:106C74001C4B1B685B0437B5044615460DD51A4BEF
:106C84001B68032B09DD194B194AD3F8043519493C
:106C940000920420962206F001FFA36B04F13C014C
:106CA4002046984794F83C302B7094F83D306B7034
:106CB400236C8BB1626C7AB919F054F8A16C19F099
:106CC40057F84FF47A735843236CC20B9A4206D890
:106CD400B0F5004F03D39B1A6B6003B030BD0023A3
:106CE400FAE700BF542E0020502E0020001001406F
:106CF400EF2404005625040010B5436C88B0044604
:106D0400D3B9026C90F83D3002B1ABB184F83C3099
:106D140006A920468DF818308DF81930079218F01E
:106D2400CDFB94F84C303BB9636B94F83C1020468F
:106D34009847012384F84C300E4B1B685B0417D52D
:106D44000D4B1B68042B13DD0C4B226CD3F804355C
:106D54000492626C039294F83D20029294F83C20D1
:106D64000192074A009207497222052006F096FE16
:106D740008B010BD542E0020502E002000100140F9
:106D84008125040056250400F7B51D461A4B089EBC
:106D94001B685B04044617460FD5184B1B68032B6E
:106DA4000BDD174B1278D3F804350192154A009283
:106DB4001549B822042006F071FE002384F84C30F3
:106DC4003B7884F83D3095B9C4E910552046FFF767
:106DD40093FF2046FFF7EAFE3EB194F83C3033704F
:106DE40094F83D307370236C736003B0F0BD6B682E
:106DF40063642B682364E9E7542E0020502E00209E
:106E040000100140FA24040056250400F8B5466C2D
:106E1400044626B100234364FFF76EFF14E0056CBB
:106E240095B14FF400474FF4FA7000214FF47A7291
:106E34000023E7FB05011AF055FEB0F1807F08D36B
:106E44006FF4FF731D4425642046BDE8F840FFF746
:106E5400ADBE26642046DFE710B5044608B90E200F
:106E640010BD094BC362436B002BF8D0836B002B1E
:106E7400F5D018F0FBFA0028F2D10146034A206B42
:106E8400BDE8104018F006BF08250400116E02008A
:106E94001FB5254C217819B1012803D003283CD013
:106EA40004B010BD002302A9029313F07FF908B1C6
:106EB40013F0E2FC02A813F0CBF908B113F0DCFCE8
:106EC400012303A90DF1060003930FF0F3FA08B1AF
:106ED40013F0D2FCBDF806000EF039FF0DF10501E8
:106EE4000FF054F808B113F0C7FC0BF089F99DF8C2
:106EF400051000200BF01CFD10B1784600F09AFC40
:106F040004F0AAFC08B113F0B7FC00232370074B6C
:106F14001B68002BC4D09847C2E713F001FA00287D
:106F2400BED013F0A9FCBBE7082F00200C2F0020D3
:106F340008B503781C2B0CD1064B1B784BB113F00E
:106F44002DFA08B113F098FC0348BDE8084004F09A
:106F5400DFBC08BD082F0020AC2D002010B5074968
:106F6400074814F033F8024638B906490648096957
:106F74000323BDE8104014F042B810BD242F0020B4
:106F8400903200200C2F00205C3100200378023B5B
:106F940010B5082B4AD8DFE803F01E05124949381A
:106FA40049493F00224B5B68002B3FD0007A002800
:106FB4003CD0204A0121BDE81040117018471C4BF9
:106FC4009B68002B32D01B4A117879B30021BDE8AD
:106FD400104011701847184B1A784AB9144BDB68E3
:106FE40013B114490A709847BDE81040FFF7B6BFC3
:106FF400124B134801221A7004F088FC04F06EFC52
:10700400A0B1BDE8104013F037BC094B0D485969D5
:10701400102214F039F8F3E7D0E902100AF050FA1C
:1070240008B113F029FC044B01221A7010BD00BFF3
:107034000C2F0020062F0020072F0020082F0020EF
:10704400AC2D00205C31002070B51C4A1C4E5168E8
:10705400044686B0106803AB03C31189927A198081
:107064009A700FCC35460FC594E8030085E80300F9
:10707400736903B3134B0093134A1449144803ABC5
:1070840013F070FFA8B9134814F0A0FF014610488C
:1070940013F088FF68B9104815F0BAFB48B90E48D8
:1070A40015F0E8FB01460A4813F07CFF08B9FFF726
:1070B40055FF06B070BD0720FBE700BFC2250400E2
:1070C4000C2F0020916F0200242F0020903200200A
:1070D4005C310020442F00200C31002010B5054CF9
:1070E400226832B111F0BAFC002802DB2368984709
:1070F400F8E710BDD0320020154B164A10B50C46E7
:1071040018600121144818F0C5FD18B1134A4A212A
:1071140013F0BFFB610C0023E00341F26F728B425A
:1071240008BF824210D24FF47A7200231AF0DAFCBC
:10713400014600220A4818F0BFFD38B1074A4B2126
:10714400BDE8104013F0A5BB0521F2E710BD00BF58
:10715400D0320020E1700200D0250400D4250400C0
:10716400D432002070B5104C206808B913F084FBA9
:107174004FF0A0450D4ED5F8043532685340C5F89C
:1071840004352368013B236063B9094818F0DAFD2C
:107194003268D5F8043523EA0203064A1268134319
:1071A400C5F8043570BD00BFF4320020F832002069
:1071B400FC320020243300204FF0A043D3F80425F0
:1071C400012303FA00F010420CBF18460020704758
:1071D400012303FA00F04FF0A04311B1C3F80C05EA
:1071E4007047C3F8080570474FF0A04311B1C3F8C6
:1071F4000C057047C3F8080570470000F8B52AB3BA
:10720400132923D9124B134D5200013A4FF0A044D5
:1072140028601A60D4F804350F4A03404FF4FA7614
:107224004FF400400027E0FB0167136030464FF441
:107234007A72002339461AF055FC002201460748A9
:1072440018F03AFD10B92B68C4F80C35F8BD00BF2E
:10725400F4320020F832002024330020FC320020D5
:1072640008B5054818F06EFD044B1A684FF0A043AA
:10727400C3F8082508BD00BFFC320020F832002006
:1072840008B54FF0A04303224FF40051C3F834274C
:10729400C3F808154FF48041C3F83827C3F808151C
:1072A4004FF40041C3F83C27C3F80815C3F840273E
:1072B4004FF48032C3F808250121054A054818F027
:1072C400E9FC18B1BDE8084013F0D6BA08BD00BF08
:1072D4006971020028260400D8B10F4B0F4A1860C8
:1072E4004FF0A0430020C3F82C27C3F83027C3F87D
:1072F4006027C3F864270A4B4FF00042C3F8042305
:10730400C3F87C01074BC02283F8062340221A608D
:1073140070470E20704700BF1C3300200C00030090
:107324000060004000E100E0F8B5134B134D144E2B
:10733400144F0024C3F87C414FF0A04315F8011BFF
:10734400D3F8102501238B40934310D03368D7F82A
:107354000425991A48BFD11A43F23333994206D906
:10736400D7F804353360084B20461B68984701342E
:10737400042CE1D1F8BD00BF006000402C260400BD
:1073840020330020001001401C330020F0B50446D7
:10739400CFB038B12B4D2B685A0403D52A4E33682D
:1073A400032B01DC4FB0F0BD284B1F680DAB411E11
:1073B40000F10F0C184611F8012F4FEA121E02F0CB
:1073C4000F0217F80EE083F800E0BA5C5A708C459F
:1073D40003F10203EFD100231D4F80F820301D4A32
:1073E400D7F8043501921C4A029000921B494122AD
:1073F400042006F053FB2B685B04D3D53368032BBE
:10740400D0DDE27BD7F804350B92A27B0A92627B33
:107414000992227B0892E27A0792A27A0692627A11
:107424000592227A0492E2880392A2880292226848
:1074340001920B4A009209494622042006F02EFBD1
:10744400B0E700BF542E0020502E0020582E0020FC
:1074540000100140872604009926040076260400C3
:10746400A126040072DF704773DF704774DF704732
:107474002DE9F04388462F492F4C0B782F4D914628
:107484002F4A0746C3EB4310002602440133A3B03E
:1074940003F00103C4F80660A2601F2205440B70C8
:1074A400A280A28131463C2204A8E68125601AF01C
:1074B400B5FC062301AA8DF813300E9201233C2259
:1074C400314613A88DF80230ADF820308DF83C30E9
:1074D400ADF80070CDF824D0ADF80470ADF8089084
:1074E400CDF80C801AF09AFC0223221D294604A828
:1074F4008DF84C3012F02AFC08B113F0BDF9114A92
:10750400A16813A812F022FC08B113F0B5F90E4AD1
:1075140009490E48FFF7A6FF082804D100220649AE
:107524000A48FFF79FFF08B113F0A6F923B0BDE89E
:10753400F08300BF28330020683300202933002063
:107544007833002074330020BC2D0020B82D002097
:10755400B0F5202F0AD20A23B0FBF3F30138082830
:1075640098BF0123034A9381916070474FF6FF73DC
:10757400F8E700BFBC2D002008B5064B01211878A0
:10758400FFF772FF08B113F077F90020BDE8084057
:1075940004F0C8BFB82D002008B5054B1878FFF7D4
:1075A40065FF18B1BDE8084013F066B908BD00BF17
:1075B400B82D002076DF70477ADF70477CDF704794
:1075C40013F05AB904F0A6B9037807B54BB93B21B7
:1075D4004088FFF7EFFFC0B103B05DF804EB13F090
:1075E4004BB9012B11D10A4B1B685B040DD5094B18
:1075F4001B68032B09DD084B084AD3F804350849F6
:1076040000920420682206F049FA03B05DF804FBF6
:10761400542E0020502E002000100140502704005A
:107624003727040007B512F07BFE08B113F024F9E4
:10763400002301A90120019312F0B8FD08B113F051
:107644001BF901A812F004FE08B113F015F903B0F8
:107654005DF804FB1FB511230F220D498DF804308A
:1076640001A8FFF7ABFF08B113F006F90023ADF84A
:107674000C30084B029302A84FF4C873ADF80E30D7
:10768400FFF79AFF08B113F0F7F805B05DF804FBB3
:10769400E12604007800C80000B58BB00023114A2D
:1076A400ADF80830CDE90633019201AB4FF4C8724E
:1076B400ADF80A20039340F6CD424FF48033CDE970
:1076C400042303238DF81830074B089303A8074BB2
:1076D400099312F0A7FF08B113F0CEF80BB05DF8D0
:1076E40004FB00BF7800C800CD750200C575020018
:1076F4000620704730B5454B41F201051B68A8428E
:1077040087B0044603F4804354D013D801282ED004
:10771400002B3CD03E4B1B68002B38DD3D4B3E4AD2
:10772400D3F80435019100923C497B22012006F0F4
:10773400B5F92CE044F2010084424CD044F202003A
:107744008442E5D11BB3324B1B68002B1FDD314B48
:107754001088D3F8043503905268CDE90112304AF9
:1077640000922E496C22012006F098F90FE073B1C3
:10777400274B1B68002B0ADD264BD3F80435CDE9D3
:107784000112284A25490092602206F087F94FF039
:10779400A0434FF4F032C3F81825C3F80C25EFF3D7
:1077A400108372B64DF6AD6C1F4A1378002B2AD1A4
:1077B40007B030BD002BEAD0154B1B68002BE6DD6B
:1077C400144BD3F80435CDE90112184A0092134939
:1077D40063220120D9E7002BD9D00D4B1B68002B65
:1077E400D5DD0C4B1068D3F8043504905068CDE90E
:1077F4000210926801920E4A0092084977220120F1
:1078040006F04CF9C3E730BFCFE700BF542E002089
:10781400502E0020001001404F280400C22704000D
:107824000F280400D3270400D42D0020ED270400E2
:107834002E28040007B50023ADF800300146054B9F
:1078440001936A4644F20200FFF754FF03B05DF867
:1078540004FB00BF2222040001230B6070470223B3
:107864000B60704703230B60704704230B60704761
:1078740010B50C4601F0D8F8206010BD012A07B5F8
:1078840020D052B1022A32D0214A40F207110320FB
:1078940003B05DF804EB12F0FCBF1E4B1B685904E7
:1078A4000DD51D4B1B68032B09DD1C4B1C4AD3F85B
:1078B40004350092FA221B49042006F0EFF803B0C5
:1078C4005DF804FB062232214FF4F030FFF796FCFA
:1078D400104B1B685A04F2D50F4B1B68032BEEDDCB
:1078E4000E4B114AD3F804350092FF22E3E7094B0B
:1078F4001B685B04E3D5084B1B68032BDFDD074BD8
:107904000A4AD3F80435009240F20312D3E700BFC9
:10791400E7280400542E0020502E002000100140BF
:107924004B2904003D2904006B2904008B29040021
:10793400012A07B521D052B1022A34D0224A4FF489
:10794400A271032003B05DF804EB12F0A2BF1F4B39
:107954001B6859040ED51E4B1B68032B0ADD1D4BF7
:107964001D4AD3F80435009240F237121B49042013
:1079740006F094F803B05DF804FB062232214FF4BC
:10798400F030FFF73BFC114B1B685A04F2D5104B47
:107994001B68032BEEDD0F4B114AD3F8043500921C
:1079A4004FF49E72E2E7094B1B685B04E2D5084B77
:1079B4001B68032BDEDD074B0A4AD3F8043500921B
:1079C4004FF4A072D2E700BFE7280400542E002031
:1079D400502E0020001001404B2904003D290400D2
:1079E4006B2904008B290400084601F00BB8000041
:1079F4000D4B1B685B0413B50C460ED50B4B1B6873
:107A0400032B0ADD0A4B0B4AD3F80435019100928B
:107A140009499A22042006F041F82146102002B0B8
:107A2400BDE81040FFF7D4BB542E0020502E002098
:107A340000100140802B04003D2904000D4B1B68FD
:107A44005B0413B50C460ED50B4B1B68032B0ADDE8
:107A54000A4B0B4AD3F80435019100920949932249
:107A6400042006F01BF821460F2002B0BDE81040A8
:107A7400FFF7AEBB542E0020502E00200010014012
:107A8400802B04003D2904000D4B1B685B0413B5D7
:107A94000C460ED50B4B1B68032B0ADD0A4B0B4A15
:107AA400D3F804350191009209498C22042005F091
:107AB400F5FF21460E2002B0BDE81040FFF788BB59
:107AC400542E0020502E002000100140802B040072
:107AD4003D2904000D4B1B685B0413B50C460ED501
:107AE4000B4B1B68032B0ADD0A4B0B4AD3F80435F6
:107AF4000191009209498522042005F0CFFF214617
:107B04000D2002B0BDE81040FFF762BB542E0020E8
:107B1400502E002000100140802B04003D29040059
:107B240010B510200C46FFF747FB207010BD10B5B0
:107B34000F200C46FFF740FB207010BD10B50E203F
:107B44000C46FFF739FB207010BD10B50D200C4614
:107B5400FFF732FB207010BD0A4B1B685B0407B5AE
:107B64000DD5094B1B68012B09DD084B084AD3F8D6
:107B74000435084900920220EE2205F08FFF03B07D
:107B84005DF804FB542E0020502E0020001001400C
:107B9400C82804003D2904007FB51B4B50681B68AE
:107BA40003F48043C8B1ABB1184B1B68032B11DD40
:107BB400174BD3F80435049050780390127802924E
:107BC4004A880192134A009213494FF4897204209F
:107BD40005F064FF07B05DF804FB002BFAD00B4BF3
:107BE4001B68032BF6DD0A4B1278D3F80435029296
:107BF4004A880192094A0092074940F2151204206A
:107C040005F04CFFE6E700BF542E0020502E002064
:107C140000100140282A04003D2904007A2A0400A7
:107C24000B4B1B685B0407B50ED50A4B1B68012B75
:107C34000ADD094B094AD3F80435094900920220A8
:107C440040F22B1205F02AFF03B05DF804FB00BFDD
:107C5400542E0020502E002000100140C82804009B
:107C64003D2904007FB51B4B90681B6803F48043D7
:107C7400C8B1ABB1184B1B68032B11DD174BD3F8FC
:107C84000435049050680390126802924A88019265
:107C9400134A0092134940F24F12042005F0FEFEED
:107CA40007B05DF804FB002BFAD00B4B1B68032BC9
:107CB400F6DD0A4B1268D3F8043502924A88019221
:107CC400094A009207494FF4A972042005F0E6FE20
:107CD400E6E700BF542E0020502E00200010014083
:107CE400AD2904003D290400FF2904000B4B1B6847
:107CF4005B0407B50ED50A4B1B68032B0ADD094B41
:107D0400094AD3F80435019100920849C522042098
:107D140005F0C4FE03B05DF804FB00BF542E002040
:107D2400502E002000100140802B04003D29040047
:107D34000B4B1B685B0407B50ED50A4B1B68032B62
:107D44000ADD094B094AD3F8043501910092084928
:107D5400C022042005F0A2FE03B05DF804FB00BFBE
:107D6400542E0020502E002000100140802B0400CF
:107D74003D2904000B4B1B685B0407B50ED50A4B69
:107D84001B68032B0ADD094B094AD3F8043501911A
:107D940000920849BB22042005F080FE03B05DF880
:107DA40004FB00BF542E0020502E00200010014080
:107DB400802B04003D2904000B4B1B685B0407B5B2
:107DC4000ED50A4B1B68032B0ADD094B094AD3F86D
:107DD4000435019100920849B622042005F05EFEA4
:107DE40003B05DF804FB00BF542E0020502E002089
:107DF40000100140802B04003D29040010B5044606
:107E040000F012FE072C05D8DFE804F01B06090C6D
:107E14000F121518002010BDC0F30360FBE7C0F378
:107E24000350F8E7C0F30340F5E7C0F30330F2E78B
:107E3400C0F30320EFE7C0F30310ECE700F00F00FA
:107E4400E9E70220E7E700002DE9F04F8DB000F0EC
:107E540003FEB24B1A6812F4804F9A463FD0B04BDF
:107E64001B68032B3BDDAF4B0020D3F80445FFF721
:107E7400C5FF05460120FFF7C1FF06460220FFF7B4
:107E8400BDFF07460320FFF7B9FF80460420FFF734
:107E9400B5FF81460520FFF7B1FFA34B53F820B08F
:107EA4000620FFF7ABFFA14B53F820300B930720BC
:107EB400FFF7A4FF0B9B9E4A019552F820200892DD
:107EC400CDE906B39B4B0093CDE90489CDE9026764
:107ED40023464FF4B1729849042005F0DFFD974C16
:107EE400974B2365974BA3660021974B2185216708
:107EF400E366204600F09CFC20B1944A4FF4B6712E
:107F040012F0C7FCDAF800305D0410D5844B1B680E
:107F1400032B0CDD834B2288D3F8043501928C4A61
:107F24000092854940F26D12042005F0B7FD894B9B
:107F3400894A1A63894AC3F88020894AC3F8D02041
:107F4400884AC3F82021884AC4F8E820874AC4F83C
:107F54008021874AC4F81822DFF84892854ADFF85E
:107F6400DC81854FDFF8BCB1C4F8B02200251C4683
:107F74002846FFF743FF012805F101062BD1002312
:107F840084F8283084F829307C4B53F82530636317
:107F94007B4B53F82530A363F1B22046FEF75CFF18
:107FA40020B16A4A4FF4CD7112F073FCDAF8003054
:107FB400580410D55A4B1B68032B0CDD2288DBF8C0
:107FC40004355D49CDE901626E4A0092042040F215
:107FD4009B1205F063FD2846FFF710FF022826D107
:107FE400694B3B630023BB6287F82C3087F82D3044
:107FF400F1B2384617F0CAFB20B1544A40F2A3113B
:1080040012F047FCDAF80030590410D5444B1B68D1
:10801400032B0CDD3A88DBF804354749CDE90162CE
:108024005A4A009204204FF4D27205F037FD2846D4
:10803400FFF7E4FE08F1980303280B9330D10023E3
:1080440088F8C03088F8C130C8F80831504B0B9814
:1080540053F82530C8F800314E4B53F82530C8F892
:108064000431F1B200F0E4FB20B1384A40F2AD1122
:1080740012F00FFCDAF800305A0411D5284B1B68B3
:10808400032B0DDDB8F89820DBF804352A49CDE937
:108094000162414A009204204FF4D77205F0FEFCBD
:1080A4002846FFF7ABFE042829D13C4BC9F83430ED
:1080B4000023C9F82C3089F8303089F83130F1B216
:1080C400484619F0E5FC20B1204A4FF4DB7112F068
:1080D400E0FBDAF800305B0411D5114B1B68032B6D
:1080E4000DDDB9F80020DBF804351349CDE9016250
:1080F4002B4A0092042040F2B71205F0CFFC042E64
:1081040009F13809DDF82C8007F1340704F1500433
:1081140035467FF42DAF0DB0BDE8F08F542E00200E
:10812400502E002000100140882804006828040014
:10813400A8280400512204003D29040038350020F9
:10814400C42B0400ED79020075780200E7280400CE
:10815400C42A040000390020E42B0400E82B0400A6
:10816400EC2B0400F02B0400C82B0400CC2B0400DF
:10817400D02B0400D42B040030380020A82B04009A
:10818400982B0400E62A0400D82B04000D2B0400CD
:10819400B42A0400A42A0400342B0400B82B0400DD
:1081A4005A2B040058340020024B53F82030084660
:1081B400184700BF002D0400024B53F82030084636
:1081C400184700BF102D0400D0F88000003018BFFD
:1081D400012070471FB50446303017F093FA00238E
:1081E400E36794F88430022BA36F18BF6367626F50
:1081F40001A9CDE9012320460023039319F01AFCB9
:10820400A36E616F2046984704B010BD90F8843087
:10821400022B70B5064615D0303017F048FA4FF4EB
:108224007A73A0FB034503FB0155F06FE20BEB0BE4
:1082340000218B4242EA454208BF82422CBF012002
:10824400002070BD0020FCE790F88430022B2DE95B
:10825400F74F0446D0F88C5000F1300647D0806FB9
:10826400471B304617F023FA4FF47A73A0FB03AB95
:1082740003FB01BB4FEADA3343EA4B434FEAE779A6
:1082840003FB09F14FEADB3207FB0212A3FB0701F0
:108294001144E26F002319F08CFC28446067A36E3C
:1082A400616F204698471C4B1B685B041CD51B4B15
:1082B4001B68042B18DD1A4B3046D3F8045517F00D
:1082C400F6F94FF47A74A0FB046704FB0177F20B10
:1082D40042EA4742134B019200934FF4A1722B469A
:1082E4001149052005F0DAFB03B0BDE8F08F3046F4
:1082F40017F0DDF94FF47A77A0FB072307FB01336E
:10830400D00B40EA4340DA0BD4F88830A0FB0301D9
:1083140003FB0211BDE700BF542E0020502E0020A5
:1083240000100140EC2C0400E02C0400D0F888304C
:10833400F7B583EAE3750446A5EBE37513B978460C
:10834400FFF778FAE06F4FF47A71EB172A46A0FB37
:10835400010119F0C7FB384D00292B6808BFB0F59F
:108364007A7F06460F4603F4804342D273B1334BFF
:108374001B68032B0ADD324B324AD3F804353249E9
:10838400009204204FF48D7205F088FB2122002313
:10839400C4E90E232B685A0410D5284B1B68032B01
:1083A4000CDD274BA26BD3F804350192274A0092C7
:1083B40025494FF49272042005F070FB20460126F3
:1083C40000F8306F17F076F988B12B685B040ED58E
:1083D4001A4B1B68002B0ADD194B1D4AD3F80435D0
:1083E40019490092304640F22B1205F057FB03B0B6
:1083F400F0BD73B1114B1B68032B0ADD104B154AFA
:10840400D3F804351049009204204FF4907205F01B
:1084140045FBF90341EA5641F0030F4E0F4A801918
:108424004FF000064FF0000346EB010119F05AFB30
:10843400C4E90E01AEE700BF542E0020502E0020E8
:1084440000100140122C0400E02C04005B2C0400FA
:10845400782C0400332C040020A1070040420F00B4
:1084640002460321903007F077BC000030B585B098
:108474000446089D002B41D1C0F88030036F002BC7
:108484003FD11268E367204BC4F8882047F6FF7198
:10849400002A18BF0B46A367636FC4F88C3002230D
:1084A40084F88430194B1B685B0414D5184B1B6883
:1084B400032B10DD174BE16FD3F804350391D4F887
:1084C4008010CDE90121144A0092144940F2492256
:1084D400042005F0E3FA2246022104F1900007F09B
:1084E4003BFC4DB1636F2B60A36F6B60E36F003394
:1084F40018BF01235B42AB6005B030BD5968C0F8BA
:1085040080101B68BDE700BF0080FFFF542E0020D1
:10851400502E002000100140BA2D0400E02C04006D
:1085240030B587B004460A9D002B3AD1C0F880309C
:10853400036F002B38D1E3670023116884F884307B
:108544001A4B626F1B68C4F88C205B04A1EB020217
:10855400A167C4F8882015D5154B1B68032B11DDC2
:10856400144BD3F804350492E26F0392D4F88020BC
:10857400CDE90112104A0092104940F2D1120420B0
:1085840005F08CFA2246002104F1900007F0E4FB88
:108594002DB1636F2B60A36F6B60E36FAB6007B0AB
:1085A40030BD5968C0F880101B68C4E7542E002001
:1085B400502E002000100140E82D0400E02C04009F
:1085C4002DE9F04385B0044617460C9E002B66D176
:1085D400C0F88030036F002B64D13D68E36701234A
:1085E40084F88430201D4FF6FF73B5FBF3F3C3EB1F
:1085F4000343ED1A17F000F8DFF8F080002853D198
:10860400D8F80030590410D5324B1B68032B0CDD0D
:10861400314B3A79D3F804350192304A009230490B
:1086240040F20122042005F039FAD4F88C30C4F861
:1086340088502B44A367D8F800305A041FD5DFF8BC
:108644009490D9F80030032B19DD234DE26FD5F84F
:1086540004350392D4F8802002923A680192214AA8
:1086640000921F494FF40372042005F017FAD8F85A
:1086740000305B0403D5D9F80030032B18DC224604
:10868400012104F1900007F067FB2EB1636F3360A2
:10869400A36F7360E36FB36005B0BDE8F0835A68FD
:1086A400C0F880201B6898E7636FC4F88C30BCE77F
:1086B400A26FD5F804350392626F0292D4F88C202D
:1086C4000192094A0092064940F20F22042005F063
:1086D400E5F9D4E7502E0020001001401C2D0400C1
:1086E400E02C04004E2D0400772D0400542E0020AD
:1086F40090F88430012B03D9022B01D0002070475D
:10870400C36F013B0333F9D8D0F88800003018BF99
:1087140001207047254B1B685B042DE9774804460C
:1087240015460ED5224B1B68032B0ADD214B224A2A
:10873400D3F8043521490092042040F28F1205F049
:10874400ADF9E36E04F1740120469847636F2B6022
:10875400A36F6B6094F88430022B08D1E36F00336D
:1087640018BF01235B42AB6003B0BDE8708894F886
:10877400953003F0FF020BB9AA60F5E794F8953041
:10878400E66F012B01D1AE60EEE704F1300016F084
:108794008EFF4FF47A74A0FB04BC04FB01CC4FEAB7
:1087A400DB3242EA4C42B61AEDE700BF542E0020F9
:1087B400502E002000100140EF240400E02C04009F
:1087C40073B50023D0F8806080F8303004464FF44D
:1087D40000454FF4FA7000214FF47A720023E5FB50
:1087E400060119F07FF9C4E90E0104F1300016F016
:1087F40061FF88B1094B1B685B040DD5084B1B68EE
:10880400002B09DD074B084AD3F8043507490092C9
:108814000120FB2205F042F902B070BD542E002065
:10882400502E002000100140F42B0400E02C040022
:1088340010B50446B0B1836EA3B1C36E93B10A4BB5
:10884400C36219F0CBF870B9084B246404F19000AA
:108854006364074907F04FFA04F13000BDE81040A3
:1088640016F062BF0E2010BD702E04006584020055
:10887400602E040000470000024A4621032012F043
:1088840008B800BFB42E040008B508224FF4A06154
:10889400084805F0FEFC034620B9074805F07AFEB7
:1088A400002008BD054A03CA58609960184605F0BF
:1088B4001FFDF5E7C03A0020E82D0020E43A00202F
:1088C40010B58AB003A902A808F0D0FE18B1174A5F
:1088D4005D2111F0DEFF164B0793164B0893164BE0
:1088E400099304230693029B1448A3F5805301249F
:1088F40004A90493059405F039FDA0B1104805F0CE
:1089040049FE104B1B685B040DD50F4B1B68002BF5
:1089140009DD0E4B0E4AD3F804350E490092204669
:108924006A2205F0BBF80AB010BD00BFB42E0400E3
:108934009D8902007D8802005D890200C03A002002
:10894400D82D0020542E0020502E0020001001406D
:10895400802E04000A2F04000A4B1B685B0407B531
:108964000DD5094B1B68032B09DD084B084AD3F8C6
:108974000435084900920420512205F08FF803B011
:108984005DF804FB542E0020502E002000100140FE
:10899400182F04000A2F0400144B1B685B0413B542
:1089A40014460DD5124B1B68032B09DD114B124ADB
:1089B400D3F80435114900920420362205F06EF8EC
:1089C400012C05D1784602B0BDE81040FEF732BF55
:1089D400022CF7D0032C07D1094A3F21042002B00E
:1089E400BDE8104011F055BF02B010BD542E002058
:1089F400502E0020001001402F2F04000A2F0400E5
:108A0400B42E040008B5064B1860FFF73DFF28B1EB
:108A1400044AA221BDE8084011F03BBF08BD00BFD5
:108A2400E43A0020B42E040013B5094C0948082385
:108A34000193224601AB4FF4A06105F0F3FB2246FB
:108A440010B10023C4E90033106802B010BD00BFA8
:108A5400E43A0020C03A0020FFF732BF044B00F193
:108A6400100250F8041B43F8041B9042F9D17047DC
:108A7400EC3A0020094A0A4B03CA596018603C3298
:108A840003CADA79D960042161F307129860DA71B4
:108A94001A7A022161F387121A727047600000107B
:108AA400EC3A002000487047EC3A002000220649C6
:108AB40013460132202A4B804B6001F8083BF8D161
:108AC400024A1360704700BFFC3A0020FC3B0020C0
:108AD4000C4BF0B51B680C4C064620227BB1013BC5
:108AE40014F8330050B104EBC3056F88B74202D1C8
:108AF4006D688D4202D0013AF0D11046F0BD1F23BB
:108B0400EEE700BFFC3B0020FC3A0020084A30B5E9
:108B14001368084C04EBC3056960012104F83310A1
:108B24000B44202B08BF00236880136030BD00BFB6
:108B3400FC3B0020FC3A0020C0F30C038B420844A9
:108B440038BFA0F50050C01A704700000D4B0E4A04
:108B5400F0B51E6800218E4212D0156800230AE089
:108B640052F8044C04EBC30714F83340844201D197
:108B74007868F0BD01339D42F2D101310832EAE751
:108B84000020F6E7003C0020083C002000B58DB032
:108B940040B99A1C06D0012201A88DF80420029342
:108BA40001F064FA034B186803F0B6FE0DB05DF8EB
:108BB40004FB00BF243C0020037810B5044613B91D
:108BC4007846FEF737FEE188A069FFF7B5FFE16953
:108BD4000A060B0A101843F1000110BDF8B503781A
:108BE40006460D4613B97846FEF724FE0F4AB18AAD
:108BF400002314461801875A8F4213D100231352BD
:108C04000B4A1368581C03F007031B011060E15260
:108C140005B175781C443046A570FFF7CDFFC4E953
:108C24000201F8BD0133082BE4D1E9E7283C002018
:108C3400A83C0020037810B5044613B97846FEF723
:108C4400F9FD607A431C01209840013810BD2DE9DC
:108C5400F0410E468EB015461C46074610B97846BC
:108C6400FEF7E8FD16B97846FEF7E4FD636AA278DC
:108C740002330593E378A2F10800002B14BF01210D
:108C840002210DF1040842424241434604F10C0022
:108C940003F089FFA3788DF83430237BADF820509E
:108CA400022B16FA85F5CDE906870B960C950FD1A4
:108CB400236913B97846FEF7BDFD23690993102390
:108CC40005A8ADF8283003F06AFF0EB0BDE8F081C6
:108CD4000023F5E710B50F4B0446006F984201D00E
:108CE40008F0DDFB04F1300003F08EF894F84C300A
:108CF400022B03D104F1540003F086F820467422B9
:108D0400002119F08BF8002084F84C00BDE81040D5
:108D140002F0ACB9C43C002010B590F84C30012BE3
:108D24008CB0044602D07846FEF784FD01238DF80A
:108D3400043001A8A36D029301F098F92046FFF7CF
:108D4400C9FF0CB010BD0000B2F5C07F2DE9F84F8B
:108D540083460F46904602D97846FEF76BFD7B1E8C
:108D64005D425D412D4B74229A4602FB053696F80E
:108D74004C10002940D1B146002D38D1284A1A6739
:108D8400742404FB05A4236F002B38D0DE46BEE810
:108D94000F00B446ACE80F00BEE80F00ACE80F00CB
:108DA4009EE80F00012F8CE80F004FF000032365AD
:108DB400A4F84E8028D11B49A4F85630097D84F8C4
:108DC400543084F85510DBF82820A4F85C306FF098
:108DD4000103A362144BA265A3632664012002F07D
:108DE40045F9742303FB05A585F84C7009E040465A
:108DF40008F053FB3067C3E70135042DB5D14FF0BC
:108E040000094846BDE8F88F6FF0010284F86C3021
:108E1400064BE365A2626666054BDDE7443E00202F
:108E2400C43C0020AC3C00207B950200E599020084
:108E3400E194020010B50446808A02F0BBFB0128CD
:108E44001CD1237BD3B194F91620002A18DBE27DD0
:108E54005AB1022B12D094F90330002B10DBA37803
:108E6400002B0CBF0020072010BDE2780AB9012BAB
:108E740006D1237833B9A378042BF2E71020F3E763
:108E84000720F1E70020EFE71FB500220B468DF81D
:108E94000F20E0B10230086018460DF10F0103F015
:108EA40080FE9DF80F3093B10B4B1B685B070ED50A
:108EB4000A4B1B68032B0ADD094B0A4AD3F8043515
:108EC40009490092042040F2374204F0E7FD9DF87E
:108ED4000F0005B05DF804FB542E0020502E002036
:108EE40000100140D52F0400C92F040070B5D0E94B
:108EF40006128CB00446808A05F04EFD0546A0B1EA
:108F04002C22002101A8A68AE46918F087FF0F2308
:108F14008DF804304FF0000364F3000301A8ADF8AA
:108F240008608DF80A3001F0A1F828460CB070BD35
:108F34002DE9F04F99461378D2F81880F3B007461C
:108F44008A46144623B1D1884046FFF7F5FD906167
:108F5400E378A278002BA2F1080003AD14BF01212D
:108F6400022104F10C0642422B464241304603F0F2
:108F74001AFEA278C4F81880CDE908571FFA8AF5BA
:108F8400AB1A9BB21F44ADF82830E3780E974FF02C
:108F9400000812AF0D978DF83C20ADF83080002BFF
:108FA4005BD04FF0100B04F1240A237BC4F8248017
:108FB400022B02BF2369ADF830B00B93206A2179EC
:108FC40052460DF0FBFD606AE0B9237B022B05D10C
:108FD4003146E0890DF0D6FE0028E6D12E4B1B6801
:108FE4005B0737D52D4B1B68052B33DD2C4B2D4AE6
:108FF400D3F804352C490092062040F20E7204F096
:109004004DFD27E007A9FFF73FFF0028D6D02046F3
:10901400FFF76CFFF0B9A2780B908DF81C0096E86E
:109024000300A38AADF82A30AD1A0CAB01228DF8E7
:10903400282083E80300A37D8DF84030236A0E9333
:1090440007A8636A0897ADF824500F93CDF84490AD
:1090540001F00CF873B0BDE8F08F227B012ABDD17A
:10906400A046E089B4F814A048F8243F41460DF026
:10907400E7FD07A9606AFFF707FF0028C7D1606210
:10908400414650460DF0DCFD07A9606AFFF7FCFE7F
:109094000028A3D0BBE700BF542E0020502E002090
:1090A40000100140A6300400C92F0400C37D0A78D3
:1090B40030B56BB3C37822F07F0203F07F031A4309
:1090C4000A700B78027803F07F0343EAC2130B7033
:1090D4000378E3B18378083B5A425A414B7803F052
:1090E4007F0343EAC2134B70C58823F07F03C5F3A3
:1090F400861423434B70047AC4F3C10242EA850206
:109104008A70437A03F01F0343EA4413CB7030BDE3
:10911400C47822F0400343EA8413DBB20B70027973
:1091240023F03F0302F03F0213430B70C9E72DE91C
:10913400F04F044689B00F4609B100230B6004F1D7
:109144000C0394F8545001934FF001084FF0000BB6
:10915400627AAA4203D2002009B0BDE8F08F216DE3
:1091640008FA05F30B4259D1E37D2572002B0CBF9D
:109174000C260826954206FB05FA237808BFB4F8A6
:109184004E608DF818B008BFA6EB0A06002B14BF7A
:109194004FF004094FF0010906EB09030493019B06
:1091A4000293A36A039302A8E36A059303F092FE71
:1091B4000028D1D1079B994445B994F857302BB96D
:1091C400A36984F85780C3F30C03E380E37D8BB970
:1091D40094F8563073B915B17846FEF72BFBB4F802
:1091E4004E10A2788A1A216F23460846FFF72FFDF6
:1091F40084F8568007992046FFF758FF216F3246BE
:109204005144484618F0E1FD02A803F085FE17B169
:109214003B6801333B606B1C84F854300135EDB27C
:1092240096E7000038B590F84C30012B044602D084
:109234007846FEF7FFFA02F027FE237B094A012B4A
:1092440005BFD2E90315A37DD16805FB03110122F3
:1092540084F84820014404F13000BDE8384002F0AD
:10926400EABD00BFAC3C0020F0B5C37D1646827851
:10927400002B324414BF4FF480734FF4C0739342F5
:10928400C7B00F466BD3394B002493F84C10012917
:1092940007D19D8A818A8D4203D1DD89C1898D429E
:1092A4005FD00134042C03F17403EED10121FFF7E4
:1092B4004BFD054600283BD032463946006F18F076
:1092C40084FD002304A928460493FFF730FF30F0FF
:1092D400040406463ED1049B13B12846FFF7A2FFBF
:1092E400234B1B6813F004033DD0224B1B68032B54
:1092F4001EDDB5F84E00204B802805AA1F6828BF44
:10930400802000231646834202F1020213D1002278
:1093140006F81320194B1A4AD3F804350192194A56
:109324000092029640F271521749042004F0B6FBF1
:10933400204647B0F0BD296FC95C4FEA111C01F00B
:109344000F0117F80CC002F802CC795C02F8011C7A
:109354000133D8E72846FFF7BDFC3446E8E7092483
:10936400E6E70824E4E71C46E2E700BF443E0020A9
:10937400542E0020502E0020582E002000100140B2
:109384007B2F040099260400C92F04002DE9F04125
:10939400837890461344C27D002A14BF0B220F2207
:1093A400934286B004460F462FD8024612F80C1B8F
:1093B4000092002914BF042501252B440293836ADB
:1093C4000193C36A0393684600238DF8103003F0B9
:1093D40081FD064670B9059920460D44FFF766FEE7
:1093E400E37D5BB142463946284618F0EEFC6846F8
:1093F40003F092FD304606B0BDE8F08123464246B4
:1094040029463846FFF723FCF1E70926F2E7000076
:1094140070B50D4690B0044610B97846FEF70AFAC6
:1094240094F84C30022B06D163789A072ED400218D
:109434002046FFF7D3FB2C22002105A8A66D18F0C7
:10944400EDFC102305A88DF8143006968DF81C50F9
:1094540000F00CFE2046FFF73DFC114B1B685B0738
:1094640012D5104B1B68032B0EDD0F4B0F49D3F89D
:109474000435029594F84C2001920D4A0092042080
:1094840040F22E2204F00AFB10B070BD0022E188E5
:10949400A08A17F03FFE94F84C30022BCBD1C6E7DC
:1094A400542E0020502E002000100140C92F04002B
:1094B400582F040070B5084C0646002594F84C302B
:1094C400022B03D131462046FFF7A2FF0135042DBC
:1094D40004F17404F2D170BD443E0020084600211A
:1094E400FFF796BF90F855204AB1013A074B80F830
:1094F4005520002280F85420186803F00DBA017B2F
:10950400012901D1FFF784BFFFF706BC243C0020EA
:1095140038B5094C002594F84C30012B06D194F849
:109524004830022B02D12046FFF7DCFF0135042D21
:1095340004F17404EFD138BD443E002008B503782B
:10954400192B0FD01A2B08D0182B13D10820FFF792
:10955400B1FFBDE80840FFF7DBBF0379012B09D158
:109564000620F4E70379012B04D10720BDE8084065
:10957400FFF7A0BF08BD91F84C30012B10B50C4685
:1095840002D07846FEF756F907F024FA30B10020ED
:1095940007F0C0F9022384F8483010BD2046BDE826
:1095A4001040FFF79FBF00002DE9F04106468EB042
:1095B40010460F4615469846FFF798FC002853D1ED
:1095C400EC78002C40F08180062F4DD137787378E9
:1095D400BA0102F4FE5242EA93024C4B1C4693F841
:1095E4004C10012928D1B3F814C0E9898C4523D142
:1095F400D988914220D1B3F85CC0A98ABCF1000F8C
:1096040001D08C4518D117F0800FD6F802204FF006
:1096140074032CD003FB0043A3F85C1013BA742228
:1096240002FB0044256D1D432565002B3AD103211F
:109634002046FFF7EDFE17E00130042803F1740320
:10964400CDD1334B1B685B070ED5324B1B68012B06
:109654000ADD314B314AD3F80435314900920220F6
:1096640040F2846204F01AFA0EB0BDE8F08103FB04
:109674000043DD898D42D1D0254B1B685A07F3D5B1
:10968400244B1B68012BEFDD234B264AD3F804350A
:109694000092CDE9015140F28C622149022004F08C
:1096A400FDF9E1E72046FFF7C5FA854203D12046DC
:1096B400FFF732FBD8E7002184F854102046FFF767
:1096C40036FD2046FFF7AEFDCEE72046FFF73EFA13
:1096D40003460028C8D005F10C012A6A0B9203C97D
:1096E400AA8AADF8222009AA82E80300AA7D8DF88F
:1096F40030202A788DF82020EA6A8DF81440CDE9CC
:1097040006670D92414605A89847ADE7443E002000
:10971400542E0020502E002000100140E82F040099
:10972400C92F04001630040010B54FF4E87200216C
:10973400154818F073FB002405F09EF9134B1448E8
:109744001C602146802218F069FB124B1249134A0F
:1097540013489C75C3E9001212494CF25032C3E914
:1097640002211A6140F604029A8203F0B7F80E4B04
:1097740018600E4B0E481C6005F062FA0D48BDE8F7
:10978400104002F0C3B800BF443E0020A83C0020B3
:10979400283C0020AC3C002080969800F049020050
:1097A400A59F020020A10700243C0020003C0020CB
:1097B400918B0200F82D002005F0E6B830B5044680
:1097C4008DB0002873D00369002B70D0C369002BBF
:1097D4006DD08569002D6AD05A788DF804201A78E6
:1097E4000993838A82F001020B2B8DF80320027BFC
:1097F40009D90121022A8DF8001001D12D4A927D48
:109804005AB904220AE0C17A0029F2D1012A0CBF14
:10981400012200228DF8002042D1082213448DF841
:1098240002200B330C22B3FBF2F3013B8DF8093019
:1098340000238DF8083094E8030000238DF81730D6
:1098440003AB83E803002389ADF81430A37A8DF8C1
:109854001630236A0A932046DF2308950B930DF0F4
:109864005BFC28B12378012B14BFFF2320230B9327
:10987400684617F00DFC18B10B9B43F020030B93C3
:1098840068462569A48AFFF7D5FA38B99DF80030EF
:109894002246294668463BB1FFF7E6FC0DB030BDD1
:1098A40004238DF80230C6E7FFF770FDF6E70E20BB
:1098B400F4E700BFAC3C0020F0B503468DB00F4682
:1098C400002843D04568002D40D08669002E3DD045
:1098D400846802788DF803200B2C4FF00002099263
:1098E40094BF027B012202F0010100208DF80010D8
:1098F4008DF8020032B1E11DC90801398DF8091053
:109904008DF8080003F1100103C901228DF8172016
:1099140003AA82E80300DA89ADF814201A7F1B6ACF
:10992400089668468DF81620CDE90A73FFF782FA87
:1099340038B99DF800302246294668461BB1FFF726
:1099440093FC0DB0F0BDFFF721FDFAE70E20F8E718
:1099540030B5047B012C8DB04FF000033CD1C2889C
:10996400CDF8063095008DF801500D0E8DF802509B
:109974000D0C49BAADF8041041788DF803508D1ED2
:1099840069426941C2F3861242EAC1128DF80A3073
:1099940008938DF80C308DF81830C3898DF80020A9
:1099A400ADF81A300622C36A05920B93828A837D2E
:1099B400ADF81E20026A8DF81C40CDF810D0099233
:1099C4000BB1064B5B7D8DF828306FF0010103A8C5
:1099D400FFF772FF0DB030BD1846FBE7AC3C00202A
:1099E40091F84C30022B10B50C4602D07846FDF7A6
:1099F40021FF022384F86C3094F84C30022B06D1FA
:109A0400216D2046FFF7A4FF08B984F86C0010BD4F
:109A14002DE9F04F0D469FB090461F46044600289E
:109A240000F0D981002A00F0D68121B909263046F8
:109A34001FB0BDE8F08F134609AE02F1180C186888
:109A44005968324603C2083363451646F7D1237872
:109A5400002059B2CA0F81428DF81820B4BF0422E5
:109A6400012295428DF81900E0D39DF82F60EEB1E4
:109A740003F07F0381428DF81B308DF81A002EDA33
:109A84006278A378920102F4FE5242EA9302ADF89E
:109A94001E20DB00E27803F0180343EA521302F0BD
:109AA4001F028DF820308DF8212018E0C3F38010B8
:109AB400002903F03F038DF81B008DF81C3008DAF1
:109AC40094F90130002BB4BF082304238DF81A3015
:109AD400D6E704231A4495428DF81A30A6D30023FE
:109AE4000F933B78032B02D97846FDF7A3FE3A780F
:109AF400BA4B06A853F822301193FFF79BF9064698
:109B0400002894D1404606F06BFFD8E90312B8F858
:109B1400080004F07DFF002889D106A817F0B8FAE0
:109B240028B19DF8193043F002038DF81930002351
:109B340004A9B8F80200CDE904330DF023F938B1D3
:109B44009DF8193043F001038DF81930059B0A93F1
:109B54009DF81930002B3FF46AAF9DF81820002AB5
:109B640000F01D81DFF890B24FF00009D84698F854
:109B74004CA0BAF1020F41D009F10109B9F1040F67
:109B840008F17408F3D19DF8183013B97846FDF73D
:109B940051FE06A8FFF710F8914ABDF82CE04FF0EB
:109BA400000A9446138873455CD1D2E90289494579
:109BB40008BF404556D106AD0FCD12AC0FC40FCD32
:109BC4000FC495E80F000CEB0A1A84E80F009AF80A
:109BD40002308DF84930002B3FF429AF12A8FFF76B
:109BE40029F8014612A8FFF7B3FE9AF80230D90704
:109BF4007FF51DAF06A8FFF779F918E7B8F8140048
:109C0400BDF82C108842B7D106A8FEF7D5FF02464E
:109C14000B464046CDE90223FEF7CEFFDDE90223E1
:109C24008B4208BF8242A7D206F0D4FE00283FF43C
:109C3400FEAE6C4B1B6858077FF5F9AE6A4B1B6888
:109C4400012B7FF7F4AE694BBDF81E20D3F8043521
:109C540067490192674A009250464FF4577203F0E5
:109C64001DFFE4E60AF1010ABAF1080F02F110023D
:109C740098D100239BF84C20022A1AD1BBF8142057
:109C8400724516D15C4A4FF0740B06A80BFB032BEC
:109C9400FEF792FF804658468946FEF78DFF4945F8
:109CA40008BF404580F0AC8005215846FFF7B0FB63
:109CB40004E00133042B0BF1740BDBD106F08AFEB4
:109CC40010B10520FFF7F6FB9DF82F209DF82130F9
:109CD400002A14BF4FF008084FF00C0803FB088853
:109CE40014BF4FF480734FF4C073984515D93D4B9E
:109CF4001B685A077FF59BAE3B4B1B68002B7FF715
:109D040096AE3A4B3D4AD3F8043539490092CDF822
:109D1400048040F292320120A1E7BDF81E100C9895
:109D2400FEF70AFF0D9A0146BDF82C0004F070FE00
:109D340000287FF47CAE4246022106A8FFF704F80F
:109D4400834600285CD106F045FE10B17846FDF745
:109D540071FD002106A8FFF7FBFD2C22002112A8AB
:109D640018F05CF810238DF8483012A802238DF8FF
:109D7400503000F07BF95AE6002B08BF4FF00C0A74
:109D8400D14500F0AA80042158460292FFF740FB17
:109D940000264CE63B465A46FFF7CAF8EBE0990723
:109DA40005D5012306AAE9B2204617F0D7F89DF895
:109DB4001930DA077FF53BAE9DF82F30601C691E21
:109DC40023B13B4606AAFFF7EFFB30E63B4606AA63
:109DD400FFF7AEF82BE60E2629E600BF482F040055
:109DE400283C0020542E0020502E0020001001405A
:109DF400C92F040057300400443E00208230040080
:109E0400614B1B685B0711D5604B1B68032B0DDD91
:109E14005F4B9DF82020D3F8043501925D4A0092EF
:109E24005D494FF47172042003F038FE06F0D2FD50
:109E340088BB9BF84C30022B02D07846FDF7FAFC25
:109E4400DFF85881D8F8009002F01EF809EB000101
:109E54000BF1300001F0EFFF9BF80C30012B1AD10D
:109E64009BF86C30BBB99BF84C30022B02D078467F
:109E7400FDF7E0FCD8E9013298F8151002FB01382F
:109E840002F002F800EB08010BF1540001F0D3FFDB
:109E940001238BF86C309DF82000DBF85030012151
:109EA400814013EA01027FF4C2AD0B43CBF850307A
:109EB4009DF82F309BF80910002B14BF4FF00808B1
:109EC4004FF00C088142A5F1040908FB00F87FF467
:109ED40053AF08EB0903ABF84E30DBF818200C9BAA
:109EE4009A420BD20DF1240EBEE80F000BF10C0CBC
:109EF400ACE80F009EE803008CE80300DBF8700078
:109F04004A46211D404417F060FF9DF819309B0715
:109F140005D5012306AAE9B2204617F01FF85846D2
:109F2400DBF85040FEF786FE84427FF480AD06F0F5
:109F340051FD20B9DBF850105846FFF709FD9DF894
:109F440019309C0706D50122BDF81E10BDF82C005F
:109F540017F0E0F89BF80130D8070CD59BF81730C0
:109F6400DBF87000BBF84E10002B3FF413AF3B46F8
:109F74005A46FFF719FB58460121FEF72FFE5846B3
:109F8400FEF7A8FE04E700BF542E0020502E002048
:109F94000010014096300400C92F0400AC3C00209E
:109FA400F7B5184C00262546374695F84C30012B5A
:109FB4000BD101A928460197FFF7B9F8042801D06D
:109FC400019B13B12846FFF72DF90136042E05F144
:109FD4007405EAD1002594F84C30022B0AD194F888
:109FE4006C30022B06D1216D2046FFF7B1FC08B975
:109FF40084F86C000135042D04F17404EBD10120C4
:10A0040003B0F0BD443E00202DE9F84388460746DE
:10A0140010B3144E3468032C1CD8002500F1040935
:10A0240045450AD1104B43F8347003EBC4030134A3
:10A034005D6034600020BDE8F88359F835305BB1C9
:10A0440017F83500030609D450B1FEF77FFD38B97F
:10A054000135E5E70420EEE70E20ECE70B20EAE704
:10A064000F20E8E7003C0020043C0020F8B5074638
:10A0740010B97846FDF7DEFB0F4E346894B10F4DEE
:10A0840001232B7023791BB954F8043C38469847B4
:10A094002468002CF6D12B78022B03D13168064CAE
:10A0A40009B92970F8BD0B790E6813B1204603F085
:10A0B4007BFC3146F4E700BF184000201440002028
:10A0C40010B5044610B97846FDF7B4FB002323729B
:10A0D400211D0248BDE8104003F045BC1840002093
:10A0E40010B5044610B97846FDF7A4FB074A137867
:10A0F400013B012B04D8022313700123237210BDEA
:10A10400211D0348BDE8104003F04EBC144000205C
:10A11400184000200B888268D25A073222F00302CA
:10A12400134402889BB2043A934288BF00230B80F5
:10A13400704713B58368C91AADF806100DF106010E
:10A14400FFF7E8FFBDF806308068184402B010BD80
:10A1540070B5064615460C4611B97846FDF76AFBFC
:10A1640016B97846FDF766FBB4F1005F24D94FF0C9
:10A174008053D3F80C3103F50023B4EB832F1ED2A4
:10A184006B1E2344B3F1005F26D94FF08052D2F8FE
:10A194000C2102F50022B3EB822F20D2042D02D829
:10A1A4007846FDF747FB35800023043D7380B38078
:10A1B400B4602580A37070BDB4F5000F08D94FF0CA
:10A1C4008053D3F80C3103F50053B4EB832FD7D36A
:10A1D4007846FDF72FFBD3E7B3F5000F08D94FF00E
:10A1E4008052D2F80C2102F50052B3EB822FD5D362
:10A1F4007846FDF71FFBD1E738B5044610B9784619
:10A20400FDF718FB6288A36813449B78012B02D1E5
:10A214007846FDF70FFBEFF3108572B6A268A188AC
:10A2240011448B78032B0AD12046FFF782FFA368E1
:10A23400C31A63800023837005B962B638BD002356
:10A2440093706380A380F7E7F8B50E46154604467D
:10A2540010B97846FDF7EEFA16B97846FDF7EAFA32
:10A264006288A36813449B78012B02D17846FDF7DA
:10A27400E1FA002D37D02388043B9BB29D4232D8AB
:10A28400EFF3108772B66188A388EA1D22F00302F7
:10A29400994292B204D25B1A9A4210DD042016E06D
:10A2A40018D92088401A904209D29A42F6D8032835
:10A2B40081BFA3685B1804229A70002363806288BC
:10A2C400A1688B188D5201229A700020336007B95F
:10A2D40062B6F8BDA26813449B78002BDED193705C
:10A2E4006380A380EBE70920F3E7F8B50D46164633
:10A2F400044610B97846FDF79DFA15B97846FDF77E
:10A3040099FAAB78012B02D07846FDF793FA2B88A3
:10A31400B34202D27846FDF78DFA16B97846FDF7B6
:10A3240089FAEFF3108772B60223AB70E1182E801E
:10A334002046FFF7EFFE6288A38893421FBFA368FD
:10A344009B1800229A7007B962B6F8BD70B50D4625
:10A35400044610B97846FDF76DFA15B97846FDF74D
:10A3640069FAEFF3108672B6A288A36813449A7848
:10A37400042A06D1211D2046FFF7CCFEA288A3683B
:10A3840013449A78022A05D0032A08D0052006B976
:10A3940062B670BD03229A702B600020F7E77846FE
:10A3A400FDF748FAF9E738B5044610B97846FDF7E1
:10A3B40041FAEFF3108572B6A088A16801448B7846
:10A3C400042B03D12046FFF7B4FE01468878831E90
:10A3D4005842584105B962B638BD38B5044610B97B
:10A3E4007846FDF727FAEFF3108572B6A088A168C6
:10A3F40001448878C31E012B05D9831E5842584155
:10A4040005B962B638BD2046FFF793FE0146F0E772
:10A41400F8B50D46044610B97846FDF70BFA15B9A0
:10A424007846FDF707FAEFF3108672B6AB78012B86
:10A4340019D0032B22D1A288A36813449D4202D0D1
:10A444007846FDF7F7F90027AF70211D2046FFF786
:10A4540061FEA288A36813449B78042B00D1A780D3
:10A4640006B962B6F8BD6288A36813449D4202D05F
:10A474007846FDF7DFF90023AB70F1E77846FDF786
:10A48400D9F9EDE710B5EFF3108472B682888168CC
:10A4940011448B78042B02D1FFF74BFE01468878D8
:10A4A400B0FA80F0400904B962B610BD10B5054891
:10A4B40084681C22002117F0B1FC2046BDE810403E
:10A4C40004F090B81C40002070B5194CE36813B92F
:10A4D4007846FDF7AFF9237E13B17846FDF7AAF964
:10A4E4006368092B02D97846FDF7A4F9114D0026BB
:10A4F400636855F823309847022811D003280DD0FB
:10A50400012810D163680133092B636002D97846AE
:10A51400FDF790F9237E002BEAD004E06660F9E7AA
:10A52400237E0BB1207070BDBDE87040FFF7BEBF45
:10A534001C400020D0300400038810B5044613B931
:10A544007846FDF777F92088074B04EB800030EA62
:10A55400030203D06288B2F5FE4F04D11C4004F517
:10A5640080542078204410BD00F0FFFF70B50446ED
:10A574000E4647F6FE65FFF7DFFFB04207D284427E
:10A5840005D24388013B9BB2AB42F4D870BD002096
:10A59400FCE700000A78094B032A04BF002119765E
:10A5A4001978012903D11B7E3BB9FFF78DBF02291E
:10A5B40003D1032A01D1FFF779BF70471C40002063
:10A5C4001FB50A4B02221B688DF800200193084A2C
:10A5D4004FF4805369460120029300F02BFFB0FA38
:10A5E40080F0400905B05DF804FB00BF3C4000204A
:10A5F400384000201FB50123CDE902210190054A0E
:10A604008DF800306946184600F014FF05B05DF877
:10A6140004FB00BF3840002038B5104CE3681878BC
:10A624004FF6FF7203F58051184404F0CDFA88B157
:10A63400E36819780B4498420CD0657E0849094BAD
:10A644000422002D08BF1946FFF7D4FF20B90120CA
:10A65400207638BD0120FCE70020FAE71C400020EA
:10A66400283304002433040070B50C4D0C4EE96803
:10A6740030680C7804302246FFF7BCFF58B93368C1
:10A6840004F0FC0404341C44EB686C611A78134431
:10A694002B61012070BD0020FCE700BF1C4000209E
:10A6A4003C40002008B5054B054918680422FFF713
:10A6B400A1FFB0FA80F0400908BD00BF3C40002073
:10A6C40028400020074B10B51968074C40F6FC726F
:10A6D4000431E068FFF78EFF10B90120207610BD29
:10A6E4000020FCE73C4000201C400020264A2DE9C5
:10A6F400F047D5682B796879591E8842174603D1EB
:10A7040001205076BDE8F08705F580521B1A1478B5
:10A7140014441E4A116805EB0335638811F8046F6D
:10A72400013B0E449BB247F6FE618B42904604D92E
:10A7340020462946FFF71AFF0446DFF854A04FF0DD
:10A7440001092CB9B4FA84F464097C760120D9E7B0
:10A75400D8F800106288304601F5805104F034FACC
:10A7640006460028EED004225146204687F8189069
:10A77400FFF740FF28B920462946FFF7F7FE0446B5
:10A78400DFE70020BEE700BF1C4000203C40002063
:10A794002033040010B50E4CE3681878002203F54A
:10A7A4008051184404F010FA70B9E26813795179B1
:10A7B4005B1A03F57F2303F6FF731B0306D002F530
:10A7C4008052E260032010BD0120FCE70220FAE77A
:10A7D4001C40002038B50E4DEB6818795A79801A60
:10A7E40000F57F2000F6FF7004030AD1094B0A49E3
:10A7F40018680422FFF7FEFE40B901232B760220DD
:10A8040038BD03F58053EB600320F9E72046F7E7F2
:10A814001C4000203C400020404000201FB50A4B53
:10A824000222DB688DF800200193084A4FF480531C
:10A8340069460120029300F0FDFDB0FA80F0400962
:10A8440005B05DF804FB00BF1C4000203840002028
:10A854002DE9F74F334C236913B97846FCF7EAFF27
:10A86400636913B97846FCF7E5FFDFF8BCA047F647
:10A87400FE6B636903EA0A09A9EB0309D4E9033609
:10A8840093F804805A79A8EB020803EB083873881C
:10A89400013B9BB25B4509F5805905D930464146D9
:10A8A400FFF764FE064668B135460027454513D3D5
:10A8B40027BB012335B1698847F6FF72914201D065
:10A8C400002BD6D001202AE028460192FFF734FE5F
:10A8D400019A05461746E9E72A8807EB8202914563
:10A8E40009D986EA050313EA0A0F04D16B88013BF0
:10A8F4009BB25B45E8D90FB90123DCE73A46314600
:10A904006069FFF777FE48B963691F44676115B949
:10A914007846FCF78FFF25610023CBE7002003B0C6
:10A92400BDE8F08F1C40002000F0FFFF4FF0102323
:10A9340010B55A6901321ED05A69E2B15B69A3F5B8
:10A944008053A3F58053164A196813604B1E0333D2
:10A9540024D8C1F30B030BBB124A1348D160012165
:10A96400117012491383936001330A2B09D178467D
:10A97400FCF760FF0AE04FF08052516913694B43C2
:10A98400DFE751F823408442EED1536001200849A7
:10A9940000F040FDFFF798FD012010BD0020FCE70A
:10A9A4003C4000201C40002021A80200D0300400BC
:10A9B40099A5020010B5044610B97846FCF73AFF91
:10A9C4000C4B187890B1E268D8685179A2EB013346
:10A9D40098420CD313795B1A03F57F2303F6FF73B4
:10A9E40002EB033398428CBF0020012010BD0020ED
:10A9F400FCE700BF1C400020024B1878003018BF51
:10AA0400012070471C40002038B50E4C23780546C1
:10AA140013B17846FCF70EFF2B78032B02D078464F
:10AA2400FCF708FFEB68E360012000230649A560FA
:10AA340063602070238300F0EDFCBDE83840FFF72D
:10AA440043BD00BF1C40002099A50200014B1868BB
:10AA5400704700BF3C40002010B5044610B978464A
:10AA6400FCF7E8FE63681BB123680BB1A36813B954
:10AA74007846FCF7DFFEA3685A1E1A4202D07846D5
:10AA8400FCF7D8FE0023C4E9033310BD70B50E46AD
:10AA94000446F0B18368F3B1EFF3108572B6D0E9E0
:10AAA4000331994203D105B962B605250FE04EB1D1
:10AAB4008368013B0B40D0E90012304602FB0311CE
:10AAC40017F083F923690133236135B962B6284647
:10AAD40070BD0E25FBE70925F9E70025F7E700001F
:10AAE400024AD2F80034002BFBD0704700E001404A
:10AAF400C0F30B0310B5E3B9E9B1104C0223C4F859
:10AB04000435FFF7EDFF01F6FF7121F47F6121F0B9
:10AB14000F010144884205D10020C4F80405FFF761
:10AB2400DFFF10BDC4F80805FFF7DAFF00F5805019
:10AB3400F0E71020F5E70920F3E700BF00E001404B
:10AB440038B540EA010414F003041CD1EAB19507B6
:10AB54001BD10F4B95080122C3F80425FFF7C0FF52
:10AB6400AC4206D10A4B0020C3F80405FFF7B8FF36
:10AB740038BD51F824305A1C03D040F82430FFF774
:10AB8400AFFF0134ECE71020F2E70920F0E700BF43
:10AB940000E001404388012B05D0022B01D1043091
:10ABA40008600120704704304860FAE708B50822BD
:10ABB4000221094803F06DFB20B90848BDE80840AC
:10ABC40003F0E8BC064A9168127B02724160BDE85A
:10ABD400084003F08DBB00BF4C400020142E002021
:10ABE4009840002010B5044610B97846FCF722FEC0
:10ABF4002346BDE81040184700B50A4B1A7B9B68F2
:10AC04008DB0012A08BF03F1FF330493039002239C
:10AC140001A88DF808208DF80430FFF727FA0DB04D
:10AC24005DF804FB9840002038B50E4D2B78C3B96D
:10AC34000D4B5C6804F50054B4F1807F11D80422F4
:10AC440001210A4803F025FB20B90948BDE8384032
:10AC540003F0A0BC012344602B70BDE8384003F02E
:10AC640047BB38BDAC400020984000204C40002039
:10AC7400042E002010B501210C4803F04FFB80B9CD
:10AC840002210A4803F04AFB044650B90146142243
:10AC9400074817F0C3F8074B1C70BDE81040FFF7D6
:10ACA400C3BF054803F076FCF7E700BF4C40002023
:10ACB4009840002070400020342E002030B50D460E
:10ACC4008DB07AB94B88012B0AD1124C227812B973
:10ACD4007846FCF7AFFD104B6A685A600023237076
:10ACE4000DB030BD032A02D07846FCF7A3FD2C2218
:10ACF400002101A817F092F811238DF80430074BB6
:10AD04000395DA681B69059201A80693FFF7AEF96B
:10AD1400E6E700BFAC400020984000204C400020F3
:10AD240013B501F06BFD00216B46124A1248134C17
:10AD3400CDE9001103F000FA009B0BB1019A6AB946
:10AD440000232360A3602373FFF730FF236863604D
:10AD5400FFF76AFF01F092FD02B010BD1968A1600F
:10AD640019792173934202D909B92160EEE7136876
:10AD74002360EBE799AB02004C4000209840002090
:10AD840008B503F055FCA0F5805008BD7FB500213F
:10AD94001822684617F042F8FFF7F2FF01230090EB
:10ADA40001936946054B0648039303F0DFFA10B19B
:10ADB400044803F0EFFB07B05DF804FBC1AC0200EC
:10ADC4004C400020242E002008B5142200210A48FB
:10ADD40017F024F801F058F8084B094A09499A6019
:10ADE40000225860C3E903125A61074B1A70BDE888
:10ADF4000840FFF7CBBF00BF9840002074400020FC
:10AE0400FDAE020000879303AD40002010B5074C4F
:10AE140023784BB90648074B036000F077FD0648DA
:10AE240000F0D0FF0123237010BD00BF4840002074
:10AE34008C400020D9AF02007440002010B501F00E
:10AE4400DDFC104A117B1346C9B9917BB9B9118A4B
:10AE540041F28262914202D80B4A12787AB10122FD
:10AE64001A739A68002401321C829A60FFF79EFECE
:10AE74002046FFF7C1FE01F001FD204610BD082465
:10AE8400F9E700BF98400020AD40002010B501F064
:10AE9400B5FC174A547B1346BCB1917B21BB118A84
:10AEA40041F28262914202D8124A1278F2B11A7BBC
:10AEB400002058732AB1012A0BD07846FCF7BAFC5B
:10AEC40003E0FFF7BBFF0028F7D101F0D7FC2046D1
:10AED40010BDC3E9000018731882FFF78DFEFFF759
:10AEE40065FEFFF7A1FEF0E70024EEE71446ECE769
:10AEF40098400020AD40002010B5174C237B2BB1A7
:10AF0400012B12D07846FCF795FC1EE0228A41F210
:10AF140082639A4202D8114B1B78B3B1FFF7B6FF94
:10AF2400638A0BB1013B638210BD228A41F28261C4
:10AF34008A4206D942F2B0118A420AD8FFF7A6FF24
:10AF440003E0064B1B78002BF8D1238A01332382BC
:10AF5400E6E76373E2E700BF98400020AD400020BD
:10AF640038B51A4B1C7B054654BB588AE0B99C681B
:10AF740012B9A14203D838BD621C914216D92A34B1
:10AF8400A142F8D89A7B002AF5D199601049196139
:10AF94009A81C3E90022FFF709FEFFF745FE284620
:10AFA400BDE83840FFF728BE002AE4D09A68013291
:10AFB4009142E0D101225A73BDE83840FFF766BFE1
:10AFC400012CD8D1002AD6D19A68F1E79840002004
:10AFD4000000062D0378042B0CD143681B787BB149
:10AFE400027E8368511E4A424A41416903F11000BE
:10AFF400FFF7B6BF162B03D1427AC1680020F7E7EA
:10B004007047000038B5164CD4E900239A4205462F
:10B014001FD2207B134B1449012808BF0B469A42C8
:10B0240007D263682268403B9A4208D3FFF7FCFDCD
:10B0340005E001236373FFF729FF0028F1D0EFF344
:10B04400108072B623685A1C22602B6028B962B63D
:10B0540038BDFFF7E9FD0F20FAE70020F8E700BF4D
:10B0640098400020FFFF7F0000E0FF000C4A10B56D
:10B074001368144628B101200A49034488731360F5
:10B0840010BD13B97846FCF7D5FB2368013B236058
:10B09400002BF5D1034ABDE810409373FFF7F6BEC9
:10B0A400444000209840002000B58DB00323ADF843
:10B0B400080001A88DF8102003918DF80430FEF7E4
:10B0C400D5FF0DB05DF804FB014B9868704700BFD5
:10B0D40098400020034B98681B7B012B08BF00F1AC
:10B0E400FF30704798400020044B9B685840C207CB
:10B0F40048BF03F1FF331846704700BF9840002053
:10B10400014B187B704700BF9840002038B50A4BAC
:10B114001C787CB9094D01221A702973A860FFF7C5
:10B1240045FD2046FFF768FDC5E90044FFF77CFDB7
:10B13400204638BD0820FCE77040002098400020DD
:10B144002DE9F8431D4CDFF87890002602212046B3
:10B1540002F076FA5FFA86F805460027ADB967B1C2
:10B164002946204602F0D3FA082806D154F8043CB4
:10B174001BB12A464946404698470136032E04F13E
:10B18400BC04E3D10120BDE8F88354F8043C23B1A6
:10B1940034F80C2C29464046984734F80C3C0221DC
:10B1A4000133204624F80C3C02F066FA02212046C2
:10B1B40002F046FA01370546D0E700BFC44000203C
:10B1C400F830040038B5012104460C3002F038FA96
:10B1D400054620B3164BC4F89C300023C4F8A030B5
:10B1E40003786268012B07D0022B1AD07846FCF74B
:10B1F40021FB4FF4FA7306E081688B1A990829231E
:10B204004B4303F5FA730B4A934294BFC4F8A83036
:10B21400C4F8A8200123C4F8AC4084F8B830284608
:10B2240038BD83689B1A1A0B034B5343E9E700BFED
:10B2340061B2020060850100084C010010B50446AB
:10B24400FFF7C0FF48B104F19C000CF019FC20B1D9
:10B254007846BDE81040FCF7EDBA10BD4B4B1B78A7
:10B264002DE9F74F80460D463BB10CF03FFC00231F
:10B2740085F8B83003B0BDE8F08F01F10C09D1F8BE
:10B28400A8704846012102F0DBF9064610B9784659
:10B29400FCF7D0FADFF8FCA0A7F5FA7700244FF00A
:10B2A400290B3378012BA7EB040406D0022B3BD0E7
:10B2B4007846FCF7BFFA00231FE06B68B268B4FB62
:10B2C400FBF4D21AA400944228BF144624B9019373
:10B2D4007846FCF7AFFA019BF168706823F003032A
:10B2E400224619441844FFF72BFC10B17846FCF7AA
:10B2F400A1FA6B681C446C60B3686A689A422AD1EC
:10B304000CF0F4FB4846012102F0B6F900236B600F
:10B3140085F8B8301E4B186801F0FEFA284603B0D1
:10B32400BDE8F04FFFF78ABF6B68B268B4FBFAF46C
:10B33400D21A2403944228BF144624B901937846B0
:10B34400FCF778FA019B706823F003032146184444
:10B35400FFF7CEFBC9E701F043F93378B0EB0804FB
:10B3640048BFA8EB0004012B0BD0022B0BD078466E
:10B37400FCF760FA00232344BB4292D90CF0B6FBDD
:10B38400CCE72923F7E75346F5E700BFB440002094
:10B39400B0400020084C010070B51B481B4C01F064
:10B3A4009DFA1B4B186004F11C0341F203060825A7
:10B3B400636104F10C0004F118032361A681A573F1
:10B3C40002F081F904F1D803C4F8D03004F1C800C4
:10B3D40004F1D403C4F8CC30A4F8C86084F8CA508B
:10B3E40002F071F904F5CA73C4F88C3104F5C8731A
:10B3F400A4F8846184F88651C4F8883104F5C270D5
:10B40400BDE8704002F05FB945B10200B8400020C9
:10B41400B0400020022838B504460D4602D97846CB
:10B42400FCF708FA024BBC2202FB0434A56038BDC9
:10B43400B840002002282DE9F84F05460C469246F4
:10B4440002D97846FCF7F6F914B97846FCF7F2F914
:10B454002378012B12D16368990702D07846FCF750
:10B46400E9F9E3689A0702D07846FCF7E3F9A368A0
:10B474009B0711D07846FCF7DDF90DE0022B0DD1C6
:10B484006368C3F30B0313B17846FCF7D3F9A368DD
:10B49400C3F30B03002BEDD1A36813B97846FCF773
:10B4A400C9F9EFF3108772B6BC266E43DFF89080BB
:10B4B40006F10C0BC3440021584602F0C1F8814642
:10B4C40038B30021584602F0D7F804F1100354F8B9
:10B4D400042B49F8042B9C42F9D1BAF1000F05D092
:10B4E400BC2303FB05835B88AAF80030BC2303FB61
:10B4F40005856B8895F8B84001336B80E4B90F4B30
:10B504001D783DB908EB0600FFF75CFE2FB12C4611
:10B5140005E004246FB92746002062B63C4640B1DA
:10B5240006F19C0040440CF0ABFA10B17846FCF7ED
:10B5340081F92046BDE8F88F0024EBE7B4400020F1
:10B54400B840002070B5EFF3108672B6144C23682F
:10B5540018BB13B97846FCF76DF92368013B2360E7
:10B5640093B9104D95F8B83013B92846FFF766FE25
:10B5740095F8743113B90C48FFF760FE95F8303232
:10B5840013B90A48FFF75AFE2368094A003318BF63
:10B594000123137006B962B670BD01332360F3E76B
:10B5A400EC420020B84000207441002030420020CA
:10B5B400B440002010B1800B014B185C704700BFF1
:10B5C4000831040012DF7047137813B563B1022BFE
:10B5D4000CBF0724002410F8013C292B43D005D8C4
:10B5E400162B4BD002B010BD547DF4E72A2B1BD090
:10B5F4002B2BF7D1022CF5D110F8021C0139C9B25A
:10B6040003F068FA0028EDD0234B1B685B06E9D5EC
:10B61400224B1B68012BE5DD214B224AD3F804356C
:10B6240000920190A62219E0022C01D0072CD9D156
:10B6340010F8021C013901F0D3FC0028D2D0164BBB
:10B644001B685A06CED5154B1B68012BCADD144B5B
:10B65400154AD3F80435009201909322134902202D
:10B6640002F01CFABEE7022CBCD110F8021C01390E
:10B67400C9B202B0BDE8104010F0C6BC01884FF654
:10B68400E4639942AED110F8021C0230033902B0CF
:10B69400BDE81040FCF72CB8542E0020502E00209A
:10B6A40000100140A53104007C3104007131040014
:10B6B40070B58AB00CF0F2FE0446002834D00023A2
:10B6C40006468DF810300FCE05AD0FC533682B60DC
:10B6D400627D052A0CD9207D00F00F03072B07D0CB
:10B6E40004AB063A04F11D0100F00F000BF066FDF7
:10B6F400114B1A68AAB104AB0393237DC3F303036C
:10B704008DF80430637D062B89BF063B00238DF83A
:10B71400053004F11D0398BF8DF80530029301A88C
:10B72400904720460CF0A4FE0CF0D2FE80F00100FD
:10B73400C0B20AB070BD00BFF442002000B50A4B8D
:10B744001A78032A8DB00CD104221A7000212C22FD
:10B7540001A816F063FB1C2301A88DF80430FEF742
:10B7640085FC0DB05DF804FBF0420020F7B5364FC0
:10B774003A780546002A5DD100285DD0067A0F2E5E
:10B7840001D0062E5AD105F087FEE86800284ED075
:10B79400FDF764F90DF10700FFF714FF04460028D4
:10B7A40042D19DF80730012B4AD1FDF77FF900F013
:10B7B400F5FA304600F0D4FFE87800F073F900F0B1
:10B7C40005FE0CF0F3F821480CF018FF0BF070FEA6
:10B7D400FFF7E2FD04F0EAF800F0A0FC05F01CFE1F
:10B7E40005F0CCF905F038FC284601F061FBFDF7C3
:10B7F4009BFF03F0E7FCFBF77BFF08B1062821D190
:10B8040013480BF0ADFC2A200BF04CFD2B200BF061
:10B8140049FD29200BF046FD16200BF043FD0D4B8E
:10B8240000221A6001233B70204603B0F0BDFDF7EF
:10B8340021F9AFE70824F7E70E24F5E70724F3E737
:10B844000224F1E70446EFE7F0420020B5B6020017
:10B85400442E0020F442002037B51A4D2B78012BDA
:10B8640005D013B1033B012B24D908241DE001F0BA
:10B874002FFBFDF7A1FFFBF73BFF0446C0B10628F1
:10B8840016D0114B1B685B040FD5104B1B68012BA2
:10B894000BDD0F4B0F4AD3F804350F49019000928A
:10B8A400022040F2A71202F0F9F8204603B030BD9E
:10B8B40000F082FF0CF0D6F804460028F5D10223EC
:10B8C4002B70F2E7F0420020542E0020502E00206E
:10B8D400001001400C3104007131040008B5084B1C
:10B8E4001A78022A0AD1032206481A700CF080F84A
:10B8F40018B17846FBF79EFF002008BD0820FCE73E
:10B90400F042002041B70200FDF758BFFEF7D8BB54
:10B91400FEF7E6BB08B500F029FD002008BD06F0DF
:10B92400CDBC0000044B1A680132B2F1704F08BF5D
:10B9340001221A6018687047F842002010B50446C6
:10B9440010B97846FBF776FF0023C4E9003310BD35
:10B9540038B50D46044610B97846FBF76BFF15B9A8
:10B964007846FBF767FF00236B60EFF3108372B632
:10B97400226822B92560656003B962B638BD626881
:10B984005560F8E710B5044610B97846FBF752FF46
:10B99400EFF3108272B6206820B90023636002B905
:10B9A40062B610BD43682360002BF8D1F5E710B5EB
:10B9B400044610B97846FBF73DFF206810BD38B542
:10B9C4000C46054610B97846FBF734FF14B978469F
:10B9D400FBF730FF2046FFF7EAFF90B12846FFF758
:10B9E400E6FF40B994E8030085E803002046BDE87B
:10B9F4003840FFF7A3BF6B6822685A6063686B60C6
:10BA0400F4E738BD037A13B1002303727047436827
:10BA14001B680433436070471FB5036802464068DF
:10BA2400191D884209D1CDE9013300238DF80C306A
:10BA3400029B51681B6809688BB9D2E900131C6822
:10BA44004868844205D18B420BBF0021181F5960FE
:10BA540048601968496819600123137204E08B4235
:10BA640001A803D1FFF7D8FF04B010BDFFF7CAFF48
:10BA7400DEE735DF7047000008B54FF0FF30FFF711
:10BA8400F8FFBFF34F8F0549054BCA6802F4E06223
:10BA94001343CB60BFF34F8F00BFFDE700ED00E021
:10BAA4000400FA0507289ABF024B33F81000FA2065
:10BAB400704700BFD0310400024B5868103840B2C0
:10BAC400704700BF00ED00E000280346B8BF00F156
