:020000022000DC
:1060000000F003206D630200556302005763020035
:10601000596302005B6302005D6302000000000040
:106020000000000000000000000000005F630200AC
:106030006163020000000000636302006563020008
:106040006763020067630200676302006763020020
:106050006763020067630200A9BD03006763020073
:10606000676302003DB90300E18903006763020032
:1060700067630200676302006763020067630200F0
:10608000676302000D35040051C802006763020017
:10609000713504006763020005CA030067630200EC
:1060A00067630200676302006763020067630200C0
:1060B0006763020067630200000000000000000048
:1060C00067630200676302006763020067630200A0
:1060D0006763020067630200676302006763020090
:1060E000676302006763020067630200000000004C
:1060F0000000000067630200000000006763020008
:10610000000000000000000000000000000000008F
:10611000000000000000000000000000000000007F
:10612000000000000000000000000000000000006F
:10613000000000000000000000000000000000005F
:10614000000000000000000000000000000000004F
:10615000000000000000000000000000000000003F
:10616000000000000000000000000000000000002F
:10617000000000000000000000000000000000001F
:10618000000000000000000000000000000000000F
:1061900000000000000000000000000000000000FF
:1061A00000000000000000000000000000000000EF
:1061B00000000000000000000000000000000000DF
:1061C00000000000000000000000000000000000CF
:1061D00000000000000000000000000000000000BF
:1061E00000000000000000000000000000000000AF
:1061F000000000000000000000000000000000009F
:10620000344935480A1A02D0072291438D46334952
:1062100033480A1A06D00722914381F309880222E3
:1062200082F314882F483049304A00F042F8304851
:106230003049314A00F03DF830483149314A00F0E8
:1062400038F831483149324A00F033F831483249A0
:10625000324A00F02EF832483249334A00F029F829
:1062600032483349334A00F024F833483349002296
:1062700000F02AF832483349002200F025F832486D
:106280003249091A082902DB0022026041601F48D6
:106290001F49884205D00268043003B4904703BC0C
:1062A000F7E700208646EC4600200021284A904768
:1062B000FEE7884207D0521A05D0037801300B70F0
:1062C0000131013AF9D17047884202D002700130A1
:1062D000FAE7704700F0032000E8032000F00320F5
:1062E00000F00320285D0400A02D002004300020D1
:1062F000A4630200A46302009A3A0400285D04002B
:10630000A02D0020A02D0020C43B0400C43B0400AD
:10631000C43B0400C43B0400C43B0400C43B040071
:10632000C43B0400C43B0400265D04008C5F0400F1
:10633000043000200430002004300020F85A0020EF
:10634000F85A0020F85A0020F85A0020F85E002081
:10635000E1690200FEE7FEE7FEE7FEE7FEE7FEE793
:10636000FEE7FEE7FEE7FEE7704700BF094880470B
:1063700009484FF007018843854608488047084888
:10638000016841F470010160BFF34F8FBFF36F8F5D
:10639000FFF736BF6963020000F0032001CE03005F
:0463A00088ED00E0A4
:1063A40041DF7047014B1B680B8070476C30002045
:1063B40010B50C460D2001F0ABFA207010BD10B5DD
:1063C4000C460F2001F0A4FA207010BD10B582B065
:1063D4000C460D4B1B6813F4804F03D00B4B1B680A
:1063E400032B05DC21460D2001F09EFA02B010BDFE
:1063F400074BD3F804350191064A009293220649CB
:10640400042007F003FBEDE7682F0020642F002031
:10641400001001409C3C0400953C040010B582B07F
:106424000C460D4B1B6813F4804F03D00B4B1B68B9
:10643400032B05DC21460E2001F076FA02B010BDD4
:10644400074BD3F804350191064A0092A522064968
:10645400042007F0DBFAEDE7682F0020642F00200A
:10646400001001409C3C0400953C040000B583B03E
:106474000F4B1B6813F4804F03D00E4B1B68032B88
:106484000ADC0322C8214FF4F03001F067FA0AF065
:1064940081FE03B05DF804FB074BD3F80435074ACB
:1064A4000092D3220649042007F0B0FAE9E700BFBE
:1064B400682F0020642F002000100140883D040054
:1064C400953C040010B582B004462C4B1B6813F4B1
:1064D400804F03D02A4B1B68032B04DC7CB1032CB4
:1064E4002ED002B010BD274BD3F804350190264AB4
:1064F4000092E3222549042007F088FAEEE71F4BB7
:106504001B6813F4804F03D01D4B1B68032B0CDC5A
:106514000D2001F0FDF980F00101C9B20D2001F058
:1065240003FA1B4800F0CEFBDBE7164BD3F8043527
:10653400184A0092EB221549042007F067FAE7E7AE
:106544000AF0CCFD98B90D4B1B6813F4804FC8D0EA
:106554000B4B1B68032BC4DD0A4BD3F804350E4ADE
:106564000092FF220949042007F050FAB9E70CF021
:1065740043FA0AF0A9FDFFF779FFB2E7682F00207C
:10658400642F002000100140B43C0400953C04003A
:10659400382E0020C83C0400D83C040030380428BD
:1065A40000D9704708B5FFF78DFF08BD08B503781B
:1065B4001C2B00D008BDFFF759FFFBE700B58BB0DB
:1065C4002022002101A81DF001FA01238DF80430D6
:1065D40007238DF8073006238DF80C30084B0593FC
:1065E400084B0993084901A80AF086FD10B90BB0BD
:1065F4005DF804FB054A40F2431116F0F7FCF6E798
:10660400B165020005680200043000201C3C04004F
:1066140000B583B02F4A05214FF4103007F0DAF9A2
:106624002D4B1B6813F4804F03D02C4B1B68032B9A
:1066340027DC1CF09FFF80BB01F0D4F9284801F04F
:10664400F1F980BB01F080FB01F09AFB01F0C6FB7D
:10665400FFF7B4FF00222349234814F017FF40BB7F
:10666400214814F00FFF214B18801B4B1B6813F4B7
:10667400804F03D0194B1B68032B1DDC03B05DF85E
:1066840004FB1B4BD3F804351A4A009240F249121A
:106694001949042007F0BAF9CBE7184A40F24B1124
:1066A40016F0A4FCC8E7154A40F24F1116F09EFC00
:1066B400C8E716F08DFCD3E70D4BD3F804350190F1
:1066C4000F4A00924FF4AF720B49042007F09EF971
:1066D400D4E700BFADD90200682F0020642F00204A
:1066E400C9640200D82E0020DC3B0400683000207E
:1066F40000100140103D0400953C04001C3C0400C3
:10670400403D040000B583B00021334800F0FCFA9A
:1067140048BB324B1B6813F4804F03D0304B1B68CB
:10672400032B25DC01212F4800F0EEFA00282DD19F
:106734002A4B1B6813F4804F03D0294B1B68032B8F
:1067440029DC0221284800F0FFFE002831D1234B28
:106754001B6813F4804F03D0214B1B68032B2DDCE3
:1067640003B05DF804FB214AC42116F03FFCD0E7D6
:106774001F4BD3F80435184A128801921D4A00921F
:10678400C5221D49042007F041F9CBE7174AC72168
:1067940016F02CFCCCE7164BD3F80435114A1288BA
:1067A4000192144A0092C8221349042007F02EF9DA
:1067B400C7E70E4ACB2116F019FCC8E70C4BD3F8F7
:1067C4000435094A128801920C4A0092CC220A49E3
:1067D400042007F01BF9C3E7382E0020682F00209F
:1067E400642F0020882E0020A02D00201C3C0400D3
:1067F40000100140E43B0400953C0400003C04000C
:1068040000B583B00C4B1B6813F4804F03D00B4BC3
:106814001B68032B04DCFFF775FF03B05DF804FB72
:10682400074BD3F80435074A009240F23512064963
:10683400042007F0EBF8EEE7682F0020642F002017
:1068440000100140683D0400953C040008B50A4B63
:10685400196001F50041094B1A8801FB02F1084A4D
:1068640082FB01320A44C917C1EBE23292B2002121
:10687400044814F0C9FD08BD6C30002068300020C5
:1068840001800080DC3B040030B587B064211B48E4
:1068940000F0D8FF1A4B1B78B3B11A4814F0D0FE9D
:1068A40001F0BAFB01F0E6F80AF066FCF8B9002141
:1068B4004FF4F03001F047F80222C8214FF4F030D1
:1068C40001F04CF807B030BD6C460F4D0FCD0FC42E
:1068D40095E8030084E80300684600F051FF0028AF
:1068E400DBD00A4A40F2711116F080FBD5E7074A63
:1068F4004FF4BC7116F07AFBD9E700BFA165020022
:1069040004300020DC3B0400C43B04001C3C0400B5
:1069140010B5044600214FF4F03001F014F804EBF4
:106924008404620032214FF4C03001F017F810BD26
:1069340008B501F049F808BD00B585B0214B1B68C6
:1069440013F4804F03D0204B1B68032B1FDC01F092
:1069540017FA01F043FA03A810F0E6F9194B1B6883
:1069640013F4804F03D0184B1B68032B1BDC01F07E
:106974002BF800214FF4F03000F0E5FF0422C82189
:106984004FF4F03000F0EAFF05B05DF804FB0F4B64
:10699400D3F804350E4A009240F221120D49042026
:1069A40007F034F8D3E7094BD3F80435BDF80C20CD
:1069B4000192094A00924FF496720649042007F0A6
:1069C40025F8D4E7682F0020642F00200010014030
:1069D400A43D0400953C0400C03D040008B5FFF745
:1069E40017FEFFF751FFFFF7DBFCFCE730B583B080
:1069F400044615461D4B1B6813F4804F03D01C4BF3
:106A04001B68032B11DCA36B04F13C01204698475F
:106A140094F83C302B7094F83D306B70236C0BB1C0
:106A2400626C6AB16B6003B030BD124BD3F80435AD
:106A3400114A0092AA221149042006F0E7FFE2E776
:106A44001CF01AFEA16C1CF01DFE4FF47A7303FBBC
:106A540000F0C20B236C934205D3B0F5004F02D370
:106A64009B1A6B60DFE700236B60DCE7682F002074
:106A7400642F002000100140783E04006A3E0400A8
:106A840010B588B00446436CE3B9036C13B190F8B5
:106A94003D20BAB194F83D2084F83C208DF81820AC
:106AA4008DF81920079306A920461BF061FF94F87E
:106AB4004C303BB9636B94F83C1020469847012353
:106AC40084F84C300F4B1B6813F4804F03D00E4BEB
:106AD4001B68042B01DC08B010BD0C4BD3F8043543
:106AE40094F83C2094F83D10206C0490606C039062
:106AF40002910192064A009285220649052006F079
:106B040085FFE8E7682F0020642F00200010014073
:106B1400BC3E04006A3E040030B583B00446036BF7
:106B240018681CF093FD636C3BBB236C1BB3590CBE
:106B3400D8034FF47A72002310F5FA7041F1000182
:106B44001CF0AAFDB0F1807F2AD2042831D9236B2E
:106B54002246014618681CF05BFD05461CF08CFDBE
:106B6400A06445B11C4B1B6813F4804F03D01B4B2E
:106B74001B68002B25DC03B030BD256B590CD803F2
:106B84004FF47A72002310F5FA7041F100011CF001
:106B940083FD2246014628681CF03AFD0546E0E7DD
:106BA400236B22466FF07F4118681CF031FD0546C7
:106BB400D4E7236B2246052118681CF029FD0546FD
:106BC400CCE7074BD3F80435064A009268220649FD
:106BD400012006F01BFFCEE7682F0020642F002061
:106BE400001001409C3E04006A3E0400F0B583B0EE
:106BF400044617461E46089D1A4B1B6813F4804F23
:106C040003D0194B1B68032B1BDC002384F84C3086
:106C14003B7884F83D300EB373686364336823644F
:106C24002046FFF72DFF2046FFF776FF3DB194F88D
:106C34003C302B7094F83D306B70236C6B6003B068
:106C4400F0BD0A4BD3F8043512780192084A009239
:106C5400CC220849042006F0D9FED6E70023636459
:106C64002364DDE7682F0020642F0020001001401A
:106C7400843E04006A3E040038B50446436C9BB964
:106C8400056CADB1690CE8034FF47A72002310F57A
:106C9400FA7041F100011CF0FFFCB0F1807F0BD3CE
:106CA400A5F2FF15256403E000234364FFF7E8FE23
:106CB4002046FFF731FF38BD002323642046FFF749
:106CC400DFFEF5E710B582B00446836B00F13C01AA
:106CD400984794F83C3084F83D300023636423647F
:106CE400236B18681CF0B2FC94F83C308DF800302B
:106CF40094F83D308DF80130236C019369462046A9
:106D04001BF036FE02B010BDA0B110B504460D4A0A
:106D1400C262426B8AB1826B8AB11BF0F3FD0346F7
:106D240008B1184610BD084A0021206B1CF05AFC1B
:106D34000346F6E70E23184670470E23F1E70E23A9
:106D4400EFE700BF943E04007D6C020008B5034BDE
:106D540053F820300846984708BD00BF344004006B
:106D640008B5034B53F820300846984708BD00BFC8
:106D740044400400C06F003018BF0120704790F8F1
:106D84008030012B03D9022B0FD000207047836F72
:106D9400013B13F1030F04D8D0F884301BB9002051
:106DA40070470020704701207047836F013B13F147
:106DB400030F04D8B0F984301BB9002070470020B9
:106DC40070470120704710B582B0044630301BF084
:106DD40016FF0023A36794F88030022B03D0B4F984
:106DE4007630A4F87430B4F97430ADF80030B4F9E6
:106DF4007630ADF8023000230193694620461CF03A
:106E0400BFF8A36EB4F974102046984702B010BDC1
:106E140090F88030022B01D10020704770B50446F1
:106E240030301BF0C0FE4D01430145EAD0621B1A0D
:106E340062EB0102950045EA93759E002A463318D9
:106E440041EB0202D50045EA5375D9000B46D80B35
:106E540040EA4540E90BA26F0023994208BF9042E3
:106E640001D3012070BD0020FCE70000F0B583B021
:106E7400044690F88030022B3FD0B0F97650B0F938
:106E84008860AD1BB6B230301BF08DFE4F0143015C
:106E940047EAD0621B1A62EB0102970047EA937734
:106EA4004FEA830C1CEB000347EB0101CA0042EAE2
:106EB4005372D800C30B43EA4243D20BE91705FBD4
:106EC40002F203FB0122A5FB03011144A26F00237C
:106ED4001CF049FC3044A4F87400A36EB4F9741097
:106EE40020469847304B1B6813F4804F03D02F4B38
:106EF4001B68042B2FDC03B0F0BDB0F88650303093
:106F04001BF051FE4E01430146EAD0621B1A62EBAC
:106F14000102960046EA93769F0032463B1841EB05
:106F24000202D10041EA5371D800C30B43EA414342
:106F3400C90BB4F98460F71703FB07F201FB0622BF
:106F4400A3FB06011144A26F00231CF00CFC28448F
:106F5400A4F87400C1E7164BD3F8045504F13000CB
:106F64001BF021FE4C01430144EAD0621B1A62EB80
:106F74000102940044EA93749E002246331841EBC4
:106F84000202D10041EA5371D800C30B43EA4143E2
:106F94000193084B00932B464FF4A1720649052038
:106FA40006F034FDA7E700BF682F0020642F0020FF
:106FB400001001402040040012400400F0B583B0EA
:106FC400044615462A4B1B6813F4804F03D0294B03
:106FD4001B68032B13DCE36E04F17401204698470D
:106FE400B4F974302B80B4F976306B8094F8803027
:106FF400022B10D094F89130A3B96B6010E01E4BB3
:10700400D3F804351D4A009240F28F121C49042023
:1070140006F0FCFCDFE7A36F0BB14FF0FF336B60AE
:1070240003B0F0BD94F89130DBB2012B02D1A36F11
:107034006B60F5E7A66F04F130001BF0B4FD4C0162
:10704400430144EAD0621B1A62EB0102940044EA51
:1070540093749F0022463B1841EB0202D10041EA9F
:107064005371D800C30B43EA4143F31A6B60D7E76B
:10707400682F0020642F002000100140783E040097
:1070840012400400F0B583B0044690F88030022B1F
:107094004FD0D0F88450002DB8BF6D42002D4ED093
:1070A400A26F104600265301D10E9B1A61EB060114
:1070B4008A0042EA93729F001146381846EB010198
:1070C400CB0043EA5073C200104619462A463346A1
:1070D4001CF0E2FA06460F46002908BFB0F57A7F95
:1070E4003DD23F4B1B6813F4804F03D03D4B1B68CC
:1070F400032B28DC21220023C4E90E23384B1B6810
:1071040013F4804F03D0374B1B68032B4DDC204610
:10711400012300F8303F1BF049FD40B1304B1B68A0
:1071240013F4804F03D02F4B1B68002B4BDC03B0B0
:10713400F0BDB0F98450002DB8BF6D42AEE778467B
:1071440000F02CFFACE7284BD3F80435274A009213
:107154004FF48D722649042006F058FCCAE7204BF0
:107164001B6813F4804F03D01E4B1B68032B10DCE9
:10717400F90341EA5641F0031E4D1F4A002340190A
:107184004FF0000545EB01011CF086FAC4E90E013D
:10719400B4E7154BD3F80435184A00924FF49072B3
:1071A4001349042006F032FCE2E70F4BD3F8043510
:1071B400A26B0192124A00924FF492720C4904207D
:1071C40006F024FCA3E7084BD3F804350D4A0092DB
:1071D40040F22B120649012006F018FCA7E700BF75
:1071E400682F0020642F0020001001401C3F040081
:1071F4001240040020A1070040420F00403F040059
:10720400683F0400883F040010B582B004460022A1
:1072140080F83020C36F590CD8034FF47A720023DE
:1072240010F5FA7041F100011CF036FAC4E90E01C0
:1072340004F130001BF0BAFC40B10B4B1B6813F493
:10724400804F03D0094B1B68002B01DC02B010BD3A
:10725400074BD3F80435074A0092FB220649012064
:1072640006F0D4FBF2E700BF682F0020642F002053
:1072740000100140FC3E04001240040008B5024620
:1072840003218C3009F031F908BD000030B585B018
:107294000446089D002B34D019465B68C3670B680D
:1072A4008367B2F90030002B33DD47F6FF73A4F88F
:1072B4007630B2F90030A4F88430B4F97430A4F80C
:1072C4008630022384F880301E4B1B6813F4804FF1
:1072D40003D01D4B1B68032B20DC2246022104F142
:1072E4008C0009F002F955B1B4F974302B80B4F96B
:1072F40076306B80A36F0BB14FF0FF336B6005B03A
:1073040030BDC367036F13B11B688367C9E7836725
:10731400C7E74FF40043A4F87630CAE70B4BD3F821
:107324000435B2F90020A16F0391E16F029101923B
:10733400074A009240F249220649042006F066FBFF
:10734400CBE700BF682F0020642F0020001001400D
:10735400F44004001240040030B587B004460A9D8E
:1073640063B319465B68C3670B688367B2F900109F
:10737400A4F87610002384F88030B4F97430A4F8AB
:107384008830CA1AC4F88420194B1B6813F4804F40
:1073940003D0184B1B68032B18DC2246002104F190
:1073A4008C0009F0A2F83DB1B4F974302B80B4F923
:1073B40076306B80A36F6B6007B030BDC367036F1B
:1073C40013B11B688367D1E78367CFE70A4BD3F810
:1073D40004350492A26F0392E26F02920191074A6C
:1073E400009240F2D1120649042006F00FFBD4E7C4
:1073F400682F0020642F0020001001402441040065
:1074040012400400F0B585B0044617460A9E6BB3DB
:107414001A465B68C36713688367012384F8803066
:107424003A68414D85FB0235AB18D517C5EBE335FA
:10743400C5EB0545551B201D1BF042FBF0B93B4B2A
:107444001B6813F4804F1DD0394B1B68032B19DDC7
:10745400384BD3F804353A790192374A009240F216
:1074640001223649042006F0D1FA0BE0C367036F0A
:1074740013B11B688367D0E78367CEE7B4F9743030
:10748400A4F88830B4F888302B44A4F87630C4F8D3
:107494008450264B1B6813F4804F03D0244B1B6885
:1074A400032B19DC214B1B6813F4804F03D0204BB2
:1074B4001B68032B22DC2246012104F18C0009F015
:1074C40014F83EB1B4F974303380B4F97630738073
:1074D400A36F736005B0F0BD164BD3F80435A26FEB
:1074E4000392E26F02923A680192154A00924FF4B5
:1074F40003721249042006F089FAD3E70D4BD3F83E
:107504000435B4F98820B4F97410B4F97600039002
:10751400029101920B4A009240F20F220749042083
:1075240006F074FAC7E700BF01800080682F0020CE
:10753400642F002000100140504004001240040059
:1075440084400400B0400400D8B110B50446826EF3
:10755400D2B1C26ED2B10E4BC3621BF0D3FC034650
:1075640008B1184610BD24640A4B63640A4904F147
:107574008C0008F0A4FF04F130001BF053FB034619
:10758400EFE70E23184670470E23EAE70E23E8E7D9
:10759400AC410400817202009C4104002B4B1B7817
:1075A400002B52D000B585B0012804D0032845D063
:1075B40005B05DF804FB0023029302A9012015F035
:1075C400CBF840BB02A815F01BF938BB0123039389
:1075D40003A90DF1060010F02BF910BBBDF806004D
:1075E4000FF074FD0DF105010FF010FFE0B90AF082
:1075F40079FF9DF8051000200BF03EFAB8B903F0AE
:1076040007FFC0B9114B00221A70114B1B68002BE5
:10761400CED09847CCE715F0DBFCD3E715F0D8FCC7
:10762400D4E715F0D5FCD9E715F0D2FCDFE77846AE
:1076340000F0B4FCE3E715F0CBFCE3E715F056F9F2
:107644000028B5D015F0C4FCB2E77047963000208E
:107654009830002008B5064B01221A70054803F043
:1076640041FF03F021FF00B908BD15F0B1FCFBE7B1
:1076740096300020EC2E002008B503781C2B00D097
:1076840008BD074B1B78002BFAD015F073F918B915
:10769400044803F02BFFF3E715F09AFCF8E700BF6A
:1076A40096300020EC2E002008B50849084816F052
:1076B40035F9034608B1184608BD032300220549DD
:1076C4000969054816F046F90346F4E7B03000208E
:1076D4001C34002098300020E832002008B50378DC
:1076E400023B082B3FD8DFE803F01C05113E3E2C7B
:1076F4003E3E36001E4B5B68002B34D0007A0028D7
:1077040031D01C4A0121117098472CE0184B9B681A
:107714004BB3184A127832B3164A002111709847B5
:1077240021E0154B1B784BB9114BDB681BB1114A97
:10773400002111709847FFF7B7FF14E0FFF78AFFA5
:1077440011E010220A4B59690C4816F093F950B114
:1077540015F03EFC07E08168C06809F055FC18B9D3
:10776400054B01221A7008BD15F032FCF8E700BF82
:10777400983000209430002095300020E83200201A
:1077840070B586B004461F4A03AB07CA03C323F887
:10779400022B120C1A701C4E35460FCC0FC594E800
:1077A400030085E80300736953B3184B009303ABDC
:1077B400174A1849184816F06DF8034610B11846D0
:1077C40006B070BD154817F02DFD0146124816F09D
:1077D4008DF803460028F2D1114817F0E5FE034660
:1077E4000028ECD10E4817F015FF01460A4816F0A0
:1077F4007DF803460028E2D1FFF756FF0346DEE793
:107804000723DCE7BC41040098300020E176020045
:10781400B03000201C340020E8320020D03000209A
:107824009832002008B5064B1B683BB112F04CFAA5
:10783400002803DB024B1B689847F7E708BD00BF2D
:107844005C34002010B50C46144B1860144A012116
:1078540014481BF0C7FE78B9610CE00341F26F7263
:1078640000238B4208BF82420BD24FF47A7200236A
:107874001BF012FF014605E00B4A4A2115F0B6FB46
:10788400EAE70521002209481BF0C2FE00B910BD39
:10789400054A4B2115F0AAFBF9E700BF5C34002030
:1078A40029780200C8410400CC410400603400205F
:1078B40008B5134B1B6873B14FF0A042D2F80435DE
:1078C400104909684B40C2F804350D4A1368013B5E
:1078D400136023B108BD002015F07AFBECE70A48D9
:1078E4001BF0B4FE4FF0A042D2F8043505490968F4
:1078F40023EA0103054909680B43C2F80435E9E7A3
:10790400803400208434002088340020A8340020EF
:107914004FF0A043D3F80425012303FA00F00242F8
:107924000CBF18460020704731B1012383404FF04B
:10793400A042C2F80C357047012383404FF0A042A7
:10794400C2F80835704721B14FF0A043C3F80C05C5
:1079540070474FF0A043C3F8080570475AB338B5D1
:107964001346132900D838BD134A10605B00013B4D
:10797400124A13604FF0A043D3F804351840104B5B
:10798400186000254C0CC8034FF47A72002310F5DC
:10799400FA7044EB05011BF07FFE2A4601460948B4
:1079A4001BF036FE0028DED1034B1A684FF0A043CB
:1079B400C3F80C25D7E770478434002080340020B6
:1079C400A83400208834002008B504481BF03EFE8B
:1079D4000021034B1868FFF7B6FF08BD8834002068
:1079E4008434002008B50D230BE04FF0A04103F5CB
:1079F400E072032041F8220001229A40C1F80825D0
:107A04000133102BF1D9054A012105481BF0EAFD89
:107A140000B908BD15F0DCFAFBE700BFB578020039
:107A240040420400E0B1002309E00E4AD25C02F5B2
:107A3400E0724FF0A0410C4841F822000133032BBF
:107A4400F3D90A4B4FF00042C3F804230020C3F8D3
:107A54007C01074BC02283F8062340221A6070473A
:107A64000E207047444204000C00030000600040F4
:107A740000E100E0002869D02DE9F043CFB00646CC
:107A8400334B1B6813F4804F03D0324B1B68032B1A
:107A94000BDC2F4B1B6813F4804F03D02D4B1B685A
:107AA400032B2ADC4FB0BDE8F08300230F2B0FD843
:107AB400F25C29490D6810095900285C0DAC04F8E2
:107AC400130002F00F020131AA5C62540133EDE7A6
:107AD4000DAA00238DF8543003F1804303F5883355
:107AE400D3F8043502921D4A01921D4A00924122A4
:107AF4001C49042005F08AFFCBE71B4BD3F804355F
:107B0400B288F188307A747AB57AF77A96F80CC02C
:107B140096F80DE096F80E8096F80F90CDF82C901C
:107B2400CDF82880CDF824E0CDF820C0079706953D
:107B34000594049003910292326801920B4A0092D8
:107B440046220849042005F061FFABE7704700BFF7
:107B5400682F0020642F00206C2F0020C0420400F6
:107B6400D4420400AE42040000100140DC42040090
:107B740072DF704773DF704774DF70472DE9F04799
:107B8400A2B0074688469146314C0026C4F80660E8
:107B9400E68130490B78C3EB43102F4D0544256033
:107BA4002E4A0244A2601F22A280A281013303F064
:107BB40001030B704FF03C0A5246314613A81BF0E8
:107BC40005FF06238DF84F30ADF8487001238DF87A
:107BD4004A30ADF85C3012AA1892ADF83C70ADF89A
:107BE4004090CDF844800DEB0A021D928DF8783058
:107BF4005246314668461BF0E9FE02238DF80030F8
:107C0400221D294613A814F09CFC90B9104B03F1D3
:107C14000C029968684614F094FC68B9104A0C493F
:107C24001048FFF7A5FF082809D070B922B0BDE8B5
:107C3400F08715F0CDF9E9E715F0CAF9EEE700226F
:107C440003490848FFF794FFEFE715F0C1F9EDE7A2
:107C5400F0340020AC340020B03400200035002083
:107C6400FC2E0020F82E0020B0F5202F04D2074B64
:107C7400A3FB0023DB0801E04FF6FF7308B103B94F
:107C84000123034A93819160704700BFCDCCCCCCD3
:107C9400FC2E002008B50121054B1878FFF76AFF78
:107CA40018B9002004F0DAFA08BD15F091F9F8E7E4
:107CB400F82E002008B5044B1878FFF75DFF00B9D3
:107CC40008BD15F085F9FBE7F82E002076DF704734
:107CD4007ADF70477CDF704708B515F079F908BD85
:107CE40008B503F007FC08BD00B583B0037823B1E1
:107CF400012B0BD003B05DF804FB3B214088FFF758
:107D0400E5FF0028F6D015F063F9F3E7094B1B688B
:107D140013F4804FEED0084B1B68032BEADD074BAE
:107D2400D3F80435064A009268220649042005F077
:107D34006DFEDFE7682F0020642F00200010014053
:107D4400A84304008E43040000B583B014F0CEFDB4
:107D540068B90023019301A9012014F0FDFC48B97E
:107D640001A814F04DFD40B903B05DF804FB15F013
:107D74002FF9EEE715F02CF9F2E715F029F9F3E7FE
:107D840000B585B09DF80C30012262F3030362F361
:107D940007138DF80C300A220F4903A8FFF79AFF46
:107DA40098B90023ADF808307823ADF80430C8231F
:107DB400ADF806304FF4C873ADF80A3001A8FFF7E8
:107DC40087FF28B905B05DF804FB15F001F9E8E771
:107DD40015F0FEF8F6E700BF1C43040000B58BB0B5
:107DE4000023ADF808307822ADF80420C822ADF89D
:107DF40006204FF4C872ADF80A200693079301AB2E
:107E0400039340F6CD4304934FF480330593032347
:107E14008DF81830064B0893064B099303A814F009
:107E24004BFF10B90BB05DF804FB15F0D1F8F9E77E
:107E3400ED7C0200DD7C02000620704700B587B0AF
:107E440041F2010398424CD020D944F201039842F4
:107E54005DD044F20203984274D1464B1B6813F47C
:107E6400804F1ED0444B1B68002B1ADD434BD3F8C4
:107E7400043510880390526802920191404A00929E
:107E84006C224049012005F0C1FD0AE0012859D1C6
:107E9400384B1B6813F4804F03D0374B1B68002BFF
:107EA40012DC4FF0A0434FF4F032C3F81825C3F8A6
:107EB4000C25EFF3108372B64DF6AD6C324B1B7884
:107EC400002B54D030BFF9E72C4BD3F80435029281
:107ED40001912E4A009260222A49012005F096FD64
:107EE400DFE7244B1B6813F4804FDAD0224B1B6866
:107EF400002BD6DD214BD3F8043502920191244A9C
:107F0400009263221F49012005F080FDC9E7194B47
:107F14001B6813F4804FC4D0174B1B68002BC0DDC3
:107F2400164BD3F8043510680490506803900291FE
:107F340092680192174A009277221249012005F0B3
:107F440065FDAEE70B4B1B6813F4804FA9D00A4BB9
:107F54001B68002BA5DD094BD3F8043501910E4AAB
:107F640000927B220749012005F050FD99E707B0F4
:107F74005DF804FB682F0020642F002000100140EE
:107F84008C4404003A440400142F00204C440400A0
:107F940068440400AC440400D044040000B583B039
:107FA4000023ADF80030054B01936A46014644F2C4
:107FB4000200FFF743FF03B05DF804FBCC44040068
:107FC40010B40346044C006859689A68DB680FC40F
:107FD4005DF8044B704700BF403500200B4B0C4A42
:107FE40092E8030083E8030003F10802094903C986
:107FF40082E80300DA79042161F30712DA711A7A4C
:10800400022161F387121A72704700BF40350020C5
:1080140060000010A40000100048704740350020A4
:1080240000231F2B09D8074901EBC300002242801B
:10803400426001F833200133F3E7034B00221A6056
:10804400704700BF503500205036002030B405463C
:108054000F4B1B6800240AE01F230E4A12F833005A
:10806400A0B102EBC3025288AA4207D001341F2CEC
:108074000BD85A1E002BEFD01346EEE7054A02EB4D
:10808400C30252688A42F1D100E0002030BC70473C
:10809400503600205035002030B40A4A13680A4C88
:1080A40004EBC30568806960012104F833100B44B4
:1080B4001360202B01D030BC7047134600221A6095
:1080C400F9E700BF5036002050350020C0F30C0300
:1080D4008B4204D2C91A0144A1F500507047C91A51
:1080E40008447047C37D002B42D0C3780A7802F05D
:1080F400800203F07F0313430B7002780B7803F0C4
:108104007F0343EAC2130B700378002B41D030B4D1
:108114008378082B14BF002201224B7803F07F03DD
:1081240043EAC2134B70C58803F08003C5F3861479
:1081340023434B708A7802F0030242EA8502D2B2EA
:108144008A70057A02F0FC02C5F3C10422438A70E6
:10815400CB7803F01F0343EA4513DBB2CB70427ABA
:1081640003F0E00302F01F021343CB7030BC7047EE
:10817400C3780A7802F0BF029B0103F04003134363
:108184000B70027903F0C00302F03F0213430B703B
:10819400B3E770470023032B2DD810B402E001335A
:1081A400032B24D8C3EBC3021401144A224492F8CB
:1081B4004820012AF3D1114A2244948AC289944264
:1081C400EDD1C3EBC30214010C4A2244D2888A4283
:1081D400E5D10A4A2244B2F8582012B1848AA24254
:1081E400DDD1C3EBC3031A010448104400E00020AE
:1081F4005DF8044B70470020704700BF043700202F
:10820400002300E00133032B14D8C3EBC302110194
:10821400094A0A4492F84820022AF3D1064A0A4439
:10822400918A828A9142EDD1C3EBC3031A010248B9
:1082340010447047002070470437002008B9042018
:1082440070470820704730B403460C460978C17063
:1082540000214162A1680B2903D8217B01B30121CC
:1082640000E0012119700020987029B1A16807313C
:10827400C9080139597218720121D97503F10C0525
:1082840004F1100103C985E80300E1899982A16919
:108294001962217F9975216AD9629A6230BC70474C
:1082A4000021DFE70021174B1B688B4227D90023ED
:1082B400154A02EBC10252689A421ED910B40FE06B
:1082C40060685DF8044B704701310E4B1B688B42AC
:1082D40011D900230C4A02EBC10252689A42F3D925
:1082E400094A52F8312002EBC30412F833208242C7
:1082F400E6D00133EEE70020E3E70131D3E70020C5
:10830400704700BF543600205836002070B58CB03A
:1083140006460D4614462C22002101A81BF056FBEC
:108324000F238DF80430ADF808604FF0000365F3B7
:1083340000038DF80A308DF80B4001A801F016FAFD
:108344000CB070BD30B58DB005460C462C22002112
:1083540001A81BF03BFB10238DF8043002958DF827
:108364000C4001A801F002FA0DB030BD00B58DB08B
:1083740010B913F1020F06D1074B186804F096F9EF
:108384000DB05DF804FB01228DF80420029301A8CE
:1083940001F0ECF9F0E700BF60360020D0B50446E8
:1083A400037853B1E3691F0A1E06E188A069FFF749
:1083B4008DFE301847F10001D0BD7846FFF7EEFD81
:1083C400F0E70000F8B50546002400E00134032C72
:1083D40020D8C4EBC4031A010F4B134493F848305C
:1083E400022BF3D10C4B13449A8AAB8A9A42EDD1F7
:1083F4002846FFF7D3FF06460F46C4EBC402130119
:1084040005481844FFF7CAFF8F4208BF8642DDD2F1
:10841400012000E00020F8BD04370020F8B506462E
:1084240003783BB13046FFF7B9FF04460D46B08AE6
:10843400002304E07846FFF7B1FDF3E70133072B8F
:108444000ED81A0107498A5A8242F7D101EB031266
:10845400D2E90267AF4208BFA642EFD1104600E05E
:108464000020F8BD6836002038B504460D46037870
:1084740053B10023072B0ED8A18A1A011248825A3D
:10848400914205D00133F5E77846FFF787FDF0E721
:108494001B010021C1520D4A1368591C116003F0DD
:1084A4000703A08A1A010849885255B16278064D1B
:1084B40005EB0315AA702046FFF770FFC5E902011A
:1084C40038BD0022F3E700BF68360020E8360020FC
:1084D400F8B5069C002962D00F4616685568D2F894
:1084E40008E0D2F80CC0E6602561C4F814E0C4F8D2
:1084F40018C016695569E661256200226270027827
:10850400D209227062B30421B9424AD8E57D4DB341
:10851400017801F07F01E1700021A1709AB14278E5
:10852400920102F4FE52817842EA9102E28082785A
:10853400D20002F01802C17842EA51122272C278C3
:1085440002F01F0262721D46002363622B78032B24
:1085540021D82A78144B53F82230E3620020F8BD66
:108564000121D1E70578C5F38015E570057805F09C
:108574003F05257142B190F90110002902DB042165
:10858400A170CBE70821FBE70425A5702944B94273
:10859400C4D90920E3E77846FFF700FDD9E70920AD
:1085A400DDE70920DBE700BFEC44040070B50C46AE
:1085B4001E460378ABB104252A44A26000F10C03E3
:1085C4002360836A6360C36AE360002323742046E4
:1085D40004F0EAFB034610B9626915443560184695
:1085E40070BD0125E8E72DE9F0418EB00D46164631
:1085F4001C46804600282DD0002D2FD0002C31D0D1
:10860400636A0233059304F10C00E378002B2DD048
:108614000121A27801AF3B46082A14BF002201229F
:1086240004F089F90697CDF81C80B2B2ADF8202089
:108634000B9515440C95A3788DF83430237B022BCD
:1086440016D00023ADF8283005A804F06CF90EB05C
:10865400BDE8F0817846FFF7A1FCCDE77846FFF747
:108664009DFCCBE77846FFF799FCC9E70221D0E7E8
:1086740023692BB1236909931023ADF82830E3E76C
:108684007846FFF78BFCF5E72DE9F04188B0044606
:108694000D46C37D002B3CD0082605FB06F8637A03
:1086A400AB4238D0257201AB324602A92046FFF70F
:1086B4007DFF074648BB4DB994F8533033B9A369DD
:1086C400C3F30C03E380012384F85330E37D7BB9C7
:1086D40094F8523063B91DBBB4F84A10A27823460B
:1086E4008A1AE16E0846FFF77EFF012384F85230B0
:1086F40007992046FFF7F6FCE16E324641440198A3
:108704001BF03BF902A804F075FB384608B0BDE83D
:10871400F0810C26C1E7B4F84A60A6EB0806C1E76D
:108724007846FFF73BFCD7E770B505460E4609B11E
:1087340000230B6095F85040002104E0631C85F889
:1087440050300134E4B26B7AA34210D3EA6C0123B3
:10875400A3401A42F5D121462846FFF795FF01466A
:1087640028B9002EEAD0336801333360E6E70846BF
:1087740070BDF0B589B085781544C37D7BB10B23FA
:108784009D4224D816460F46044601AB2A4602A948
:10879400FFF70CFF054620B1284609B0F0BD0F23B2
:1087A400EEE707992046FFF79DFCE37D43B132468F
:1087B400394601981BF0E1F802A804F01BFBEBE733
:1087C4002346324601993846FFF70DFFF4E70925A1
:1087D400E2E7000010B5044690F84830012B0CD1B4
:1087E40003F052F9237B012B0BD0094BD9680144C8
:1087F40004F1300003F01EF910BD7846FFF7CEFBFC
:10880400EEE7A37D024AD168126902FB0311EEE789
:10881400EC36002030B583B0002403E02846FFF78F
:10882400D9FF0134032C19D8C4EBC4031A010C4B2F
:10883400134493F84830012BF3D100230193C4EB84
:10884400C4021301064D1D4401A92846FFF76CFF1D
:108854000428E3D0019B002BE3D0DFE703B030BD55
:108864000437002038B5044690F84830022B09D16B
:10887400064B1D6803F008F9411904F1300003F0B8
:10888400D9F838BD7846FFF789FBF1E7EC360020CC
:1088940038B5044690F84830022B10D10A4B5D7D60
:1088A4005A689B6803FB052503F0EEF8411904F1AF
:1088B400500003F0BFF8012384F8683038BD7846CF
:1088C400FFF76CFBEAE700BFEC36002010B5044666
:1088D400808A02F039FC01281CD1237BE3B194F98E
:1088E4001620002A1ADBE27D4AB1022B18D094F933
:1088F4000330002B16DBA378B3B900200BE0E27839
:108904000AB9012B12D1237893B9A378042B11D17E
:10891400002000E0102010BD1020FCE70720FAE73B
:108924001020F8E70720F6E70720F4E70720F2E72E
:108934000020F0E70720EEE738B50446C2698169F4
:10894400808A06F045FA054608B9284638BDE1692B
:10895400002201F00101A08AFFF7D8FCF5E700002E
:108964002DE9F04780460E4617464B1EDBB2012B1D
:108974000FD8B7F5C07F10D80024032C1AD8C4EB45
:10898400C4031A01304B134493F848304BB10134FB
:10899400F3E77846FFF702FBEBE77846FFF7FEFACA
:1089A400EAE7DFF8A4A015465544384608F013FB5F
:1089B400E86600E000255DB3EB6E002B42D0434631
:1089C4002A4608F1300ED3F800C05C689868D9686C
:1089D400C2F800C054609060D16010331032734507
:1089E400F1D10023EB64A5F84A70012E13D06FF087
:1089F4000103AB62002385F86830144BAB652D6628
:108A0400134BAB632D64012002F07EF885F84860B7
:108A14002846BDE8F0870F4B1B7D85F851300023B5
:108A240085F8523085F8533085F85030D8F828202E
:108A34006A65A5F858306FF00103AB62064BAB636F
:108A44002D64E0E71D46E3E7043700209F9302000E
:108A5400858D0200EC360020D18D020000B585B072
:108A640000238DF80F3098B10346084602330B609B
:108A74000DF10F0103F05BFF9DF80F3043B10D4B77
:108A84001B6813F0040F03D00B4B1B68032B04DC8F
:108A94009DF80F0005B05DF804FB084BD3F80435CE
:108AA400074A009240F237420649042004F0AEFF20
:108AB400EEE700BF682F0020642F00200010014063
:108AC40024460400184604002DE9F0438FB0044600
:108AD4000E4615461F46D0F81890037823B1C18876
:108AE4004846FFF7F3FAA06104F10C00E378002B89
:108AF40037D00121A2780DF128084346082A14BF73
:108B04000022012203F017FFC4F81890CDF8088062
:108B14000396A378EA1A92B2ADF810203244089270
:108B240007978DF824300023ADF81830E37863B349
:108B3400237B022B17D02546002345F8243F2A46E1
:108B44002179206A0FF0A0F9606A90B101A9FFF7BA
:108B540085FF00283ED12A462179206A0FF094F936
:108B6400F2E70221C6E71023ADF818302369059314
:108B7400E1E7237B022B31D104F10C01E0890FF0F2
:108B840035FA0028D4D1052025E0237B012B01D020
:108B9400052020E0E389ADF80030A38AADF8023067
:108BA400002500E00135012D12D82146002341F8AB
:108BB400243F0EAB03EB450333F8380C0FF081F977
:108BC40001A9606AFFF74AFF0028EBD0002002E009
:108BD400052000E000200FB0BDE8F0830520FAE78F
:108BE40070B5F0B00D4614461E4610AB0A46014659
:108BF4002046FFF769FF50B1224B1B6813F0040FA6
:108C040003D0214B1B68052B2FDC70B070BD2046B0
:108C1400FFF792FE0028F8D103AB01228DF80C2057
:108C2400A28AADF80E20002204928DF8142010AA16
:108C34000692A278AD1AADF81C5008AA93E8030076
:108C440082E803000AAB04F10C0292E8030083E813
:108C54000300A37D8DF83830236A0C93636A0D9367
:108C64000F9605A800F082FDCFE7084BD3F8043532
:108C7400074A009240F20E720649062004F0C6FE2E
:108C8400C3E700BF682F0020642F002000100140BC
:108C9400484604001846040010B50446C06E08F0A7
:108CA4009EF904F1300002F0ADFE94F84830022B36
:108CB4000AD07022002120461AF088FE002084F891
:108CC400480001F021FF10BD04F1500002F09AFEAB
:108CD400EFE710B58CB0044690F84830012B0CD166
:108CE40001238DF80430636D029301A800F03EFD6A
:108CF4002046FFF7D1FF0CB010BD7846FFF74EF9C0
:108D0400EEE7000030B585B00D460446A8B194F8EE
:108D14004830022B15D02946606DFFF713FB20461F
:108D2400FFF7BAFF114B1B6813F0040F03D0104B6D
:108D34001B68032B0ADC05B030BD7846FFF72EF91B
:108D4400E5E700212046FFF78FFBE4E7094BD3F862
:108D5400043594F8482002950192074A009240F2A3
:108D64002E220649042004F051FEE4E7682F002077
:108D7400642F002000100140FC4404001846040045
:108D840008B508460021FFF7BDFF08BD08B5037B01
:108D9400012B02D0FFF79DFF08BD0121FFF7B2FFB1
:108DA400FAE7000008B590F8513053B1013B80F860
:108DB4005130002380F85030034B186803F076FCE0
:108DC40008BDFFF7E3FFFBE76036002010B50C4653
:108DD40091F84830012B03D12046FFF7E3FF10BD83
:108DE4007846FFF7DBF8F7E7062976D1F0B585B0CA
:108DF40015460278910101F4FE5147788478C378CE
:108E04001B0443EA0463047943EA042344791C43BE
:108E140056B241EA97012846FFF7BCF90746E0B18C
:108E2400002E2FDBC289A98A8A422BD02B4B1B68C8
:108E340013F0040F3ED02A4B1B68012B3ADD294B5B
:108E4400D3F8043502910192274A009240F28C62D1
:108E54002649022004F0DAFD2CE0204B1B6813F0B5
:108E6400040F27D01E4B1B68012B23DD1D4BD3F8A9
:108E740004351F4A009240F284621C49022004F027
:108E8400C5FD17E0002E17DBFD6C2543FD64BCB166
:108E94003B78D3B17B7A5A1C01239340013B9D421A
:108EA40017D0002187F850103846FFF73DFC3846AC
:108EB400FFF790FC05B0F0BDAB8AA7F85830E3E7A4
:108EC40003213846FFF71EFFF4E77846FFF766F8FC
:108ED400E0E73846FFF7FDFEECE77047682F002017
:108EE400642F00200010014064450400184604006B
:108EF400344504002DE9F0438BB007460E46144672
:108F04001D461046FFF718FD50B994F80380B8F1D8
:108F1400000F08D12B46224631463846FFF764FF3E
:108F24000BB0BDE8F0834046FFF7BCF9814600284A
:108F3400F6D08DF80480236A0793A38AADF8123023
:108F440005AB04F10C0292E8030083E80300A37D5F
:108F54008DF820300297039623788DF81030E36A59
:108F64000993294601A8C847DAE710B5547814F0E4
:108F7400010F03D0D47D14B1FFF7BCFF10BDFFF780
:108F84002FFEFBE708B501390130FFF7EEFF08BDFE
:108F9400F0B5C7B086781644C37D2BB14FF4807307
:108FA400B3427ED3002303E04FF4C073F8E70133E8
:108FB400032B19D8C3EBC30425013C4C2C4494F86F
:108FC4004840012CF3D1394C2C44A58A848AA5420B
:108FD400EDD1C3EBC3042501344C2C44E589C48989
:108FE400A542E4D1082455E014460F463246012137
:108FF400FFF7B6FC0546002855D022463946C06E18
:109004001AF0BBFC0023459345A92846FFF78CFBC7
:10901400044608B1042840D1459B7BB9244B1B6806
:1090240013F0040F35D0234B1B68032B31DDB5F847
:109034004A70802F28BF8027002313E02846FFF7BB
:10904400C9FBEBE7EA6ED25C1B490C6810095900B6
:10905400265C04A800F8136002F00F020131A25C40
:1090640042540133BB42EDD304AA002302F8173063
:1090740003F1804303F58833D3F8043502920F4A91
:1090840001920F4A009240F271520E49042004F0FA
:10909400BDFC0024204647B0F0BD2846FFF7FCFD88
:1090A400F8E70924F6E70424F4E700BF04370020B6
:1090B400682F0020642F00206C2F0020A845040096
:1090C400D44204001846040070B504460D46164602
:1090D400FFF7FCFB034638B923783BB132462946F7
:1090E4002046FFF755FF0346184670BD3246294611
:1090F4002046FFF73EFB0346F6E7000038B504467A
:109104000D46CB695B780371CB691B7883F001034F
:10911400C370CB6943628B8A0B2B07D8CB7A002BA5
:1091240035D10B7B012B02D0002300E001232370F7
:10913400002B31D0287B02282BD0FFF77FF8A070BA
:10914400AB8A03440B33174880FB03235B10013BBA
:109154006372002323720023E37504F10C0395E882
:10916400030083E80300AB6923622B89A382AB7AF3
:10917400A3752B6AA362DF23E36228460EF064FF23
:1091840020B12B78012B0AD0FF23E36238BD0123E1
:10919400CDE7054B987DD0E70423A370DBE72023BC
:1091A400F3E700BFABAAAA2AEC36002010B54FF4AF
:1091B400E072002113481AF009FC05F0BBFE0024FC
:1091C400114B1C608022214610481AF0FFFB104B03
:1091D400104A1A60104A5A604CF250329A600F4991
:1091E400D9601A6104221A759C7508225A750C48B4
:1091F40003F03CFA0B4B18600B4B1C600B4805F05A
:109204009BFF10BD04370020E8360020683600209C
:10921400EC36002080969800F049020020A1070057
:1092240091930200603600205436002071830200BE
:1092340008B505F0C5FD08BD98B110B58CB004465D
:10924400036983B1C36983B1836983B10146684605
:10925400FFF754FFA28A21696846FFF735FF0CB077
:1092640010BD0E2070470E20F9E70E20F7E70E2000
:10927400F5E790B110B58CB0044642687AB18269C2
:109284007AB10A4601466846FEF7DDFFA2686168C6
:109294006846FFF719FF0CB010BD0E2070470E2072
:1092A400F9E70E20F7E70000037B012B01D0002033
:1092B400704710B58CB000230193CDF80730C288F5
:1092C400C2F3861492008DF801200A0E8DF8022054
:1092D4000A0C8DF803200A0A8DF804208DF8051075
:1092E4004278022A14BF0022012244EAC2148DF8F3
:1092F40000400622059201228DF81C20828AADF8D6
:109304001E2008938DF80C30CDF810D0026A099213
:109314008DF81830C389ADF81A30C36A0B93837D76
:1093240043B98DF828306FF0010103A8FFF7A1FFBE
:109334000CB010BD024B5B7D8DF82830F3E700BF05
:10934400EC36002090F84830022B00D0704790F89B
:109354006830022BFAD110B50446C16CFFF7A4FFA4
:1093640010B9002384F8683010BD000010B5002443
:1093740007E0C4EBC402130103481844FFF7E2FFFB
:109384000134032CF5D910BD0437002008B5FFF7CC
:1093940041FAFFF7EBFF012008BD10B50C4691F828
:1093A4004830022B06D1022384F868302046FFF7A8
:1093B400C9FF10BD7846FEF7F1FDF4E72DE9F0434F
:1093C4008FB00646FEF7FEFF002840F08E80304640
:1093D400FFF724F8074600283CD13046FEF710FF7B
:1093E400044658B13046FEF7D9FF804689462046E8
:1093F400FEF7D4FF494508BF404553D3002C75D12F
:10940400757A6B1CF27D002A52D0082505FB03F502
:10941400002A4FD04FF48073AB424ED3F188B06929
:10942400FEF754FEF2690146B08A05F02DFD0028CE
:109434005CD12A4602213046FFF792FA04460028FE
:1094440054D100213046FFF72FFF02210020FEF700
:1094540079FF4BE002AC35460FCD0FC40FCD0FC4DE
:1094640095E80F0084E80F00BB788DF809307BB1D4
:109474009DF8083073B19DF811104B1C01219940DF
:10948400013902A8FFF710FFBB7813F0010F05D1D3
:1094940000242BE07846FEF781FDECE73046FFF729
:1094A4004BFAF5E705212046FFF72CFC3C46A7E7DD
:1094B4000C25ABE74FF4C073AEE70E4B1B6813F0FB
:1094C400040F03D00C4B1B68002B01DC3C460DE061
:1094D4000A4BD3F804350195094A009240F29232BE
:1094E4000849012004F092FAF0E7002420460FB066
:1094F400BDE8F083682F0020642F00200010014095
:1095040020450400184604002DE9F04182B00646C7
:10951400884615461F461046FFF750FF002847D0DF
:109524000446434B1B6813F0040F03D0414B1B68E4
:10953400032B40DC2046FFF795F9237B012B48D011
:10954400E16C2A7A01239340194231D10B43E3643D
:10955400A8F104082B7AEA7D002A42D04FF0080CC7
:109564000CFB03FC617A8B423ED0002A41D00823D5
:10957400434540D1A269AB699A4209D204F10C0E69
:109584000C350FCDAEE80F0095E803008EE803001C
:10959400E06E4246311D60441AF0EFF9E56C237821
:1095A40073B3637A5A1C01239340013B9D422BD031
:1095B40002B0BDE8F081204BD3F804352A7A019239
:1095C4001E4A00924FF471721D49042004F01EFAE1
:1095D400B0E794F86830002BB2D12046FFF758F971
:1095E400AEE74FF00C0CBBE70CEB0803A4F84A30D1
:1095F400C0E70C23BCE704212046FFF783FBD7E731
:109604007846FEF7CBFCCCE7E16C2046FFF74CFE36
:109614003B462246B4F84A10E06EFFF7A6FC01214F
:109624002046FEF721FF2046FFF736FBC0E700BFC8
:10963400682F0020642F00200010014038460400E9
:10964400184604002DE9F04190B0002842D080462D
:10965400002A41D01F4614460E4604AB00933B46F5
:10966400FEF736FF054618B1284610B0BDE8F08174
:1096740004A8FFF72BF905460028F5D12269E16813
:10968400208905F001FC0028EED100230293039306
:1096940002A960880EF0AAFC38B19DF8113043F09D
:1096A40001038DF81130039B08939DF81130002BB2
:1096B400DAD09DF8103033B13B4604AA3146404617
:1096C400FFF722FFD0E73B4604AA31464046FFF7A6
:1096D40059FCC9E70E25C7E70E25C5E7F8B500B361
:1096E4000546164B1F68F7B90E463C46B4420ED2E7
:1096F40005EBC4035B68CBB115F8340010F0800FA0
:1097040016D1B8B1FEF7CEFDB0B90134EEE70C4B7B
:1097140043F8375003EBC7035E607B1C074A1360B2
:1097240002E00E2700E004273846F8BD0E27FBE7C9
:109734000B27F9E70F27F7E70F27F5E75436002043
:1097440058360020084B196861B110B504E006488A
:1097540004F0C7F8214624B10C680B79002BF9D02A
:10976400F5E710BD704700BFC838002038B505467E
:1097740030B1104B1C68ACB10F4B01221A7004E0DD
:109784007846FEF70BFCF4E724683CB12379002B00
:10979400FAD154F8043C28469847F5E7064B1B7861
:1097A400022B00D038BDFFF7CDFF034B00221A7007
:1097B400F8E700BFC8380020C438002010B50446BC
:1097C40030B100232372211D034804F05FF810BD5B
:1097D4007846FEF7E3FBF4E7C838002010B50446EA
:1097E40058B10A4B1B78013BDBB2012B09D8074B5C
:1097F40002221A700123237210BD7846FEF7CEFBB5
:10980400EFE7211D024804F06CF8F5E7C4380020A6
:10981400C83800200A8883689B5A07339BB223F018
:10982400030313449BB20288043A934200D90023F1
:109834000B80704710B582B004468368C91AADF82E
:1098440006100DF10601FFF7E5FFBDF80630A0682C
:10985400184402B010BD0088043880B270474388B1
:109864008268D018D1520123837070478268002324
:109874009370438083807047073189B221F00301DC
:1098840089B2428883889A4204D29B1A99421EDC88
:109894000020704710B59A420FD90488A41AA14237
:1098A40017D98B4217D3032C03D98368134404229A
:1098B4009A7000234380184604E0826813449B781E
:1098C4000BB1042010BDFFF7D1FF0020FAE70420FC
:1098D40070470020F6E70420F4E738B504460D4647
:1098E4008368828813448B4202D07846FEF756FB85
:1098F4000023AB70211D2046FFF78CFFA288A368CC
:1099040013449B78042B00D038BD0023A380FBE7CD
:1099140010B50C468368428813448B4202D07846C3
:10992400FEF73CFB0023A37010BD70B50646154638
:109934000C46002944D0002E46D0B4F1005F08D96B
:109944004FF08053D3F80C3103F50023B4EB832F8D
:109954000ED3B4F5000F08D94FF08053D3F80C316F
:1099640003F50053B4EB832F02D37846FEF716FBBE
:109974006B1E2344B3F1005F08D94FF08052D2F834
:109984000C2102F50022B3EB822F0ED3B3F5000FA6
:1099940008D94FF08052D2F80C2102F50052B3EBF3
:1099A400822F02D37846FEF7F9FA042D10D93580B8
:1099B40000237380B380B460043D2580A37070BD20
:1099C4007846FEF7EBFAB6E77846FEF7E7FAB4E72F
:1099D4007846FEF7E3FAEAE738B50446A0B16288B0
:1099E400A36813449B78012B12D0EFF3108572B651
:1099F400A388A16819448B78032B0DD02046FFF768
:109A040035FF05B962B638BD7846FEF7C7FAE6E712
:109A14007846FEF7C3FAE8E72046FFF70BFFA36892
:109A2400C31A638000238370EBE72DE9F0410E46EF
:109A340015460446D0B1EEB16288A36813449B78FE
:109A4400012B1BD025B32046FFF705FFA84221D3E5
:109A5400EFF3108872B629462046FFF70DFF07463C
:109A640080B1B8F1000F16D162B614E07846FEF763
:109A740095FAE0E77846FEF791FADDE77846FEF7D7
:109A84008DFADFE729462046FFF7E9FE3060E8E774
:109A9400092700E009273846BDE8F081F8B50C46EF
:109AA40016460546E0B1FCB1A378012B20D12388EA
:109AB400B34221D326B3EFF3108772B62680022374
:109AC400A370E9182846FFF7A5FE6B88AA8893427D
:109AD40003D0AA68134400229A7007B962B6F8BD8D
:109AE4007846FEF75BFADEE77846FEF757FADBE7DF
:109AF4007846FEF753FADAE77846FEF74FFAD9E7E5
:109B04007846FEF74BFAD6E770B50D46044690B199
:109B1400ADB1EFF3108672B6A288A36813449A78A5
:109B2400042A10D09A78022A15D0032A18D00520C6
:109B340006B962B670BD7846FEF730FAE8E77846B3
:109B4400FEF72CFAE5E7211D2046FFF763FEA28805
:109B5400A3681344E6E703229A702B600020E7E72A
:109B64007846FEF71BFA0020E2E738B5044680B1D8
:109B7400EFF3108572B6A088A16801448B78042B9A
:109B84000BD08878022814BF0020012005B962B6E2
:109B940038BD7846FEF702FAEAE72046FFF74AFEA8
:109BA4000146EEE738B5044678B1EFF3108572B696
:109BB400A088A16801448878C31EDBB2012B08D8B1
:109BC4002046FFF737FE0146F5E77846FEF7E6F94B
:109BD400EBE7022814BF0020012005B962B638BDA6
:109BE40070B50C46064678B194B1EFF3108572B6A1
:109BF400A378012B10D0032B13D121463046FFF755
:109C04006CFE05B962B670BD7846FEF7C7F9EBE79E
:109C14007846FEF7C3F9E8E721463046FFF778FEB9
:109C2400EFE77846FEF7BAF9EBE710B5EFF31084E7
:109C340072B68388816819448B78042B06D088789F
:109C4400B0FA80F0400904B962B610BDFFF7F2FD26
:109C54000146F4E708B5064B986800221A605A607A
:109C64009A60DA601A615A619A6104F0B9FE08BD1B
:109C7400CC38002000B585B00A4BDB6802228DF891
:109C8400002001934FF480530293074A6946012050
:109C940001F070F918B9012005B05DF804FB00204B
:109CA400FAE700BFCC380020E838002000B585B0C2
:109CB4000A4B1B6802228DF8002001934FF4805355
:109CC4000293074A6946012001F054F918B90120AA
:109CD40005B05DF804FB0020FAE700BFEC38002073
:109CE400E8380020164BDA68137951795B1A03F5CA
:109CF4007F2303F6FF7302EB03339A4205D002F588
:109D040080520F4BDA600320704700B585B00D4BCD
:109D14001B6801208DF8000001930B4B039304236F
:109D240002930A4A694601F025F918B1002005B0EA
:109D34005DF804FB024B01221A760220F7E700BF0C
:109D4400CC380020EC380020F0380020E83800201F
:109D540000B585B00C4BDA680C4B1B68043301204A
:109D64008DF800000192039340F6FC730293084AB5
:109D7400694601F0FFF818B90120034B187600E09A
:109D8400002005B05DF804FBCC380020EC3800203E
:109D9400E838002000B585B00A4B1B6801208DF817
:109DA40000000193084B039304230293074A694676
:109DB40001F0E0F818B9012005B05DF804FB0020BB
:109DC400FAE700BFEC380020D8380020E83800203B
:109DD40010B584B0104BDA681478104B1B68043348
:109DE40001208DF800000193039202940C4A694605
:109DF40001F0C0F868B9094B1B6804F0FC041C446A
:109E04000434054B5C61D9680A780A441A6101205C
:109E140000E0002004B010BDCC380020EC38002055
:109E2400E838002008B50023092B09D8064A52F85F
:109E34002320824201D00133F6E7044A536002E052
:109E44007846FEF7ABF808BD74460400CC38002011
:109E540010B5214BDB6853B11F4B1B7E5BB91E4B06
:109E64005B68092B26D97846FEF798F822E07846F5
:109E7400FEF794F8F0E77846FEF790F8EFE7164A15
:109E8400536801335360092B21D97846FEF786F8CD
:109E94001DE0114B00225A6019E00F4B1B7E1BB1D1
:109EA4000D4B02221A7012E0FFF7D4FE0FE00A4BAA
:109EB4001B7E83B9084B5A68084B53F822309847E5
:109EC40004460228E9D00328E3D00128D7D0012C86
:109ED400EDD0032CEBD010BDCC3800207446040028
:109EE400104B1B681B685A1E12F1030F18D8C3F3DA
:109EF4000B020AB10020704710B50B4AD36000234F
:109F0400137653760124147093600848FFF78AFF90
:109F14000749204601F01CF8FFF79AFF204610BDC0
:109F240000207047EC380020CC380020799C0200D7
:109F3400399F020008B50B78032B06D00B4B1B7816
:109F4400012B06D0022B0BD008BD084B00221A7639
:109F5400F4E7064B1B7E002BF6D1FFF779FFF3E7FE
:109F64000B78032BF0D1FFF775FEEDE7CC3800201A
:109F740000B585B0174BDB6818784FF6FF7203F510
:109F84008051184405F08EF8F0B10246114BD9689F
:109F94000B780B44984219D00E4B5B7E93B10E4B59
:109FA40001208DF8000001920393042302930B4ACD
:109FB400694600F0DFFF58B90120064B187605B05A
:109FC4005DF804FB064BEBE70120F8E70120F6E718
:109FD4000020F4E7CC38002038490400E838002099
:109FE4003449040008B5104BDB681878002203F5E7
:109FF4008051184405F056F808B1012008BD0A4BF9
:10A00400DA68137951795B1A03F57F2303F6FF733A
:10A0140002EB03339A4205D002F58052024BDA6018
:10A024000320EBE70220E9E7CC380020F0B585B047
:10A03400514BDD686A792B79591E8A4214D005F593
:10A0440080510C780C444D490968081D0E7906446A
:10A054009B1A05EB03356388013B9BB247F6FE620E
:10A06400934260D927461BE00120434B58767EE09B
:10A074007846FDF793FF16E027F47F6323F00F0380
:10A0840003F580531A7813449D4247D99C4247D222
:10A094005A88013A92B21F4647F6FE618A4210D9A5
:10A0A4003B88002BE4D03B8807EB830323F47F62D7
:10A0B40022F00F029342DFD07A88B2F5FE4FE3D14B
:10A0C400DAE71C462FE07846FDF768FF16E027F430
:10A0D4007F6323F00F0303F580531A7813449D42E2
:10A0E40020D99C423BD25A88013A92B21F4647F685
:10A0F400FE618A4210D93B88002BE4D03B8807EBF1
:10A10400830323F47F6222F00F029342DFD07A8824
:10A11400B2F5FE4FE3D1DAE71C4604E0002402E086
:10A12400002400E00024E4B1144B1968628801F5AE
:10A134008051304604F0B6FF064690B101200E4B24
:10A1440018768DF8000001940D4B039304230293B9
:10A154000C4A694600F00EFF58B92746CBE70024A5
:10A16400E1E7B4FA84F46409034B5C76012005B09A
:10A17400F0BD0020FBE700BFCC380020EC38002005
:10A1840030490400E83800202DE9F04186B0644BE2
:10A194001B6923B1624B5B692BB1002748E0784609
:10A1A400FDF7FCFEF6E77846FDF7F8FEF5E778469E
:10A1B400FDF7F4FE17E028F47F6323F00F0303F5A3
:10A1C40080531A7813449E421FD99C4221D25A8844
:10A1D400013A92B2984647F6FE618A4213D9B8F81A
:10A1E4000030002BE3D0B8F8003008EB830323F4ED
:10A1F4007F6222F00F029342DDD0B8F80220B2F55C
:10A20400FE4FE0D1D7E71C4600E000241CB10094C7
:10A2140038E00024FAE700230093019B002B5AD175
:10A224000127002C76D0628847F6FF739A4271D0DA
:10A23400002F73D13A4B5A6922F47F6525F00F053C
:10A24400AD1A05F580551C69DE68337972799B1A5D
:10A2540006EB0336002301936388013B9BB247F668
:10A26400FE629342D3D9A046B9E77846FDF796FE3D
:10A2740023E024F47F6424F00F0404F5805423784D
:10A2840023441C46A642C8D92388019A02EB8302C0
:10A294009542C2D9009B634023F47F6323F00F03EC
:10A2A400002BBAD16388013B9BB247F6FE618B4217
:10A2B400B3D801922388002BD7D0238804EB8303DF
:10A2C40023F47F6222F00F029342D2D06288B2F567
:10A2D400FE4FD6D1CDE7124A526901208DF808000D
:10A2E4000392009A059204930E4A02A900F042FEDA
:10A2F40070B90B49019B23F003024B6913444B6172
:10A3040014B1074B1C618CE77846FDF747FEF8E76C
:10A31400002000E0012006B0BDE8F0810120FAE74A
:10A32400CC380020E838002008B54FF010235B69D2
:10A33400B3F1FF3F09D04FF010235B692BB14FF00D
:10A3440010235B69A3F5805305E04FF080525169F7
:10A35400136903FB01F3A3F58053024A1360FFF76B
:10A36400BFFD08BDEC38002010B50446B0B1104B59
:10A374001B78BBB10E4BD968E3685879A3EB003264
:10A38400914211D31A79121A02F57F2202F6FF7252
:10A3940003EB0233994209D8012004E07846FDF723
:10A3A400FDFDE4E7002010BD0020FCE70020FAE7F3
:10A3B400CC380020024B1878003018BF01207047B9
:10A3C400CC38002010B504460E4B1B7893B9237883
:10A3D400032B13D10B4B9C60E268DA6000225A60B5
:10A3E4001A76012018705A76074900F0B1FDFFF77C
:10A3F4002FFD10BD7846FDF7D1FDE8E77846FDF75F
:10A40400CDFDE7E7CC380020399F0200014B1868E6
:10A41400704700BFEC38002010B5044680B1636873
:10A424001BB123680BB1A36813B97846FDF7B6FDD9
:10A43400A3685A1E134207D10023E360236110BDB1
:10A444007846FDF7ABFDEAE77846FDF7A7FDF3E7AD
:10A4540070B5F0B104468368EBB1EFF3108572B6C2
:10A464000369C068834210D0084621686268A66800
:10A47400013E334003FB021108B119F07EFA23694F
:10A48400013323614DB962B608E005B962B605250A
:10A4940004E00E2502E0092500E00025284670BDF1
:10A4A4000246C0F30B0048BB51B310B401F6FF7170
:10A4B4000C0B144B0221C3F80415124BD3F80034CF
:10A4C400002BFAD0014602E002F580520131A1428C
:10A4D40008D20C4BC3F808250A4BD3F80034002BE0
:10A4E400FAD0F1E7074B0022C3F80425054BD3F853
:10A4F4000034002BFAD05DF8044B704710207047ED
:10A504000920704700E0014010F0030F2FD111F033
:10A51400030F2FD182B312F0030F2FD110B492087E
:10A52400174B0124C3F80445154BD3F80034002B12
:10A53400FAD002E0043004312246541E52B10B68B2
:10A54400B3F1FF3FF6D003600D4BD3F80034002B7A
:10A55400FAD0EFE70A4B0021C3F80415084BD3F8EF
:10A564000034002BFAD010465DF8044B70471022DB
:10A57400104670471022FBE70922F9E70922F7E7A2
:10A5840000E001404388012B05D0022B01D10430A7
:10A5940008600120704704304860FAE708B50822D3
:10A5A4000221084804F08DF838B1074A91684160E7
:10A5B400127B027204F0BEF808BD044804F0E8F906
:10A5C400FAE700BFFC38002048390020282F00207B
:10A5D4000E4B1B78CBB910B50D4B5C6804F50054D9
:10A5E400B4F1807F00D910BD04220121094804F090
:10A5F40068F830B14460054A0121117004F09AF8FA
:10A60400F1E7054804F0C4F9EDE770475C39002030
:10A6140048390020FC380020182F002010B50446CB
:10A6240008B1A04710BD7846FDF7B8FCF9E7000073
:10A6340008B501210C4804F0A5F820B902210A4804
:10A6440004F0A0F828B1094804F0A2F9FFF7C0FF0C
:10A6540008BD074A0023136053609360D3601361FD
:10A66400044A1370F2E700BFFC380020482F002092
:10A67400483900202039002000B58DB00B4B1B7BDE
:10A68400012B0ED0094A926804928DF80830039089
:10A6940002238DF8043001A8FFF768F80DB05DF8C7
:10A6A40004FB024A9268013A0492EEE7483900201A
:10A6B40010B58CB00C4682B94B88012B20D1134BBA
:10A6C4001B7833B16268124B5A60104B00221A7027
:10A6D40016E07846FDF762FCF4E7032A12D12C2237
:10A6E400002101A819F072F911238DF804300394A4
:10A6F400084BDA6805921B69069301A8FFF736F840
:10A704000CB010BD7846FDF749FCE8E75C39002041
:10A7140048390020FC38002000B583B001F02EFF3A
:10A724000021009101916B46134A144803F0BEFEC8
:10A73400009B63B1019A52B1186811498860187975
:10A74400087393420BD950B900220A600AE00C4BFB
:10A7540000221A609A601A73FFF720FF02E0126861
:10A76400074B1A60064B1A685A60FFF731FF01F075
:10A7740049FF03B05DF804FB89A50200FC38002002
:10A784004839002008B504F057F9A0F5805008BDF9
:10A7940000B587B0002300930193029303930493BD
:10A7A4000593FFF7EFFF009001230193064B0393FA
:10A7B4006946064804F09DF810B907B05DF804FB3B
:10A7C400034804F0E5F8F8E7B5A60200FC380020D9
:10A7D400382F002010B50B4B00241C605C609C607B
:10A7E400DC601C6101F050F9074B5860074A9A601D
:10A7F400074ADA601C615C61064B1C70FFF7C8FFF6
:10A8040010BD00BF483900202439002049A90200A6
:10A81400008793035D39002008B5084B1B7803B10A
:10A8240008BD0748074B036000F05CFE064801F0D2
:10A83400C3F8024B01221A70F2E700BFF838002077
:10A844003C39002071AA02002439002010B501F01F
:10A8540095FE164B1B7B0BBB144B9B7B1BBB134BFB
:10A864001A8A41F282639A4204D8114B1B782BB1A5
:10A87400012300E001231BB9082410E00023FAE7B8
:10A884000A4B01221A7300241C829A6801329A60CE
:10A89400FFF784FE2046FFF7EFFE00E0082401F0F6
:10A8A400B1FE204610BD0824F9E700BF4839002056
:10A8B4005D39002010B501F061FE204B5B7B9BB13C
:10A8C4001E4B9B7BF3B91D4B1A8A41F282639A4259
:10A8D40004D81B4B1B782BB1012300E001239BB14F
:10A8E400012302E00023FAE700231C460BB3134BB9
:10A8F40000225A731B7B4BB1012B0ED07846FDF717
:10A904004DFB16E00023F0E70023EEE7FFF79EFF80
:10A9140078B17846FDF742FB0BE0084B0020186045
:10A92400586018731882FFF7A7FEFFF737FEFFF78A
:10A934004FFE01F067FE204610BD00BF48390020DD
:10A944005D39002008B5214B1B7B7BB1012B20D046
:10A954007846FDF723FB1D4A138A013313821B4BF0
:10A964005B8A13B1013B194A538208BD174B1A8AFB
:10A9740041F282639A4204D8154B1B783BB1012300
:10A9840000E00123002BE6D0FFF794FFE7E7002364
:10A99400F8E70E4B1B8A41F28262934204D80C4AB8
:10A9A400127872B1012200E00122002AD3D042F2CF
:10A9B400B012934207D9054B01225A73FFF77AFF6D
:10A9C400CDE70022F1E7FFF775FFC4E7483900201F
:10A9D4005D39002010B5244B1B7B002B35D1044678
:10A9E400214B5B8A2BBB1AB91F4B9B688B4205D347
:10A9F400FAB11D4B9B6801338B421AD21A4B9B68E8
:10AA04002A338B4223D3184B9B7B03BB164B996091
:10AA140000221A605A601A8242F6065159825A7309
:10AA24001A73FFF7BBFDFFF7D3FD2046FFF724FEA3
:10AA34000DE062B10C4B9B6801338B4207D10A4B8A
:10AA440001225A73FFF736FF01E0012B00D010BD3D
:10AA5400002AFCD1044B9B688B42F8D1024B0122A3
:10AA64005A73FFF727FFF2E7483900200378042BD5
:10AA740000D0704743681B78002BFAD010B5846867
:10AA8400027E437E012A14BF00220122416904F19F
:10AA94001000FFF79FFF10BD10B5184B1A685B68D4
:10AAA4009A4226D20446154B1B7B012B14D0144B1F
:10AAB4009A4213D2114B1A685B68403B9A4215D2F2
:10AAC400EFF3108172B60D4A1368581C10602360AE
:10AAD40001B962B6002010BD0A4BE9E7074B012219
:10AAE4005A73FFF7E7FE0028EAD1E3E7FFF770FDAA
:10AAF400E6E7FFF76DFD0F20EDE700BF48390020C2
:10AB0400FFFF7F0000E0FF0008B538B10D4B0122C4
:10AB14009A730D4A13680133136008BD0A4B1B680E
:10AB24005BB1094A1368013B1360002BF5D1054B57
:10AB340000229A73FFF7BEFEEFE77846FDF72EFA80
:10AB4400EFE700BF48390020F438002000B58DB08D
:10AB5400ADF808008DF81020039103238DF804301C
:10AB640001A8FEF703FE0DB05DF804FB014B9868E5
:10AB7400704700BF48390020054B1B7B012B02D0D6
:10AB8400034B98687047024B98680138704700BFC0
:10AB940048390020044B9B68584010F0010F00D046
:10ABA400013B1846704700BF48390020014B187B11
:10ABB400704700BF4839002038B50B4B1B780BB1E8
:10ABC400082038BD084B01221A70084DA86029736B
:10ABD400FFF7E4FC0020FFF74FFD00242C606C60BD
:10ABE400FFF7F6FC2046ECE7203900204839002026
:10ABF4002DE9F041002722E02449BC2303FB04F3A0
:10AC0400CA5A0132CA520221404602F0AFFC013650
:10AC14000221404602F07AFC70B11C4ABC2303FBBB
:10AC240004239D68002DE7D0BC2303FB04F3D25A10
:10AC340001463846A847DFE796B90137FFB2022F2D
:10AC440020D83C46BC2303FB07F308330F4D1D44B7
:10AC540005F104080221404602F058FC0026DBE717
:10AC64000021404602F0EAFC0828E6D1074BBC224A
:10AC740002FB0434A368002BDFD0002204493846C9
:10AC84009847DAE70120BDE8F08100BF6839002069
:10AC94009C46040008B5082383731023437300F112
:10ACA4001C0343610323037300F1180303610C3095
:10ACB40002F096FC08BD000008B50378012B06D00D
:10ACC400022B06D07846FDF769F9002002E029201E
:10ACD40000E0014808BD00BF084C010008B5027837
:10ACE400012A07D0022A13D07846FDF757F94FF40A
:10ACF400FA7308E083685B1A9B0803EB830003EB99
:10AD0400C00303F5FA730748984228BF184608BDE4
:10AD140083685B1A180B044B03FB00F303F5FA7307
:10AD2400F1E700BF60850100084C010038B5044616
:10AD340001210C3002F0EAFB054678B1084BC4F857
:10AD44009C300023C4F8A0306168FFF7C7FFC4F843
:10AD5400A800C4F8AC40012384F8B830284638BDB4
:10AD640085AE020010B50446FFF7E0FF20B104F100
:10AD74009C000DF0DFFE00B910BD7846FDF70EF91A
:10AD8400FAE70000F8B506460C461746156803783E
:10AD9400012B18D11249A1FB043149098900B46877
:10ADA400641B8C4200D30C468CB1706825F00305FB
:10ADB400F168224629442844FFF7A6FB58B93B68AA
:10ADC4001C443C60F8BD7846FDF7E8F8E2E77846B5
:10ADD400FDF7E4F8E9E77846FDF7E0F8EFE700BFB0
:10ADE4007D0CCEC7F8B507460C46164615680378A1
:10ADF400022B16D1114BA3FB04231B0C1B03BC68B1
:10AE0400641B9C4200D31C467CB1786825F0030582
:10AE140021462844FFF744FB58B933681C44346086
:10AE2400F8BD7846FDF7BAF8E4E77846FDF7B6F8DA
:10AE3400EBE77846FDF7B2F8EFE700BFEB0661C534
:10AE440038B505460C4611462378012B06D0022B53
:10AE54000FD07846FDF7A2F8002304E0021D204637
:10AE6400FFF790FFA3686868984214BF0020012090
:10AE740038BD021D2046FFF7B5FFA368F3E70000C5
:10AE84002DE9F8438846D1F8A860234B1B7863B9B1
:10AE94000546A6F5FA7601F10C090121484602F0AF
:10AEA40035FB074640B1002424E00DF07FFE00236B
:10AEB40088F8B830BDE8F8837846FDF76FF8F2E714
:10AEC4000DF074FE0121484602F050FB0023C8F83F
:10AED400043088F8B830114B186801F0E7FB40469D
:10AEE400FFF740FFE6E72C1A3846FFF7E5FE20445B
:10AEF400B0420BD8321B39464046FFF7A1FF002869
:10AF0400DED101F013FA441BEED5ECE70DF04EFE52
:10AF14004046FFF727FFCDE7643900206039002061
:10AF240010B5084801F0A2FB074B18600024022C5E
:10AF340007D8064BBC2000FB0430FFF7ABFE0134FE
:10AF4400F5E710BDF5AB0200603900206839002038
:10AF540038B504460D46022805D8054BBC2202FB31
:10AF64000434A56038BD7846FDF718F8F5E700BF4E
:10AF7400683900202DE9F84306460C461746022896
:10AF840016D8CCB12378012B1AD0022B3ED163689A
:10AF9400C3F30B03002B31D1A368C3F30B03002BC2
:10AFA40030D1A368002B34D17846FCF7F7FF30E0AA
:10AFB4007846FCF7F3FFE4E77846FCF7EFFFE1E7B8
:10AFC400636813F0030F0DD1E36813F0030F0DD181
:10AFD400A36813F0030F0DD1A368D3B97846FCF727
:10AFE400DDFF16E07846FCF7D9FFEDE77846FCF77D
:10AFF400D5FFEDE77846FCF7D1FFEDE77846FCF79F
:10B00400CDFFC9E77846FCF7C9FFCAE77846FCF7E5
:10B01400C5FFEFF3108872B6BC2505FB06F505F1F4
:10B0240008032A4D1D4404350021284602F06EFA17
:10B03400814678B30021284602F098FA20686168B6
:10B04400A268E368C9F80000C9F80410C9F8082028
:10B05400C9F80C302FB11D4ABC2303FB06235B88BF
:10B064003B801A4ABC2303FB06235A8801325A80C8
:10B0740093F8B83083B9164B1B7813B10024A1465A
:10B084000CE0124BBC2000FB0630FFF74FFE81465C
:10B09400002403E0042401E00024A146B8F1000FD9
:10B0A40000D162B6B9F1000F09D0BC2000FB06F64E
:10B0B40098360648304404300DF03CFD10B9204663
:10B0C400BDE8F8837846FCF769FFF8E768390020A3
:10B0D4006439002038B50446EFF3108572B610B910
:10B0E400164B1B6873B18CB1144A13680133136097
:10B0F400124B1B68003318BF0123114A137005B9A2
:10B1040062B638BD7846FCF749FFECE70B4B1C6888
:10B11400013C1C6034B1EBE7BC2000FB0420FFF7CA
:10B1240021FE0134022CE3D8064ABC2303FB04238A
:10B1340093F8B830002BF4D1EEE700BF9C3B00201D
:10B14400643900206839002018B1830B024AD05CAE
:10B1540070470020704700BFAC46040012DF704700
:10B1640000B583B01378A3B1022B14D0002110F8DA
:10B17400013C163B152B31D8DFE803F05930303051
:10B184003030303030303030303030303030302EBD
:10B194000F3A517DEBE70721E9E7022901D007299E
:10B1A4001CD110F8021C013901F0DAFEB0B1264BB3
:10B1B4001B6813F0400F11D0244B1B68012B0DDDCD
:10B1C400234BD3F804350190224A0092932222495A
:10B1D400022002F01BFC01E0022902D003B05DF85A
:10B1E40004FB10F8021C0139C9B214F03DF8F5E76C
:10B1F4000229F3D110F8021C0139C9B203F0D0FEC0
:10B204000028EBD0104B1B6813F0400FE6D00F4B17
:10B214001B68012BE2DD0E4BD3F8043501900F4A75
:10B224000092A6220C49022002F0F0FBD6E7018826
:10B234004FF6E4639942D1D110F8021C033902306D
:10B24400FCF7FAFDCAE700BF682F0020642F002036
:10B2540000100140444704003847040070470400CC
:10B2640070B58AB00EF01CFA48B3064600238DF878
:10B27400103005AC05460FCD0FC42B682360727DDA
:10B28400052A04D9337D03F00F03072B1ED1174B76
:10B294001A688AB104AB0393337DC3F303038DF8B7
:10B2A4000430737D062B1BD9063B8DF8053006F15F
:10B2B4001D03029301A8904730460EF0D1F90EF019
:10B2C4000BFA80F00100C0B20AB070BD307D04AB4F
:10B2D400063A06F11D0100F00F000CF029FFD6E735
:10B2E40000238DF805300293E4E700BFA43B00205F
:10B2F4000B4B1B78032B00D0704700B58DB0084B67
:10B3040004221A702C22002101A818F05FFB1C23D0
:10B314008DF8043001A8FEF729FA0DB05DF804FB9E
:10B32400A03B002070B582B0354B1B78002B5CD15C
:10B3340000285ED0067A0F2E01D0062E5BD104467B
:10B3440005F048FEE06870B1FCF73AFE0DF1070025
:10B35400FFF704FF0546002848D19DF80730012B6C
:10B3640004D0022542E0FCF739FEEFE7FCF758FE73
:10B3740000F00EFB304601F0AFF8E07800F032F94F
:10B3840000F0A0FE0DF058FB1E480EF041FA0DF03F
:10B3940071F8FFF7C5FD04F0F7FE00F0F3FC05F0CB
:10B3A400D9FD05F0A1FB204601F0E6FCFDF7FEFE09
:10B3B40004F0ECF9FCF740FD08B106281DD1124851
:10B3C4000CF098FE2A200CF029FF2B200CF026FF0D
:10B3D40029200CF023FF16200CF020FF0B4B002239
:10B3E4001A60074B01221A7000E00825284602B0B3
:10B3F40070BD0E25FAE70725F8E70546F6E700BF16
:10B40400A03B002065B20200582F0020A43B00207E
:10B4140010B582B01E4B1B78012B0DD05AB282B3EB
:10B42400033BDBB2012B2ED80DF074FB044658BB52
:10B43400174B02221A7027E00EF0F0F801F0AEFC70
:10B44400FDF7F6FEFCF7F8FC0446B8B1062815D063
:10B45400104B1B6813F4804F16D00F4B1B68012B45
:10B4640012DD0E4BD3F8043501900D4A009240F2E0
:10B47400A7120C49022002F0C9FA05E001F058F8BD
:10B48400D2E7082400E00824204602B010BD00BF23
:10B49400A03B0020682F0020642F002000100140F2
:10B4A400B04604003847040008B50A4B1B78022B49
:10B4B40002D00823184608BD064B03221A7006481A
:10B4C4000DF0DCFA03460028F4D07846FCF766FD5C
:10B4D4000023EFE7A03B0020F5B2020008B5FDF71A
:10B4E400ABFE08BD08B5FEF769F908BD08B5FEF75F
:10B4F40075F908BD08B500F0ABFD002008BD08B51E
:10B5040007F062F808BD0000064A136801331360AF
:10B51400B3F1704F02D0034B1868704713460122F1
:10B524001A60F8E7A83B002010B5044618B10023C0
:10B534002360636010BD7846FCF730FDF7E738B54B
:10B544000C46054668B184B100236360EFF31083B1
:10B5540072B62A686AB16A6854606C6003B962B6EC
:10B5640038BD7846FCF71AFDEDE77846FCF716FD82
:10B57400EAE72C60F1E710B5044658B1EFF3108305
:10B5840072B6206808B142682260226832B103B9F9
:10B5940062B610BD7846FCF701FDEFE76260F6E79E
:10B5A40010B5044608B1206810BD7846FCF7F6FCD7
:10B5B400F9E735DF7047000008B54FF0FF30FFF7BB
:10B5C400F8FFBFF34F8F0549CA6802F4E062044BE9
:10B5D4001343CB60BFF34F8F00BFFDE700ED00E0E6
:10B5E4000400FA05072814D8DFE800F0080C150455
:10B5F400110F0A066420704714207047FA20704720
:10B604001E2070474FF4FA707047322070474B2069
:10B614007047FA207047962070470000024B586824
:10B62400103840B2704700BF00ED00E00346002828
:10B634000FDB5B11084A52F82330424200F01F002E
:10B6440002F01F0258BF504223FA00F000F001003C
:10B65400704700F11F03ECE700E100E046DF7047AC
:10B66400F8B504460D464B1EDBB2012B09D8002267
:10B6740022616261A261E2612046FFF7EFFF0120CF
:10B684000AE07846FCF78AFCF1E7CB7B5B00CB73DE
:10B69400002F14DB0130C0B2A84217D8214611F99B
:10B6A400207F00230E2BF0D8CA5CCE185200D2B2F1
:10B6B400767842EAD612CA5401339BB2F2E794F880
:10B6C4002F3083F0870384F82F30E3E7F8BD2DE9AA
:10B6D400F04190B084460C4696461F4602F10F0690
:10B6E40036111FFA86F804AD0068DCF80410DCF8A3
:10B6F4000820DCF80C300FC50EF00F05B8F1000F70
:10B7040002D07DB1002300E00023984663B10121FB
:10B7140004A8FFF7A5FFB8F1000F1AD0701E0001AE
:10B7240010230EE00123F0E70221F1E7013B9BB275
:10B734002218D25C10A9194411F8101C4A400DF8C3
:10B744000320002BF2D100250C950D950E950F9535
:10B7540026E0711EADB22A4604EB0111684618F0CA
:10B764000CF980230DF805306B1C03E000220DF862
:10B77400032001330F2BF9DD10230AE0013B9BB2B8
:10B784001DF8032010A9194411F8101C4A400DF8A3
:10B794000320002BF2D1D6E704A8FFF75FFF0135A1
:10B7A400731EAB420FDD28011023002BF4D0013BA4
:10B7B4009BB210AA1A4412F8102C2118C95C4A40F2
:10B7C40008A9CA54F1E710230AE0013B9BB210AA6E
:10B7D400D11811F8402C11F8101C4A4008A9CA5479
:10B7E400002BF2D104A8FFF739FF0CAC0FCC386062
:10B7F4007960BA60FB6010B0BDE8F08110B5044612
:10B80400134B1B684BB14068114B1B685B68C31A30
:10B81400002B02DB0E4B19680DE00D4B1A686261B8
:10B824001C600B4A938801339BB2938063B101235C
:10B83400237010BD19464B691BB15A68121A002AAD
:10B84400F8DB63614C61ECE77846FCF7A7FBEEE7B5
:10B85400B03B002038B505461CE07846FCF79EFB5B
:10B864006369204A13600023636193889BB2591E65
:10B8740089B29180F3B1A36803B302232370A36850
:10B8840021692846984700F0FFF805462378DBB283
:10B89400022B17D0134B1B681BB3124B1B685B683E
:10B8A4005B1B642B1DD50F4B1C682378DBB2012B6B
:10B8B400D6D0D2E77846FCF771FBDCE77846FCF794
:10B8C4006DFBDAE7E26812B900232370E2E76368EC
:10B8D400134463605B1B642BF9D42046FFF78EFF8F
:10B8E400D8E738BDB03B002010B50446144B1B68A4
:10B8F400834207D0124B1B68D3B15A69A2420ED0BF
:10B904001346F9E743690E4A136093889BB2591EA4
:10B9140089B2918063B97846FCF740FB08E062691C
:10B924005A6107498B889BB25A1E92B28A8013B11E
:10B934000023237010BD7846FCF730FBF8E700BF06
:10B94400B03B002008B5064B1B6833B1044B1B68A1
:10B954000449586800F046F908BD00F0A1F9FBE776
:10B96400B03B002085B9020008B500F08DF8FFF760
:10B9740071FF00F089F8FFF7E5FF012008BD000022
:10B9840008B5024B186800F091FE08BDAC3B0020DE
:10B9940008B5064B00221A605A60054800F066FE9E
:10B9A400044B186000F063F808BD00BFB03B0020F2
:10B9B4006DB90200AC3B002010B5044600F04AFF0C
:10B9C40080B19CB1A368ABB12378DBB2012B15D055
:10B9D400002363612046FFF711FF00F055F8FFF7DD
:10B9E400B1FF10BD7846FCF7D9FAEAE77846FCF7D0
:10B9F400D5FAE7E77846FCF7D1FAE5E77846FCF7AD
:10BA0400CDFAE5E710B5044600F024FF50B16CB15F
:10BA14002046FFF769FF0023636100F035F8FFF764
:10BA240091FF10BD7846FCF7B9FAF0E77846FCF7C9
:10BA3400B5FAEDE738B504460D4600F00BFF70B1DA
:10BA44008CB12046FFF750FF0023636165602046F8
:10BA5400FFF7D4FE00F018F8FFF774FF38BD7846FE
:10BA6400FCF79CFAECE77846FCF798FAE9E708B5A6
:10BA740017F00CFE00B108BD17F07CFD0028FAD0C9
:10BA84007846FCF78BFAF6E770B4EFF3108172B6E0
:10BA9400184B1A68184BD3F80455D3F80431012B0A
:10BAA40022D001B962B645EA026500266B01EA0EAE
:10BAB4005B1B62EB0602510241EAD351580243195F
:10BAC40041EB0600810141EA93619A01D31A61EBCB
