:020000022000DC
:1060000000F003206D630200556302005763020035
:10601000596302005B6302005D6302000000000040
:106020000000000000000000000000005F630200AC
:106030006163020000000000636302006563020008
:106040006763020067630200676302006763020020
:106050006763020067630200957A030067630200CA
:106060006763020025760300514C0300676302005A
:1060700067630200676302006763020067630200F0
:106080006763020069D803007DB402006763020001
:1060900039D903006763020081840300676302004B
:1060A00067630200676302006763020067630200C0
:1060B0006763020067630200000000000000000048
:1060C00067630200676302006763020067630200A0
:1060D0006763020067630200676302006763020090
:1060E000676302006763020067630200000000004C
:1060F0000000000067630200000000006763020008
:10610000000000000000000000000000000000008F
:10611000000000000000000000000000000000007F
:10612000000000000000000000000000000000006F
:10613000000000000000000000000000000000005F
:10614000000000000000000000000000000000004F
:10615000000000000000000000000000000000003F
:10616000000000000000000000000000000000002F
:10617000000000000000000000000000000000001F
:10618000000000000000000000000000000000000F
:1061900000000000000000000000000000000000FF
:1061A00000000000000000000000000000000000EF
:1061B00000000000000000000000000000000000DF
:1061C00000000000000000000000000000000000CF
:1061D00000000000000000000000000000000000BF
:1061E00000000000000000000000000000000000AF
:1061F000000000000000000000000000000000009F
:10620000344935480A1A02D0072291438D46334952
:1062100033480A1A06D00722914381F309880222E3
:1062200082F314882F483049304A00F042F8304851
:106230003049314A00F03DF830483149314A00F0E8
:1062400038F831483149324A00F033F831483249A0
:10625000324A00F02EF832483249334A00F029F829
:1062600032483349334A00F024F833483349002296
:1062700000F02AF832483349002200F025F832486D
:106280003249091A082902DB0022026041601F48D6
:106290001F49884205D00268043003B4904703BC0C
:1062A000F7E700208646EC4600200021284A904768
:1062B000FEE7884207D0521A05D0037801300B70F0
:1062C0000131013AF9D17047884202D002700130A1
:1062D000FAE7704700F0032000E8032000F00320F5
:1062E00000F00320B8010400A02D0020642F00203E
:1062F000A4630200A4630200C2E10300B801040029
:10630000A02D0020A02D0020ECE20300ECE2030011
:10631000ECE20300ECE20300ECE20300ECE2030039
:10632000ECE20300ECE20300B60104007C0304008D
:10633000642F0020642F0020642F0020A458002028
:10634000A4580020A4580020A4580020A45C0020D9
:1063500071660200FEE7FEE7FEE7FEE7FEE7FEE706
:10636000FEE7FEE7FEE7FEE7704700BF094880470B
:1063700009484FF007018843854608488047084888
:10638000016841F470010160BFF34F8FBFF36F8F5D
:10639000FFF736BF6963020000F003201D8703008A
:0463A00088ED00E0A4
:1063A40041DF7047014B1B680B8070478C2F002026
:1063B400104B1B685B0407B50DD50F4B1B68032BF3
:1063C40009DD0E4B0E4AD3F804350E490092042021
:1063D400EC2206F00DF800210B4800F07BFD30B1F3
:1063E4000A4A832103B05DF804EB12F07EBA03B0CD
:1063F4005DF804FBC82E0020C42E002000100140CC
:1064040073E403006CE40300A02D0020E9E303001F
:106414000B4B1B685B0407B50DD50A4B1B68032B9C
:1064240009DD094B094AD3F80435094900920420CF
:106434008A2205F0DDFF03B05DF804EB08F0CCBE62
:10644400C82E0020C42E00200010014093E4030055
:106454006CE4030003781C2B01D1FFF7D9BF70470C
:106464001FB5174C226852040DD5164B1B68032B1D
:1064740009DD154B154AD3F804351549009204205B
:10648400DC2205F0B5FF01F015F801F035F803A89A
:106494000CF0A2FF23685B0410D50A4B1B68032B86
:1064A4000CDD094BBDF80C20D3F804350192094AE0
:1064B40000920749E722042005F09AFF04B010BDBA
:1064C400C82E0020C42E002000100140ACE40300BC
:1064D4006CE40300C6E403002DE9FF41A0F130059C
:1064E400042D45D8494C236858040ED5484B1B68E5
:1064F400032B0ADD474B484AD3F804354749009239
:1065040001959922042005F073FF012D33D075B154
:10651400032D2DD108F00DFE002837D009F086FF99
:1065240008F0FCFD04B0BDE8F041FFF771BF3C4A40
:10653400136813F5804FD4BF3A4BA3F58043384E0C
:106544001360B6F90020384802F50043374A128830
:1065540000215A434FF6FF73B2FBF3F292B210F0EC
:106564001DFD334800F09AFC23685B0407461FD4E2
:1065740004B0BDE8F0812A4A136843F6FE718B42E9
:10658400D4BF03F5804347F6FF73D8E72368590463
:10659400EED51F4B1B68032BEADD1E4B254AD3F8AF
:1065A40004351E4900920420BB2205F021FFDFE7D9
:1065B400174D2A68032A25DD164B1B48D3F804859A
:1065C4003668002110F098FD1B4B0093CDE9016063
:1065D4004346C9221149042005F00AFF002FC7D001
:1065E40023685A04C4D52B68012BC1DD094B134A17
:1065F400D3F80435094900920197CC22022005F012
:10660400F7FEB5E7002FEED1B2E700BFC82E002099
:10661400C42E0020001001400CE303006CE40300CE
:106624008C2F00200080FFFF04E30300882F00204C
:10663400A02D00201FE3030056E3030070E30300D2
:10664400074B08481960084B1A8801F500414A4372
:106654004FF6FF71B2FBF1F2002192B210F09EBC32
:106664008C2F002004E30300882F002000B5464C43
:10667400464A8DB0042146F2010005F09DFE2268D1
:1066840052040ED5424B1B68032B0ADD414B424A90
:10669400D3F804354149009204204FF4807205F088
:1066A400A7FE17F099FA20B13D4A4FF4817112F018
:1066B4001CF900F0E7FE00F0FDFE00F01DFF0021D4
:1066C400202203A817F0F4FC01238DF80C300723D3
:1066D4008DF80F3006238DF81430324B079332496E
:1066E400324B0B9303A808F031FD18B12C4AFA2160
:1066F40012F0FBF800222E492E4810F007FD08B1D5
:1067040012F0E6F82B4810F0FDFC2B4B18802368A0
:106714005B040FD51E4B1B68032B0BDD1D4B274A57
:10672400D3F804351D490190009204204FF4887277
:1067340005F05EFE6421224800F022FD1A4B1B780E
:1067440083B9204D0FCD03AC0FC495E8030084E852
:10675400030003A800F0BCFC20B1114A40F223114D
:1067640012F0C3F8134810F02DFE00F0C9FF00F03A
:106774003DFD08F023FD20B1094A4FF4957112F054
:10678400B4F8FFF70DFEFCE7C82E002091C3020009
:10679400C42E002000100140ACE303006CE40300AD
:1067A400E9E3030059640200642F0020B56302008A
:1067B400382E002004E30300882F0020D6E30300D2
:1067C400DD640200ECE20300024B53F8203008467B
:1067D400184700BF38E60300024B53F82030084640
:1067E400184700BF48E60300C06F003018BF0120FF
:1067F400704713B50446303016F0CEFF0023A3676C
:1068040094F88030022B1CBFB4F87630A4F87430AE
:10681400636F0093694600232046019316F098FEA7
:10682400A36EB4F974102046984702B010BD90F8D6
:106834008030022B70B5064615D0303016F081FF3B
:106844004FF47A73A0FB034503FB0155B06FE20BD1
:10685400EB0B00218B4242EA454208BF82422CBF27
:106864000120002070BD0020FCE7000090F880307B
:10687400022B2DE9F74F044600F130054CD0B0F956
:106884008860B0F97600871B284616F05AFF4FF44B
:106894007A73A0FB03AB03FB01BB4FEADA3343EA91
:1068A4004B434FEAE77903FB09F14FEADB3207FB7D
:1068B4000212A3FB070111440023A26F17F0C5FACB
:1068C4003044A4F87400A36EB4F9741020469847B9
:1068D400214B1B685B041CD5204B1B68042B18DD63
:1068E4001F4B2846D3F8046516F02BFF4FF47A7437
:1068F400A0FB047804FB0188FA0B42EA4842194BD6
:10690400019200934FF4A17233461749052005F014
:106914006FFD03B0BDE8F08FB0F88680284616F00E
:1069240010FF4FF47A73A0FB036703FB0177F30BAB
:10693400B4F9846043EA4743FA0BF71703FB07F102
:1069440002FB0612A3FB060111440023A26F17F0F9
:106954007CFA4044B5E700BFC82E0020C42E0020B6
:106964000010014025E6030019E6030090F880308A
:10697400022BF7B50CBFB0F98450D0F88450002D29
:10698400B8BF6D42044615B9784600F083FEA06F87
:106994004FF47A712A460023A0FB010117F0EEF9A7
:1069A400374D00292B6808BFB0F57A7F06460F469D
:1069B40003F4804342D273B1324B1B68032B0ADDCC
:1069C400314B324AD3F804353149009204204FF454
:1069D4008D7205F00DFD21220023C4E90E232B68DE
:1069E4005A0410D5274B1B68032B0CDD264BA26BD6
:1069F400D3F804350192274A009225494FF4927244
:106A0400042005F0F5FC2046012600F8306F16F04E
:106A14009BFE88B12B685B040ED51A4B1B68002BB8
:106A24000ADD194B1C4AD3F8043519490092304643
:106A340040F22B1205F0DCFC03B0F0BD73B1114B36
:106A44001B68032B0ADD104B144AD3F80435104994
:106A5400009204204FF4907205F0CAFCF90341EA55
:106A64005641F0030E4E0F4A80194FF000064FF0C6
:106A7400000346EB010117F081F9C4E90E01AEE70A
:106A8400C82E0020C42E0020001001402BE5030076
:106A940019E6030074E5030091E503004CE50300E7
:106AA40020A1070040420F00024603218C3007F06A
:106AB400EBBD000030B585B00446089D002B44D1E1
:106AC400C367036F002B42D1B2F90020A367214BA7
:106AD400A4F8842047F6FF71002AC8BF0B46A4F827
:106AE4007630B4F87430A4F88630022384F8803009
:106AF400194B1B685B0413D5184B1B68032B0FDD64
:106B0400174BA16FD3F804350391E16FCDE901214F
:106B1400144A0092144940F24922042005F068FC0A
:106B24002246022104F18C0007F0AEFD5DB1B4F8F9
:106B340074302B80B4F876306B80A36F003318BFA9
:106B440001235B426B6005B030BD5968C1671B68A7
:106B5400BAE700BF0080FFFFC82E0020C42E00202B
:106B640000100140FDE6030019E6030030B587B0CC
:106B740004460A9D002B3DD1C367036F002B3BD114
:106B8400A3670023B2F9001084F880301B4BB4F9DA
:106B940074201B68A4F888205B04A1EB0202A4F80B
:106BA4007610C4F8842014D5154B1B68032B10DD14
:106BB400144BD3F804350492A26F0392E26FCDE92B
:106BC4000112114A0092114940F2D112042005F039
:106BD4000FFC2246002104F18C0007F055FD3DB165
:106BE400B4F874302B80B4F876306B80A36F6B608C
:106BF40007B030BD5968C1671B68C1E7C82E0020C3
:106C0400C42E0020001001402BE7030019E6030006
:106C14002DE9F04385B0044617460C9E002B67D13E
:106C2400C367036F002B65D13D68A367012384F814
:106C34008030201D4FF6FF7395FBF3F3C3EB034342
:106C4400ED1A16F023FDDFF8FC80002854D1D8F8A3
:106C54000030590410D5354B1B68032B0CDD344B25
:106C64003A79D3F804350192324A0092324940F21B
:106C74000122042005F0BCFBB4F88830C4F8845029
:106C84002B44A4F87630D8F800305A041ED5DFF827
:106C94009C90D9F80030032B18DD254DA26FD5F850
:106CA40004350392E26F02923A680192234A0092F9
:106CB40021494FF40372042005F09AFBD8F8003000
:106CC4005B0403D5D9F80030032B1ADC22460121DA
:106CD40004F18C0007F0D8FC3EB1B4F87430338072
:106CE400B4F876307380A36F736005B0BDE8F083A9
:106CF4005A68C2671B6897E7B4F87430A4F8883000
:106D0400BAE7B4F97620D5F804350392B4F97420BF
:106D14000292B4F988200192094A0092064940F28D
:106D24000F22042005F064FBD0E700BFC42E00202E
:106D34000010014054E6030019E6030086E6030050
:106D4400AFE60300C82E002090F88030012B03D951
:106D5400022B0BD000207047836F013B0333F9D81B
:106D6400D0F88400003018BF01207047836F013BC6
:106D74000333EFD8B0F98400F4E70000264B1B6816
:106D84005B042DE97748044615460ED5234B1B6852
:106D9400032B0ADD224B234AD3F8043522490092FF
:106DA400042040F28F1205F023FBE36E04F174011A
:106DB40020469847B4F874302B80B4F876306B8052
:106DC40094F88030022B08D1A36F003318BF01233D
:106DD4005B426B6003B0BDE8708894F8913003F0B7
:106DE400FF020BB96A60F5E794F89130A66F012BA6
:106DF40001D16E60EEE704F1300016F0A2FC4FF40E
:106E04007A74A0FB04BC04FB01CC4FEADB3242EAF7
:106E14004C42B61AEDE700BFC82E0020C42E002055
:106E240000100140F2E6030019E6030073B50023E5
:106E3400C66F80F8303004464FF400454FF4FA70C2
:106E440000214FF47A720023E5FB060116F096FF49
:106E5400C4E90E0104F1300016F076FC88B10A4B47
:106E64001B685B040DD5094B1B68002B09DD084B1F
:106E7400084AD3F80435084900920120FB2205F0A2
:106E8400B7FA02B070BD00BFC82E0020C42E002087
:106E9400001001400DE5030019E6030013B5C36EAD
:106EA400044600F17401984704F1300016F074FCB4
:106EB400B4F97420A4F876200023C4E91E3369468B
:106EC4002046ADF80020ADF80220019316F040FBF7
:106ED40002B010BD10B50446B0B1836EA3B1C36E49
:106EE40093B10A4BC36216F007FB70B9084B2464D4
:106EF40004F18C006364074907F095FB04F130004A
:106F0400BDE8104016F05ABC0E2010BDB4E70300D3
:106F1400AD6A0200A4E703001FB5254C217819B11E
:106F2400012803D003283CD004B010BD002302A9DB
:106F3400029311F067F908B111F0CAFC02A811F02C
:106F4400B3F908B111F0C4FC012303A90DF1060043
:106F540003930CF0D5FD08B111F0BAFCBDF806009E
:106F64000CF04EFB0DF105010CF058FC08B111F0CA
:106F7400AFFC08F0F1FE9DF80510002009F08AFA34
:106F840010B1784600F086FB03F096F908B111F0D1
:106F94009FFC00232370074B1B68002BC4D0984729
:106FA400C2E711F0E9F90028BED011F091FCBBE76B
:106FB400B62F0020B82F002008B503781C2B0CD165
:106FC400064B1B784BB111F015FA08B111F080FC97
:106FD4000348BDE8084003F0CDB908BDB62F002032
:106FE4004C2E002010B50749074812F01BF8024642
:106FF40038B90649064809690323BDE8104012F070
:107004002AB810BDD02F00203C330020B82F002018
:10701400083200200378023B10B5082B4AD8DFE879
:1070240003F01E051249493849493F00224B5B6869
:10703400002B3FD0007A00283CD0204A0121BDE833
:107044001040117018471C4B9B68002B32D01B4A10
:10705400117879B30021BDE8104011701847184B1E
:107064001A784AB9144BDB6813B114490A7098476B
:10707400BDE81040FFF7B6BF124B134801221A7047
:1070840003F076F903F05CF9A0B1BDE8104011F00B
:107094001FBC094B0D485969102212F021F8F3E77F
:1070A400D0E9021007F0DCFF08B111F011FC044B29
:1070B40001221A7010BD00BFB82F0020B42F002089
:1070C400B52F0020B62F00204C2E002008320020BF
:1070D40070B51C4A1C4E5168044686B0106803AB58
:1070E40003C31189927A19809A700FCC35460FC563
:1070F40094E8030085E80300736903B3134B00931A
:10710400134A1449144803AB11F058FFA8B91348A3
:1071140012F0AEFF0146104811F070FF68B9104834
:1071240013F0C8FB48B90E4813F0F6FB01460A48B1
:1071340011F064FF08B9FFF755FF06B070BD0720D2
:10714400FBE700BFC4E70300B82F0020197002005A
:10715400D02F00203C33002008320020F02F0020E4
:10716400B831002010B5054C226832B10EF0D4FDC0
:10717400002802DB23689847F8E710BD7C33002021
:10718400154B164A10B50C4618600121144816F028
:107194007DFD18B1134A4A2111F0A7FB610C0023AD
:1071A400E00341F26F728B4208BF824210D24FF467
:1071B4007A72002316F0E2FD014600220A4816F016
:1071C40077FD38B1074A4B21BDE8104011F08DBB63
:1071D4000521F2E710BD00BF7C3300206971020075
:1071E400D0E70300D4E7030080330020F0B5044661
:1071F400CFB038B12B4D2B685A0403D52A4E3368CF
:10720400032B01DC4FB0F0BD284B1F680DAB411EB2
:1072140000F10F0C184611F8012F4FEA121E02F06C
:107224000F0217F80EE083F800E0BA5C5A708C4540
:1072340003F10203EFD100231D4F80F820301D4AD3
:10724400D7F8043501921C4A029000921B4941224E
:10725400042005F0CDF82B685B04D3D53368032BE9
:10726400D0DDE27BD7F804350B92A27B0A92627BD5
:107274000992227B0892E27A0792A27A0692627AB3
:107284000592227A0492E2880392A28802922268EA
:1072940001920B4A009209494622042005F0A8F8FD
:1072A400B0E700BFC82E0020C42E0020CC2E002042
:1072B40000100140BDE80300CFE80300ACE8030080
:1072C400D7E8030072DF704773DF704774DF7047DD
:1072D4002DE9F04388462F492F4C0B782F4D9146CA
:1072E4002F4A0746C3EB4310002602440133A3B0E0
:1072F40003F00103C4F80660A2601F2205440B706A
:10730400A280A28131463C2204A8E681256016F0C1
:10731400CFFE062301AA8DF813300E9201233C22DE
:10732400314613A88DF80230ADF820308DF83C308A
:10733400ADF80070CDF824D0ADF80470ADF8089025
:10734400CDF80C8016F0B4FE0223221D294604A8B1
:107354008DF84C3010F026FD08B111F0B9FA114A3D
:10736400A16813A810F01EFD08B111F0B1FA0E4A7D
:1073740009490E48FFF7A6FF082804D10022064950
:107384000A48FFF79FFF08B111F0A2FA23B0BDE845
:10739400F08300BFA0330020E0330020A13300209D
:1073A400F0330020EC3300205C2E0020582E002007
:1073B400B0F5202F0AD20A23B0FBF3F301380828D2
:1073C40098BF0123034A9381916070474FF6FF737E
:1073D400F8E700BF5C2E002008B5064B01211878A1
:1073E400FFF772FF08B111F073FA0020BDE80840FE
:1073F40003F072BD582E002008B5054B1878FFF72E
:1074040065FF18B1BDE8084011F062BA08BD00BFBD
:10741400582E002076DF70477ADF70477CDF704794
:1074240011F056BA02F0A8BF037807B54BB93B2157
:107434004088FFF7EFFFC0B103B05DF804EB11F033
:1074440047BA012B11D10A4B1B685B040DD5094BBC
:107454001B68032B09DD084B084AD3F80435084997
:1074640000920420682204F0C3FF03B05DF804FB1B
:10747400C82E0020C42E002000100140B0E90300F3
:1074840097E9030007B510F077FF08B111F020FA6F
:10749400002301A90120019310F0B4FE08B111F0FA
:1074A40017FA01A810F000FF08B111F011FA03B0A7
:1074B4005DF804FB1FB5112319220D498DF8043022
:1074C40001A8FFF7ABFF08B111F002FA0023ADF8F1
:1074D4000C30084B029302A84FF4C873ADF80E3079
:1074E400FFF79AFF08B111F0F3F905B05DF804FB5A
:1074F40017E903007800C80000B58BB00023114AD7
:10750400ADF80830CDE90633019201AB4FF4C872EF
:10751400ADF80A20039340F6CD424FF48033CDE911
:10752400042303238DF81830074B089303A8074B53
:10753400099311F0A3F808B111F0CAF90BB05DF882
:1075440004FB00BF7800C8002D74020025740200FB
:107554000620704730B5454B41F201051B68A8422F
:1075640087B0044603F4804354D013D801282ED0A6
:10757400002B3CD03E4B1B68002B38DD3D4B3E4A74
:10758400D3F80435019100923C497B22012004F098
:107594002FFF2CE044F2010084424CD044F202005C
:1075A4008442E5D11BB3324B1B68002B1FDD314BEA
:1075B4001088D3F8043503905268CDE90112304A9B
:1075C40000922E496C22012004F012FF0FE073B1E7
:1075D400274B1B68002B0ADD264BD3F80435CDE975
:1075E4000112284A25490092602204F001FF4FF05D
:1075F400A0434FF4F032C3F81825C3F80C25EFF379
:10760400108372B64DF6AD6C1F4A1378002B2AD145
:1076140007B030BD002BEAD0154B1B68002BE6DD0C
:10762400144BD3F80435CDE90112184A00921349DA
:1076340063220120D9E7002BD9D00D4B1B68002B06
:10764400D5DD0C4B1068D3F8043504905068CDE9AF
:107654000210926801920E4A009208497722012092
:1076640004F0C6FEC3E730BFCFE700BFC82E00203A
:10767400C42E002000100140CFEA030042EA0300B8
:107684008FEA030053EA0300742E00206DEA03001E
:10769400AEEA030007B50023ADF800300146054B00
:1076A40001936A4644F20200FFF754FF03B05DF809
:1076B40004FB00BFFCE60300044B00F1100250F889
:1076C400041B43F8041B9042F9D170472E34002068
:1076D400094A0A4B03CA596018603C3203CADA7972
:1076E400D960042161F307129860DA711A7A0221D1
:1076F40061F387121A727047600000102E34002064
:10770400004870472E3400200022064913460132F7
:10771400202A4B804B6001F8083BF8D1024A1360E1
:10772400704700BF40340020403500200C4BF0B5BA
:107734001B680C4C064620227BB1013B14F8330035
:1077440050B104EBC3056F88B74202D16D688D4216
:1077540002D0013AF0D11046F0BD1F23EEE700BF7E
:107764004035002040340020084A30B51368084CE6
:1077740004EBC3056960012104F833100B44202B8A
:1077840008BF00236880136030BD00BF403500206F
:1077940040340020C0F30C038B42084438BFA0F5EA
:1077A4000050C01A704700000D4B0E4AF0B51E6819
:1077B40000218E4212D0156800230AE052F8044CCE
:1077C40004EBC30714F83340844201D17868F0BD58
:1077D40001339D42F2D101310832EAE70020F6E795
:1077E400443500204C35002000B58DB040B99A1CBA
:1077F40006D0012201A88DF80420029301F07AF941
:10780400034B186803F060FD0DB05DF804FB00BF86
:1078140050350020037810B5044613B97846FFF7B5
:1078240039FFE188A069FFF7B5FFE1690A060B0A91
:10783400101843F1000110BD037810B5044613B9C4
:107844007846FFF727FF607A431C012098400138EF
:1078540010BD0000F8B5037806460D4613B9784606
:10786400FFF718FF0F4AB18A002314461801875AFC
:107874008F4213D1002313520B4A1368581C03F090
:1078840007031B011060E15205B175781C443046B2
:10789400A570FFF7BFFFC4E90201F8BD0133082B4F
:1078A400E4D1E9E758350020D83500202DE9F0412E
:1078B4000E468EB015461C46074610B97846FFF7AB
:1078C400E9FE16B97846FFF7E5FE636AA27802334B
:1078D4000593E378A2F10800002B14BF01210221D3
:1078E4000DF1040842424241434604F10C0003F006
:1078F40034FEA3788DF83430237BADF82050022B6E
:1079040016FA85F5CDE906870B960C950FD12369F8
:1079140013B97846FFF7BEFE23690993102305A81F
:10792400ADF8283003F015FE0EB0BDE8F081002359
:10793400F5E70000B2F5C07F2DE9F84F834689468C
:10794400904602D97846FFF7A5FE284B00269A46B2
:1079540093F848705FB94046702407F06EFB04FB4F
:1079640006A4E06648B900242046BDE8F88F013635
:10797400042E03F17003EBD1F5E7DC46BCE80F00FD
:1079840025460FC5BCE80F000FC59CE80F00B9F1F0
:10799400010F85E80F00E764A4F84A801BD1144B5B
:1079A400A4F852701B7D84F8513084F85070DBF8D1
:1079B400283063656FF00103A3620E4BA4F858707E
:1079C400A3632464012002F083F8702303FB06A65A
:1079D40086F84890C8E76FF00103A362064BA365DD
:1079E40084F868702466054BEAE700BFF43500208C
:1079F400DC350020518002003D85020049800200F0
:107A040010B50446C06E07F01AFB04F1300002F012
:107A1400D5FE94F84830022B03D104F1500002F053
:107A2400CDFE20467022002116F042FB002084F88F
:107A34004800BDE8104002F04BB810B590F848304B
:107A4400012B8CB0044602D07846FFF723FE0123B5
:107A54008DF8043001A8636D029301F04BF82046C1
:107A6400FFF7CEFF0CB010BD10B50446808A02F0BB
:107A7400D3FA01281CD1237BD3B194F91620002A10
:107A840018DBE27D5AB1022B12D094F90330002B9B
:107A940010DBA378002B0CBF0020072010BDE27878
:107AA4000AB9012B06D1237833B9A378042BF2E762
:107AB4001020F3E70720F1E70020EFE71FB50022CD
:107AC4000B468DF80F20E0B10230086018460DF126
:107AD4000F0103F040FD9DF80F3093B10B4B1B6871
:107AE4005B070ED50A4B1B68032B0ADD094B0A4AB8
:107AF400D3F8043509490092042040F2374204F0D7
:107B040077FC9DF80F0005B05DF804FBC82E00203B
:107B1400C42E00200010014095EB030089EB030004
:107B240070B5D0E906128CB00446808A05F0CAFB11
:107B34000546A0B12C22002101A8A68AE46916F00A
:107B4400B7FA0F238DF804304FF0000364F30003F9
:107B540001A8ADF808608DF80A3000F0CBFF284684
:107B64000CB070BD2DE9F04F99461378D2F8188007
:107B7400F3B007468A46144623B1D1884046FFF73E
:107B840009FE9061E378A278002BA2F1080003AD0E
:107B940014BF0121022104F10C0642422B4642414A
:107BA400304603F0DAFCA278C4F81880CDE908570F
:107BB4001FFA8AF5AB1A9BB21F44ADF82830E3785C
:107BC4000E974FF0000812AF0D978DF83C20ADF8DA
:107BD4003080002B5BD04FF0100B04F1240A237B80
:107BE400C4F82480022B02BF2369ADF830B00B9394
:107BF400206A217952460CF097FA606AE0B9237B37
:107C0400022B05D13146E0890CF050FB0028E6D167
:107C14002E4B1B685B0737D52D4B1B68052B33DDBB
:107C24002C4B2D4AD3F804352C490092062040F2FF
:107C34000E7204F0DDFB27E007A9FFF73FFF0028E1
:107C4400D6D02046FFF76CFFF0B9A2780B908DF8E0
:107C54001C0096E80300A38AADF82A30AD1A0CABD9
:107C640001228DF8282083E80300A37D8DF840309D
:107C7400236A0E9307A8636A0897ADF824500F93FC
:107C8400CDF8449000F036FF73B0BDE8F08F227B4E
:107C9400012ABDD1A046E089B4F814A048F8243FD5
:107CA40041460CF083FA07A9606AFFF707FF002832
:107CB400C7D16062414650460CF078FA07A9606A61
:107CC400FFF7FCFE0028A3D0BBE700BFC82E0020AE
:107CD400C42E0020001001403BEC030089EB03009C
:107CE400C37D0A7830B56BB3C37822F07F0203F00A
:107CF4007F031A430A700B78027803F07F0343EA88
:107D0400C2130B700378E3B18378083B5A425A419B
:107D14004B7803F07F0343EAC2134B70C58823F00A
:107D24007F03C5F3861423434B70047AC4F3C10262
:107D340042EA85028A70437A03F01F0343EA44133C
:107D4400CB7030BDC47822F0400343EA8413DBB225
:107D54000B70027923F03F0302F03F0213430B70D0
:107D6400C9E72DE9F04F044689B00F4609B1002355
:107D74000B6004F10C0394F8505001934FF0010888
:107D84004FF0000B627AAA4203D2002009B0BDE88A
:107D9400F08FE16C08FA05F30B4259D1E37D2572AB
:107DA400002B0CBF0C260826954206FB05FA237807
:107DB40008BFB4F84A608DF818B008BFA6EB0A06ED
:107DC400002B14BF4FF004094FF0010906EB09031F
:107DD4000493019B0293A36A039302A8E36A0593A5
:107DE40003F057FD0028D1D1079B994445B994F875
:107DF40053302BB9A36984F85380C3F30C03E38095
:107E0400E37D8BB994F8523073B915B17846FFF716
:107E140041FCB4F84A10A2788A1AE16E2346084657
:107E2400FFF744FD84F8528007992046FFF758FF76
:107E3400E16E32465144484616F011F902A803F0A7
:107E440049FD17B13B6801333B606B1C84F850302B
:107E54000135EDB296E7000038B590F84830012BB3
:107E6400044602D07846FFF715FC02F0E7FC237BBA
:107E7400074A012B05BFD2E90315A37DD16805FB91
:107E84000311014404F13000BDE8384002F0ADBCF8
:107E9400DC350020F0B5C37D16468278002B3244D1
:107EA40014BF4FF480734FF4C0739342C7B00F46AE
:107EB4006BD3394B002493F84810012907D19D8ACC
:107EC400818A8D4203D1DD89C1898D425FD001341D
:107ED400042C03F17003EED10121FFF72BFD0546BD
:107EE40000283BD032463946C06E16F0B8F800235D
:107EF40004A928460493FFF734FF30F0040406462F
:107F04003ED1049B13B12846FFF7A6FF234B1B6801
:107F140013F004033DD0224B1B68032B1EDDB5F880
:107F24004A00204B802805AA1F6828BF8020002310
:107F34001646834202F1020213D1002206F81320EE
:107F4400194B1A4AD3F804350192194A0092029641
:107F540040F271521749042004F04AFA204647B00F
:107F6400F0BDE96EC95C4FEA111C01F00F0117F86E
:107F74000CC002F802CC795C02F8011C0133D8E78A
:107F84002846FFF73DFD3446E8E70924E6E70824E0
:107F9400E4E71C46E2E700BFF4350020C82E0020C9
:107FA400C42E0020CC2E0020001001401BEB030047
:107FB400CFE8030089EB030070B50D4690B004468A
:107FC40010B97846FFF766FB94F84830022B03D1CA
:107FD40000212046FFF73EFC2C22002105A8666DF7
:107FE40016F066F8102305A88DF8143006968DF85F
:107FF4001C5000F07FFD2046FFF702FD0C4B1B6870
:108004005B0712D50B4B1B68032B0EDD0A4B0B4988
:10801400D3F80435029594F848200192084A009256
:10802400042040F22E2204F0E3F910B070BD00BF2A
:10803400C82E0020C42E00200010014089EB03004C
:10804400F8EA030008460021FFF7B6BF91F848306C
:10805400012B10B50C4602D07846FFF71BFB94F8B1
:1080640051305BB1013B84F85130002384F8503027
:10807400084BBDE81040186803F026B9217B01299C
:10808400204603D1BDE81040FFF796BFBDE810407D
:10809400FFF7D3BC503500202DE9F04106468EB0E1
:1080A40010460F4615469846FFF73AFD002853D16F
:1080B400EC78002C40F08180062F4DD1377873780E
:1080C400BA0102F4FE5242EA93024C4B1C4693F866
:1080D4004810012928D1B3F814C0E9898C4523D16B
:1080E400D988914220D1B3F858C0A98ABCF1000FB5
:1080F40001D08C4518D117F0800FD6F802204FF02C
:1081040070032CD003FB0043A3F8581013BA702259
:1081140002FB0044E56C1D43E564002B3AD10321C6
:108124002046FFF749FF17E00130042803F17003EC
:10813400CDD1334B1B685B070ED5324B1B68012B2B
:108144000ADD314B314AD3F804353149009202201B
:1081540040F2846204F04CF90EB0BDE8F08103FBF8
:108164000043DD898D42D1D0254B1B685A07F3D5D6
:10817400244B1B68012BEFDD234B264AD3F804352F
:108184000092CDE9015140F28C622149022004F0B1
:108194002FF9E1E72046FFF74FFB854203D1204644
:1081A400FFF74BFCD8E7002184F850102046FFF776
:1081B400D8FD2046FFF750FECEE72046FFF7F4FA3D
:1081C40003460028C8D005F10C012A6A0B9203C9A2
:1081D400AA8AADF8222009AA82E80300AA7D8DF8B4
:1081E40030202A788DF82020EA6A8DF81440CDE9F1
:1081F40006670D92414605A89847ADE7F43500207F
:10820400C82E0020C42E002000100140A8EB03005B
:1082140089EB0300D6EB03002DE9F0418378904607
:108224001344C27D002A14BF0B220F22934286B04E
:1082340004460F462FD8024612F80C1B0092002960
:1082440014BF042501252B440293836A0193C36A56
:108254000393684600238DF8103003F01AFB06469A
:1082640070B9059920460D44FFF73AFDE37D5BB1F3
:1082740042463946284615F0F2FE684603F02AFBCA
:10828400304606B0BDE8F0812346424629463846CA
:10829400FFF70CFBF1E70926F2E7000010B54FF4F5
:1082A400E0720021134815F003FF002405F07AF86A
:1082B400114B12481C602146802215F0F9FE104B28
:1082C4001049114A11489C75C3E9001210494CF237
:1082D4005032C3E902211A6140F604029A8202F084
:1082E400D5FF0C4B18600C4B0C481C60BDE81040CB
:1082F40005F03CB9F4350020D8350020583500206D
:10830400DC35002080969800F0490200358A02008E
:1083140020A107005035002044350020ED770200ED
:1083240004F0C8BF30B504468DB000286BD0036993
:10833400002B68D0C369002B65D08569002D62D0FD
:108344005A788DF804201A780993838A82F00102FE
:108354000B2B8DF80320027B09D90121022A8DF809
:10836400001001D1294A927D5AB904220AE0C17A47
:108374000029F2D1012A0CBF012200228DF800202D
:108384003AD1082213448DF802200B330C22B3FB9C
:10839400F2F3013B8DF8093000238DF8083094E89E
:1083A400030000238DF8173003AB83E8030023890F
:1083B400ADF81430A37A8DF81630236A0A93204658
:1083C400DF2308950B930CF023F828B12378012BB5
:1083D40014BFFF2320230B9368462569A48AFFF763
:1083E40043FB38B99DF800302246294668463BB124
:1083F400FFF750FD0DB030BD04238DF80230CEE7F9
:10840400FFF70AFFF6E70E20F4E700BFDC35002093
:10841400F0B503468DB00F46002843D04568002DC3
:1084240040D08669002E3DD0846802788DF8032000
:108434000B2C4FF00002099294BF027B012202F040
:10844400010100208DF800108DF8020032B1E11D09
:10845400C90801398DF809108DF8080003F11001DD
:1084640003C901228DF8172003AA82E80300DA89E0
:10847400ADF814201A7F1B6A089668468DF81620FA
:10848400CDE90A73FFF7F0FA38B99DF800302246B7
:10849400294668461BB1FFF7FDFC0DB0F0BDFFF7A0
:1084A400BBFEFAE70E20F8E730B5047B012C8DB053
:1084B4004FF000033CD1C288CDF8063095008DF80A
:1084C40001500D0E8DF802500D0C49BAADF8041090
:1084D40041788DF803508D1E69426941C2F38612BA
:1084E40042EAC1128DF80A3008938DF80C308DF8E9
:1084F4001830C3898DF80020ADF81A300622C36AFB
:1085040005920B93828A837DADF81E20026A8DF852
:108514001C40CDF810D009920BB1064B5B7D8DF851
:1085240028306FF0010103A8FFF772FF0DB030BDD2
:108534001846FBE7DC35002091F84830022B10B5D3
:108544000C4602D07846FFF7A5F8022384F8683079
:1085540094F84830022B06D1E16C2046FFF7A4FFC3
:1085640008B984F8680010BD2DE9F04F0C469FB09F
:1085740090461F460546002800F09381002A00F02B
:10858400908121B9092630461FB0BDE8F08F13460B
:1085940009AE02F1180C18685968324603C2083350
:1085A40063451646F7D12B78002059B2CA0F814291
:1085B4008DF81820B4BF0422012294428DF81900CA
:1085C400E0D39DF82F60EEB103F07F0381428DF874
:1085D4001B308DF81A002EDA6A78AB78920102F417
:1085E400FE5242EA9302ADF81E20DB00EA7803F063
:1085F400180343EA521302F01F028DF820308DF85D
:10860400212018E0C3F38010002903F03F038DF804
:108614001B008DF81C3008DA95F90130002BB4BF2B
:10862400082304238DF81A30D6E704231A4494420D
:108634008DF81A30A6D300230F933B78032B02D96D
:108644007846FFF727F83A78974B06A853F8223074
:108654001193FFF709FA0646002894D1D8E90312CA
:10866400B8F8080004F06AFE00288CD104A9B8F810
:108674000200CDE904660BF019FE38B19DF81930FB
:1086840043F001038DF81930059B0A939DF81930C6
:10869400002B3FF478AF9DF81820002A00F0EF80FB
:1086A400DFF80CB20023DA469AF84820022A3FD0B9
:1086B4000133042B0AF1700AF6D19DF8183013B96E
:1086C4007846FEF7E7FF06A8FFF7A4F8774ABDF857
:1086D4002CE04FF0000A9446138873453DD1D2E94B
:1086E4000289494508BF404537D106AD0FCD12ACCC
:1086F4000FC40FCD0FC495E80F000CEB0A1A84E8E1
:108704000F009AF802308DF84930002B3FF43BAF4C
:1087140012A8FFF791F8014612A8FFF7C5FE9AF8D0
:108724000230DC077FF52FAF06A8FFF7F9F92AE737
:10873400BAF81410BDF82C209142B9D106A80393BD
:10874400FFF768F8804650468946FFF763F8894585
:1087540008BF8045039BABD215E70AF1010ABAF1C1
:10876400080F02F11002B7D100239BF84820022A17
:108774001AD1BBF81420724516D14D4A4FF0700B34
:1087840006A80BFB032BFFF745F88046584689469D
:10879400FFF740F8494508BF404580F09580052122
:1087A4005846FFF709FC04E00133042B0BF1700B6E
:1087B400DBD19DF82F209DF82130002A14BF4FF003
:1087C40008084FF00C0803FB088814BF4FF48073AB
:1087D4004FF4C073984517D9364B1B6858077FF57B
:1087E400D2AE354B1B68002B7FF7CDAE334B344AEA
:1087F400D3F8043533490092CDF8048040F2923224
:10880400012003F0F5FDBEE6BDF81E100C98FEF73E
:10881400C1FF0D9A0146BDF82C0004F08FFD00281D
:108824007FF4B1AE4246022106A8FFF783F88346DF
:10883400002849D1014606A8FFF736FE2C225946E6
:1088440012A815F035FC10238DF8483012A8022325
:108854008DF8503000F04EF995E6002B08BF4FF02C
:108864000C0A544500F09A8004215846FFF7A4FBF3
:10887400002688E63B465A46FFF774F9C4E0DA0757
:108884007FF581AE9DF82F30681C611E23B13B46F5
:1088940006AAFFF701FC76E63B4606AAFFF762F953
:1088A40071E60E266FE600BFE8EA030058350020A3
:1088B400F4350020C82E0020C42E002000100140F2
:1088C40017EC030089EB0300534B1B685B0711D5BE
:1088D400524B1B68032B0DDD514B9DF82020D3F820
:1088E400043501924F4A00924F494FF471720420AB
:1088F40003F07EFD9BF84830022B02D07846FEF749
:10890400C9FEDFF82881D8F8009001F097FF09EB41
:1089140000010BF1300001F068FF9BF80C30012BD3
:108924001AD19BF86830BBB99BF84830022B02D0AF
:108934007846FEF7AFFED8E9013298F8151002FB2D
:10894400013801F07BFF00EB08010BF1500001F04E
:108954004CFF01238BF868309DF82010DBF84C3075
:1089640001228A4013EA02087FF40DAE1343CBF8C8
:108974004C309DF82F309BF80920002B14BF4FF08A
:1089840008094FF00C098A42A4F1040409FB01F917
:108994007FF463AF09EB0403ABF84A30DBF818202B
:1089A4000C9B9A420BD20DF1240EBEE80F000BF182
:1089B4000C0CACE80F009EE803008CE80300DBF825
:1089C4006C002246291D484415F049FB5846DBF843
:1089D4004C40FEF731FF84427FF4D5ADDBF84C10F8
:1089E4005846FFF761FD9BF80130D9070CD59BF879
:1089F4001730DBF86C00BBF84A10002B3FF43AAF99
:108A04003B465A46FFF748FB58460121FEF722FF32
:108A14005846FEF7F5FF2BE7C82E0020C42E002091
:108A2400001001402BEC030089EB0300DC3500202F
:108A3400F7B5184C00262546374695F84830012BE3
:108A44000BD101A928460197FFF78BF9042801D01F
:108A5400019B13B12846FFF7FFF90136042E05F1F7
:108A64007005EAD1002594F84830022B0AD194F815
:108A74006830022B06D1E16C2046FFF715FD08B9DA
:108A840084F868000135042D04F17004EBD1012051
:108A940003B0F0BDF43500202DE9F84388460746BD
:108AA400F0B1124E3468CCB9254600F104094545AD
:108AB40007D10F4BC3E90075012333602046BDE89D
:108AC400F88359F835305BB117F83500030609D43B
:108AD40050B1FEF769FE38B90135E8E70424EDE743
:108AE4000E24EBE70B24E9E70F24E7E744350020E5
:108AF40048350020F8B5074610B97846FEF7CAFD98
:108B04000F4E346894B10F4D01232B7023791BB998
:108B140054F8043C384698472468002CF6D12B7846
:108B2400022B03D13168064C09B92970F8BD0B79C1
:108B34000E6813B1204603F0E1FB3146F4E700BFB1
:108B4400B8370020B437002010B5044610B9784671
:108B5400FEF7A0FD00232372211D0248BDE810404A
:108B640003F0ABBBB837002010B5044610B9784603
:108B7400FEF790FD074A1378013B012B04D802232A
:108B840013700123237210BD211D0348BDE810405A
:108B940003F0B4BBB4370020B83700200B888268D8
:108BA400D25A073222F00302134402889BB2043AD9
:108BB400934288BF00230B80704713B58368C91A9A
:108BC400ADF806100DF10601FFF7E8FFBDF8063019
:108BD4008068184402B010BD70B5064615460C46B0
:108BE40011B97846FEF756FD16B97846FEF752FDE0
:108BF400B4F1005F24D94FF08053D3F80C3103F55E
:108C04000023B4EB832F1ED26B1E2344B3F1005F09
:108C140026D94FF08052D2F80C2102F50022B3EB92
:108C2400822F20D2042D02D87846FEF733FD3580FA
:108C34000023043D7380B380B4602580A37070BDAD
:108C4400B4F5000F08D94FF08053D3F80C3103F575
:108C54000053B4EB832FD7D37846FEF71BFDD3E73D
:108C6400B3F5000F08D94FF08052D2F80C2102F569
:108C74000052B3EB822FD5D37846FEF70BFDD1E734
:108C840038B5044610B97846FEF704FD6288A36837
:108C940013449B78012B02D17846FEF7FBFCEFF3DB
:108CA400108572B6A268A18811448B78032B0AD16F
:108CB4002046FFF782FFA368C31A638000238370F2
:108CC40005B962B638BD002393706380A380F7E7CB
:108CD400F8B50E461546044610B97846FEF7DAFC98
:108CE40016B97846FEF7D6FC6288A36813449B78CD
:108CF400012B02D17846FEF7CDFC002D37D0238816
:108D0400043B9BB29D4232D8EFF3108772B6618860
:108D1400A388EA1D22F00302994292B204D25B1A9C
:108D24009A4210DD042016E018D92088401A904297
:108D340009D29A42F6D8032881BFA3685B1804229B
:108D44009A70002363806288A1688B188D52012277
:108D54009A700020336007B962B6F8BDA268134464
:108D64009B78002BDED193706380A380EBE709200E
:108D7400F3E7F8B50D461646044610B97846FEF7F3
:108D840089FC15B97846FEF785FCAB78012B02D037
:108D94007846FEF77FFC2B88B34202D27846FEF772
:108DA40079FC16B97846FEF775FCEFF3108772B6B6
:108DB4000223AB70E1182E802046FFF7EFFE628895
:108DC400A38893421FBFA3689B1800229A7007B917
:108DD40062B6F8BD70B50D46044610B97846FEF784
:108DE40059FC15B97846FEF755FCEFF3108672B6B8
:108DF400A288A36813449A78042A06D1211D204628
:108E0400FFF7CCFEA288A36813449A78022A05D0FF
:108E1400032A08D0052006B962B670BD03229A70F1
:108E24002B600020F7E77846FEF734FCF9E738B505
:108E3400044610B97846FEF72DFCEFF3108572B6A0
:108E4400A088A16801448B78042B03D12046FFF746
:108E5400B4FE01468878831E5842584105B962B66B
:108E640038BD38B5044610B97846FEF713FCEFF365
:108E7400108572B6A088A16801448878C31E012BAE
:108E840005D9831E5842584105B962B638BD2046FB
:108E9400FFF793FE0146F0E7F8B50D46044610B916
:108EA4007846FEF7F7FB15B97846FEF7F3FBEFF3C8
:108EB400108672B6AB78012B19D0032B22D1A2886D
:108EC400A36813449D4202D07846FEF7E3FB0027D3
:108ED400AF70211D2046FFF761FEA288A3681344EA
:108EE4009B78042B00D1A78006B962B6F8BD6288CE
:108EF400A36813449D4202D07846FEF7CBFB0023BF
:108F0400AB70F1E77846FEF7C5FBEDE710B5EFF37C
:108F1400108472B68288816811448B78042B02D144
:108F2400FFF74BFE01468878B0FA80F0400904B997
:108F340062B610BD037942799B1A03F57F2303F6C9
:108F4400FF7300EB0330704710B5054884681C229A
:108F5400002115F0ADF82046BDE8104003F0D6BF5F
:108F6400BC37002070B5194CE36813B97846FEF796
:108F740091FB237E13B17846FEF78CFB6368092BC3
:108F840002D97846FEF786FB114D0026636855F832
:108F940023309847022811D003280DD0012810D17E
:108FA40063680133092B636002D97846FEF772FBCC
:108FB400237E002BEAD004E06660F9E7237E0BB140
:108FC400207070BDBDE87040FFF7BEBFBC37002005
:108FD40064EC0300038810B5044613B97846FEF721
:108FE40059FB2088074B04EB800030EA030203D0CE
:108FF4006288B2F5FE4F04D11C4004F580542078F9
:10900400204410BD00F0FFFF70B504460E4647F63D
:10901400FE65FFF7DFFFB04207D2844205D24388E2
:10902400013B9BB2AB42F4D870BD0020FCE70000CA
:109034000A78094B032A04BF0021197619780129FB
:1090440003D11B7E3BB9FFF78DBF022903D1032A4D
:1090540001D1FFF779BF7047BC37002010B50C4C25
:10906400E3681878002203F58051184404F042FAAA
:1090740050B9E1680846FFF75DFF814206D001F56B
:109084008051E160032010BD0120FCE70220FAE7D3
:10909400BC3700201FB50A4B02221B688DF8002044
:1090A4000193084A4FF4805369460120029300F06B
:1090B400F3FEB0FA80F0400905B05DF804FB00BF90
:1090C400DC370020D83700201FB50123CDE9022169
:1090D4000190054A8DF800306946184600F0DCFE20
:1090E40005B05DF804FB00BFD8370020264BD868D4
:1090F40002794179013A91422DE9F0471E4603D1A4
:1091040001205876BDE8F08700F580531F491C788C
:109114001C440B6813F8045F1D44FFF70BFF6388BE
:10912400013B9BB247F6FE62934200F580578846A6
:1091340004D920463946FFF767FF0446DFF850A0FC
:109144004FF001092CB9B4FA84F46409747601204F
:10915400D8E7D8F800106288284601F5805104F059
:10916400C9F905460028EED004225146204686F867
:109174001890FFF7A9FF28B920463946FFF744FFA6
:109184000446DFE70020BDE7BC370020DC370020C1
:1091940014EF030038B5104CE36818784FF6FF72EB
:1091A40003F58051184404F0A5F988B1E3681978EF
:1091B4000B4498420CD0657E0849094B0422002DCB
:1091C40008BF1946FFF780FF20B90120207638BD7B
:1091D4000120FCE70020FAE7BC3700201CEF030065
:1091E40018EF030070B50C4D0C4EE96830680C782C
:1091F40004302246FFF768FF58B9336804F0FC04D2
:1092040004341C44EB686C611A7813442B6101200C
:1092140070BD0020FCE700BFBC370020DC37002015
:1092240008B5054B054918680422FFF74DFFB0FA4D
:1092340080F0400908BD00BFDC370020C83700209B
:10924400074B10B51968074C40F6FC720431E0680E
:10925400FFF73AFF10B90120207610BD0020FCE78B
:10926400DC370020BC37002010B50C4CE168084600
:10927400FFF760FE81420AD1094B0A4918680422AB
:10928400FFF722FF40B901232376022010BD01F528
:109294008051E1600320F9E70020F7E7BC370020A4
:1092A400DC370020E03700202DE9F74F324C2369EA
:1092B40013B97846FEF7EEF9636913B97846FEF7F9
:1092C400E9F9DFF8B89047F6FE6A6369D4E9030662
:1092D40003EA0908A8EB0308FFF72CFE7388013B97
:1092E4009BB2534508F5805800F5805B05D930469C
:1092F4005946FFF789FE064668B1354600275D45A5
:1093040013D327BB012335B1698847F6FF72914215
:1093140001D0002BD9D001202AE028460192FFF782
:1093240059FE019A05461746E9E72A8807EB8202A7
:10933400904509D986EA050313EA090F04D16B881D
:10934400013B9BB25345E8D90FB90123DCE73A4608
:1093540031466069FFF7B8FE48B963691F44676125
:1093640015B97846FEF796F925610023CBE700206E
:1093740003B0BDE8F08F00BFBC37002000F0FFFF52
:109384001FB50A4B0222DB688DF800200193084ABE
:109394004FF4805369460120029300F07DFDB0FA3A
:1093A40080F0400905B05DF804FB00BFBC37002025
:1093B400D83700204FF0102310B55A6901321ED05F
:1093C4005A69E2B15B69A3F58053A3F58053164A49
:1093D400196813604B1E033324D8C1F30B030BBB72
:1093E400124A1348D160012111701249138393600A
:1093F40001330A2B09D17846FEF74CF90AE04FF005
:109404008052516913694B43DFE751F8234084428A
:10941400EED153600120084900F02EFDFFF7A2FDB4
:10942400012010BD0020FCE7DC370020BC37002001
:109434008593020064EC03003590020010B50446E5
:1094440010B97846FEF726F9094B187860B1E06840
:10945400D9684379A0EB0333994206D3FFF76AFD39
:1094640081428CBF0020012010BD0020FCE700BF1A
:10947400BC370020024B1878003018BF0120704719
:10948400BC37002038B50E4C2378054613B1784616
:10949400FEF700F92B78032B02D07846FEF7FAF892
:1094A400EB68E360012000230649A5606360207037
:1094B400238300F0E1FCBDE83840FFF753BD00BF53
:1094C400BC37002035900200014B1868704700BF7C
:1094D400DC37002010B5044610B97846FEF7DAF8F8
:1094E40063681BB123680BB1A36813B97846FEF710
:1094F400D1F8A3685A1E1A4202D07846FEF7CAF879
:109504000023C4E9033310BD70B50E460446F0B120
:109514008368F3B1EFF3108572B6D0E90331994251
:1095240003D105B962B605250FE04EB18368013B4E
:109534000B40D0E90012304602FB031114F08FFDFA
:1095440023690133236135B962B6284670BD0E25FF
:10955400FBE70925F9E70025F7E70000024AD2F8FE
:109564000034002BFBD0704700E0014038B5C0F355
:109574000B05EDB9F1B1104C0223C4F80435FFF723
:10958400EDFF01F6FF7121F47F6121F00F01014429
:10959400884206D10023C4F80435FFF7DFFF2846CC
:1095A40038BDC4F80805FFF7D9FF00F58050EFE790
:1095B4001025F4E70925F2E700E0014040EA010341
:1095C40070B5064698071ED1FAB112F003001CD1FB
:1095D4000F4B94080122C3F80425FFF7BFFF05468B
:1095E400A54206D10A4B0022C3F80425FFF7B6FFB3
:1095F40070BD51F825305A1C03D046F82530FFF7CA
:10960400ADFF0135ECE71020F2E70920F0E700BFD9
:1096140000E001404388012B05D0022B01D1043026
:1096240008600120704704304860FAE708B5082252
:109634000221094803F0C1FA20B90848BDE80840EE
:1096440003F03CBC064A9168127B02724160BDE89B
:10965400084003F0E1BA00BFEC370020882E002058
:109664003838002010B5044610B97846FEF712F8D1
:109674002346BDE81040184700B50A4B1A7B9B6887
:109684008DB0012A08BF03F1FF3304930390022332
:1096940001A88DF808208DF80430FFF72BFA0DB0DF
:1096A4005DF804FB3838002038B50E4D2B78C3B96B
:1096B4000D4B5C6804F50054B4F1807F11D804228A
:1096C40001210A4803F079FA20B90948BDE8384075
:1096D40003F0F4BB012344602B70BDE8384003F071
:1096E4009BBA38BD4C38002038380020EC370020B5
:1096F400782E002010B501210C4803F0A3FA80B99C
:1097040002210A4803F09EFA044650B90146142285
:10971400074814F0CDFC074B1C70BDE81040FFF760
:10972400C3BF054803F0CAFBF7E700BFEC370020CE
:109734003838002010380020A82E002030B50D46FF
:109744008DB07AB94B88012B0AD1124C227812B908
:109754007846FDF79FFF104B6A685A600023237018
:109764000DB030BD032A02D07846FDF793FF2C22BA
:10977400002101A814F09CFC11238DF80430074B40
:109784000395DA681B69059201A80693FFF7B2F9FD
:10979400E6E700BF4C38002038380020EC370020C2
:1097A40013B501F003FD00216B46124A1248134C15
:1097B400CDE9001103F054F9009B0BB1019A6AB989
:1097C40000232360A3602373FFF730FF23686360E3
:1097D400FFF76AFF01F02AFD02B010BD1968A1600D
:1097E40019792173934202D909B92160EEE713680C
:1097F4002360EBE719960200EC370020383800208C
:1098040008B503F0A9FBA0F5805008BD7FB5002181
:109814001822684614F04CFCFFF7F2FF0123009075
:1098240001936946054B0648039303F033FA10B1DC
:10983400044803F043FB07B05DF804FB41970200C2
:10984400EC370020982E002008B5142200210A4885
:1098540014F02EFC00F0F2FF084B094A09499A6003
:1098640000225860C3E903125A61074B1A70BDE81D
:109874000840FFF7CBBF00BF383800201438002061
:109884007D990200008793034D38002010B5074CE2
:1098940023784BB90648074B036000F069FD06487E
:1098A40000F06AFF0123237010BD00BFE8370020D9
:1098B4002C380020E59902001438002010B501F07E
:1098C40075FC104A117B1346C9B9917BB9B9118A49
:1098D40041F28262914202D80B4A12787AB1012293
:1098E4001A739A68002401321C829A60FFF79EFE64
:1098F4002046FFF7C1FE01F099FC204610BD082464
:10990400F9E700BF383800204D38002010B501F0C9
:109914004DFC174A547B1346BCB1917B21BB118A81
:1099240041F28262914202D8124A1278F2B11A7B51
:10993400002058732AB1012A0BD07846FDF7AAFEFD
:1099440003E0FFF7BBFF0028F7D101F06FFC2046CE
:1099540010BDC3E9000018731882FFF78DFEFFF7EE
:1099640065FEFFF7A1FEF0E70024EEE71446ECE7FE
:10997400383800204D38002010B5174C237B2BB10C
:10998400012B12D07846FDF785FE1EE0228A41F2B3
:1099940082639A4202D8114B1B78B3B1FFF7B6FF2A
:1099A400638A0BB1013B638210BD228A41F282615A
:1099B4008A4206D942F2B0118A420AD8FFF7A6FFBA
:1099C40003E0064B1B78002BF8D1238A0133238252
:1099D400E6E76373E2E700BF383800204D38002023
:1099E4000378042B10B50ED143681B785BB11C4B74
:1099F4004269197B047E69BB598AF9B9012C9968BB
:109A040002D08A4203D810BD4C1CA24218D92A3174
:109A14008A42F8D8997B0029F5D184689A60114A62
:109A24001A619981C3E90011FFF700FEFFF73CFEBC
:109A340004F11000BDE81040FFF71EBE012CE2D176
:109A4400996801318A42DED10122BDE810405A737F
:109A5400FFF75CBF0129D6D1012CD4D09968F1E776
:109A6400383800200000062D38B5164CD4E9002300
:109A74009A4205461FD2207B134B1449012808BF84
:109A84000B469A4207D263682268403B9A4208D345
:109A9400FFF70AFE05E001236373FFF737FF002891
:109AA400F1D0EFF3108072B623685A1C22602B6049
:109AB40028B962B638BDFFF7F7FD0F20FAE700209A
:109AC400F8E700BF38380020FFFF7F0000E0FF0008
:109AD4000C4A10B51368144628B101200A490344FE
:109AE4008873136010BD13B97846FDF7D3FD23685E
:109AF400013B2360002BF5D1034ABDE8104093736A
:109B0400FFF704BFE43700203838002000B58DB0DB
:109B14000323ADF8080001A88DF8102003918DF8F7
:109B24000430FEF7E7FF0DB05DF804FB014B9868C5
:109B3400704700BF38380020034B98681B7B012B0B
:109B440008BF00F1FF30704738380020044B9B6891
:109B54005840C20748BF03F1FF331846704700BF9F
:109B640038380020014B187B704700BF383800207C
:109B740038B50A4B1C787CB9094D01221A70297337
:109B8400A860FFF753FD2046FFF776FDC5E90044C2
:109B9400FFF78AFD204638BD0820FCE71038002076
:109BA400383800202DE9F8431D4CDFF87890002662
:109BB4000221204602F018FA5FFA86F805460027CB
:109BC400ADB967B12946204602F075FA082806D1D6
:109BD40054F8043C1BB12A4649464046984701368E
:109BE400032E04F1BC04E3D10120BDE8F88354F84A
:109BF400043C23B134F80C2C29464046984734F8E9
:109C04000C3C02210133204624F80C3C02F008FAF3
:109C14000221204602F0E8F901370546D0E700BFEB
:109C2400643800208CEC030038B5012104460C3064
:109C340002F0DAF9054620B3164BC4F89C30002331
:109C4400C4F8A03003786268012B07D0022B1AD025
:109C54007846FDF71FFD4FF4FA7306E081688B1A0E
:109C6400990829234B4303F5FA730B4A934294BF93
:109C7400C4F8A830C4F8A8200123C4F8AC4084F880
:109C8400B830284638BD83689B1A1A0B034B5343DC
:109C9400E9E700BFC59C020060850100084C010093
:109CA40010B50446FFF7C0FF48B104F19C000BF067
:109CB40063F820B17846BDE81040FDF7EBBC10BD59
:109CC4004B4B1B782DE9F74F80460D463BB10BF00B
:109CD40089F8002385F8B83003B0BDE8F08F01F1AE
:109CE4000C09D1F8A8704846012102F07DF9064616
:109CF40010B97846FDF7CEFCDFF8FCA0A7F5FA779B
:109D040000244FF0290B3378012BA7EB040406D071
:109D1400022B3BD07846FDF7BDFC00231FE06B68A7
:109D2400B268B4FBFBF4D21AA400944228BF1446D0
:109D340024B901937846FDF7ADFC019BF168706886
:109D440023F00303224619441844FFF737FC10B1EB
:109D54007846FDF79FFC6B681C446C60B3686A68C6
:109D64009A422AD10BF03EF84846012102F058F9F4
:109D740000236B6085F8B8301E4B186801F0A4FA14
:109D8400284603B0BDE8F04FFFF78ABF6B68B2689E
:109D9400B4FBFAF4D21A2403944228BF144624B91B
:109DA40001937846FDF776FC019B706823F003036A
:109DB40021461844FFF7DAFBC9E701F0E9F83378E4
:109DC400B0EB080448BFA8EB0004012B0BD0022B16
:109DD4000BD07846FDF75EFC00232344BB4292D9A6
:109DE4000BF000F8CCE72923F7E75346F5E700BF6B
:109DF4005438002050380020084C010070B51B482E
:109E04001B4C01F043FA1B4B186004F11C0341F294
:109E140003060825636104F10C0004F118032361AF
:109E2400A681A57302F023F904F1D803C4F8D03055
:109E340004F1C80004F1D403C4F8CC30A4F8C86019
:109E440084F8CA5002F013F904F5CA73C4F88C31CB
:109E540004F5C873A4F8846184F88651C4F8883181
:109E640004F5C270BDE8704002F001B9A99B02007C
:109E74005838002050380020022838B504460D46D2
:109E840002D97846FDF706FC024BBC2202FB0434DF
:109E9400A56038BD5838002002282DE9F84F054642
:109EA4000C46924602D97846FDF7F4FB14B978467D
:109EB400FDF7F0FB2378012B12D16368990702D0D8
:109EC4007846FDF7E7FBE3689A0702D07846FDF78A
:109ED400E1FBA3689B0711D07846FDF7DBFB0DE09F
:109EE400022B0DD16368C3F30B0313B17846FDF75E
:109EF400D1FBA368C3F30B03002BEDD1A36813B903
:109F04007846FDF7C7FBEFF3108772B6BC266E43A5
:109F1400DFF8908006F10C0BC3440021584602F090
:109F240063F8814638B30021584602F079F804F109
:109F3400100354F8042B49F8042B9C42F9D1BAF1CC
:109F4400000F05D0BC2303FB05835B88AAF800300F
:109F5400BC2303FB05856B8895F8B84001336B80FF
:109F6400E4B90F4B1D783DB908EB0600FFF75CFE22
:109F74002FB12C4605E004246FB92746002062B6B1
:109F84003C4640B106F19C0040440AF0F5FE10B195
:109F94007846FDF77FFB2046BDE8F88F0024EBE709
:109FA400543800205838002070B5EFF3108672B68C
:109FB400144C236818BB13B97846FDF76BFB236870
:109FC400013B236093B9104D95F8B83013B9284676
:109FD400FFF766FE95F8743113B90C48FFF760FE7D
:109FE40095F8303213B90A48FFF75AFE2368094A34
:109FF400003318BF0123137006B962B670BD013374
:10A004002360F3E78C3A00205838002014390020EC
:10A01400D03900205438002010B1800B014B185C5B
:10A02400704700BF9CEC030012DF7047137813B530
:10A0340063B1022B0CBF0724002410F8013C292B28
:10A0440043D005D8162B4BD002B010BD547DF4E795
:10A054002A2B1BD02B2BF7D1022CF5D110F8021C84
:10A064000139C9B203F0CCF90028EDD0234B1B68A9
:10A074005B06E9D5224B1B68012BE5DD214B224A07
:10A08400D3F8043500920190A62219E0022C01D0E5
:10A09400072CD9D110F8021C013901F07FFC0028EB
:10A0A400D2D0164B1B685A06CED5154B1B68012B14
:10A0B400CADD144B154AD3F804350092019093225B
:10A0C4001349022002F094F9BEE7022CBCD110F827
:10A0D400021C0139C9B202B0BDE810400FF0E6BF5E
:10A0E40001884FF6E4639942AED110F8021C0230A5
:10A0F400033902B0BDE81040FDF72ABAC82E00208B
:10A10400C42E00200010014059ED030030ED03007F
:10A1140025ED030070B58AB00BF01EFB0446002841
:10A1240034D0002306468DF810300FCE05AD0FC590
:10A1340033682B60627D052A0CD9207D00F00F0363
:10A14400072B07D004AB063A04F11D0100F00F0001
:10A154000AF0B0F9114B1A68AAB104AB0393237D3A
:10A16400C3F303038DF80430637D062B89BF063BDC
:10A1740000238DF8053004F11D0398BF8DF80530D8
:10A18400029301A8904720460BF0D0FA0BF0FEFA98
:10A1940080F00100C0B20AB070BD00BF943A002044
:10A1A40000B50A4B1A78032A8DB00CD104221A7018
:10A1B40000212C2201A813F07BFF1C2301A88DF899
:10A1C4000430FEF797FC0DB05DF804FB903A0020D4
:10A1D400F7B5354F3A780546002A5BD100285BD0A5
:10A1E400067A0F2E01D0062E58D104F025FFE86818
:10A1F40000284CD0FDF760FA0DF10700FFF714FFBB
:10A204000446002840D19DF80730012B48D1FDF7C2
:10A214007BFA00F09DFA304600F07AFFE87800F00F
:10A2240019F900F0ADFD0AF03DFD20480BF044FBA8
:10A234000AF0BAFAFFF7E2FD04F050F800F048FC27
:10A2440004F0BAFE04F0D8FC284601F00BFBFEF73C
:10A2540025F803F035FCFDF77BF908B1062821D178
:10A2640013480AF0F9F82A200AF098F92B200AF08A
:10A2740095F929200AF092F916200AF08FF90D4B6E
:10A2840000221A6001233B70204603B0F0BDFDF7A5
:10A294001FFAB1E70824F7E70E24F5E70724F3E7EC
:10A2A4000224F1E70446EFE7903A002019A10200E6
:10A2B400B82E0020943A002037B51B4D2B78012B83
:10A2C40005D013B1033B012B26D908241FE00BF062
:10A2D4000FFA01F0D7FAFEF723F8FDF739F904462F
:10A2E400C0B1062816D0114B1B685B040FD5104B68
:10A2F4001B68012B0BDD0F4B0F4AD3F804350F49B4
:10A3040001900092022040F2A71202F071F8204658
:10A3140003B030BD00F028FF0AF020FD04460028F9
:10A32400F5D102232B70F2E7903A0020C82E0020CA
:10A33400C42E002000100140A0EC030025ED030012
:10A3440008B5084B1A78022A0AD1032206481A7063
:10A354000AF0CAFC18B17846FDF79CF9002008BD44
:10A364000820FCE7903A0020A5A10200FDF7DABF1F
:10A37400FEF7EABBFEF7F8BB08B500F0D1FC0020FD
:10A3840008BD05F047BD0000044B1A680132B2F164
:10A39400704F08BF01221A6018687047983A00206D
:10A3A40010B5044610B97846FDF774F90023C4E9E2
:10A3B400003310BD38B50D46044610B97846FDF794
:10A3C40069F915B97846FDF765F900236B60EFF379
:10A3D400108372B6226822B92560656003B962B63B
:10A3E40038BD62685560F8E710B5044610B9784680
:10A3F400FDF750F9EFF3108272B6206820B90023FC
:10A40400636002B962B610BD43682360002BF8D1C3
:10A41400F5E710B5044610B97846FDF73BF9206816
:10A4240010BD35DF7047000008B54FF0FF30FFF76F
:10A43400F8FFBFF34F8F0549054BCA6802F4E06289
:10A444001343CB60BFF34F8F00BFFDE700ED00E087
:10A454000400FA0507289ABF024B33F81000FA20CB
:10A46400704700BF84ED0300024B5868103840B2B7
:10A47400704700BF00ED00E000280346B8BF00F1BC
:10A484001F03084A5B1152F82330424202F01F02B4
:10A4940000F01F0058BF504223FA00F000F0010002
:10A4A400704700BF00E100E046DF704730B501F1BE
:10A4B40010031032103013F8014D12F8015D8B4275
:10A4C40084EA050400F8014DF5D130BD2DE9F04FC3
:10A4D40091B002F10F0504AE1F468A462D110346C2
:10A4E40000F11004B14618685968B446ACE803009A
:10A4F4000833A3426646F6D102F00F040DB1002CD6
:10A5040056D000264FF0020B1022002108A813F0A9
:10A51400CFFD4846FFF7C8FF01220CA89DF9301073
:10A524004FF00F0C804603785B00DBB2037010F829
:10A5340001EF0CF1FF3C43EADE131FFA8CFC00F838
:10A54400013CBCF1000FEED19DF83F305B00DBB263
:10A554000029B8BF83F087038DF83F30531C9B4517
:10A564004FF00202D9D2013D0AEB05111EB30CAA29
:10A574006846FFF79BFF102200210CA813F098FDFA
:10A584000024AC4229DB4246694608A8FFF78EFF47
:10A594004846FFF789FF10AA434603CB934238602D
:10A5A4007960984607F10807F6D111B0BDE8F08F3D
:10A5B4000126B346A8E72246684613F050FD10ABC7
:10A5C4002344802203F8402C0134102C02D10CAA1D
:10A5D4006946CDE70DF80460F6E70AEB04120CA90E
:10A5E40008A8FFF763FF4846FFF75EFF0134C8E79A
:10A5F40038B5124B1A6804462AB11A68456852687D
:10A60400AA1A002A0DDA1A6862611C609A8801325B
:10A6140092B29A8012B97846FDF73CF80123237070
:10A6240038BD19684A691AB15068401B002802DB1A
:10A6340062614C61EAE71146F4E700BFA03A0020EA
:10A64400124B1A68824210B51A4604460BD142696D
:10A654001A609A8892B2511E89B299808AB9784652
:10A66400FDF718F80DE01B685BB15969A1420BD1E5
:10A674006169596193889BB2591E89B29180002BFC
:10A68400EDD00023237010BD0B46EDE7A03A002067
:10A69400014B186800F018BE9C3A0020044B1A685D
:10A6A40022B11B680349586800F052B900F0A6B9FA
:10A6B400A03A002095A602002DE9F04100F0BEF872
:10A6C400224E054637464FF00008336823B13368FD
:10A6D4005B685B1B642B06D400F0B0F8FFF7DEFF69
:10A6E4000120BDE8F08134682378012B02D078463C
:10A6F400FCF7D0FF63693B60BB88C4F814809BB24D
:10A704005A1E92B2BA8013B97846FCF7C3FFA36805
:10A7140013B97846FCF7BEFF02232846237021694B
:10A72400A368984700F08AF82378022B0546CCD119
:10A73400E2680AB92270C8E763681344591B6429A4
:10A74400FBD463602046FFF753FFBEE7A03A002026
:10A7540008B5064B064800221A605A6000F096FDC0
:10A76400044B1860BDE8084000F05BB8A03A002034
:10A77400BDA602009C3A002010B5044600F07EFEFF
:10A7840010B97846FCF786FF14B97846FCF782FFC7
:10A79400A36813B97846FCF77DFF2378012B02D117
:10A7A4007846FCF777FF002363612046FFF720FF1C
:10A7B40000F044F8BDE81040FFF770BF10B5044640
:10A7C40000F05CFE10B97846FCF764FF14B97846D3
:10A7D400FCF760FF2046FFF733FF0023636100F0BE
:10A7E4002DF8BDE81040FFF759BF38B504460D46B3
:10A7F40000F044FE10B97846FCF74CFF14B97846D3
:10A80400FCF748FF2046FFF71BFF00236361204647
:10A814006560FFF7EDFE00F011F8BDE83840FFF782
:10A824003DBF08B513F0A4FA38B913F0D5F920B137
:10A834007846BDE80840FCF72DBF08BD10B5EFF31E
:10A84400108072B60C4A0D4B1968D2F80435D2F850
:10A854000441012C04BFD2F80435013100B962B6B9
:10A86400074843EA01614FF480420023E0FB0123DF
:10A87400D00B40EA434010BD00100140A83A00202C
:10A8840040420F000A4B10B54FF40032094CC3F894
:10A894004823C3F80823226812B97846FCF7FAFE65
:10A8A4002468FFF7CBFF2346BDE81040184700BFDC
:10A8B40000100140B43A002010B5EFF3108072B6D6
:10A8C4001E4B1F490022C3F804210A6801320A60A2
:10A8D40000B962B61B4A116809B3116801391160E5
:10A8E4001268E2B9184AD3F804051168884217D2ED
:10A8F400EFF3108072B6D3F8041514680131A14245
:10A904002ABFD3F8042512680232C3F8442500B9DB
:10A9140062B64FF40032C3F84423C3F8042310BDD5
:10A924000A4C226812B97846FCF7B4FE2468FFF793
:10A9340085FF2346BDE81040184700BF00100140C2
:10A94400A83A0020AC3A0020B03A0020B43A0020E3
:10A9540037B50023044601930D4611B97846FCF738
:10A9640099FE204B1D60FFF769FF031B002BB8BF46
:10A97400241A1D481D4AA8BF00244FF40045002195
:10A984000023E5FB040113F0F9F9EFF310830193BD
:10A9940072B6174A174CD2F804350228C3F1FF11D6
:10A9A40001F57F4138BF02208142134910D303448B
:10A9B400C2F844354FF40033C2F84433C2F80433C8
:10A9C400002323600B60019B03B962B603B030BD62
:10A9D40003F17F43013303441A0E0132226023F052
:10A9E4007F43EFE7B43A002020A1070040420F0064
:10A9F40000100140AC3A0020B03A0020074B4FF45D
:10AA04000032C3F84823C3F80823054A002313601F
:10AA1400044A1360044A1360704700BF00100140E9
:10AA2400AC3A0020B03A0020B43A002030DF70473E
:10AA340031DF704710B5D0E900238468C168A2EB08
:10AA4400731283EAF43303600C44134411444460E6
:10AA54008160C360184610BD73B50D46064610B933
:10AA64007846FCF717FE0024A54201D802B070BD59
:10AA74000DF10700FFF7DAFF9DF80720002AF7D051
:10AA84002B1B9A4288BF8DF8073030199DF80710A8
:10AA9400FFF7CEFF9DF807301C44E5E737B50421E6
:10AAA400044600230DEB01000193FFF7D5FF074B8C
:10AAB4002360019BE360C4E9013314252046FFF7BA
:10AAC400B9FF013DFAD103B030BD00BFED5EEAF13C
:10AAD400704748DF704749DF70474ADF704700001E
:10AAE400074B03221A741868064A5A6143F2B0618C
:10AAF40040F6D863984288BF0B469360704700BF06
:10AB0400E43A0020043B0020054B1B68A0F17802C6
:10AB140028335843034BB0FBF3F0101A704700BFBF
:10AB2400003B002040420F0038B50E4A0E4C012372
:10AB340063711368002501331360257400F084FAEF
:10AB44000AF0C6F92068FFF7DFFF084A01462846E5
:10AB540000F0ECF920B17846BDE83840FCF79ABD26
:10AB640038BD00BF183B0020E43A0020E5AA0200EB
:10AB74001E4B30B45C6928B11A68D968224401318B
:10AB8400D9601A609A680121013224FA01F5012A78
:10AB940019749A605D6119680DD0022A19D05B6935
:10ABA400134A1944914203D840F6D76293421BD802
:10ABB40030BCFFF7B9BFB5F5FA7F03D130B9002235
:10ABC4005A61ECE741F6B1529442E8D840F6D862B3
:10ABD400F6E7DA68022A02D1054A521AF0E7012A96
:10ABE400DDD10028EBD0DAE730BC7047E43A00202E
:10ABF4008096980070B5424C424D012323712B7806
:10AC04001BB1414B1E78002E5BD000232374042813
:10AC140053D8DFE800F0034D4A4844003B4DA17986
:10AC2400AA68C4E9023323682260002934D00121D0
:10AC340021743749002B08BF0B46991AB1F57A7F66
:10AC440026D39A4224D8616143F2B06043F6982235
:10AC5400C5E9020201236B71A371237C023B012B22
:10AC64000DD8637943B10AF04FF92068FFF74CFF20
:10AC740000F01CFA00236371234B00221A70237C1A
:10AC84002448022B04BF012323760023237170BDC3
:10AC94004FF47A736361D7E7FFF746FFD4E70120E7
:10ACA400FFF766FFD9E70020FAE70AF0BFF8D4E718
:10ACB40000F08EF90AF0F2F8CFE77846FCF7EAFCE8
:10ACC400CBE700F065F92B782060022B0FD0032B23
:10ACD40006D0012B10D10223237400232B70BCE770
:10ACE4000A4B0D490D4A5E71C3E90212A671032392
:10ACF4002374064B6361F0E77846FCF7CBFCECE782
:10AD0400E43A0020153B0020143B0020043B0020C3
:10AD140080969800F43A0020A0860100FF1FA10746
:10AD2400043808B5042825D8DFE800F016220A0301
:10AD34000F00114B1B7E012B1CD1FFF7CCFEC8B1B9
:10AD44007846BDE80840FCF7A5BC0B4B00221A76F8
:10AD5400BDE808400AF010B908480123437143F6DE
:10AD6400982240F6D863C0E90232FFF7B6FEE6E760
:10AD74000248FAE708BD00BFE43A0020043B002083
:10AD84000D4A4FF480710023918043F2B06C43F676
:10AD940098211370C2E902C1084A1060084A13706E
:10ADA400084A1370084A1360084A137613609380A4
:10ADB40001239371704700BF043B0020003B002037
:10ADC400143B0020153B0020183B0020E43A0020EF
:10ADD40010B50E4C227E012A0CD022B1022A0CBFDF
:10ADE4001120002010BD0A48FFF773FE10B1784609
:10ADF400FCF750FC0748FFF770FE10B17846FCF7EB
:10AE040049FC022323760020ECE700BFE43A00204B
:10AE1400F9AB0200043B0020074B1B7C023B012BD7
:10AE240007D9064B1878013802288CBF002001206E
:10AE340070470120704700BFE43A0020153B002012
:10AE4400014B1868704700BFE43A0020074B58795B
:10AE540010B548B11868FFF757FE044600F098F89B
:10AE64000346201A48BF181B10BD00BFE43A002057
:10AE7400014B5879704700BFE43A0020014B187920
:10AE8400704700BFE43A0020024B187E003018BF20
:10AE940001207047E43A0020EFF3108372B6054AAC
:10AEA400527922B1044A4FF48071C2F8001103B9F7
:10AEB40062B67047E43A002000E100E0044B1B7ED8
:10AEC400022B04D1034B01221A70FFF7E5BF704730
:10AED400E43A0020153B0020054B1B7E022B06D1D3
:10AEE4000128044A08BF03231370FFF7D5BF704736
:10AEF400E43A0020153B0020064B19781A4631B17C
:10AF040028B90549097811B11870FFF7C5BF107049
:10AF1400704700BF143B0020153B0020024B1B6808
:10AF240003B962B6704700BF2C3B0020022810B55D
:10AF340022D8EFF31084114B1C6072B6104B43F807
:10AF44002020104B002243F820200F4B1B787BB1AC
:10AF5400830003F1804303F500431030C3F840211C
:10AF6400012202FA00F0094AC2F80403C3F84015AA
:10AF7400FFF7D4FF002010BD0720FCE72C3B002086
:10AF84001C3B0020383B0020283B00200080004070
:10AF940008B5EFF310820A4B1A6072B6094B1B789E
:10AFA40053B1094B0022C3F84C210122DA64D3F8CF
:10AFB4004C05FFF7B3FF08BD044B1868F9E700BF61
:10AFC4002C3B0020283B002000800040303B002028
:10AFD4002DE9F84F0024174EDFF85C80A1464FF0AE
:10AFE400010BA50005F1804505F50045D5F8403174
:10AFF400CBB1D8F8043304F11007FB40DB0712D5BA
:10B00400D6F800A0BAF1000F02D17846FCF742FB53
:10B014000BFA07F7C6F80090C8F80873FFF7B8FFF3
:10B02400D047C5F840910134032C06F10406D8D169
:10B03400BDE8F88F1C3B002000800040014B1B68DA
:10B0440018447047343B002008B5134B0022C3F862
:10B054004025C3F84021D3F84011C3F84425C3F870
:10B064004421D3F84411C3F84825C3F84821D3F840
:10B0740048310A4B1B681BB9094B4FF480721A60A4
:10B08400084B01221A70FFF7D9FB0146FFF780FF36
:10B09400054B081A186008BD008000402C3B0020B6
:10B0A40000E100E0283B0020343B00200B4A0C491F
:10B0B40000231360536093600A4A0B6010600A4ACD
:10B0C4004B6013708B60094B4FF0FF32C3F80823B9
:10B0D400074B4FF48072C3F880217047383B00203F
:10B0E4001C3B0020303B0020283B00200080004017
:10B0F40000E100E0044B1B780F2B1EBF034B4FF401
:10B104008022C3F8002170478C3C002000E100E05D
:10B1140010B5104C104B2070104803601023C0E988
:10B124000133FEF7D7F90E48FFF73AF923780F2BCE
:10B134000AD0072B09D8EC221A41D20705D55B01A6
:10B14400084ADBB282F8123310BD7846BDE81040DD
:10B15400FCF7A0BA8C3C0020583B0020443B002064
:10B16400903C002000E100E00D4B1B780F2B0DD02C
:10B174000C4991F812335A09EC231341DB0706D525
:10B18400094B9A6832B94FF480230B6070477846B4
:10B19400FCF780BA1A6842F480221A60704700BF34
:10B1A4008C3C002000E100E0CC560020F8B5EFF321
:10B1B400108772B617480268511C016002BB164B17
:10B1C4001B780F2B21D0EFF3108C72B6134A144C5A
:10B1D40095680123E5B99360124B134ED3F88010A0
:10B1E40031401160C3F88060D3F8841051604FF08F
:10B1F400FF32C3F884202570BCF1000F00D162B681
:10B20400036813B97846FCF745FA07B962B6F8BD86
:10B214002370F1E7583C00208C3C0020CC560020E1
:10B224008D3C002000E100E0FC06FFBD38B5EFF3E3
:10B23400108572B6104C236813B97846FCF72AFAC5
:10B244002368013B2360A3B90C4B1B780F2B10D050
:10B254000B4B9A686AB10B4A127852B9EFF310801B
:10B2640072B609491C680C605C684C609A6000B94D
:10B2740062B605B962B638BD583C00208C3C00204B
:10B28400CC5600208D3C002000E100E038B5054696
:10B2940010B97846FCF7FEF9094C2368092B02D94A
:10B2A4007846FCF7F7F9EFF3108372B62068421C76
:10B2B4002260044A42F8205003B962B638BD00BF88
:10B2C4005C3C0020603C00200E4B1B68834210B5A0
:10B2D400044602D87846FCF7DDF9EFF3108072B625
:10B2E400094A6109012304F01F0403FA04F452F823
:10B2F4002130234342F82130FFF7FCFE00B962B647
:10B3040010BD00BF5C3C0020883C002070B50D4699
:10B314001646044610B97846FCF7BCF915B97846C8
:10B32400FCF7B8F9EFF3108372B60022C4E90256B1
:10B334002274246003B962B670BD000070B504467F
:10B3440010B97846FCF7A6F9A36813B97846FCF758
:10B35400A1F9EFF3108672B6237C03F0FF055BB905
:10B364000123064823742146FFF724F8FFF7C2FEA1
:10B37400284606B962B670BD1120FAE7903C002059
:10B3840010B5044610B97846FCF784F9207C10BD4A
:10B394002DE9FF47324E337813B17846FCF77AF93A
:10B3A4000125DFF8CC802F4FDFF8C89035700024DA
:10B3B400D8F80030A34212D82B48DFF8AC80FFF74E
:10B3C40013F8002760BB294C69462046FEF79CF819
:10B3D400A0B300232846337004B0BDE8F0876309A6
:10B3E40004F01F0157F82300C840C20716D5EFF335
:10B3F400108072B6012202FA01F157F8232022EAE2
:10B40400010247F8232000B962B659F8243098475E
:10B41400824618B92046FFF757FF55460134C7E75F
:10B424000468237C13B97846FCF734F9D4E9023074
:10B43400984727744046FEF7D7FFC3E79DF80030CE
:10B4440043B1012BC0D1019B002BBDD0DDE902012A
:10B454009847B9E7019B002BB6D002989847B3E709
:10B46400983C0020883C0020903C0020443B002075
:10B474005C3C0020603C0020FFF78ABF07B5FEF764
:10B48400F3FF8DF803009DF803301749F02B0DD11D
:10B494000B780F2B25D01220FEF7EEFF80F0010071
:10B4A400C0B200F0010003B05DF804FB9DF8033066
:10B4B4005BB2002BADBF03F1604303F00F030B4AF3
:10B4C40003F56143B4BFD35C93F800335B09019384
:10B4D400019A0B78934204D0019A9342DBD3002063
:10B4E400DFE70120DDE700BF8C3C002014ED00E025
:10B4F40046DF7047F0B58DB06D4614460B460246E4
:10B5040000F1100C2F46106851682E4603C608320D
:10B5140062453546F7D104AD03F110061868596841
:10B524002A4603C20833B3421546F7D13846FFF71B
:10B53400DFFF08AD22460CAC2B4603CBA3421060C0
:10B5440051601D4602F10802F6D10DB0F0BDFEF7C0
:10B55400BDBF01F0C8BD01F0FFBD30B4032954D80C
:10B56400DFE801F00225254E00241C70817A5A7808
:10B5740061F30602C17A61F3C7125A70C1680D04FF
:10B58400C1F3074205F47F0501F47F412A430A43CE
:10B59400C2F307219A70120C1A71D9700189DC71F7
:10B5A4000A0A42EA0122A3F805201C7222E019705B
:10B5B400597801F0800162F3C7115970C1680C0415
:10B5C400C1F3074204F47F0401F47F4122430A4398
:10B5D4009A70C2F30721120C1A71D97001890A0AF0
:10B5E40042EA01224188A3F805200A0A42EA01221C
:10B5F400A3F80720026912BAC3F8092030BC7047C7
:10B60400032200241A705C70B8E7784630BCFCF75B
:10B6140041B87FB50E461546044600B112B97846C6
:10B62400FCF738F810220021684612F041FD2B4641
:10B63400324621466846FEF749FF04B070BD2DE945
:10B64400FF410B9D884616461C46074610B10AB1B9
:10B6540003B115B97846FCF71DF86B4642463946E6
:10B664003046FEF733FF2B469DF8282021466846D6
:10B67400FEF72CFF04B0BDE8F0810000F0B50F46E2
:10B684008FB015461E46044608B101B113B9784679
:10B69400FCF700F81DB97846FBF7FCFF01E0102D1C
:10B6A400F9D8274B1868009005AA04216846FFF7CB
:10B6B400B0FF01AB2146102205A8FEF707FF2A467A
:10B6C400394605A812F0CBFC0EAB2B44012203F83B
:10B6D400242C05ABAA18194692B201A8FEF7F6FE6F
:10B6E4009DF82330344603F07F0304F8013B2A46D7
:10B6F400394609A812F0B3FC05F110070EAB1F443C
:10B7040011350223ADB207F8243C2A46234605A985
:10B7140001A8FEF7DBFE1136234605AC186859680C
:10B72400224603C20833B3421446F7D1032207F872
:10B73400242C05A92A4601A8FEF7C8FE0FB0F0BDC7
:10B7440094ED030070B50D4688B0064600B111B9FA
:10B754007846FBF79FFF114C04212068019004AA4E
:10B764000DEB0100FFF755FF04AB314618461022DC
:10B77400FEF7ACFE234602A953F8040F02901B798E
:10B784008DF80C3004AB18460522FEF79FFE06AB7D
:10B7940003CB2860696008B070BD00BF98ED03005A
:10B7A40070B50D4686B0064600B111B97846FBF770
:10B7B40071FF0F4C54F8040B009002AA6846042150
:10B7C400FFF727FF02AB314618461022FEF77EFE34
:10B7D4002068019002AB042218460DEB0201FEF72B
:10B7E40075FE9DF8173003F03F032B7006B070BD53
:10B7F400A1ED030030B50268037CD17A87B000293B
:10B804008DF80430836814BF0821042109330B44E4
:10B81400CDE90232436804930446C368059369463C
:10B8240001A801F0A9FED0B1237C012B0ED025681C
:10B83400FEF782F9286120680C30FEF715F90546F9
:10B8440020B101F013FF284607B030BD21680098ED
:10B8540000F055FB009B093363610025F3E70425E1
:10B86400F1E7000008B500B14068054B1860FDF72A
:10B87400EBFFFDF795FFBDE8084002F01FBB00BFDA
:10B884009C3C002008B5FEF701F8BDE8084002F032
:10B8940053BB10B5044610B97846FBF7FBFE23688A
:10B8A40013B97846FBF7F6FE23685B6913B978464B
:10B8B400FBF7F0FE237C012B02D97846FBF7EAFE66
:10B8C400E36813B97846FBF7E5FE2046BDE810406F
:10B8D400FFF790BFF0B50446C7B010B97846FBF740
:10B8E400D9FE636913B97846FBF7D4FE236813B90C
:10B8F4007846FBF7CFFE23685B6913B97846FBF7FC
:10B90400C9FE606900F058FB1E4B1B689B07054687
:10B914002ED51D4B1B68042B2ADD1C4B1E6805AB62
:10B92400411E00F11C07184611F8012F4FEA121CA2
:10B9340002F00F0216F80CC083F800C0B25C5A7013
:10B944008F4203F10203EFD1002380F83A3003F170
:10B95400804303F588330E4AD3F8043501920D4A27
:10B96400029000920C494FF49472052000F040FDBF
:10B9740000232A46A168206800F082FA01F050FEF4
:10B9840047B0F0BDC82E0020C42E0020CC2E0020CD
:10B994005EEE0300CFE8030054EE03002DE9F04708
:10B9A4008946D4B090460546002800F01D8100F079
:10B9B40007FB0DF12C0A8D4F421B2946504612F00D
:10B9C4004EFB3B68980727D5894B1B68042B23DD66
:10B9D4004C46884B802C28BF80241E6813AB294614
:10B9E40005EB040C18468C4503F1020340F0BC80BF
:10B9F400002300F8143003F1804303F588337E4AB2
:10BA0400D3F8043501927D4A029000927C4940F2B9
:10BA14004D12052000F0ECFC002305AC00932A46EF
:10BA240053464946204600F0E1F90646002840F016
:10BA3400BE802378002B00F0BA80E268B2F1807FE8
:10BA440080F0B580E27A12B1022B00F0B08094F954
:10BA54000A30002BC0F2AB803B6813F0020F13AD29
:10BA640023D0634B1B68042B1FDD4846614B8028A1
:10BA7400196828BF80202B46864203F1020340F058
:10BA84008180002305F8163003F1804303F58833E1
:10BA94005C4AD3F804350192584A009202954FF457
:10BAA400AB725749052000F0A3FC636913B97846CB
:10BAB400FBF7F0FD4146204604F0D8F949462046FC
:10BAC40000F072FA5FFA80F94346224649460DF1C6
