:020000022000DC
:1060000000F003206D630200556302005763020035
:10601000596302005B6302005D6302000000000040
:106020000000000000000000000000005F630200AC
:106030006163020000000000636302006563020008
:106040006763020067630200676302006763020020
:1060500067630200676302000D700200676302005D
:106060006763020067630200ED500300676302008C
:1060700067630200676302006763020067630200F0
:1060800067630200E5CD030039B4020067630200D4
:10609000B5CE0300676302008D7B030067630200D7
:1060A00067630200676302006763020067630200C0
:1060B0006763020067630200000000000000000048
:1060C00067630200676302006763020067630200A0
:1060D0006763020067630200676302006763020090
:1060E000676302006763020067630200000000004C
:1060F0000000000067630200000000006763020008
:10610000000000000000000000000000000000008F
:10611000000000000000000000000000000000007F
:10612000000000000000000000000000000000006F
:10613000000000000000000000000000000000005F
:10614000000000000000000000000000000000004F
:10615000000000000000000000000000000000003F
:10616000000000000000000000000000000000002F
:10617000000000000000000000000000000000001F
:10618000000000000000000000000000000000000F
:1061900000000000000000000000000000000000FF
:1061A00000000000000000000000000000000000EF
:1061B00000000000000000000000000000000000DF
:1061C00000000000000000000000000000000000CF
:1061D00000000000000000000000000000000000BF
:1061E00000000000000000000000000000000000AF
:1061F000000000000000000000000000000000009F
:10620000344935480A1A02D0072291438D46334952
:1062100033480A1A06D00722914381F309880222E3
:1062200082F314882F483049304A00F042F8304851
:106230003049314A00F03DF830483149314A00F0E8
:1062400038F831483149324A00F033F831483249A0
:10625000324A00F02EF832483249334A00F029F829
:1062600032483349334A00F024F833483349002296
:1062700000F02AF832483349002200F025F832486D
:106280003249091A082902DB0022026041601F48D6
:106290001F49884205D00268043003B4904703BC0C
:1062A000F7E700208646EC4600200021284A904768
:1062B000FEE7884207D0521A05D0037801300B70F0
:1062C0000131013AF9D17047884202D002700130A1
:1062D000FAE7704700F0032000E8032000F00320F5
:1062E00000F00320D4130400A02D00205C2F002018
:1062F000A4630200A46302009AF00300D413040014
:10630000A02D0020A02D0020E8F10300E8F10300FB
:10631000E8F10300E8F10300E8F10300E8F103000D
:10632000E8F10300E8F10300D41304009015040021
:106330005C2F00205C2F00205C2F0020ED600020EF
:10634000F0600020F0600020F0600020F064002089
:1063500015670200FEE7FEE7FEE7FEE7FEE7FEE761
:10636000FEE7FEE7FEE7FEE7704700BF094880470B
:1063700009484FF007018843854608488047084888
:10638000016841F470010160BFF34F8FBFF36F8F5D
:10639000FFF736BF6963020000F00320297E030087
:0463A00088ED00E0A4
:1063A40041DF704710B50D200C4600F075FD2070DC
:1063B40010BD10B50E200C4600F06EFD207010BD0F
:1063C4000D4B1B685B0413B50C460ED50B4B1B68B9
:1063D400032B0ADD0A4B0B4AD3F8043501910092D2
:1063E40009496B22042006F015F821460D2002B05D
:1063F400BDE8104000F05CBDBC2E0020B82E00208B
:106404000010014080F2030079F203000D4B1B6879
:106414005B0413B50C460ED50B4B1B68032B0ADD2E
:106424000A4B0B4AD3F804350191009209497D22A5
:10643400042005F0EFFF21460E2002B0BDE8104015
:1064440000F036BDBC2E0020B82E00200010014004
:1064540080F2030079F203000E4B1B685B0407B55E
:106464000DD50D4B1B68032B09DD0C4B0C4AD3F8DF
:1064740004350C4900920420982205F0CBFF032236
:10648400C8214FF4F03000F029FD03B05DF804EBAF
:1064940008F0C8BEBC2E0020B82E00200010014019
:1064A40063F3030079F2030037B52B4C23685904D6
:1064B40005460ED5294B1B68032B0ADD284B294AB8
:1064C400D3F804352849019000920420A82205F04D
:1064D400A1FF1DB1032D21D003B030BD23685A04A0
:1064E4000DD51E4B1B68032B09DD1D4B1F4AD3F82A
:1064F40004351D4900920420B02205F08BFF0D20C5
:1065040000F0CAFC80F00101C9B20D2000F0D0FCFB
:10651400174803B0BDE8304000F0ECBA08F025FE9F
:1065240040B109F0A9FF08F015FE03B0BDE8304002
:10653400FFF792BF23685B04CED5084B1B68032B7F
:10654400CADD074B0B4AD3F80435074900920420EF
:10655400C42205F05FFFBFE7BC2E0020B82E002048
:106564000010014098F2030079F20300ABF203003B
:10657400A02D0020B9F203003038042801D8FFF719
:1065840093BF704703781C2B01D1FFF765BF704799
:1065940013B5274C236859040DD5264B1B68032BD0
:1065A40009DD254B254AD3F80435254900920420FA
:1065B400FA2205F02FFF0021224800F0BDFA18B19D
:1065C400214A8D2111F017FD23685A0410D5194B67
:1065D4001B68032B0CDD1B4A174B1288D3F80435B8
:1065E40001921A4A009216498E22042005F012FFE5
:1065F4000121174800F0A0FA18B1134A902111F0B4
:10660400FAFC23685B0410D50A4B1B68032B0CDDD2
:106614000F4A094B1288D3F8043501920B4A0092B1
:1066240007499122042005F0F5FE02B010BD00BF19
:10663400BC2E0020B82E00200010014027F30300D8
:1066440079F20300A02D002000F2030047F30300B9
:10665400F02D002010B5044600214FF4F03004EB77
:10666400840400F031FC620032214FF4C030BDE8F4
:10667400104000F033BC00F063BC00001FB51E4C9A
:10668400226852040DD51D4B1B68032B09DD1C4BDE
:106694001C4AD3F804351C4900920420E62205F074
:1066A400B9FE00F047FE00F067FE03A80CF054FFAB
:1066B40023685B0410D5114B1B68032B0CDD104BB6
:1066C400BDF80C20D3F804350192104A00920E490B
:1066D400F122042005F09EFE00F032FC00214FF46C
:1066E400F03000F0F1FB0422C8214FF4F03000F048
:1066F400F5FB04B010BD00BFBC2E0020B82E002056
:10670400001001407CF3030079F2030096F30300C8
:1067140000B5404A8DB005214FF4103005F05EFEFF
:106724003D4B1B685B040ED53C4B1B68032B0ADDF9
:106734003B4B3C4AD3F804353B49009204204FF4C8
:10674400877205F067FE16F005FD20B1374A4FF455
:10675400887111F050FC00F003FC354800F02CFC6B
:1067640020B1324A4FF48A7111F045FC00F0CAFDA1
:1067740000F0E0FD00F000FE0021202203A818F044
:1067840003FC01238DF80C3007238DF80F3006230A
:106794008DF81430274B07932749284B0B9303A8F4
:1067A40008F0F0FC20B1214A4FF4847111F023FC6D
:1067B4006421234800F010FB1F4B1B7883B9214D43
:1067C4000FCD03AC0FC495E8030084E8030003A8CD
:1067D40000F0AAFA20B1154A40F2311111F00BFC75
:1067E40000F0CEFE00F042FC08F00CFD20B10F4A90
:1067F4004FF49B7111F0FFFB00214FF4F03000F0D7
:1068040063FB0222C8214FF4F03000F067FBFFF76E
:10681400C7FDFCE7B5C30200BC2E0020B82E002043
:1068240000100140F8F2030079F2030000F20300C3
:10683400AD640200896502005C2F002095650200AA
:106844007D650200E8F10300036BF7B504461868A0
:1068540016F032FD616C49B34FF400404FF4FA7600
:106864000027E0FB01674FF47A7200233046394673
:1068740018F01DFA236B01462246186816F0D6FC60
:1068840005468DB11C4B1B685B040DD51B4B1B6867
:10689400002B09DD1A4B1B4AD3F804351A49009220
:1068A4000120682205F0B6FD03B0F0BD216C00297B
:1068B400FAD04FF400404FF4FA760027E0FB01676A
:1068C4004FF47A7200233046394618F0F0F9236BFE
:1068D4000146B1F1807F1868224608D36FF07F41EA
:1068E40016F0A4FC054616F0F7FCA064C9E70429D9
:1068F40098BF0521F4E700BFBC2E0020B82E00206D
:10690400001001406EF4030062F403001C4B1B688A
:106914005B0437B5044615460DD51A4B1B68032B8B
:1069240009DD194B194AD3F804351949009204209A
:10693400AA2205F06FFDA36B04F13C0120469847A1
:1069440094F83C302B7094F83D306B70236C8BB111
:10695400626C7AB916F0C0FCA16C16F0C3FC4FF45B
:106964007A735843236CC20B9A4206D8B0F5004F91
:1069740003D39B1A6B6003B030BD0023FAE700BF5A
:10698400BC2E0020B82E002000100140D8F30300D4
:1069940062F4030010B5436C88B00446D3B9026CAA
:1069A40090F83D3002B1ABB184F83C3006A92046E2
:1069B4008DF818308DF81930079216F037F994F8DD
:1069C4004C303BB9636B94F83C1020469847012344
:1069D40084F84C300E4B1B685B0417D50D4B1B68B9
:1069E400042B13DD0C4B226CD3F804350492626C37
:1069F400039294F83D20029294F83C200192074AB5
:106A0400009207498522052005F004FD08B010BD59
:106A1400BC2E0020B82E0020001001408CF403008E
:106A240062F40300F7B51D461A4B089E1B685B040D
:106A3400044617460FD5184B1B68032B0BDD174B69
:106A44001278D3F804350192154A00921549CC22E4
:106A5400042005F0DFFC002384F84C303B7884F8F4
:106A64003D3095B9C4E910552046FFF793FF204601
:106A7400FFF7EAFE3EB194F83C30337094F83D30B1
:106A84007370236C736003B0F0BD6B6863642B6830
:106A94002364E9E7BC2E0020B82E0020001001403A
:106AA400E3F3030062F40300F8B5466C044626B130
:106AB40000234364FFF76EFF14E0056C95B14FF4B7
:106AC40000474FF4FA7000214FF47A720023E7FB79
:106AD400050118F0ECF8B0F1807F08D36FF4FF7370
:106AE4001D4425642046BDE8F840FFF7ADBE26648A
:106AF4002046DFE713B5044600F13C01836B984759
:106B040094F83C3084F83D300023C4E91033236BFF
:106B1400186816F0D1FB94F83C308DF8003094F8E6
:106B24003D308DF801306946236C0193204616F000
:106B34007DF802B010BD000010B5044608B90E205F
:106B440010BD094BC362436B002BF8D0836B002B41
:106B5400F5D016F043F80028F2D10146034A206B21
:106B6400BDE8104016F050BBF4F30300AD6A020018
:106B74001FB5254C217819B1012803D003283CD036
:106B840004B010BD002302A9029310F0C1FE08B1A5
:106B940011F024FA02A810F00DFF08B111F01EFA4A
:106BA400012303A90DF1060003930DF0EDF808B1DC
:106BB40011F014FABDF806000CF0E2FD0DF1050128
:106BC4000CF0FCFE08B111F009FA09F0EBF89DF89D
:106BD4000510002009F084FC10B1784600F09AFCFE
:106BE40003F0EEFA08B111F0F9F900232370074B12
:106BF4001B68002BC4D09847C2E710F043FF00285D
:106C0400BED011F0EBF9BBE7A22F0020A42F002087
:106C140008B503781C2B0CD1064B1B784BB110F034
:106C24006FFF08B111F0DAF90348BDE8084003F03A
:106C340025BB08BDA22F0020402E002010B5074917
:106C4400074811F075FD024638B906490648096936
:106C54000323BDE8104011F084BD10BDBC2F0020FB
:106C640028330020A42F0020F43100200378023BB5
:106C740010B5082B4AD8DFE803F01E05124949383D
:106C840049493F00224B5B68002B3FD0007A002823
:106C94003CD0204A0121BDE81040117018471C4B1C
:106CA4009B68002B32D01B4A117879B30021BDE8D0
:106CB400104011701847184B1A784AB9144BDB6806
:106CC40013B114490A709847BDE81040FFF7B6BFE6
:106CD400124B134801221A7003F0CEFA03F0B4FAEF
:106CE400A0B1BDE8104011F079B9094B0D485969BC
:106CF400102211F07BFDF3E7D0E9021008F0CCF983
:106D040008B111F06BF9044B01221A7010BD00BFD9
:106D1400A42F0020A02F0020A12F0020A22F0020AC
:106D2400402E0020F431002070B51C4A1C4E5168DE
:106D3400044686B0106803AB03C31189927A1980A4
:106D44009A700FCC35460FC594E8030085E803001C
:106D5400736903B3134B0093134A1449144803ABE8
:106D640011F0B2FCA8B9134812F008FD014610480E
:106D740011F0CAFC68B9104813F022F948B90E485A
:106D840013F050F901460A4811F0BEFC08B9FFF7A8
:106D940055FF06B070BD0720FBE700BFCCF403002D
:106DA400A42F0020716C0200BC2F00202833002087
:106DB400F4310020DC2F0020A431002010B5054C54
:106DC400226832B10FF0F6F9002802DB23689847F5
:106DD400F8E710BD68330020154B164A10B50C4671
:106DE40018600121144816F00FFA18B1134A4A2109
:106DF40011F001F9610C0023E00341F26F728B4240
:106E040008BF824210D24FF47A72002317F04FFF6A
:106E1400014600220A4816F009FA38B1074A4B2104
:106E2400BDE8104011F0E7B80521F2E710BD00BF3E
:106E340068330020C16D0200D8F40300DCF40300C1
:106E44006C33002070B5104C206808B911F0C6F8F6
:106E54004FF0A0450D4ED5F8043532685340C5F8BF
:106E640004352368013B236063B9094816F024FA0A
:106E74003268D5F8043523EA0203064A126813433C
:106E8400C5F8043570BD00BF8C330020903300205A
:106E940094330020BC3300204FF0A043D3F80425E2
:106EA400012303FA00F010420CBF1846002070477B
:106EB400012303FA00F04FF0A04311B1C3F80C050D
:106EC4007047C3F8080570474FF0A04311B1C3F8E9
:106ED4000C057047C3F8080570470000F8B52AB3DD
:106EE400132923D9124B134D5200013A4FF0A044F9
:106EF40028601A60D4F804350F4A03404FF4FA7638
:106F04004FF400400027E0FB0167136030464FF464
:106F14007A720023394617F0CAFE00220146074858
:106F240016F084F910B92B68C4F80C35F8BD00BF0D
:106F34008C33002090330020BC3300209433002095
:106F440008B5054816F0B8F9044B1A684FF0A04389
:106F5400C3F8082508BD00BF9433002090330020F7
:106F640008B54FF0A04303224FF40051C3F834276F
:106F7400C3F808154FF48041C3F83827C3F808153F
:106F84004FF40041C3F83C27C3F80815C3F8402761
:106F94004FF48032C3F808250121054A054816F04C
:106FA40033F918B1BDE8084011F018B808BD00BFA6
:106FB400496E020050F50300D8B10F4B0F4A186018
:106FC4004FF0A0430020C3F82C27C3F83027C3F8A0
:106FD4006027C3F864270A4B4FF00042C3F8042328
:106FE400C3F87C01074BC02283F8062340221A60B1
:106FF40070470E20704700BFB43300200C0003001C
:107004000060004000E100E0F8B5134B134D144E4E
:10701400144F0024C3F87C414FF0A04315F8011B22
:10702400D3F8102501238B40934310D03368D7F84D
:107034000425991A48BFD11A43F23333994206D929
:10704400D7F804353360084B20461B689847013451
:10705400042CE1D1F8BD00BF0060004054F50300EA
:10706400B833002000100140B4330020F0B50446CA
:10707400CFB038B12B4D2B685A0403D52A4E336850
:10708400032B01DC4FB0F0BD284B1F680DAB411E34
:1070940000F10F0C184611F8012F4FEA121E02F0EE
:1070A4000F0217F80EE083F800E0BA5C5A708C45C2
:1070B40003F10203EFD100231D4F80F820301D4A55
:1070C400D7F8043501921C4A029000921B494122D0
:1070D400042005F09FF92B685B04D3D53368032B98
:1070E400D0DDE27BD7F804350B92A27B0A92627B57
:1070F4000992227B0892E27A0792A27A0692627A35
:107104000592227A0492E2880392A288029222686B
:1071140001920B4A009209494622042005F07AF9AB
:10712400B0E700BFBC2E0020B82E0020C02E0020E7
:1071340000100140CFF50300E1F50300BEF50300A4
:10714400E9F5030072DF704773DF704774DF70473F
:107154002DE9F04388462F492F4C0B782F4D91464B
:107164002F4A0746C3EB4310002602440133A3B061
:1071740003F00103C4F80660A2601F2205440B70EB
:10718400A280A28131463C2204A8E681256017F042
:10719400FBFE062301AA8DF813300E9201233C2234
:1071A400314613A88DF80230ADF820308DF83C300C
:1071B400ADF80070CDF824D0ADF80470ADF80890A7
:1071C400CDF80C8017F0E0FE0223221D294604A806
:1071D4008DF84C3010F06CF908B110F0FFFE114A34
:1071E400A16813A810F064F908B110F0F7FE0E4A74
:1071F40009490E48FFF7A6FF082804D100220649D2
:107204000A48FFF79FFF08B110F0E8FE23B0BDE87D
:10721400F08300BFC033002000340020C1330020BD
:10722400103400200C340020502E00204C2E00205E
:10723400B0F5202F0AD20A23B0FBF3F30138082853
:1072440098BF0123034A9381916070474FF6FF73FF
:10725400F8E700BF502E002008B5064B012118782E
:10726400FFF772FF08B110F0B9FE0020BDE8084036
:1072740003F010BE4C2E002008B5054B1878FFF71C
:1072840065FF18B1BDE8084010F0A8BE08BD00BFF6
:107294004C2E002076DF70477ADF70477CDF704722
:1072A40010F09CBE02F0ECBF037807B54BB93B214C
:1072B4004088FFF7EFFFC0B103B05DF804EB10F0B6
:1072C4008DBE012B11D10A4B1B685B040DD5094BF4
:1072D4001B68032B09DD084B084AD3F80435084919
:1072E40000920420682205F095F803B05DF804FBD1
:1072F400BC2E0020B82E002000100140B9F6030077
:10730400A0F6030007B510F0BDFB08B110F066FE4F
:10731400002301A90120019310F0FAFA08B110F03A
:107324005DFE01A810F046FB08B110F057FE03B053
:107334005DF804FB1FB5112310220D498DF80430AC
:1073440001A8FFF7ABFF08B110F048FE0023ADF829
:107354000C30084B029302A84FF4C873ADF80E30FA
:10736400FFF79AFF08B110F039FE05B05DF804FB91
:1073740029F603007800C80000B58BB00023114A39
:10738400ADF80830CDE90633019201AB4FF4C87271
:10739400ADF80A20039340F6CD424FF48033CDE993
:1073A400042303238DF81830074B089303A8074BD5
:1073B400099310F0E9FC08B110F010FE0BB05DF871
:1073C40004FB00BF7800C800AD720200A572020081
:1073D4000620704730B5454B41F201051B68A842B1
:1073E40087B0044603F4804354D013D801282ED028
:1073F400002B3CD03E4B1B68002B38DD3D4B3E4AF6
:10740400D3F80435019100923C497B22012005F018
:1074140001F82CE044F2010084424CD044F2020012
:107424008442E5D11BB3324B1B68002B1FDD314B6B
:107434001088D3F8043503905268CDE90112304A1C
:1074440000922E496C22012004F0E4FF0FE073B196
:10745400274B1B68002B0ADD264BD3F80435CDE9F6
:107464000112284A25490092602204F0D3FF4FF00C
:10747400A0434FF4F032C3F81825C3F80C25EFF3FA
:10748400108372B64DF6AD6C1F4A1378002B2AD1C7
:1074940007B030BD002BEAD0154B1B68002BE6DD8E
:1074A400144BD3F80435CDE90112184A009213495C
:1074B40063220120D9E7002BD9D00D4B1B68002B88
:1074C400D5DD0C4B1068D3F8043504905068CDE931
:1074D4000210926801920E4A009208497722012014
:1074E40004F098FFC3E730BFCFE700BFBC2E0020F5
:1074F400B82E002000100140D8F703004BF703001A
:1075040098F703005CF70300682E002076F7030069
:10751400B7F7030007B50023ADF800300146054B6B
:1075240001936A4644F20200FFF754FF03B05DF88A
:1075340004FB00BFE2F30300044B00F1100250F817
:10754400041B43F8041B9042F9D170474E340020C9
:10755400094A0A4B03CA596018603C3203CADA79F3
:10756400D960042161F307129860DA711A7A022152
:1075740061F387121A727047600000104E340020C5
:10758400004870474E340020002206491346013259
:10759400202A4B804B6001F8083BF8D1024A136063
:1075A400704700BF60340020603500200C4BF0B5FC
:1075B4001B680C4C064620227BB1013B14F83300B7
:1075C40050B104EBC3056F88B74202D16D688D4298
:1075D40002D0013AF0D11046F0BD1F23EEE700BF00
:1075E4006035002060340020084A30B51368084C28
:1075F40004EBC3056960012104F833100B44202B0C
:1076040008BF00236880136030BD00BF60350020D0
:1076140060340020C0F30C038B42084438BFA0F54B
:107624000050C01A704700000D4B0E4AF0B51E689A
:1076340000218E4212D0156800230AE052F8044C4F
:1076440004EBC30714F83340844201D17868F0BDD9
:1076540001339D42F2D101310832EAE70020F6E716
:10766400643500206C35002000B58DB040B99A1CFB
:1076740006D0012201A88DF80420029301F0BEF97E
:10768400034B186803F0FEFD0DB05DF804FB00BF6A
:1076940078350020037810B5044613B97846FFF70F
:1076A40039FFE188A069FFF7B5FFE1690A060B0A13
:1076B400101843F1000110BD037810B5044613B946
:1076C4007846FFF727FF607A431C01209840013871
:1076D40010BD0000F8B5037806460D4613B9784688
:1076E400FFF718FF0F4AB18A002314461801875A7E
:1076F4008F4213D1002313520B4A1368581C03F012
:1077040007031B011060E15205B175781C44304633
:10771400A570FFF7BFFFC4E90201F8BD0133082BD0
:10772400E4D1E9E780350020003600202DE9F0415E
:107734000E468EB015461C46074610B97846FFF72C
:10774400E9FE16B97846FFF7E5FE636AA2780233CC
:107754000593E378A2F10800002B14BF0121022154
:107764000DF1040842424241434604F10C0003F087
:10777400D2FEA3788DF83430237BADF82050022B51
:1077840016FA85F5CDE906870B960C950FD123697A
:1077940013B97846FFF7BEFE23690993102305A8A1
:1077A400ADF8283003F0B3FE0EB0BDE8F08100233D
:1077B400F5E70000B2F5C07F2DE9F84F834689460E
:1077C400904602D97846FFF7A5FE284B00269A4634
:1077D40093F848705FB94046702407F04AFC04FBF4
:1077E40006A4E06648B900242046BDE8F88F0136B7
:1077F400042E03F17003EBD1F5E7DC46BCE80F007F
:1078040025460FC5BCE80F000FC59CE80F00B9F171
:10781400010F85E80F00E764A4F84A801BD1144BDC
:10782400A4F852701B7D84F8513084F85070DBF852
:10783400283063656FF00103A3620E4BA4F85870FF
:10784400A3632464012002F0C7F8702303FB06A697
:1078540086F84890C8E76FF00103A362064BA3655E
:1078640084F868702466054BEAE700BF1C360020E4
:1078740004360020E97E0200E5830200E17E020076
:1078840010B50446C06E07F0F6FB04F1300002F0B8
:1078940073FF94F84830022B03D104F1500002F036
:1078A4006BFF20467022002117F06EFB002084F845
:1078B4004800BDE8104002F08FB810B590F8483089
:1078C400012B8CB0044602D07846FFF723FE012337
:1078D4008DF8043001A8636D029301F08FF82046FF
:1078E400FFF7CEFF0CB010BD10B50446808A02F03D
:1078F40017FB01281CD1237BD3B194F91620002A4D
:1079040018DBE27D5AB1022B12D094F90330002B1C
:1079140010DBA378002B0CBF0020072010BDE278F9
:107924000AB9012B06D1237833B9A378042BF2E7E3
:107934001020F3E70720F1E70020EFE71FB500224E
:107944000B468DF80F20E0B10230086018460DF1A7
:107954000F0103F0DEFD9DF80F3093B10B4B1B6854
:107964005B070ED50A4B1B68032B0ADD094B0A4A39
:10797400D3F8043509490092042040F2374204F058
:1079840049FD9DF80F0005B05DF804FBBC2E0020F6
:10799400B82E002000100140A1F8030095F8030060
:1079A40070B5D0E906128CB00446808A05F09CFCC0
:1079B4000546A0B12C22002101A8A68AE46917F08B
:1079C400E3FA0F238DF804304FF0000364F300034F
:1079D40001A8ADF808608DF80A3001F00FF82846C8
:1079E4000CB070BD2DE9F04F99461378D2F8188089
:1079F400F3B007468A46144623B1D1884046FFF7C0
:107A040009FE9061E378A278002BA2F1080003AD8F
:107A140014BF0121022104F10C0642422B464241CB
:107A2400304603F078FDA278C4F81880CDE90857F1
:107A34001FFA8AF5AB1A9BB21F44ADF82830E378DD
:107A44000E974FF0000812AF0D978DF83C20ADF85B
:107A54003080002B5BD04FF0100B04F1240A237B01
:107A6400C4F82480022B02BF2369ADF830B00B9315
:107A7400206A217952460CF0AFFC606AE0B9237B9E
:107A8400022B05D13146E0890CF068FD0028E6D1CF
:107A94002E4B1B685B0737D52D4B1B68052B33DD3D
:107AA4002C4B2D4AD3F804352C490092062040F281
:107AB4000E7204F0AFFC27E007A9FFF73FFF002890
:107AC400D6D02046FFF76CFFF0B9A2780B908DF862
:107AD4001C0096E80300A38AADF82A30AD1A0CAB5B
:107AE40001228DF8282083E80300A37D8DF840301F
:107AF400236A0E9307A8636A0897ADF824500F937E
:107B0400CDF8449000F07AFF73B0BDE8F08F227B8B
:107B1400012ABDD1A046E089B4F814A048F8243F56
:107B240041460CF09BFC07A9606AFFF707FF002899
:107B3400C7D16062414650460CF090FC07A9606AC8
:107B4400FFF7FCFE0028A3D0BBE700BFBC2E00203B
:107B5400B82E00200010014047F9030095F80300F7
:107B6400C37D0A7830B56BB3C37822F07F0203F08B
:107B74007F031A430A700B78027803F07F0343EA09
:107B8400C2130B700378E3B18378083B5A425A411D
:107B94004B7803F07F0343EAC2134B70C58823F08C
:107BA4007F03C5F3861423434B70047AC4F3C102E4
:107BB40042EA85028A70437A03F01F0343EA4413BE
:107BC400CB7030BDC47822F0400343EA8413DBB2A7
:107BD4000B70027923F03F0302F03F0213430B7052
:107BE400C9E72DE9F04F044689B00F4609B10023D7
:107BF4000B6004F10C0394F8505001934FF001080A
:107C04004FF0000B627AAA4203D2002009B0BDE80B
:107C1400F08FE16C08FA05F30B4259D1E37D25722C
:107C2400002B0CBF0C260826954206FB05FA237888
:107C340008BFB4F84A608DF818B008BFA6EB0A066E
:107C4400002B14BF4FF004094FF0010906EB0903A0
:107C54000493019B0293A36A039302A8E36A059326
:107C640003F0F5FD0028D1D1079B994445B994F858
:107C740053302BB9A36984F85380C3F30C03E38016
:107C8400E37D8BB994F8523073B915B17846FFF798
:107C940041FCB4F84A10A2788A1AE16E23460846D9
:107CA400FFF744FD84F8528007992046FFF758FFF8
:107CB400E16E32465144484617F03DF902A803F0FC
:107CC400E7FD17B13B6801333B606B1C84F850300F
:107CD4000135EDB296E7000038B590F84830012B35
:107CE400044602D07846FFF715FC02F085FD237B9D
:107CF400074A012B05BFD2E90315A37DD16805FB13
:107D04000311014404F13000BDE8384002F04BBDDA
:107D140004360020F0B5C37D16468278002B324429
:107D240014BF4FF480734FF4C0739342C7B00F462F
:107D34006BD3394B002493F84810012907D19D8A4D
:107D4400818A8D4203D1DD89C1898D425FD001349E
:107D5400042C03F17003EED10121FFF72BFD05463E
:107D640000283BD032463946C06E17F0E4F80023B1
:107D740004A928460493FFF734FF30F004040646B0
:107D84003ED1049B13B12846FFF7A6FF234B1B6883
:107D940013F004033DD0224B1B68032B1EDDB5F802
:107DA4004A00204B802805AA1F6828BF8020002392
:107DB4001646834202F1020213D1002206F8132070
:107DC400194B1A4AD3F804350192194A00920296C3
:107DD40040F271521749042004F01CFB204647B0BE
:107DE400F0BDE96EC95C4FEA111C01F00F0117F8F0
:107DF4000CC002F802CC795C02F8011C0133D8E70C
:107E04002846FFF73DFD3446E8E70924E6E7082461
:107E1400E4E71C46E2E700BF1C360020BC2E00202D
:107E2400B82E0020C02E00200010014027F80300C7
:107E3400E1F5030095F8030070B50D4690B00446D3
:107E440010B97846FFF766FB94F84830022B06D148
:107E540063789A072ED400212046FFF73BFC2C229E
:107E6400002105A8666D17F08FF8102305A88DF87A
:107E7400143006968DF81C5000F0C0FD2046FFF724
:107E8400FFFC114B1B685B0712D5104B1B68032BBF
:107E94000EDD0F4B0F49D3F80435029594F84820B2
:107EA40001920D4A0092042040F22E2204F0B2FA0C
:107EB40010B070BD0022E188A08A16F0E7FB94F8A8
:107EC4004830022BCBD1C6E7BC2E0020B82E0020B0
:107ED4000010014095F8030004F80300084600214F
:107EE400FFF7AABF91F84830012B10B50C4602D019
:107EF4007846FFF70FFB94F851305BB1013B84F8EF
:107F04005130002384F85030084BBDE81040186805
:107F140003F0B8B9217B0129204603D1BDE8104004
:107F2400FFF78ABFBDE81040FFF7C7BC78350020D3
:107F34002DE9F04106468EB010460F461546984688
:107F4400FFF72EFD002853D1EC78002C40F08180FF
:107F5400062F4DD137787378BA0102F4FE5242EA03
:107F640093024C4B1C4693F84810012928D1B3F8CE
:107F740014C0E9898C4523D1D988914220D1B3F822
:107F840058C0A98ABCF1000F01D08C4518D117F054
:107F9400800FD6F802204FF070032CD003FB00436F
:107FA400A3F8581013BA702202FB0044E56C1D4379
:107FB400E564002B3AD103212046FFF73DFF17E08B
:107FC4000130042803F17003CDD1334B1B685B07E8
:107FD4000ED5324B1B68012B0ADD314B314AD3F8E5
:107FE400043531490092022040F2846204F012FA0E
:107FF4000EB0BDE8F08103FB0043DD898D42D1D092
:10800400254B1B685A07F3D5244B1B68012BEFDD66
:10801400234B264AD3F804350092CDE9015140F2AE
:108024008C622149022004F0F5F9E1E72046FFF7CC
:1080340043FB854203D12046FFF73FFCD8E70021EC
:1080440084F850102046FFF7CCFD2046FFF744FE8D
:10805400CEE72046FFF7E8FA03460028C8D005F12A
:108064000C012A6A0B9203C9AA8AADF8222009AA34
:1080740082E80300AA7D8DF830202A788DF820202C
:10808400EA6A8DF81440CDE906670D92414605A8C9
:108094009847ADE71C360020BC2E0020B82E0020E7
:1080A40000100140B4F8030095F80300E2F803005F
:1080B4002DE9F041837890461344C27D002A14BF11
:1080C4000B220F22934286B004460F462FD8024655
:1080D40012F80C1B0092002914BF042501252B441F
:1080E4000293836A0193C36A0393684600238DF85D
:1080F400103003F0ACFB064670B9059920460D44D8
:10810400FFF72EFDE37D5BB142463946284616F063
:1081140012FF684603F0BCFB304606B0BDE8F081B0
:108124002346424629463846FFF700FBF1E7092675
:10813400F2E7000010B54FF4E0720021134816F086
:1081440023FF002405F040F9114B12481C6021461E
:10815400802216F019FF104B1049114A11489C75E2
:10816400C3E9001210494CF25032C3E902211A61EA
:1081740040F604029A8203F067F80C4B18600C4B2B
:108184000C481C60BDE8104005F002BA1C36002003
:1081940000360020803500200436002080969800A8
:1081A400F04902003589020020A10700783500203B
:1081B400643500206D76020005F08EB830B50446B3
:1081C4008DB0002873D00369002B70D0C369002BD5
:1081D4006DD08569002D6AD05A788DF804201A78FC
:1081E4000993838A82F001020B2B8DF80320027B12
:1081F40009D90121022A8DF8001001D12D4A927D5E
:108204005AB904220AE0C17A0029F2D1012A0CBF2A
:10821400012200228DF8002042D1082213448DF857
:1082240002200B330C22B3FBF2F3013B8DF809302F
:1082340000238DF8083094E8030000238DF81730EC
:1082440003AB83E803002389ADF81430A37A8DF8D7
:108254001630236A0A932046DF2308950B930CF00B
:1082640025FB28B12378012B14BFFF2320230B9374
:10827400684616F0C9F918B10B9B43F020030B9321
:1082840068462569A48AFFF72FFB38B99DF80030AA
:108294002246294668463BB1FFF73CFD0DB030BD90
:1082A40004238DF80230C6E7FFF702FFF6E70E203D
:1082B400F4E700BF04360020F0B503468DB00F4646
:1082C400002843D04568002D40D08669002E3DD05B
:1082D400846802788DF803200B2C4FF00002099279
:1082E40094BF027B012202F0010100208DF80010EE
:1082F4008DF8020032B1E11DC90801398DF8091069
:108304008DF8080003F1100103C901228DF817202C
:1083140003AA82E80300DA89ADF814201A7F1B6AE5
:10832400089668468DF81620CDE90A73FFF7DCFA43
:1083340038B99DF800302246294668461BB1FFF73C
:10834400E9FC0DB0F0BDFFF7B3FEFAE70E20F8E745
:1083540030B5047B012C8DB04FF000033CD1C288B2
:10836400CDF8063095008DF801500D0E8DF80250B1
:108374000D0C49BAADF8041041788DF803508D1EE8
:1083840069426941C2F3861242EAC1128DF80A3089
:1083940008938DF80C308DF81830C3898DF80020BF
:1083A400ADF81A300622C36A05920B93828A837D44
:1083B400ADF81E20026A8DF81C40CDF810D0099249
:1083C4000BB1064B5B7D8DF828306FF0010103A8DB
:1083D400FFF772FF0DB030BD1846FBE704360020EE
:1083E40091F84830022B10B50C4602D07846FFF7BE
:1083F40091F8022384F8683094F84830022B06D1AF
:10840400E16C2046FFF7A4FF08B984F8680010BDAA
:108414002DE9F04F0D469FB090461F4604460028B4
:1084240000F0A981002A00F0A68121B9092630466E
:108434001FB0BDE8F08F134609AE02F1180C18689E
:108444005968324603C2083363451646F7D1237888
:10845400002059B2CA0F81428DF81820B4BF0422FB
:10846400012295428DF81900E0D39DF82F60EEB1FA
:1084740003F07F0381428DF81B308DF81A002EDA49
:108484006278A378920102F4FE5242EA9302ADF8B4
:108494001E20DB00E27803F0180343EA521302F0D3
:1084A4001F028DF820308DF8212018E0C3F38010CE
:1084B400002903F03F038DF81B008DF81C3008DA07
:1084C40094F90130002BB4BF082304238DF81A302B
:1084D400D6E704231A4495428DF81A30A6D3002314
:1084E4000F933B78032B02D97846FFF713F83A78B9
:1084F400A24B06A853F822301193FFF7F5F906466C
:10850400002894D1D8E90312B8F8080004F028FF31
:1085140000288CD106A816F077F828B19DF81930F8
:1085240043F002038DF81930002304A9B8F80200BF
:10853400CDE904330CF012F838B19DF8193043F04A
:1085440001038DF81930059B0A939DF81930002B0F
:108554003FF46DAF9DF81820002A00F0F080DFF89A
:1085640024B20023DA469AF84820022A3FD0013385
:10857400042B0AF1700AF6D19DF8183013B9784625
:10858400FEF7C8FF06A8FFF785F87D4ABDF82CE082
:108594004FF0000A9446138873453DD1D2E902890D
:1085A400494508BF404537D106AD0FCD12AC0FC4C5
:1085B4000FCD0FC495E80F000CEB0A1A84E80F00E6
:1085C4009AF802308DF84930002B3FF430AF12A8EE
:1085D400FFF772F8014612A8FFF7BAFE9AF80230C4
:1085E400D9077FF524AF06A8FFF7DAF91FE7BAF831
:1085F4001410BDF82C209142B9D106A80393FFF7BB
:1086040049F8804650468946FFF744F8894508BF33
:108614008045039BABD20AE70AF1010ABAF1080FBD
:1086240002F11002B7D100239BF84820022A1AD184
:10863400BBF81420724516D1524A4FF0700B06A8AD
:108644000BFB032BFFF726F8804658468946FFF7B5
:1086540021F8494508BF404580F0A08005215846CF
:10866400FFF7EAFB04E00133042B0BF1700BDBD1C1
:108674009DF82F209DF82130002A14BF4FF00808E0
:108684004FF00C0803FB088814BF4FF480734FF4B9
:10869400C073984517D93C4B1B685A077FF5C7AE82
:1086A4003A4B1B68002B7FF7C2AE394B394AD3F8DB
:1086B400043539490092CDF8048040F29232012009
:1086C40003F0A8FEB3E6BDF81E100C98FEF7A2FF57
:1086D4000D9A0146BDF82C0004F042FE00287FF4F8
:1086E400A6AE4246022106A8FFF764F88346002896
:1086F40054D1014606A8FFF72BFE2C22594612A896
:1087040016F042FC10238DF8483012A802238DF88D
:10871400503000F073F98AE6002B08BF4FF00C0AC2
:10872400D14500F0A580042158460392FFF784FB4D
:1087340000267CE63B465A46FFF754F9E3E09907E6
:1087440005D5012306AAE9B2204615F0C3FE9DF81B
:108754001930DA077FF56BAE9DF82F30601C691E67
:1087640023B13B4606AAFFF7E3FB60E63B4606AAB5
:10877400FFF738F95BE60E2659E600BFF4F703006D
:10878400803500201C360020BC2E0020B82E00208E
:108794000010014023F9030095F803005E4B1B68A9
:1087A4005B0711D55D4B1B68032B0DDD5C4B9DF8FE
:1087B4002020D3F8043501925A4A00925A494FF4C2
:1087C4007172042003F026FE9BF84830022B02D07D
:1087D4007846FEF79FFEDFF85481D8F8009002F047
:1087E4000BF809EB00010BF1300001F0DCFF9BF802
:1087F4000C30012B1AD19BF86830BBB99BF8483078
:10880400022B02D07846FEF785FED8E9013298F8AB
:10881400151002FB013801F0EFFF00EB08010BF12A
:10882400500001F0C0FF01238BF868309DF8200050
:10883400DBF84C300121814013EA01027FF4F7ADEB
:108844000B43CBF84C309DF82F309BF80910002BCC
:1088540014BF4FF008084FF00C088142A5F1040939
:1088640008FB00F87FF458AF08EB0903ABF84A3073
:10887400DBF818200C9B9A420BD20DF1240EBEE8B3
:108884000F000BF10C0CACE80F009EE803008CE821
:108894000300DBF86C004A46211D404416F04BFBF4
:1088A4009DF819309B0705D5012306AAE9B2204695
:1088B40015F010FE5846DBF84C40FEF7FDFE8442EE
:1088C4007FF4B5ADDBF84C105846FFF741FD9DF839
:1088D40019309C0706D50122BDF81E10BDF82C00E6
:1088E40015F0D4FE9BF80130D8070CD59BF817304F
:1088F400DBF86C00BBF84A10002B3FF41BAF3B467F
:108904005A46FFF715FB58460121FEF7E3FE584689
:10891400FEF7B6FF0CE700BFBC2E0020B82E0020E7
:108924000010014037F9030095F8030004360020D5
:10893400F7B5184C00262546374695F84830012BE4
:108944000BD101A928460197FFF74BF9042801D060
:10895400019B13B12846FFF7BFF90136042E05F138
:108964007005EAD1002594F84830022B0AD194F816
:108974006830022B06D1E16C2046FFF7E9FC08B908
:1089840084F868000135042D04F17004EBD1012052
:1089940003B0F0BD1C3600202DE9F8438846074695
:1089A40010B3144E3468012C1CD8002500F10409BE
:1089B40045450AD1104B43F8347003EBC40301342A
:1089C4005D6034600020BDE8F88359F835305BB150
:1089D40017F83500030609D450B1FEF725FE38B95F
:1089E4000135E5E70420EEE70E20ECE70B20EAE78B
:1089F4000F20E8E76435002068350020F8B5074605
:108A040010B97846FEF786FD0F4E346894B10F4DC9
:108A140001232B7023791BB954F8043C384698473A
:108A24002468002CF6D12B78022B03D13168064C34
:108A340009B92970F8BD0B790E6813B1204603F00B
:108A44006FFC3146F4E700BFE0370020DC3700203C
:108A540010B5044610B97846FEF75CFD0023237276
:108A6400211D0248BDE8104003F039BCE037002066
:108A740010B5044610B97846FEF74CFD074A137842
:108A8400013B012B04D8022313700123237210BD70
:108A9400211D0348BDE8104003F042BCDC37002030
:108AA400E03700200B888268D25A073222F0030292
:108AB400134402889BB2043A934288BF00230B807C
:108AC400704713B58368C91AADF806100DF1060195
:108AD400FFF7E8FFBDF806308068184402B010BD07
:108AE40070B5064615460C4611B97846FEF712FDD8
:108AF40016B97846FEF70EFDB4F1005F24D94FF0A5
:108B04008053D3F80C3103F50023B4EB832F1ED22A
:108B14006B1E2344B3F1005F26D94FF08052D2F884
:108B24000C2102F50022B3EB822F20D2042D02D8AF
:108B34007846FEF7EFFC35800023043D7380B38054
:108B4400B4602580A37070BDB4F5000F08D94FF050
:108B54008053D3F80C3103F50053B4EB832FD7D3F0
:108B64007846FEF7D7FCD3E7B3F5000F08D94FF0EA
:108B74008052D2F80C2102F50052B3EB822FD5D3E8
:108B84007846FEF7C7FCD1E738B5044610B97846F5
:108B9400FEF7C0FC6288A36813449B78012B02D1C2
:108BA4007846FEF7B7FCEFF3108572B6A268A18889
:108BB40011448B78032B0AD12046FFF782FFA36868
:108BC400C31A63800023837005B962B638BD0023DD
:108BD40093706380A380F7E7F8B50E461546044604
:108BE40010B97846FEF796FC16B97846FEF792FC63
:108BF4006288A36813449B78012B02D17846FEF760
:108C040089FC002D37D02388043B9BB29D4232D887
:108C1400EFF3108772B66188A388EA1D22F003027D
:108C2400994292B204D25B1A9A4210DD042016E0F3
:108C340018D92088401A904209D29A42F6D80328BB
:108C440081BFA3685B1804229A7000236380628842
:108C5400A1688B188D5201229A700020336007B9E5
:108C640062B6F8BDA26813449B78002BDED19370E2
:108C74006380A380EBE70920F3E7F8B50D461646B9
:108C8400044610B97846FEF745FC15B97846FEF758
:108C940041FCAB78012B02D07846FEF73BFC2B88D5
:108CA400B34202D27846FEF735FC16B97846FEF791
:108CB40031FCEFF3108772B60223AB70E1182E80FB
:108CC4002046FFF7EFFE6288A38893421FBFA36884
:108CD4009B1800229A7007B962B6F8BD70B50D46AC
:108CE400044610B97846FEF715FC15B97846FEF728
:108CF40011FCEFF3108672B6A288A36813449A7825
:108D0400042A06D1211D2046FFF7CCFEA288A368C1
:108D140013449A78022A05D0032A08D0052006B9FC
:108D240062B670BD03229A702B600020F7E7784684
:108D3400FEF7F0FBF9E738B5044610B97846FEF7BC
:108D4400E9FBEFF3108572B6A088A16801448B7823
:108D5400042B03D12046FFF7B4FE01468878831E16
:108D64005842584105B962B638BD38B5044610B901
:108D74007846FEF7CFFBEFF3108572B6A088A168A2
:108D840001448878C31E012B05D9831E58425841DB
:108D940005B962B638BD2046FFF793FE0146F0E7F9
:108DA400F8B50D46044610B97846FEF7B3FB15B97D
:108DB4007846FEF7AFFBEFF3108672B6AB78012B63
:108DC40019D0032B22D1A288A36813449D4202D058
:108DD4007846FEF79FFB0027AF70211D2046FFF762
:108DE40061FEA288A36813449B78042B00D1A7805A
:108DF40006B962B6F8BD6288A36813449D4202D0E6
:108E04007846FEF787FB0023AB70F1E77846FEF760
:108E140081FBEDE710B5EFF3108472B682888168A8
:108E240011448B78042B02D1FFF74BFE014688785E
:108E3400B0FA80F0400904B962B610BD03794279F2
:108E44009B1A03F57F2303F6FF7300EB033070478F
:108E540010B5054884681C22002116F095F82046B8
:108E6400BDE8104004F064B8E437002070B5194C34
:108E7400E36813B97846FEF74DFB237E13B17846B9
:108E8400FEF748FB6368092B02D97846FEF742FBDC
:108E9400114D0026636855F823309847022811D0F5
:108EA40003280DD0012810D163680133092B6360B6
:108EB40002D97846FEF72EFB237E002BEAD004E08D
:108EC4006660F9E7237E0BB1207070BDBDE8704089
:108ED400FFF7BEBFE437002070F90300038810B524
:108EE400044613B97846FEF715FB2088074B04EBBC
:108EF400800030EA030203D06288B2F5FE4F04D149
:108F04001C4004F580542078204410BD00F0FFFF7D
:108F140070B504460E4647F6FE65FFF7DFFFB04224
:108F240007D2844205D24388013B9BB2AB42F4D8BA
:108F340070BD0020FCE700000A78094B032A04BF37
:108F4400002119761978012903D11B7E3BB9FFF75B
:108F54008DBF022903D1032A01D1FFF779BF7047DE
:108F6400E437002010B50C4CE3681878002203F5B0
:108F74008051184404F0D0FA50B9E1680846FFF76C
:108F84005DFF814206D001F58051E160032010BDF0
:108F94000120FCE70220FAE7E43700201FB50A4B62
:108FA40002221B688DF800200193084A4FF4805375
:108FB40069460120029300F0F3FEB0FA80F0400904
:108FC40005B05DF804FB00BF043800200038002021
:108FD4001FB50123CDE902210190054A8DF8003027
:108FE4006946184600F0DCFE05B05DF804FB00BFDE
:108FF40000380020264BD86802794179013A914221
:109004002DE9F0471E4603D101205876BDE8F087CC
:1090140000F580531F491C781C440B6813F8045F47
:109024001D44FFF70BFF6388013B9BB247F6FE62CA
:10903400934200F58057884604D920463946FFF705
:1090440067FF0446DFF850A04FF001092CB9B4FAC9
:1090540084F4640974760120D8E7D8F80010628893
:10906400284601F5805104F057FA05460028EED051
:1090740004225146204686F81890FFF7A9FF28B924
:1090840020463946FFF744FF0446DFE70020BDE7EA
:10909400E43700200438002020FC030038B5104CCD
:1090A400E36818784FF6FF7203F58051184404F012
:1090B40033FA88B1E36819780B4498420CD0657E82
:1090C4000849094B0422002D08BF1946FFF780FF09
:1090D40020B90120207638BD0120FCE70020FAE702
:1090E400E437002028FC030024FC030070B50C4D79
:1090F4000C4EE96830680C7804302246FFF768FFAC
:1091040058B9336804F0FC0404341C44EB686C6103
:109114001A7813442B61012070BD0020FCE700BFC6
:10912400E43700200438002008B5054B05491868C9
:109134000422FFF74DFFB0FA80F0400908BD00BFDC
:1091440004380020F0370020074B10B51968074C8D
:1091540040F6FC720431E068FFF73AFF10B90120D1
:10916400207610BD0020FCE704380020E4370020FE
:1091740010B50C4CE1680846FFF760FE81420AD145
:10918400094B0A4918680422FFF722FF40B901235A
:109194002376022010BD01F58051E1600320F9E738
:1091A4000020F7E7E43700200438002008380020C6
:1091B4002DE9F74F324C236913B97846FEF7AAF923
:1091C400636913B97846FEF7A5F9DFF8B89047F656
:1091D400FE6A6369D4E9030603EA0908A8EB0308F5
:1091E400FFF72CFE7388013B9BB2534508F580586A
:1091F40000F5805B05D930465946FFF789FE0646DF
:1092040068B1354600275D4513D327BB012335B12B
:10921400698847F6FF72914201D0002BD9D0012012
:109224002AE028460192FFF759FE019A054617469F
:10923400E9E72A8807EB8202904509D986EA050303
:1092440013EA090F04D16B88013B9BB25345E8D95B
:109254000FB90123DCE73A4631466069FFF7B8FEEF
:1092640048B963691F44676115B97846FEF752F936
:1092740025610023CBE7002003B0BDE8F08F00BFD9
:10928400E437002000F0FFFF1FB50A4B0222DB6821
:109294008DF800200193084A4FF480536946012059
:1092A400029300F07DFDB0FA80F0400905B05DF84E
:1092B40004FB00BFE4370020003800204FF01023E7
:1092C40010B55A6901321ED05A69E2B15B69A3F53F
:1092D4008053A3F58053164A196813604B1E033359
:1092E40024D8C1F30B030BBB124A1348D1600121EC
:1092F400117012491383936001330A2B09D1784604
:10930400FEF708F90AE04FF08052516913694B43A4
:10931400DFE751F823408442EED15360012008492D
:1093240000F02EFDFFF7A2FD012010BD0020FCE798
:1093340004380020E43700208D92020070F9030005
:109344003D8F020010B5044610B97846FEF7E2F8E6
:10935400094B187860B1E068D9684379A0EB03330E
:10936400994206D3FFF76AFD81428CBF0020012099
:1093740010BD0020FCE700BFE4370020024B187842
:10938400003018BF01207047E437002038B50E4C78
:109394002378054613B17846FEF7BCF82B78032BE7
:1093A40002D07846FEF7B6F8EB68E36001200023AC
:1093B4000649A56063602070238300F0E1FCBDE8EA
:1093C4003840FFF753BD00BFE43700203D8F020053
:1093D400014B1868704700BF0438002010B50446DC
:1093E40010B97846FEF796F863681BB123680BB191
:1093F400A36813B97846FEF78DF8A3685A1E1A427B
:1094040002D07846FEF786F80023C4E9033310BD82
:1094140070B50E460446F0B18368F3B1EFF31085DE
:1094240072B6D0E90331994203D105B962B6052574
:109434000FE04EB18368013B0B40D0E90012304687
:1094440002FB031115F077FD23690133236135B95C
:1094540062B6284670BD0E25FBE70925F9E700250D
:10946400F7E70000024AD2F80034002BFBD0704723
:1094740000E0014038B5C0F30B05EDB9F1B1104C73
:109484000223C4F80435FFF7EDFF01F6FF7121F460
:109494007F6121F00F010144884206D10023C4F802
:1094A4000435FFF7DFFF284638BDC4F80805FFF789
:1094B400D9FF00F58050EFE71025F4E70925F2E71E
:1094C40000E0014040EA010370B5064698071ED14A
:1094D400FAB112F003001CD10F4B94080122C3F817
:1094E4000425FFF7BFFF0546A54206D10A4B00221B
:1094F400C3F80425FFF7B6FF70BD51F825305A1C98
:1095040003D046F82530FFF7ADFF0135ECE7102016
:10951400F2E70920F0E700BF00E001404388012B97
:1095240005D0022B01D104300860012070470430BB
:109534004860FAE708B508220221094803F04FFB06
:1095440020B90848BDE8084003F0CABC064A91683F
:10955400127B02724160BDE8084003F06FBB00BF9C
:10956400143800207C2E00206038002010B50446FA
:1095740010B97846FDF7CEFF2346BDE810401847E2
:1095840000B50A4B1A7B9B688DB0012A08BF03F112
:10959400FF3304930390022301A88DF808208DF86B
:1095A4000430FFF72BFA0DB05DF804FB603800209F
:1095B40038B50E4D2B78C3B90D4B5C6804F50054D7
:1095C400B4F1807F11D8042201210A4803F007FB7B
:1095D40020B90948BDE8384003F082BC0123446047
:1095E4002B70BDE8384003F029BB38BD7438002027
:1095F40060380020143800206C2E002010B50121A2
:109604000C4803F031FB80B902210A4803F02CFB1B
:10961400044650B901461422074815F0B5FC074B1F
:109624001C70BDE81040FFF7C3BF054803F058FCA9
:10963400F7E700BF143800206038002038380020D5
:109644009C2E002030B50D468DB07AB94B88012B85
:109654000AD1124C227812B97846FDF75BFF104B01
:109664006A685A60002323700DB030BD032A02D00B
:109674007846FDF74FFF2C22002101A815F084FC49
:1096840011238DF80430074B0395DA681B690592A2
:1096940001A80693FFF7B2F9E6E700BF743800208B
:1096A400603800201438002013B501F05DFD00215E
:1096B4006B46124A1248134CCDE9001103F0E2F94B
:1096C400009B0BB1019A6AB900232360A360237342
:1096D400FFF730FF23686360FFF76AFF01F084FD42
:1096E40002B010BD1968A16019792173934202D99F
:1096F40009B92160EEE713682360EBE721950200C6
:10970400143800206038002008B503F037FCA0F5B9
:10971400805008BD7FB500211822684615F034FC3E
:10972400FFF7F2FF0123009001936946054B0648B9
:10973400039303F0C1FA10B1044803F0D1FB07B05E
:109744005DF804FB49960200143800208C2E00209A
:1097540008B5142200210A4815F016FC01F04CF853
:10976400084B094A09499A6000225860C3E9031268
:109774005A61074B1A70BDE80840FFF7CBBF00BF22
:10978400603800203C38002085980200008793034D
:109794007538002010B5074C23784BB90648074BA1
:1097A400036000F069FD064800F0C4FF0123237044
:1097B40010BD00BF1038002054380020ED9802007E
:1097C4003C38002010B501F0CFFC104A117B134641
:1097D400C9B9917BB9B9118A41F28262914202D826
:1097E4000B4A12787AB101221A739A680024013262
:1097F4001C829A60FFF79EFE2046FFF7C1FE01F02F
:10980400F3FC204610BD0824F9E700BF60380020AF
:109814007538002010B501F0A7FC174A547B134695
:10982400BCB1917B21BB118A41F28262914202D880
:10983400124A1278F2B11A7B002058732AB1012A15
:109844000BD07846FDF766FE03E0FFF7BBFF002868
:10985400F7D101F0C9FC204610BDC3E9000018731C
:109864001882FFF78DFEFFF765FEFFF7A1FEF0E714
:109874000024EEE71446ECE7603800207538002039
:1098840010B5174C237B2BB1012B12D07846FDF772
:1098940041FE1EE0228A41F282639A4202D8114BB1
:1098A4001B78B3B1FFF7B6FF638A0BB1013B638248
:1098B40010BD228A41F282618A4206D942F2B01175
:1098C4008A420AD8FFF7A6FF03E0064B1B78002B59
:1098D400F8D1238A01332382E6E76373E2E700BF0A
:1098E40060380020753800200378042B10B50ED1A1
:1098F40043681B785BB11C4B4269197B047E69BBCE
:10990400598AF9B9012C996802D08A4203D810BD4A
:109914004C1CA24218D92A318A42F8D8997B0029D2
:10992400F5D184689A60114A1A619981C3E90011DA
:10993400FFF700FEFFF73CFE04F11000BDE8104005
:10994400FFF71EBE012CE2D1996801318A42DED1B3
:109954000122BDE810405A73FFF75CBF0129D6D13C
:10996400012CD4D09968F1E7603800200000062D5E
:1099740038B5164CD4E900239A4205461FD2207B01
:10998400134B1449012808BF0B469A4207D2636857
:109994002268403B9A4208D3FFF70AFE05E0012300
:1099A4006373FFF737FF0028F1D0EFF3108072B62E
:1099B40023685A1C22602B6028B962B638BDFFF7B1
:1099C400F7FD0F20FAE70020F8E700BF6038002019
:1099D400FFFF7F0000E0FF000C4A10B51368144637
:1099E40028B101200A4903448873136010BD13B9D8
:1099F4007846FDF78FFD2368013B2360002BF5D1EA
:109A0400034ABDE810409373FFF704BF0C380020ED
:109A14006038002000B58DB00323ADF8080001A81C
:109A24008DF8102003918DF80430FEF7E7FF0DB098
:109A34005DF804FB014B9868704700BF6038002054
:109A4400034B98681B7B012B08BF00F1FF30704764
:109A540060380020044B9B685840C20748BF03F19C
:109A6400FF331846704700BF60380020014B187B55
:109A7400704700BF6038002038B50A4B1C787CB9A9
:109A8400094D01221A702973A860FFF753FD20467F
:109A9400FFF776FDC5E90044FFF78AFD204638BD8F
:109AA4000820FCE738380020603800202DE9F8430E
:109AB4001D4CDFF8789000260221204602F07CFA43
:109AC4005FFA86F805460027ADB967B129462046F6
:109AD40002F0D9FA082806D154F8043C1BB12A46EE
:109AE4004946404698470136032E04F1BC04E3D1AD
:109AF4000120BDE8F88354F8043C23B134F80C2C5D
:109B040029464046984734F80C3C0221013320464C
:109B140024F80C3C02F06CFA0221204602F04CFAC4
:109B240001370546D0E700BF8C38002098F90300C0
:109B340038B5012104460C3002F03EFA054620B344
:109B4400164BC4F89C300023C4F8A0300378626834
:109B5400012B07D0022B1AD07846FDF7DBFC4FF41B
:109B6400FA7306E081688B1A990829234B4303F59D
:109B7400FA730B4A934294BFC4F8A830C4F8A820DF
:109B84000123C4F8AC4084F8B830284638BD836853
:109B94009B1A1A0B034B5343E9E700BFCD9B02000A
:109BA40060850100084C010010B50446FFF7C0FFB2
:109BB40048B104F19C000BF02DFB20B17846BDE8C0
:109BC4001040FDF7A7BC10BD4B4B1B782DE9F74F98
:109BD40080460D463BB10BF053FB002385F8B830AB
:109BE40003B0BDE8F08F01F10C09D1F8A870484624
:109BF400012102F0E1F9064610B97846FDF78AFC26
:109C0400DFF8FCA0A7F5FA7700244FF0290B33788E
:109C1400012BA7EB040406D0022B3BD07846FDF7BA
:109C240079FC00231FE06B68B268B4FBFBF4D21A22
:109C3400A400944228BF144624B901937846FDF742
:109C440069FC019BF168706823F003032246194400
:109C54001844FFF737FC10B17846FDF75BFC6B68DE
:109C64001C446C60B3686A689A422AD10BF008FB02
:109C74004846012102F0BCF900236B6085F8B83036
:109C84001E4B186801F0FEFA284603B0BDE8F04FF9
:109C9400FFF78ABF6B68B268B4FBFAF4D21A2403E4
:109CA400944228BF144624B901937846FDF732FC48
:109CB400019B706823F0030321461844FFF7DAFB85
:109CC400C9E701F043F93378B0EB080448BFA8EBC7
:109CD4000004012B0BD0022B0BD07846FDF71AFCA5
:109CE40000232344BB4292D90BF0CAFACCE72923C0
:109CF400F7E75346F5E700BF7C38002078380020AA
:109D0400084C010070B51B481B4C01F09DFA1B4B1D
:109D1400186004F11C0341F203060825636104F191
:109D24000C0004F118032361A681A57302F087F9DE
:109D340004F1D803C4F8D03004F1C80004F1D4030A
:109D4400C4F8CC30A4F8C86084F8CA5002F077F99B
:109D540004F5CA73C4F88C3104F5C873A4F884619B
:109D640084F88651C4F8883104F5C270BDE87040A7
:109D740002F065B9B19A02008038002078380020DA
:109D8400022838B504460D4602D97846FDF7C2FBD1
:109D9400024BBC2202FB0434A56038BD803800208D
:109DA40002282DE9F84F05460C46924602D978461A
:109DB400FDF7B0FB14B97846FDF7ACFB2378012B13
:109DC40012D16368990702D07846FDF7A3FBE368D4
:109DD4009A0702D07846FDF79DFBA3689B0711D034
:109DE4007846FDF797FB0DE0022B0DD16368C3F3B2
:109DF4000B0313B17846FDF78DFBA368C3F30B0384
:109E0400002BEDD1A36813B97846FDF783FBEFF37C
:109E1400108772B6BC266E43DFF8908006F10C0BF7
:109E2400C3440021584602F0C7F8814638B30021E4
:109E3400584602F0DDF804F1100354F8042B49F8F5
:109E4400042B9C42F9D1BAF1000F05D0BC2303FBCB
:109E540005835B88AAF80030BC2303FB05856B8867
:109E640095F8B84001336B80E4B90F4B1D783DB9C8
:109E740008EB0600FFF75CFE2FB12C4605E0042436
:109E84006FB92746002062B63C4640B106F19C00FB
:109E940040440BF0BFF910B17846FDF73BFB204678
:109EA400BDE8F88F0024EBE77C38002080380020E0
:109EB40070B5EFF3108672B6144C236818BB13B94F
:109EC4007846FDF727FB2368013B236093B9104DC7
:109ED40095F8B83013B92846FFF766FE95F8743143
:109EE40013B90C48FFF760FE95F8303213B90A48ED
:109EF400FFF75AFE2368094A003318BF0123137081
:109F040006B962B670BD01332360F3E7B43A0020AA
:109F1400803800203C390020F83900207C380020AB
:109F240010B1800B014B185C704700BFA8F9030007
:109F340012DF7047137813B563B1022B0CBF0724EB
:109F4400002410F8013C292B43D005D8162B4BD004
:109F540002B010BD547DF4E72A2B1BD02B2BF7D174
:109F6400022CF5D110F8021C0139C9B203F05AFAD7
:109F74000028EDD0234B1B685B06E9D5224B1B68F8
:109F8400012BE5DD214B224AD3F8043500920190E0
:109F9400A62219E0022C01D0072CD9D110F8021CFA
:109FA400013901F0D9FC0028D2D0164B1B685A069F
:109FB400CED5154B1B68012BCADD144B154AD3F8BB
:109FC40004350092019093221349022002F022FAF0
:109FD400BEE7022CBCD110F8021C0139C9B202B090
:109FE400BDE810400FF0E8BB01884FF6E4639942E6
:109FF400AED110F8021C0230033902B0BDE81040A3
:10A00400FDF7E6B9BC2E0020B82E00200010014058
:10A0140065FA03003CFA030031FA030070B58AB014
:10A024000BF0E8FD0446002834D0002306468DF8E2
:10A0340010300FCE05AD0FC533682B60627D052A45
:10A044000CD9207D00F00F03072B07D004AB063A90
:10A0540004F11D0100F00F000AF07AFC114B1A689C
:10A06400AAB104AB0393237DC3F303038DF8043037
:10A07400637D062B89BF063B00238DF8053004F170
:10A084001D0398BF8DF80530029301A89047204620
:10A094000BF09AFD0BF0C8FD80F00100C0B20AB0CD
:10A0A40070BD00BFBC3A002000B50A4B1A78032AE1
:10A0B4008DB00CD104221A7000212C2201A814F0B6
:10A0C40063FF1C2301A88DF80430FEF797FC0DB044
:10A0D4005DF804FBB83A0020F7B5354F3A780546E9
:10A0E400002A5BD100285BD0067A0F2E01D0062E01
:10A0F40058D104F0BDFFE86800284CD0FDF71CFAE5
:10A104000DF10700FFF714FF0446002840D19DF825
:10A114000730012B48D1FDF737FA00F0F7FA304643
:10A1240000F0D4FFE87800F073F900F007FE0BF0BC
:10A1340007F820480BF00EFE0AF084FDFFF7E2FD5D
:10A1440004F0E8F800F0A2FC04F052FF04F070FD03
:10A15400284601F065FBFDF7EDFF03F0CDFCFDF7AC
:10A1640037F908B1062821D113480AF0C3FB2A2085
:10A174000AF062FC2B200AF05FFC29200AF05CFC48
:10A1840016200AF059FC0D4B00221A6001233B7083
:10A19400204603B0F0BDFDF7DBF9B1E70824F7E78B
:10A1A4000E24F5E70724F3E70224F1E70446EFE77A
:10A1B400B83A002021A00200AC2E0020BC3A0020B6
:10A1C40037B51B4D2B78012B05D013B1033B012B65
:10A1D40026D908241FE00BF0D9FC01F031FBFDF770
:10A1E400EBFFFDF7F5F80446C0B1062816D0114B75
:10A1F4001B685B040FD5104B1B68012B0BDD0F4B49
:10A204000F4AD3F804350F4901900092022040F21E
:10A21400A71202F0FFF8204603B030BD00F082FF21
:10A224000AF0EAFF04460028F5D102232B70F2E776
:10A23400B83A0020BC2E0020B82E002000100140A7
:10A24400ACF9030031FA030008B5084B1A78022A66
:10A254000AD1032206481A700AF094FF18B178460E
:10A26400FDF758F9002008BD0820FCE7B83A0020A3
:10A27400ADA00200FDF7A2BFFEF7EABBFEF7F8BBF4
:10A2840008B500F02BFD002008BD05F0E9BD000075
:10A29400044B1A680132B2F1704F08BF01221A60F0
:10A2A40018687047C03A002010B5044610B97846C3
:10A2B400FDF730F90023C4E9003310BD38B50D466D
:10A2C400044610B97846FDF725F915B97846FDF727
:10A2D40021F900236B60EFF3108372B6226822B970
:10A2E4002560656003B962B638BD62685560F8E7F9
:10A2F40010B5044610B97846FDF70CF9EFF3108257
:10A3040072B6206820B90023636002B962B610BD3A
:10A3140043682360002BF8D1F5E710B5044610B963
:10A324007846FDF7F7F8206810BD38B50C460546A9
:10A3340010B97846FDF7EEF814B97846FDF7EAF857
:10A344002046FFF7EAFF90B12846FFF7E6FF40B941
:10A3540094E8030085E803002046BDE83840FFF791
:10A36400A3BF6B6822685A6063686B60F4E738BD0A
:10A37400037A13B100230372704743681B680433E4
:10A38400436070471FB5036802464068191D884240
:10A3940009D1CDE9013300238DF80C30029B5168BB
:10A3A4001B6809688BB9D2E900131C6848688442A9
:10A3B40005D18B420BBF0021181F596048601968F2
:10A3C400496819600123137204E08B4201A803D188
:10A3D400FFF7D8FF04B010BDFFF7CAFFDEE735DF93
:10A3E4007047000008B54FF0FF30FFF7F8FFBFF3E8
:10A3F4004F8F0549054BCA6802F4E0621343CB60F2
:10A40400BFF34F8F00BFFDE700ED00E00400FA0545
:10A4140007289ABF024B33F81000FA20704700BF98
:10A4240090FA0300024B5868103840B2704700BFDE
:10A4340000ED00E000280346B8BF00F11F03084AFE
:10A444005B1152F82330424202F01F0200F01F0059
:10A4540058BF504223FA00F000F00100704700BFDB
:10A4640000E100E046DF704730B501F1100310321F
:10A47400103013F8014D12F8015D8B4284EA050493
:10A4840000F8014DF5D130BD2DE9F04F91B002F146
:10A494000F0504AE1F468A462D11034600F1100431
:10A4A400B14618685968B446ACE803000833A342BF
:10A4B4006646F6D102F00F040DB1002C56D00026EA
:10A4C4004FF0020B1022002108A814F05DFD48464D
:10A4D400FFF7C8FF01220CA89DF930104FF00F0CB4
:10A4E400804603785B00DBB2037010F801EF0CF1D7
:10A4F400FF3C43EADE131FFA8CFC00F8013CBCF17C
:10A50400000FEED19DF83F305B00DBB20029B8BFED
:10A5140083F087038DF83F30531C9B454FF00202B4
:10A52400D9D2013D0AEB05111EB30CAA6846FFF708
:10A534009BFF102200210CA814F026FD0024AC423D
:10A5440029DB4246694608A8FFF78EFF4846FFF715
:10A5540089FF10AA434603CB93423860796098463A
:10A5640007F10807F6D111B0BDE8F08F0126B34614
:10A57400A8E72246684614F0DEFC10AB2344802290
:10A5840003F8402C0134102C02D10CAA6946CDE703
:10A594000DF80460F6E70AEB04120CA908A8FFF70B
:10A5A40063FF4846FFF75EFF0134C8E738B5124B36
:10A5B4001A6804462AB11A6845685268AA1A002A19
:10A5C4000DDA1A6862611C609A88013292B29A802C
:10A5D40012B97846FCF79EFF0123237038BD196831
:10A5E4004A691AB15068401B002802DB62614C6161
:10A5F400EAE71146F4E700BFC83A0020124B1A6894
:10A60400824210B51A4604460BD142691A609A88F0
:10A6140092B2511E89B299808AB97846FCF77AFFC2
:10A624000DE01B685BB15969A1420BD161695961A5
:10A6340093889BB2591E89B29180002BEDD00023E0
:10A64400237010BD0B46EDE7C83A0020014B186893
:10A6540000F018BEC43A0020044B1A6822B11B68EB
:10A664000349586800F052B900F0A6B9C83A00206E
:10A6740051A602002DE9F04100F0BEF8224E054635
:10A6840037464FF00008336823B133685B685B1BBF
:10A69400642B06D400F0B0F8FFF7DEFF0120BDE81C
:10A6A400F08134682378012B02D07846FCF732FF1E
:10A6B40063693B60BB88C4F814809BB25A1E92B293
:10A6C400BA8013B97846FCF725FFA36813B9784616
:10A6D400FCF720FF0223284623702169A3689847CA
:10A6E40000F08AF82378022B0546CCD1E2680AB937
:10A6F4002270C8E763681344591B6429FBD4636060
:10A704002046FFF753FFBEE7C83A002008B5064BC2
:10A71400064800221A605A6000F096FD044B186047
:10A72400BDE8084000F05BB8C83A002079A60200F2
:10A73400C43A002010B5044600F07EFE10B97846F5
:10A74400FCF7E8FE14B97846FCF7E4FEA36813B9F5
:10A754007846FCF7DFFE2378012B02D17846FCF71C
:10A76400D9FE002363612046FFF720FF00F044F880
:10A77400BDE81040FFF770BF10B5044600F05CFE62
:10A7840010B97846FCF7C6FE14B97846FCF7C2FE49
:10A794002046FFF733FF0023636100F02DF8BDE886
:10A7A4001040FFF759BF38B504460D4600F044FE8B
:10A7B40010B97846FCF7AEFE14B97846FCF7AAFE49
:10A7C4002046FFF71BFF0023636120466560FFF707
:10A7D400EDFE00F011F8BDE83840FFF73DBF08B5C5
:10A7E40012F084FD38B912F0B5FC20B17846BDE80A
:10A7F4000840FCF78FBE08BD10B5EFF3108072B6A9
:10A804000C4A0D4B1968D2F80435D2F80441012CD6
:10A8140004BFD2F80435013100B962B6074843EAEF
:10A8240001614FF480420023E0FB0123D00B40EA96
:10A83400434010BD00100140D03A002040420F00B8
:10A844000A4B10B54FF40032094CC3F84823C3F83F
:10A854000823226812B97846FCF75CFE2468FFF7E7
:10A86400CBFF2346BDE81040184700BF001001404D
:10A87400DC3A002010B5EFF3108072B61E4B1F496E
:10A884000022C3F804210A6801320A6000B962B6E2
:10A894001B4A116809B31168013911601268E2B9E1
:10A8A400184AD3F804051168884217D2EFF31080D0
:10A8B40072B6D3F8041514680131A1422ABFD3F843
:10A8C400042512680232C3F8442500B962B64FF475
:10A8D4000032C3F84423C3F8042310BD0A4C226891
:10A8E40012B97846FCF716FE2468FFF785FF234665
:10A8F400BDE81040184700BF00100140D03A0020C6
:10A90400D43A0020D83A0020DC3A002037B500239E
:10A91400044601930D4611B97846FCF7FBFD204B24
:10A924001D60FFF769FF031B002BB8BF241A1D48E5
:10A934001D4AA8BF00244FF4004500210023E5FB75
:10A94400040114F0B4F9EFF31083019372B6174ABB
:10A95400174CD2F804350228C3F1FF1101F57F41E9
:10A9640038BF02208142134910D30344C2F844354E
:10A974004FF40033C2F84433C2F804330023236095
:10A984000B60019B03B962B603B030BD03F17F4392
:10A99400013303441A0E0132226023F07F43EFE7B0
:10A9A400DC3A002020A1070040420F0000100140C3
:10A9B400D43A0020D83A0020074B4FF40032C3F8B1
:10A9C4004823C3F80823054A00231360044A13608C
:10A9D400044A1360704700BF00100140D43A0020BD
:10A9E400D83A0020DC3A002030DF704731DF70476E
:10A9F40010B5D0E900238468C168A2EB731283EA1E
:10AA0400F43303600C441344114444608160C36014
:10AA1400184610BD73B50D46064610B97846FCF7C6
:10AA240079FD0024A54201D802B070BD0DF10700E4
:10AA3400FFF7DAFF9DF80720002AF7D02B1B9A4274
:10AA440088BF8DF8073030199DF80710FFF7CEFF47
:10AA54009DF807301C44E5E737B50421044600237C
:10AA64000DEB01000193FFF7D5FF074B2360019B1A
:10AA7400E360C4E9013314252046FFF7B9FF013D23
:10AA8400FAD103B030BD00BFED5EEAF1704748DF94
:10AA9400704749DF70474ADF70470000074B0322C5
:10AAA4001A741868064A5A6143F2B06140F6D863D2
:10AAB400984288BF0B469360704700BF0C3B002050
:10AAC4002C3B0020054B1B68A0F178022833584327
:10AAD400034BB0FBF3F0101A704700BF283B002073
:10AAE40040420F0038B50E4A0E4C012363711368BF
:10AAF400002501331360257400F084FA0AF036FC53
:10AB04002068FFF7DFFF084A0146284600F0ECF909
:10AB140020B17846BDE83840FCF7FCBC38BD00BF26
:10AB2400403B00200C3B0020A1AA02001E4B30B485
:10AB34005C6928B11A68D96822440131D9601A6065
:10AB44009A680121013224FA01F5012A19749A60E4
:10AB54005D6119680DD0022A19D05B69134A194442
:10AB6400914203D840F6D76293421BD830BCFFF71A
:10AB7400B9BFB5F5FA7F03D130B900225A61ECE7C9
:10AB840041F6B1529442E8D840F6D862F6E7DA6862
:10AB9400022A02D1054A521AF0E7012ADDD100281F
:10ABA400EBD0DAE730BC70470C3B0020809698006D
:10ABB40070B5424C424D012323712B781BB1414B9C
:10ABC4001E78002E5BD000232374042853D8DFE8BA
:10ABD40000F0034D4A4844003B4DA179AA68C4E9FA
:10ABE400023323682260002934D0012121743749BB
:10ABF400002B08BF0B46991AB1F57A7F26D39A42E7
:10AC040024D8616143F2B06043F69822C5E9020298
:10AC140001236B71A371237C023B012B0DD8637953
:10AC240043B10AF0BFFB2068FFF74CFF00F01CFAA9
:10AC340000236371234B00221A70237C2448022BC7
:10AC440004BF012323760023237170BD4FF47A736C
:10AC54006361D7E7FFF746FFD4E70120FFF766FFFC
:10AC6400D9E70020FAE70AF02FFBD4E700F08EF9C9
:10AC74000AF062FBCFE77846FCF74CFCCBE700F028
:10AC840065F92B782060022B0FD0032B06D0012B03
:10AC940010D10223237400232B70BCE70A4B0D4907
:10ACA4000D4A5E71C3E90212A67103232374064B95
:10ACB4006361F0E77846FCF72DFCECE70C3B0020E1
:10ACC4003D3B00203C3B00202C3B0020809698001C
:10ACD4001C3B0020A0860100FF1FA107043808B513
:10ACE400042825D8DFE800F016220A030F00114BD0
:10ACF4001B7E012B1CD1FFF7CCFEC8B17846BDE802
:10AD04000840FCF707BC0B4B00221A76BDE808404C
:10AD14000AF080BB08480123437143F6982240F6A9
:10AD2400D863C0E90232FFF7B6FEE6E70248FAE765
:10AD340008BD00BF0C3B00202C3B00200D4A4FF403
:10AD440080710023918043F2B06C43F69821137014
:10AD5400C2E902C1084A1060084A1370084A137015
:10AD6400084A1360084A1376136093800123937191
:10AD7400704700BF2C3B0020283B00203C3B0020B8
:10AD84003D3B0020403B00200C3B002010B50E4C06
:10AD9400227E012A0CD022B1022A0CBF11200020ED
:10ADA40010BD0A48FFF773FE10B17846FCF7B2FBFA
:10ADB4000748FFF770FE10B17846FCF7ABFB02239F
:10ADC40023760020ECE700BF0C3B0020B5AB02006B
:10ADD4002C3B0020074B1B7C023B012B07D9064B65
:10ADE4001878013802288CBF002001207047012008
:10ADF400704700BF0C3B00203D3B0020014B18680E
:10AE0400704700BF0C3B0020074B587910B548B180
:10AE14001868FFF757FE044600F098F80346201A16
:10AE240048BF181B10BD00BF0C3B0020014B5879D4
:10AE3400704700BF0C3B0020014B1879704700BFDE
:10AE44000C3B0020024B187E003018BF01207047D5
:10AE54000C3B0020EFF3108372B6054A527922B1FD
:10AE6400044A4FF48071C2F8001103B962B6704706
:10AE74000C3B002000E100E0044B1B7E022B04D1BC
:10AE8400034B01221A70FFF7E5BF70470C3B00200B
:10AE94003D3B0020054B1B7E022B06D10128044AB2
:10AEA40008BF03231370FFF7D5BF70470C3B002086
:10AEB4003D3B0020064B19781A4631B128B90549A3
:10AEC400097811B11870FFF7C5BF1070704700BF43
:10AED4003C3B00203D3B0020024B1B6803B962B69B
:10AEE400704700BF543B0020022810B522D8EFF36E
:10AEF4001084114B1C6072B6104B43F82020104B89
:10AF0400002243F820200F4B1B787BB1830003F110
:10AF1400804303F500431030C3F84021012202FAB4
:10AF240000F0094AC2F80403C3F84015FFF7D4FF40
:10AF3400002010BD0720FCE7543B0020443B0020C8
:10AF4400603B0020503B00200080004008B5EFF338
:10AF540010820A4B1A6072B6094B1B7853B1094B25
:10AF64000022C3F84C210122DA64D3F84C05FFF720
:10AF7400B3FF08BD044B1868F9E700BF543B002039
:10AF8400503B002000800040583B00202DE9F84F42
:10AF94000024174EDFF85C80A1464FF0010BA5009A
:10AFA40005F1804505F50045D5F84031CBB1D8F819
:10AFB400043304F11007FB40DB0712D5D6F800A0D8
:10AFC400BAF1000F02D17846FCF7A4FA0BFA07F79E
:10AFD400C6F80090C8F80873FFF7B8FFD047C5F863
:10AFE40040910134032C06F10406D8D1BDE8F88F52
:10AFF400443B002000800040014B1B68184470470C
:10B004005C3B002008B5134B0022C3F84025C3F86D
:10B014004021D3F84011C3F84425C3F84421D3F8A0
:10B024004411C3F84825C3F84821D3F848310A4BE2
:10B034001B681BB9094B4FF480721A60084B01223C
:10B044001A70FFF7D9FB0146FFF780FF054B081A7A
:10B05400186008BD00800040543B002000E100E07F
:10B06400503B00205C3B00200B4A0C49002313603A
:10B07400536093600A4A0B6010600A4A4B60137075
:10B084008B60094B4FF0FF32C3F80823074B4FF492
:10B094008072C3F880217047603B0020443B00204D
:10B0A400583B0020503B00200080004000E100E0BD
:10B0B400044B1B780F2B1EBF034B4FF48022C3F8A5
:10B0C40000217047B43C002000E100E010B5104CB2
:10B0D400104B2070104803601023C0E90133FEF7C1
:10B0E4007DF90E48FFF7E0F823780F2B0AD0072BE1
:10B0F40009D8EC221A41D20705D55B01084ADBB214
:10B1040082F8123310BD7846BDE81040FCF702BA4D
:10B11400B43C0020803B00206C3B0020B83C002065
:10B1240000E100E00D4B1B780F2B0DD00C4991F87A
:10B1340012335A09EC231341DB0706D5094B9A68ED
:10B1440032B94FF480230B6070477846FCF7E2B9BC
:10B154001A6842F480221A60704700BFB43C002091
:10B1640000E100E0CC560020F8B5EFF3108772B68A
:10B1740017480268511C016002BB164B1B780F2B49
:10B1840021D0EFF3108C72B6134A144C9568012346
:10B19400E5B99360124B134ED3F88010314011601F
:10B1A400C3F88060D3F8841051604FF0FF32C3F8C5
:10B1B40084202570BCF1000F00D162B6036813B976
:10B1C4007846FCF7A7F907B962B6F8BD2370F1E732
:10B1D400803C0020B43C0020CC560020B53C00202C
:10B1E40000E100E0FC06FFBD38B5EFF3108572B650
:10B1F400104C236813B97846FCF78CF92368013B9B
:10B204002360A3B90C4B1B780F2B10D00B4B9A68FF
:10B214006AB10B4A127852B9EFF3108072B6094939
:10B224001C680C605C684C609A6000B962B605B931
:10B2340062B638BD803C0020B43C0020CC560020CF
:10B24400B53C002000E100E038B5054610B9784669
:10B25400FCF760F9094C2368092B02D97846FCF7FE
:10B2640059F9EFF3108372B62068421C2260044A35
:10B2740042F8205003B962B638BD00BF843C0020B8
:10B28400883C00200E4B1B68834210B5044602D84C
:10B294007846FCF73FF9EFF3108072B6094A61096A
:10B2A400012304F01F0403FA04F452F82130234369
:10B2B40042F82130FFF7FCFE00B962B610BD00BFB2
:10B2C400843C0020B03C002070B50D461646044670
:10B2D40010B97846FCF71EF915B97846FCF71AF947
:10B2E400EFF3108372B60022C4E90256227424607C
:10B2F40003B962B670BD000070B5044610B9784653
:10B30400FCF708F9A36813B97846FCF703F9EFF3DF
:10B31400108672B6237C03F0FF055BB9012306484F
:10B3240023742146FEF7CAFFFFF7C2FE284606B97A
:10B3340062B670BD1120FAE7B83C002010B504468F
:10B3440010B97846FCF7E6F8207C10BD2DE9FF47DC
:10B35400324E337813B17846FCF7DCF80125DFF878
:10B36400CC802F4FDFF8C89035700024D8F8003017
:10B37400A34212D82B48DFF8AC80FEF7B9FF0027B0
:10B3840060BB294C69462046FEF742F8A0B300236F
:10B394002846337004B0BDE8F087630904F01F0148
:10B3A40057F82300C840C20716D5EFF3108072B6D1
:10B3B400012202FA01F157F8232022EA010247F898
:10B3C400232000B962B659F824309847824618B948
:10B3D4002046FFF757FF55460134C7E70468237C2E
:10B3E40013B97846FCF796F8D4E9023098472774E5
:10B3F4004046FEF77DFFC3E79DF8003043B1012BC3
:10B40400C0D1019B002BBDD0DDE902019847B9E70B
:10B41400019B002BB6D002989847B3E7C03C0020AC
:10B42400B03C0020B83C00206C3B0020843C002051
:10B43400883C0020FFF78ABF07B5FEF7F3FF8DF8BD
:10B4440003009DF803301749F02B0DD10B780F2B17
:10B4540025D01220FEF7EEFF80F00100C0B200F00C
:10B46400010003B05DF804FB9DF803305BB2002BD0
:10B47400ADBF03F1604303F00F030B4A03F56143CF
:10B48400B4BFD35C93F800335B090193019A0B7842
:10B49400934204D0019A9342DBD30020DFE70120DA
:10B4A400DDE700BFB43C002014ED00E046DF704748
:10B4B400F0B58DB06D4614460B46024600F1100CF3
:10B4C4002F46106851682E4603C608326245354639
:10B4D400F7D104AD03F11006186859682A4603C26F
:10B4E4000833B3421546F7D13846FFF7DFFF08ADFE
:10B4F40022460CAC2B4603CBA342106051601D4680
:10B5040002F10802F6D10DB0F0BDFEF7BDBF01F0A7
:10B51400FCBD01F033BE30B4032954D8DFE801F098
:10B524000225254E00241C70817A5A7861F30602A4
:10B53400C17A61F3C7125A70C1680D04C1F307429E
:10B5440005F47F0501F47F412A430A43C2F307212E
:10B554009A70120C1A71D9700189DC710A0A42EAD4
:10B564000122A3F805201C7222E01970597801F019
:10B57400800162F3C7115970C1680C04C1F307421A
:10B5840004F47F0401F47F4122430A439A70C2F316
:10B594000721120C1A71D97001890A0A42EA0122A0
:10B5A4004188A3F805200A0A42EA0122A3F80720E9
:10B5B400026912BAC3F8092030BC70470322002480
:10B5C4001A705C70B8E7784630BCFBF7A3BF7FB550
:10B5D4000E461546044600B112B97846FBF79AFFA9
:10B5E40010220021684613F0CFFC2B463246214638
:10B5F4006846FEF749FF04B070BD2DE9FF410B9D7D
:10B60400884616461C46074610B10AB103B115B95F
:10B614007846FBF77FFF6B46424639463046FEF7D5
:10B6240033FF2B469DF8282021466846FEF72CFF61
:10B6340004B0BDE8F0810000F0B50F468FB01546A8
:10B644001E46044608B101B113B97846FBF762FF00
:10B654001DB97846FBF75EFF01E0102DF9D8274BA2
:10B664001868009005AA04216846FFF7B0FF01ABF3
:10B674002146102205A8FEF707FF2A46394605A8E9
:10B6840013F059FC0EAB2B44012203F8242C05AB18
:10B69400AA18194692B201A8FEF7F6FE9DF82330C7
:10B6A400344603F07F0304F8013B2A46394609A8CF
:10B6B40013F041FC05F110070EAB1F4411350223B2
:10B6C400ADB207F8243C2A46234605A901A8FEF793
:10B6D400DBFE1136234605AC18685968224603C2BE
:10B6E4000833B3421446F7D1032207F8242C05A9E2
:10B6F4002A4601A8FEF7C8FE0FB0F0BDA0FA030069
:10B7040070B50D4688B0064600B111B97846FBF70E
:10B7140001FF114C04212068019004AA0DEB0100E3
:10B72400FFF755FF04AB314618461022FEF7ACFE76
:10B73400234602A953F8040F02901B798DF80C30AC
:10B7440004AB18460522FEF79FFE06AB03CB286028
:10B75400696008B070BD00BFA4FA030070B50D465F
:10B7640086B0064600B111B97846FBF7D3FE0F4CFC
:10B7740054F8040B009002AA68460421FFF727FF3F
:10B7840002AB314618461022FEF77EFE2068019077
:10B7940002AB042218460DEB0201FEF775FE9DF87C
:10B7A400173003F03F032B7006B070BDADFA0300F1
:10B7B40030B50268037CD17A87B000298DF8043053
:10B7C400836814BF0821042109330B44CDE90232F4
:10B7D400436804930446C3680593694601A801F0CD
:10B7E400DDFED0B1237C012B0ED02568FEF728F9AD
:10B7F400286120680C30FEF7BBF8054620B101F043
:10B8040047FF284607B030BD2168009800F05FFB71
:10B81400009B093363610025F3E70425F1E7000089
:10B8240008B500B14068054B1860FDF791FFFDF7BE
:10B834003BFFBDE8084002F05DBB00BFC43C0020F4
:10B8440008B5FDF7A7FFBDE8084002F091BB10B5AD
:10B85400044610B97846FBF75DFE236813B97846B1
:10B86400FBF758FE23685B6913B97846FBF752FE71
:10B87400237C012B02D97846FBF74CFEE36813B90D
:10B884007846FBF747FE2046BDE81040FFF790BF1F
:10B89400F0B50446C7B010B97846FBF73BFE6369C0
:10B8A40013B97846FBF736FE236813B97846FBF7DD
:10B8B40031FE23685B6913B97846FBF72BFE606998
:10B8C40000F062FB1E4B1B689B0705462ED51D4BE3
:10B8D4001B68042B2ADD1C4B1E6805AB411E00F1BE
:10B8E4001C07184611F8012F4FEA121C02F00F0230
:10B8F40016F80CC083F800C0B25C5A708F4203F192
:10B904000203EFD1002380F83A3003F1804303F5BA
:10B9140088330E4AD3F8043501920D4A02900092FE
:10B924000C494FF49472052000F074FD00232A465C
:10B93400A168206800F08CFA01F084FE47B0F0BDE5
:10B94400BC2E0020B82E0020C02E00206AFB03006D
:10B95400E1F5030060FB03002DE9F0478946D4B00C
:10B9640090460546002800F0268100F011FB0DF1F9
:10B974002C0A924F421B2946504613F0DCFA3B68CE
:10B98400980727D58E4B1B68042B23DD4C468D4B23
:10B99400802C28BF80241E6813AB294604EB050CB9
:10B9A40018468C4503F1020340F0C580002300F8DB
:10B9B400143003F1804303F58833834AD3F8043504
:10B9C4000192824A02900092814940F24D12052070
:10B9D40000F020FD002305AC00932A465346494657
:10B9E400204600F0EBF90646002840F0C780237893
:10B9F400002B00F0C380E268B2F1807F80F0BE804B
:10BA0400E27A12B1022B00F0B98094F90A30002BCB
:10BA1400C0F2B4803B6813F0020F13AD23D0684B1F
:10BA24001B68042B1FDD4846664B8028196828BF15
:10BA340080202B46864203F1020340F08A800023D3
:10BA440005F8163003F1804303F58833614AD3F8CF
:10BA5400043501925D4A009202954FF4AB725C4941
:10BA6400052000F0D7FC636913B97846FBF752FD53
:10BA74004146204604F020FA4946204600F07CFA6C
:10BA84005FFA80F94346224649460DF13500FCF73A
:10BA9400BFFCE16806462089FBF7A6FD208912F069
:10BAA40015FE20B1606908F075FE00B16061294699
:10BAB400208908F053FD002860D1012003F0C8FA62
:10BAC40000285BD0A37A012B58D92378012B4FD0BF
