:020000022000DC
:1060000000F003206D630200556302005763020035
:10601000596302005B6302005D6302000000000040
:106020000000000000000000000000005F630200AC
:106030006163020000000000636302006563020008
:106040006763020067630200676302006763020020
:1060500067630200676302008970020067630200E1
:1060600067630200676302001D8703006763020025
:1060700067630200676302006763020067630200F0
:1060800067630200411E040021C002006763020032
:10609000A51E0400676302007DB70300676302006A
:1060A00067630200676302006763020067630200C0
:1060B0006763020067630200000000000000000048
:1060C00067630200676302006763020067630200A0
:1060D0006763020067630200676302006763020090
:1060E000676302006763020067630200000000004C
:1060F0000000000067630200000000006763020008
:10610000000000000000000000000000000000008F
:10611000000000000000000000000000000000007F
:10612000000000000000000000000000000000006F
:10613000000000000000000000000000000000005F
:10614000000000000000000000000000000000004F
:10615000000000000000000000000000000000003F
:10616000000000000000000000000000000000002F
:10617000000000000000000000000000000000001F
:10618000000000000000000000000000000000000F
:1061900000000000000000000000000000000000FF
:1061A00000000000000000000000000000000000EF
:1061B00000000000000000000000000000000000DF
:1061C00000000000000000000000000000000000CF
:1061D00000000000000000000000000000000000BF
:1061E00000000000000000000000000000000000AF
:1061F000000000000000000000000000000000009F
:10620000344935480A1A02D0072291438D46334952
:1062100033480A1A06D00722914381F309880222E3
:1062200082F314882F483049304A00F042F8304851
:106230003049314A00F03DF830483149314A00F0E8
:1062400038F831483149324A00F033F831483249A0
:10625000324A00F02EF832483249334A00F029F829
:1062600032483349334A00F024F833483349002296
:1062700000F02AF832483349002200F025F832486D
:106280003249091A082902DB0022026041601F48D6
:106290001F49884205D00268043003B4904703BC0C
:1062A000F7E700208646EC4600200021284A904768
:1062B000FEE7884207D0521A05D0037801300B70F0
:1062C0000131013AF9D17047884202D002700130A1
:1062D000FAE7704700F0032000E8032000F00320F5
:1062E00000F0032028620400A02D00200C2F0020C5
:1062F000A4630200A46302006E400400286204004C
:10630000A02D0020A02D0020BC410400BC410400B1
:10631000BC410400BC410400BC410400BC41040079
:10632000BC410400BC4104002862040094630400E2
:106330000C2F00200C2F00200C2F00208960002043
:106340008C6000208C6000208C6000208C64002019
:1063500039680200FEE7FEE7FEE7FEE7FEE7FEE73C
:10636000FEE7FEE7FEE7FEE7704700BF094880470B
:1063700009484FF007018843854608488047084888
:10638000016841F470010160BFF34F8FBFF36F8F5D
:10639000FFF736BF6963020000F0032079BB0300FA
:0463A00088ED00E0A4
:1063A40041DF704710B50C460E2000F0B5FD20709B
:1063B40010BD000010B582B00C460D4B1B6813F4E1
:1063C400804F03D00B4B1B68032B05DC21460E20AA
:1063D40000F0AEFD02B010BD074BD3F804350191B7
:1063E400064A009260220649042006F035FFEDE7D4
:1063F4006C2E0020682E002000100140544204003E
:106404004A42040000B583B00F4B1B6813F4804F5D
:1064140003D00E4B1B68032B0ADC0322C8214FF464
:10642400F03000F09FFD0AF0F3FA03B05DF804FBCE
:10643400074BD3F80435074A009278220649042012
:1064440006F00AFFE9E700BF6C2E0020682E00204A
:10645400001001401C4304004A42040010B582B0FD
:1064640004462C4B1B6813F4804F03D02A4B1B6843
:10647400032B04DC7CB1032C2ED002B010BD274BBF
:10648400D3F804350190264A009288222549042035
:1064940006F0E2FEEEE71F4B1B6813F4804F03D0B7
:1064A4001D4B1B68032B0CDC0E2000F035FD80F027
:1064B4000101C9B20E2000F03BFD1B4800F02EFB89
:1064C400DBE7164BD3F80435184A0092902215499D
:1064D400042006F0C1FEE7E70AF034FA98B90D4B40
:1064E4001B6813F4804FC8D00B4B1B68032BC4DD0F
:1064F4000A4BD3F804350E4A0092A4220949042019
:1065040006F0AAFEB9E70BF0B9FE0AF011FAFFF79C
:1065140079FFB2E76C2E0020682E002000100140A5
:106524006C4204004A420400A02D00208042040072
:10653400904204003038042800D9704708B5FFF7AA
:106544008DFF08BD08B503781C2B00D008BDFFF7EC
:1065540059FFFBE700B58BB02022002101A81DF0F4
:106564001FFD01238DF8043007238DF8073006231F
:106574008DF80C30084B0593084B0993084901A882
:106584000AF0EEF910B90BB05DF804FB054AE821F6
:1065940015F0E8FBF7E700BF49650200A9660200B1
:1065A4000C2F0020F041040000B583B01B4A0521E4
:1065B4004FF4103006F034FE194B1B6813F4804F6F
:1065C40003D0184B1B68032B13DC1BF06DFCD8B9EC
:1065D40000F00CFD144800F029FDD0B900F0F2FEE3
:1065E40000F00CFF00F038FFFFF7B4FF03B05DF8D4
:1065F40004FB0E4BD3F804350D4A0092EE220D49EC
:10660400042006F029FEE0E70B4AF02115F0AAFB6E
:10661400DEE7094AF42115F0A5FBDFE7F9D1020012
:106624006C2E0020682E00206164020000100140DE
:10663400C84204004A420400F041040000B583B09B
:106644000021114800F08CFA58B9104B1B6813F460
:10665400804F03D00E4B1B68032B07DC03B05DF89F
:1066640004FB0C4A702115F07DFBEEE70A4BD3F8CE
:106674000435054A12880192084A00927122084999
:10668400042006F0E9FDE9E7A02D00206C2E00208F
:10669400682E0020F041040000100140D4410400A1
:1066A4004A42040000B583B00C4B1B6813F4804FBE
:1066B40003D00B4B1B68032B04DCFFF7BFFF03B0B5
:1066C4005DF804FB074BD3F80435074A0092DA223D
:1066D4000649042006F0C0FDEFE700BF6C2E002041
:1066E400682E002000100140FC4204004A420400CD
:1066F40030B587B06421194800F0A8FB184B1B780B
:106704009BB100F0C7FF00F0F3FC0AF071F9F8B98F
:1067140000214FF4F03000F01AFC0222C8214FF49B
:10672400F03000F01FFC07B030BD6C460D4D0FCDAE
:106734000FC495E8030084E80300684600F024FBD6
:106744000028DED0084A40F2111115F00BFBD8E7FF
:10675400054A4FF48B7115F005FBD9E73965020042
:106764000C2F0020BC410400F041040010B5044685
:1067740000214FF4F03000F0EAFB04EB84046200E3
:1067840032214FF4C03000F0EDFB10BD08B500F02D
:106794001FFC08BD00B585B0204B1B6813F4804F67
:1067A40003D01F4B1B68032B1FDC00F027FE00F0F7
:1067B40053FE03A80FF06CFF184B1B6813F4804FB3
:1067C40003D0174B1B68032B1ADC00F001FC0021DB
:1067D4004FF4F03000F0BBFB0422C8214FF4F0303A
:1067E40000F0C0FB05B05DF804FB0E4BD3F8043594
:1067F4000D4A0092C6220D49042006F02DFDD4E76F
:10680400084BD3F80435BDF80C200192084A0092D5
:10681400D1220649042006F01FFDD6E76C2E002085
:10682400682E002000100140384304004A4204004E
:106834005443040008B5FFF7B7FEFFF759FFFFF70D
:10684400AFFDFCE730B583B0044615461D4B1B680D
:1068540013F4804F03D01C4B1B68032B11DCA36B78
:1068640004F13C012046984794F83C302B7094F88E
:106874003D306B70236C0BB1626C6AB16B6003B01A
:1068840030BD124BD3F80435114A0092AA221149A3
:10689400042006F0E1FCE2E71BF088FBA16C1BF08E
:1068A4008BFB4FF47A7303FB00F0C20B236C93420F
:1068B40005D3B0F5004F02D39B1A6B60DFE70023CA
:1068C4006B60DCE76C2E0020682E00200010014075
:1068D400F4430400E543040010B588B00446436C57
:1068E400E3B9036C13B190F83D20BAB194F83D209C
:1068F40084F83C208DF818208DF81920079306A9F8
:1069040020461AF031FF94F84C303BB9636B94F88D
:106914003C1020469847012384F84C300F4B1B68E9
:1069240013F4804F03D00E4B1B68042B01DC08B01A
:1069340010BD0C4BD3F8043594F83C2094F83D106A
:10694400206C0490606C039002910192064A0092BC
:1069540085220649052006F07FFCE8E76C2E00201E
:10696400682E00200010014038440400E543040070
:1069740030B583B00446036B18681BF001FB636CED
:106984003BBB236C1BB3590CD8034FF47A7200231E
:1069940010F5FA7041F100011DF093F9B0F1807F18
:1069A4002AD2042831D9236B2246014618681BF0E9
:1069B400C9FA05461BF0FAFAA06445B11C4B1B68E2
:1069C40013F4804F03D01B4B1B68002B25DC03B052
:1069D40030BD256B590CD8034FF47A72002310F59F
:1069E400FA7041F100011DF06CF922460146286855
:1069F4001BF0A8FA0546E0E7236B22466FF07F41BF
:106A040018681BF09FFA0546D4E7236B224605213C
:106A140018681BF097FA0546CCE7074BD3F8043502
:106A2400064A009268220649012006F015FCCEE7CA
:106A34006C2E0020682E0020001001401844040031
:106A4400E5430400F0B583B0044617461E46089D8E
:106A54001A4B1B6813F4804F03D0194B1B68032B8C
:106A64001BDC002384F84C303B7884F83D300EB3B3
:106A740073686364336823642046FFF72DFF204660
:106A8400FFF776FF3DB194F83C302B7094F83D301D
:106A94006B70236C6B6003B0F0BD0A4BD3F8043504
:106AA40012780192084A0092CC220849042006F088
:106AB400D3FBD6E7002363642364DDE76C2E002058
:106AC400682E00200010014000440400E543040047
:106AD40038B50446436C9BB9056CADB1690CE80349
:106AE4004FF47A72002310F5FA7041F100011DF0A1
:106AF400E8F8B0F1807F0BD3A5F2FF15256403E01D
:106B040000234364FFF7E8FE2046FFF731FF38BD5A
:106B1400002323642046FFF7DFFEF5E710B582B0BB
:106B24000446836B00F13C01984794F83C3084F8A8
:106B34003D30002363642364236B18681BF020FA40
:106B440094F83C308DF8003094F83D308DF80130E5
:106B5400236C0193694620461AF006FE02B010BD6C
:106B6400A0B110B504460D4AC262426B8AB1826B71
:106B74008AB11AF0C3FD034608B1184610BD084A8D
:106B84000021206B1BF0C8F90346F6E70E231846D4
:106B940070470E23F1E70E23EFE700BF1044040013
:106BA400D56A02002B4B1B78002B52D000B585B060
:106BB400012804D0032845D005B05DF804FB002368
:106BC400029302A9012014F085FC40BB02A814F032
:106BD400D3FC38BB0123039303A90DF1060010F085
:106BE4003BFB10BBBDF806000FF01AFF0DF10501C9
:106BF40010F0C4F8E0B90BF0B5F89DF805100020CA
:106C04000BF07CFBB8B903F089FFC0B9114B00222B
:106C14001A70114B1B68002BCED09847CCE715F0A7
:106C240093F8D3E715F090F8D4E715F08DF8D9E789
:106C340015F08AF8DFE7784600F0EEFCE3E715F09C
:106C440083F8E3E714F00EFD0028B5D015F07CF8C6
:106C5400B2E77047322F0020342F002008B5064BCE
:106C640001221A70054803F0C3FF03F0A3FF00B923
:106C740008BD15F069F8FBE7322F0020F02D002045
:106C840008B503781C2B00D008BD074B1B78002BDC
:106C9400FAD014F02BFD18B9044803F0ADFFF3E764
:106CA40015F052F8F8E700BF322F0020F02D002035
:106CB40008B50849084815F0EDFC034608B1184624
:106CC40008BD0323002205490969054815F0FEFCA7
:106CD4000346F4E74C2F0020B8320020342F002064
:106CE4008431002008B50378023B082B3FD8DFE845
:106CF40003F01C05113E3E2C3E3E36001E4B5B68E5
:106D0400002B34D0007A002831D01C4A01211170A4
:106D140098472CE0184B9B684BB3184A127832B34F
:106D2400164A00211170984721E0154B1B784BB986
:106D3400114BDB681BB1114A002111709847FFF712
:106D4400B7FF14E0FFF78AFF11E010220A4B5969DC
:106D54000C4815F04BFD50B114F0F6FF07E08168C4
:106D6400C06809F085FD18B9054B01221A7008BDE9
:106D740014F0EAFFF8E700BF342F0020302F002082
:106D8400312F00208431002070B586B004461F4A9C
:106D940003AB07CA03C323F8022B120C1A701C4E50
:106DA40035460FCC0FC594E8030085E803007369EA
:106DB40053B3184B009303AB174A1849184815F0FE
:106DC40025FC034610B1184606B070BD154817F0EF
:106DD400E5F80146124815F045FC03460028F2D1B7
:106DE400114817F09DFA03460028ECD10E4817F01D
:106DF400CDFA01460A4815F035FC03460028E2D1D5
:106E0400FFF756FF0346DEE70723DCE77844040078
:106E1400342F0020E96C02004C2F0020B8320020EF
:106E2400843100206C2F00203431002008B5064B3B
:106E34001B683BB112F0E6FD002803DB024B1B6824
:106E44009847F7E708BD00BFF832002010B50C469C
:106E5400144B1860144A012114481BF05DF878B9EA
:106E6400610CE00341F26F7200238B4208BF82423F
:106E74000BD24FF47A7200231CF023FF014605E085
:106E84000B4A4A2114F06EFFEAE705210022094863
:106E94001BF058F800B910BD054A4B2114F062FFED
:106EA400F9E700BFF8320020316E02008444040088
:106EB40088440400FC32002008B5134B1B6873B1EE
:106EC4004FF0A042D2F80435104909684B40C2F88B
:106ED40004350D4A1368013B136023B108BD00203B
:106EE40014F032FFECE70A481BF04AF84FF0A042D6
:106EF400D2F804350549096823EA010305490968FC
:106F04000B43C2F80435E9E71C330020203300208A
:106F1400243300204C3300204FF0A043D3F8042541
:106F2400012303FA00F002420CBF18460020704708
:106F340031B1012383404FF0A042C2F80C357047B1
:106F4400012383404FF0A042C2F80835704721B1B5
:106F54004FF0A043C3F80C0570474FF0A043C3F8AB
:106F6400080570475AB338B51346132900D838BDFD
:106F7400134A10605B00013B124A13604FF0A043B8
:106F8400D3F804351840104B186000254C0CC80386
:106F94004FF47A72002310F5FA7044EB05011CF0EB
:106FA40090FE2A46014609481AF0CCFF0028DED19B
:106FB400034B1A684FF0A043C3F80C25D7E770477A
:106FC400203300201C3300204C33002024330020C5
:106FD40008B504481AF0D4FF0021034B1868FFF7E2
:106FE400B6FF08BD243300202033002008B50D234C
:106FF4000BE04FF0A04103F5E072032041F82200BA
:1070040001229A40C1F808250133102BF1D9054A11
:10701400012105481AF080FF00B908BD14F094FE60
:10702400FBE700BFBD6E0200E4440400F0B1104A67
:107034001060002309E00F4AD25C02F5E0724FF0C1
:10704400A0410D4841F822000133032BF3D90B4B27
:107054004FF00042C3F804230020C3F87C01084B1E
:10706400C02283F8062340221A6070470E2070471E
:1070740044330020E84404000C0003000060004096
:1070840000E100E010B50024144BC3F87C4103E098
:10709400D11A14E00134E4B2032C1ED84FF0A043FB
:1070A400D3F810250E4B195D01238B409343F1D087
:1070B4000C4B1B680C4AD2F80425991AE8D443F205
:1070C40033339942E6D9084BD3F80425054B1A60AB
:1070D400064B1B6820469847DCE710BD0060004063
:1070E400E8440400483300200010014044330020E9
:1070F400002869D02DE9F043CFB00646334B1B6816
:1071040013F4804F03D0324B1B68032B0BDC2F4B43
:107114001B6813F4804F03D02D4B1B68032B2ADC10
:107124004FB0BDE8F08300230F2B0FD8F25C294940
:107134000D6810095900285C0DAC04F8130002F026
:107144000F020131AA5C62540133EDE70DAA00235A
:107154008DF8543003F1804303F58833D3F80435B4
:1071640002921D4A01921D4A009241221C490420A8
:1071740006F072F8CBE71B4BD3F80435B288F188DC
:10718400307A747AB57AF77A96F80CC096F80DE0EE
:1071940096F80E8096F80F90CDF82C90CDF82880B4
:1071A400CDF824E0CDF820C0079706950594049007
:1071B40003910292326801920B4A009246220849D6
:1071C400042006F049F8ABE7704700BF6C2E00209E
:1071D400682E0020702E00204C45040060450400F9
:1071E40039450400001001406845040072DF70470F
:1071F40073DF704774DF70472DE9F047A2B007468C
:1072040088469146314C0026C4F80660E681304930
:107214000B78C3EB43102F4D054425602E4A0244DE
:10722400A2601F22A280A281013303F001030B702C
:107234004FF03C0A5246314613A81CF0B1FE062317
:107244008DF84F30ADF8487001238DF84A30ADF811
:107254005C3012AA1892ADF83C70ADF84090CDF8AD
:1072640044800DEB0A021D928DF878305246314667
:1072740068461CF095FE02238DF80030221D294635
:1072840013A814F01BF890B9104B03F10C02996881
:10729400684614F013F868B9104A0C491048FFF70F
:1072A400A5FF082809D070B922B0BDE8F08714F012
:1072B4004BFDE9E714F048FDEEE7002203490848D6
:1072C400FFF794FFEFE714F03FFDEDE79433002060
:1072D4005033002054330020A4330020002E00201B
:1072E400FC2D0020B0F5202F04D2074BA3FB002374
:1072F400DB0801E04FF6FF7308B103B90123034A29
:1073040093819160704700BFCDCCCCCC002E00207F
:1073140008B50121054B1878FFF76AFF18B900205A
:1073240004F084FB08BD14F00FFDF8E7FC2D0020E9
:1073340008B5044B1878FFF75DFF00B908BD14F0D9
:1073440003FDFBE7FC2D002076DF70477ADF7047F2
:107354007CDF704708B514F0F7FC08BD08B503F0EE
:107364004FFC08BD00B583B0037823B1012B0BD0CB
:1073740003B05DF804FB3B214088FFF7E5FF0028DC
:10738400F6D014F0E1FCF3E7094B1B6813F4804FCB
:10739400EED0084B1B68032BEADD074BD3F804350A
:1073A400064A009268220649042005F055FFDFE7EB
:1073B4006C2E0020682E002000100140244604009A
:1073C4000946040000B583B014F04CF968B90023F1
:1073D400019301A9012014F07DF848B901A814F023
:1073E400CBF840B903B05DF804FB14F0ADFCEEE754
:1073F40014F0AAFCF2E714F0A7FCF3E700B585B09B
:107404009DF80C30012262F3030362F307138DF835
:107414000C3010220F4903A8FFF79AFF98B90023F4
:10742400ADF808307823ADF80430C823ADF8063041
:107434004FF4C873ADF80A3001A8FFF787FF28B9E5
:1074440005B05DF804FB14F07FFCE8E714F07CFC65
:10745400F6E700BFA845040000B58BB00023ADF8E3
:1074640008307822ADF80420C822ADF806204FF485
:10747400C872ADF80A200693079301AB039340F654
:10748400CD4304934FF48033059303238DF81830D0
:10749400064B0893064B099303A814F0C9FA10B9D4
:1074A4000BB05DF804FB14F04FFCF9E769730200BC
:1074B400597302000620704700B587B041F20103FA
:1074C40098424CD020D944F2010398425DD044F252
:1074D4000203984274D1464B1B6813F4804F1ED0AC
:1074E400444B1B68002B1ADD434BD3F8043510883A
:1074F4000390526802920191404A00926C224049E2
:10750400012005F0A9FE0AE0012859D1384B1B6877
:1075140013F4804F03D0374B1B68002B12DC4FF061
:10752400A0434FF4F032C3F81825C3F80C25EFF349
:10753400108372B64DF6AD6C324B1B78002B54D0D1
:1075440030BFF9E72C4BD3F80435029201912E4A4F
:10755400009260222A49012005F07EFEDFE7244BD9
:107564001B6813F4804FDAD0224B1B68002BD6DD46
:10757400214BD3F8043502920191244A00926322EC
:107584001F49012005F068FEC9E7194B1B6813F475
:10759400804FC4D0174B1B68002BC0DD164BD3F8AB
:1075A4000435106804905068039002919268019227
:1075B400174A009277221249012005F04DFEAEE7EA
:1075C4000B4B1B6813F4804FA9D00A4B1B68002B8C
:1075D400A5DD094BD3F8043501910E4A00927B22B4
:1075E4000749012005F038FE99E707B05DF804FB70
:1075F4006C2E0020682E002000100140F04604008C
:107604009D460400182E0020B0460400CC46040019
:10761400104704003447040000B583B00023ADF8DC
:107624000030054B01936A46014644F20200FFF71D
:1076340043FF03B05DF804FB3047040010B4034675
:10764400044C006859689A68DB680FC45DF8044B01
:10765400704700BFE43300200B4B0C4A92E8030050
:1076640083E8030003F10802094903C982E803001F
:10767400DA79042161F30712DA711A7A022161F3CB
:1076840087121A72704700BFE433002060000010B4
:10769400A400001000487047E433002000231F2B8F
:1076A40009D8074901EBC30000224280426001F877
:1076B40033200133F3E7034B00221A60704700BF05
:1076C400F4330020F434002030B405460F4B1B681B
:1076D40000240AE01F230E4A12F83300A0B102EB83
:1076E400C3025288AA4207D001341F2C0BD85A1E59
:1076F400002BEFD01346EEE7054A02EBC3025268B3
:107704008A42F1D100E0002030BC7047F4340020FC
:10771400F433002030B40A4A13680A4C04EBC3055E
:1077240068806960012104F833100B441360202B36
:1077340001D030BC7047134600221A60F9E700BF3D
:10774400F4340020F4330020C0F30C038B4204D241
:10775400C91A0144A1F500507047C91A084470477A
:10776400C37D002B42D0C3780A7802F0800203F074
:107774007F0313430B7002780B7803F07F0343EA13
:10778400C2130B700378002B41D030B48378082BDC
:1077940014BF002201224B7803F07F0343EAC21393
:1077A4004B70C58803F08003C5F3861423434B70E4
:1077B4008A7802F0030242EA8502D2B28A70057A1C
:1077C40002F0FC02C5F3C10422438A70CB7803F0B3
:1077D4001F0343EA4513DBB2CB70427A03F0E003A4
:1077E40002F01F021343CB7030BC7047C3780A7891
:1077F40002F0BF029B0103F0400313430B700279B4
:1078040003F0C00302F03F0213430B70B3E7704769
:107814000023032B2DD810B402E00133032B24D80A
:10782400C3EBC3021401144A224492F84820012AEB
:10783400F3D1114A2244948AC2899442EDD1C3EB14
:10784400C30214010C4A2244D2888A42E5D10A4A6E
:107854002244B2F8582012B1848AA242DDD1C3EB8B
:10786400C3031A010448104400E000205DF8044BEF
:1078740070470020704700BFAC350020002300E0B3
:107884000133032B14D8C3EBC3021101094A0A4480
:1078940092F84820022AF3D1064A0A44918A828A3D
:1078A4009142EDD1C3EBC3031A010248104470475F
:1078B40000207047AC35002008B904207047082028
:1078C400704730B403460C460978C1700021416208
:1078D400A1680B2903D8217B01B3012100E0012118
:1078E40019700020987029B1A1680731C9080139BD
:1078F400597218720121D97503F10C0504F11001B4
:1079040003C985E80300E1899982A1691962217F8D
:107914009975216AD9629A6230BC70470021DFE709
:107924000021174B1B688B4227D90023154A02EB11
:10793400C10252689A421ED910B40FE060685DF823
:10794400044B704701310E4B1B688B4211D9002345
:107954000C4A02EBC10252689A42F3D9094A52F81E
:10796400312002EBC30412F833208242E6D0013303
:10797400EEE70020E3E70131D3E70020704700BFC2
:10798400F8340020FC34002070B58CB006460D4657
:1079940014462C22002101A81CF002FB0F238DF8B1
:1079A4000430ADF808604FF0000365F300038DF870
:1079B4000A308DF80B4001A801F060FA0CB070BDDC
:1079C40030B58DB005460C462C22002101A81CF0D0
:1079D400E7FA10238DF8043002958DF80C4001A8C5
:1079E40001F04CFA0DB030BD00B58DB010B913F1F3
:1079F400020F06D1074B186804F040FA0DB05DF889
:107A040004FB01228DF80420029301A801F036FA48
:107A1400F0E700BF0C350020D0B50446037853B11D
:107A2400E3691F0A1E06E188A069FFF78DFE30187E
:107A340047F10001D0BD7846FFF7EEFDF0E7000006
:107A4400F8B50546002400E00134032C20D8C4EB2B
:107A5400C4031A010F4B134493F84830022BF3D19B
:107A64000C4B13449A8AAB8A9A42EDD12846FFF70D
:107A7400D3FF06460F46C4EBC4021301054818445D
:107A8400FFF7CAFF8F4208BF8642DDD2012000E023
:107A94000020F8BDAC350020F8B5064603783BB1AC
:107AA4003046FFF7B9FF04460D46B08A002304E0D0
:107AB4007846FFF7B1FDF3E70133072B0ED81A011F
:107AC40007498A5A8242F7D101EB0312D2E90267CD
:107AD400AF4208BFA642EFD1104600E00020F8BD37
:107AE4001035002038B504460D46037853B1002301
:107AF400072B0ED8A18A1A011248825A914205D046
:107B04000133F5E77846FFF787FDF0E71B01002115
:107B1400C1520D4A1368591C116003F00703A08A6F
:107B24001A010849885255B16278064D05EB0315D0
:107B3400AA702046FFF770FFC5E9020138BD002294
:107B4400F3E700BF1035002090350020F8B5069CFF
:107B5400002962D00F4616685568D2F808E0D2F8BA
:107B64000CC0E6602561C4F814E0C4F818C01669B6
:107B74005569E6612562002262700278D20922709A
:107B840062B30421B9424AD8E57D4DB3017801F0CE
:107B94007F01E1700021A1709AB14278920102F450
:107BA400FE52817842EA9102E2808278D20002F0A9
:107BB4001802C17842EA51122272C27802F01F02FE
:107BC40062721D46002363622B78032B21D82A7826
:107BD400144B53F82230E3620020F8BD0121D1E7B1
:107BE4000578C5F38015E570057805F03F05257126
:107BF40042B190F90110002902DB0421A170CBE706
:107C04000821FBE70425A5702944B942C4D90920F9
:107C1400E3E77846FFF700FDD9E70920DDE709200F
:107C2400DBE700BF5047040070B50C461E460378DE
:107C3400ABB104252A44A26000F10C032360836ADB
:107C44006360C36AE36000232374204604F094FC59
:107C5400034610B9626915443560184670BD0125A4
:107C6400E8E72DE9F0418EB00D4616461C468046E5
:107C740000282DD0002D2FD0002C31D0636A023380
:107C8400059304F10C00E378002B2DD00121A27898
:107C940001AF3B46082A14BF0022012204F033FA44
:107CA4000697CDF81C80B2B2ADF820200B95154490
:107CB4000C95A3788DF83430237B022B16D0002347
:107CC400ADF8283005A804F016FA0EB0BDE8F0812E
:107CD4007846FFF7A1FCCDE77846FFF79DFCCBE79C
:107CE4007846FFF799FCC9E70221D0E723692BB155
:107CF400236909931023ADF82830E3E77846FFF7AA
:107D04008BFCF5E72DE9F04188B004460D46C37DB0
:107D1400002B3CD0082605FB06F8637AAB4238D02A
:107D2400257201AB324602A92046FFF77DFF0746C4
:107D340048BB4DB994F8533033B9A369C3F30C036A
:107D4400E380012384F85330E37D7BB994F8523007
:107D540063B91DBBB4F84A10A27823468A1AE16EAF
:107D64000846FFF77EFF012384F852300799204626
:107D7400FFF7F6FCE16E3246414401981CF0E7F847
:107D840002A804F01FFC384608B0BDE8F0810C26B8
:107D9400C1E7B4F84A60A6EB0806C1E77846FFF7E6
:107DA4003BFCD7E770B505460E4609B100230B60CE
:107DB40095F85040002104E0631C85F850300134EC
:107DC400E4B26B7AA34210D3EA6C0123A3401A42B3
:107DD400F5D121462846FFF795FF014628B9002E24
:107DE400EAD0336801333360E6E7084670BDF0B586
:107DF40089B085781544C37D7BB10B239D4224D87B
:107E040016460F46044601AB2A4602A9FFF70CFFAB
:107E1400054620B1284609B0F0BD0F23EEE70799C7
:107E24002046FFF79DFCE37D43B132463946019875
:107E34001CF08DF802A804F0C5FBEBE7234632469C
:107E440001993846FFF70DFFF4E70925E2E7000042
:107E540010B5044690F84830012B0CD103F0FCF91E
:107E6400237B012B0BD0094BD968014404F130006A
:107E740003F0C8F910BD7846FFF7CEFBEEE7A37D0B
:107E8400024AD168126902FB0311EEE7943500201F
:107E940030B583B0002403E02846FFF7D9FF01344E
:107EA400032C19D8C4EBC4031A010C4B134493F8E4
:107EB4004830012BF3D100230193C4EBC402130116
:107EC400064D1D4401A92846FFF76CFF0428E3D0A2
:107ED400019B002BE3D0DFE703B030BDAC350020BD
:107EE40038B5044690F84830022B09D1064B1D687A
:107EF40003F0B2F9411904F1300003F083F938BDFD
:107F04007846FFF789FBF1E79435002038B504463D
:107F140090F84830022B10D10A4B5D7D5A689B685B
:107F240003FB052503F098F9411904F1500003F00F
:107F340069F9012384F8683038BD7846FFF76CFB93
:107F4400EAE700BF9435002010B50446808A02F0A9
:107F540081FC01281CD1237BE3B194F91620002A6B
:107F64001ADBE27D4AB1022B18D094F90330002BBE
:107F740016DBA378B3B900200BE0E2780AB9012B31
:107F840012D1237893B9A378042B11D1002000E0F7
:107F9400102010BD1020FCE70720FAE71020F8E7B6
:107FA4000720F6E70720F4E70720F2E70020F0E7D0
:107FB4000720EEE738B50446C2698169808A06F075
:107FC4002DFB054608B9284638BDE169002201F0B9
:107FD4000101A08AFFF7D8FCF5E700002DE9F0477E
:107FE40080460E4617464B1EDBB2012B0FD8B7F561
:107FF400C07F10D80024032C1AD8C4EBC4031A0180
:10800400304B134493F848304BB10134F3E77846CE
:10801400FFF702FBEBE77846FFF7FEFAEAE7DFF843
:10802400A4A015465544384608F009FCE86600E06B
:1080340000255DB3EB6E002B42D043462A4608F17F
:10804400300ED3F800C05C689868D968C2F800C0E4
:1080540054609060D160103310327345F1D1002325
:10806400EB64A5F84A70012E13D06FF00103AB62E4
:10807400002385F86830144BAB652D66134BAB6356
:108084002D64012002F0C6F885F848602846BDE852
:10809400F0870F4B1B7D85F85130002385F8523053
:1080A40085F8533085F85030D8F828206A65A5F84B
:1080B40058306FF00103AB62064BAB632D64E0E70D
:1080C4000025E3E7AC350020678A02001D84020026
:1080D400943500206984020000B585B000238DF832
:1080E4000F3098B10346084602330B600DF10F01BF
:1080F40004F005F89DF80F3043B10D4B1B6813F0E5
:10810400040F03D00B4B1B68032B04DC9DF80F00FA
:1081140005B05DF804FB084BD3F80435074A009218
:1081240040F237420649042005F096F8EEE700BF16
:108134006C2E0020682E00200010014070480400BE
:10814400634804002DE9F0438FB004460E461546FB
:108154001F46D0F81890037823B1C1884846FFF72A
:10816400F3FAA06104F10C00E378002B37D001216D
:10817400A2780DF128084346082A14BF00220122E0
:1081840003F0C1FFC4F81890CDF808800396A378D3
:10819400EA1A92B2ADF810203244089207978DF88B
:1081A40024300023ADF81830E37863B3237B022B2B
:1081B40017D02546002345F8243F2A462179206A12
:1081C4000FF0B4FB606A90B101A9FFF785FF0028A6
:1081D4003ED12A462179206A0FF0A8FBF2E702215A
:1081E400C6E71023ADF8183023690593E1E7237B34
:1081F400022B31D104F10C01E0890FF049FC002875
:10820400D4D1052025E0237B012B01D0052020E0DB
:10821400E389ADF80030A38AADF80230002500E010
:108224000135012D12D82146002341F8243F0EAB1D
:1082340003EB450333F8380C0FF095FB01A9606A92
:10824400FFF74AFF0028EBD0002002E0052000E001
:1082540000200FB0BDE8F0830520FAE770B5F0B058
:108264000D4614461E4610AB0A4601462046FFF74B
:1082740069FF50B1224B1B6813F0040F03D0214B4C
:108284001B68052B2FDC70B070BD2046FFF792FEF3
:108294000028F8D103AB01228DF80C20A28AADF896
:1082A4000E20002204928DF8142010AA0692A278BF
:1082B400AD1AADF81C5008AA93E8030082E8030045
:1082C4000AAB04F10C0292E8030083E80300A37DE7
:1082D4008DF83830236A0C93636A0D930F9605A8C2
:1082E40000F0CCFDCFE7084BD3F80435074A0092E1
:1082F40040F20E720649062004F0AEFFC3E700BF49
:108304006C2E0020682E00200010014094480400C8
:108314006348040010B50446C06E08F094FA04F1F2
:10832400300002F057FF94F84830022B0AD0702234
:10833400002120461BF034FE002084F8480001F0A0
:1083440069FF10BD04F1500002F044FFEFE710B5DF
:108354008CB0044690F84830012B0CD101238DF8E1
:108364000430636D029301A800F088FD2046FFF7F6
:10837400D1FF0CB010BD7846FFF74EF9EEE70000D0
:1083840030B585B00D460446D0B1E18894F8483044
:10839400022B19D094F84830022B1ED02946606D68
:1083A400FFF70EFB2046FFF7B5FF164B1B6813F0D3
:1083B400040F03D0144B1B68032B13DC05B030BD32
:1083C4007846FFF729F9E0E7637813F0020FE1D06C
:1083D4000022A08A1BF000F9DCE700212046FFF709
:1083E40081FBDBE7094BD3F8043594F84820029568
:1083F4000192074A009240F22E220649042004F01A
:108404002BFFDBE76C2E0020682E002000100140BB
:10841400604704006348040008B508460021FFF7DC
:10842400AFFF08BD08B5037B012B02D0FFF78FFF18
:1084340008BD0121FFF7A4FFFAE7000008B590F892
:10844400513053B1013B80F85130002380F8503053
:10845400034B186803F012FD08BDFFF7E3FFFBE7C9
:108464000C35002010B50C4691F84830012B03D18F
:108474002046FFF7E3FF10BD7846FFF7CDF8F7E796
:10848400062976D1F0B585B015460278910101F43C
:10849400FE5147788478C3781B0443EA0463047963
:1084A40043EA042344791C4356B241EA970128461F
:1084B400FFF7AEF90746E0B1002E2FDBC289A98A87
:1084C4008A422BD02B4B1B6813F0040F3ED02A4B4F
:1084D4001B68012B3ADD294BD3F804350291019234
:1084E400274A009240F28C622649022004F0B4FE2E
:1084F4002CE0204B1B6813F0040F27D01E4B1B6885
:10850400012B23DD1D4BD3F804351F4A009240F2A2
:1085140084621C49022004F09FFE17E0002E17DB42
:10852400FD6C2543FD64BCB13B78D3B17B7A5A1C06
:1085340001239340013B9D4217D0002187F850103E
:108544003846FFF72FFC3846FFF782FC05B0F0BD34
:10855400AB8AA7F85830E3E703213846FFF710FF4A
:10856400F4E77846FFF758F8E0E73846FFF7EFFE00
:10857400ECE770476C2E0020682E002000100140AC
:10858400C847040063480400984704002DE9F043F9
:108594008BB007460E4614461D461046FFF70AFDEB
:1085A40050B994F80380B8F1000F08D12B46224645
:1085B40031463846FFF764FF0BB0BDE8F083404610
:1085C400FFF7AEF981460028F6D08DF80480236ABF
:1085D4000793A38AADF8123005AB04F10C0292E8BC
:1085E400030083E80300A37D8DF8203002970396EF
:1085F40023788DF81030E36A0993294601A8C84707
:10860400DAE710B5547814F0010F03D0D47D14B117
:10861400FFF7BCFF10BDFFF721FEFBE7F8B50546E9
:108624000E4614461F46537813F0020F06D13B46FC
:108634002246711E681CFFF7E4FFF8BD0123C9B28E
:108644001AF01AFFF3E70000F0B5C7B086781644B5
:10865400C37D2BB14FF48073B3427ED3002303E078
:108664004FF4C073F8E70133032B19D8C3EBC304E9
:1086740025013C4C2C4494F84840012CF3D1394C4E
:108684002C44A58A848AA542EDD1C3EBC3042501F9
:10869400344C2C44E589C489A542E4D1082455E02E
:1086A40014460F4632460121FFF798FC0546002880
:1086B40055D022463946C06E1BF049FC0023459331
:1086C40045A92846FFF76EFB044608B1042840D1AB
:1086D400459B7BB9244B1B6813F0040F35D0234B07
:1086E4001B68032B31DDB5F84A70802F28BF802723
:1086F400002313E02846FFF7ABFBEBE7EA6ED25CFE
:108704001B490C6810095900265C04A800F8136082
:1087140002F00F020131A25C42540133BB42EDD39B
:1087240004AA002302F8173003F1804303F58833C9
:10873400D3F8043502920F4A01920F4A009240F294
:1087440071520E49042004F087FD0024204647B0EE
:10875400F0BD2846FFF7DEFDF8E70924F6E7042418
:10876400F4E700BFAC3500206C2E0020682E0020FA
:10877400702E00200C480400604504006348040087
:1087840070B504460D461646FFF7DEFB034638B9BE
:1087940023783BB1324629462046FFF755FF03466E
:1087A400184670BD324629462046FFF720FB034693
:1087B400F6E7000038B504460D46CB695B780371D3
:1087C400CB691B7883F00103C370CB6943628B8A46
:1087D4000B2B07D8CB7A002B3DD10B7B012B02D07E
:1087E400002300E001232370002B39D0287B0228CA
:1087F40033D0FFF761F8A070AB8A03440B331B48F6
:1088040080FB03235B10013B63720023237200236C
:10881400E37504F10C0395E8030083E80300AB69F6
:1088240023622B89A382AB7AA3752B6AA362DF230D
:10883400E36228460FF0A6FA20B12B78012B12D060
:10884400FF23E36220461AF09FFE18B1E36A43F067
:108854002003E36238BD0123C5E7054B987DC8E7D3
:108864000423A370D3E72023EBE700BFABAAAA2A13
:108874009435002010B54FF4E072002113481BF02A
:108884008FFB05F07DFF0024114B1C6080222146E4
:1088940010481BF085FB104B104A1A60104A5A60AE
:1088A4004CF250329A600F49D9601A6104221A7549
:1088B4009C7508225A750C4803F0C0FA0B4B1860DB
:1088C4000B4B1C600B4806F05FF810BDAC35002064
:1088D40090350020103500209435002080969800B3
:1088E400F049020020A10700598A02000C3500203B
:1088F400F8340020ED79020008B505F087FE08BDC4
:1089040098B110B58CB00446036983B1C36983B1CF
:10891400836983B101466846FFF74CFFA28A216947
:108924006846FFF72DFF0CB010BD0E2070470E20D7
:10893400F9E70E20F7E70E20F5E790B110B58CB0FB
:10894400044642687AB182697AB10A4601466846A9
:10895400FEF7B7FFA26861686846FFF711FF0CB025
:1089640010BD0E2070470E20F9E70E20F7E7000037
:10897400037B012B01D00020704710B58CB000237D
:108984000193CDF80730C288C2F3861492008DF8A3
:1089940001200A0E8DF802200A0C8DF803200A0A21
:1089A4008DF804208DF805104278022A14BF0022A5
:1089B400012244EAC2148DF80040062205920122E5
:1089C4008DF81C20828AADF81E2008938DF80C3097
:1089D400CDF810D0026A09928DF81830C389ADF829
:1089E4001A30C36A0B93837D43B98DF828306FF036
:1089F400010103A8FFF7A1FF0CB010BD024B5B7D82
:108A04008DF82830F3E700BF9435002090F8483003
:108A1400022B00D0704790F86830022BFAD110B5C1
:108A24000446C16CFFF7A4FF10B9002384F8683032
:108A340010BD000010B5002407E0C4EBC40213010C
:108A440003481844FFF7E2FF0134032CF5D910BDA5
:108A5400AC35002008B5FFF71BFAFFF7EBFF012048
:108A640008BD10B50C4691F84830022B06D10223FC
:108A740084F868302046FFF7C9FF10BD7846FEF73A
:108A8400CBFDF4E72DE9F0438FB00646FEF7D8FF9F
:108A9400002840F08E803046FEF7FEFF074600288F
:108AA4003CD13046FEF7EAFE044658B13046FEF7A4
:108AB400B3FF804689462046FEF7AEFF494508BF0E
:108AC400404553D3002C75D1757A6B1CF27D002A76
:108AD40052D0082505FB03F5002A4FD04FF48073CC
:108AE400AB424ED3F188B069FEF72EFEF26901461F
:108AF400B08A05F0EFFD00285CD12A4602213046F9
:108B0400FFF76CFA0446002854D100213046FFF7E1
:108B14002FFF02210020FEF753FF4BE002AC354645
:108B24000FCD0FC40FCD0FC495E80F0084E80F00DC
:108B3400BB788DF809307BB19DF8083073B19DF88E
:108B440011104B1C01219940013902A8FFF710FFB5
:108B5400BB7813F0010F05D100242BE07846FEF713
:108B64005BFDECE73046FFF725FAF5E705212046E3
:108B7400FFF706FC0024A7E70C25ABE74FF4C0730E
:108B8400AEE70E4B1B6813F0040F03D00C4B1B68AD
:108B9400002B01DC00240DE00A4BD3F804350195C9
:108BA400094A009240F292320849012004F054FB31
:108BB400F0E7002420460FB0BDE8F0836C2E0020BF
:108BC400682E00200010014084470400634804001C
:108BD4002DE9F04782B007460E46154698461046E2
:108BE400FFF750FF00284ED004464F4B1B6813F08C
:108BF400040F03D04D4B1B68032B47DC2046FFF7C3
:108C04006FF9237B012B4FD0E26C297A01238B402F
:108C14001A4238D11343E364A6F1040A2B7AEA7D9D
:108C2400002A49D04FF0080C0CFB03FC617A8B42FC
:108C340045D0002A48D00823534547D1A269AB69DF
:108C44009A420BD204F10C0E05F10C09B9E80F009D
:108C5400AEE80F0099E803008EE80300E06E524688
:108C6400391D60441BF073F96B7813F0020F32D195
:108C7400E66C2378002B35D0637A5A1C0123934089
:108C8400013B9E4232D002B0BDE8F087284BD3F8B6
:108C940004352A7A0192274A00924FF471722649C8
:108CA400042004F0D9FAA9E794F86830002BABD17A
:108CB4002046FFF72BF9A7E74FF00C0CB4E70CEBB9
:108CC4000A03A4F84A30B9E70C23B5E70421204687
:108CD400FFF756FBD7E701232A46F1B238461AF0CC
:108CE400CBFBC5E77846FEF797FCC5E7E16C204669
:108CF400FFF73EFE6B7813F0020F0ED14346224677
:108D0400B4F84A10E06EFFF77CFC01212046FEF720
:108D1400E9FE2046FFF7FEFAB5E70122E988A88AB2
:108D24001AF05AFCEAE700BF6C2E0020682E0020DF
:108D34000010014084480400634804002DE9F04118
:108D440090B000284CD08046002A4BD01F461446D1
:108D54000E4604AB00933B46FEF7F8FE054618B1F9
:108D6400284610B0BDE8F08104A8FFF7EDF80546E9
:108D74000028F5D12269E168208905F0ABFC0028C0
:108D8400EED104A81AF000FC28B19DF8113043F08C
:108D940002038DF8113000230293039302A9608823
:108DA4000EF076FE38B19DF8113043F001038DF8D2
:108DB4001130039B08939DF81130002BD0D09DF8FF
:108DC400103033B13B4604AA31464046FFF700FF5A
:108DD400C6E73B4604AA31464046FFF71FFCBFE7FF
:108DE4000E25BDE70E25BBE718B3F8B50546174BAE
:108DF4001F68012F1FD80E460024B4420ED205EB83
:108E0400C4035B68CBB115F8340010F0800F16D1A1
:108E1400B8B1FEF785FDB0B90134EEE70C4B43F869
:108E2400375003EBC7035E600137084A1760002020
:108E340002E00E2070470420F8BD0E20FCE70B2052
:108E4400FAE70F20F8E70F20F6E700BFF834002018
:108E5400FC340020084B196861B110B504E00648E1
:108E640004F063F9214624B10C680B79002BF9D086
:108E7400F5E710BD704700BF7037002038B50546D0
:108E840030B1104B1C68ACB10F4B01221A7004E0D6
:108E94007846FEF7C1FBF4E724683CB12379002B44
:108EA400FAD154F8043C28469847F5E7064B1B785A
:108EB400022B00D038BDFFF7CDFF034B00221A7000
:108EC400F8E700BF703700206C37002010B5044667
:108ED40030B100232372211D034804F0FBF810BDB8
:108EE4007846FEF799FBF4E77037002010B5044686
:108EF40058B10A4B1B78013BDBB2012B09D8074B55
:108F040002221A700123237210BD7846FEF784FBF7
:108F1400EFE7211D024804F008F9F5E76C3700205B
:108F2400703700200A8883689B5A07339BB223F06A
:108F3400030313449BB20288043A934200D90023EA
:108F44000B80704710B582B004468368C91AADF827
:108F540006100DF10601FFF7E5FFBDF80630A06825
:108F6400184402B010BD0088043880B270474388AA
:108F74008268D018D152012383707047826800231D
:108F84009370438083807047073189B221F00301D5
:108F940089B2428883889A4204D29B1A99421EDC81
:108FA4000020704710B59A420FD90488A41AA14230
:108FB40017D98B4217D3032C03D983681344042293
:108FC4009A7000234380184604E0826813449B7817
:108FD4000BB1042010BDFFF7D1FF0020FAE70420F5
:108FE40070470020F6E70420F4E738B504460D4640
:108FF4008368828813448B4202D07846FEF70CFBC8
:109004000023AB70211D2046FFF78CFFA288A368C4
:1090140013449B78042B00D038BD0023A380FBE7C6
:1090240010B50C468368428813448B4202D07846BC
:10903400FEF7F2FA0023A37010BD70B5064615467C
:109044000C46002944D0002E46D0B4F1005F08D964
:109054004FF08053D3F80C3103F50023B4EB832F86
:109064000ED3B4F5000F08D94FF08053D3F80C3168
:1090740003F50053B4EB832F02D37846FEF7CCFA02
:109084006B1E2344B3F1005F08D94FF08052D2F82D
:109094000C2102F50022B3EB822F0ED3B3F5000F9F
:1090A40008D94FF08052D2F80C2102F50052B3EBEC
:1090B400822F02D37846FEF7AFFA042D10D93580FB
:1090C40000237380B380B460043D2580A37070BD19
:1090D4007846FEF7A1FAB6E77846FEF79DFAB4E7BC
:1090E4007846FEF799FAEAE738B50446A0B16288F3
:1090F400A36813449B78012B12D0EFF3108572B64A
:10910400A388A16819448B78032B0DD02046FFF760
:1091140035FF05B962B638BD7846FEF77DFAE6E755
:109124007846FEF779FAE8E72046FFF70BFFA368D5
:10913400C31A638000238370EBE72DE9F0410E46E8
:1091440015460446D0B1EEB16288A36813449B78F7
:10915400012B1BD025B32046FFF705FFA84221D3DE
:10916400EFF3108872B629462046FFF70DFF074635
:1091740080B1B8F1000F16D162B614E07846FEF75C
:109184004BFAE0E77846FEF747FADDE77846FEF764
:1091940043FADFE729462046FFF7E9FE3060E8E7B7
:1091A400092700E009273846BDE8F081F8B50C46E8
:1091B40016460546E0B1FCB1A378012B20D12388E3
:1091C400B34221D326B3EFF3108772B6268002236D
:1091D400A370E9182846FFF7A5FE6B88AA88934276
:1091E40003D0AA68134400229A7007B962B6F8BD86
:1091F4007846FEF711FADEE77846FEF70DFADBE76C
:109204007846FEF709FADAE77846FEF705FAD9E771
:109214007846FEF701FAD6E770B50D46044690B1DC
:10922400ADB1EFF3108672B6A288A36813449A789E
:10923400042A10D09A78022A15D0032A18D00520BF
:1092440006B962B670BD7846FEF7E6F9E8E77846F7
:10925400FEF7E2F9E5E7211D2046FFF763FEA28849
:10926400A3681344E6E703229A702B600020E7E723
:109274007846FEF7D1F90020E2E738B5044680B11C
:10928400EFF3108572B6A088A16801448B78042B93
:109294000BD08878022814BF0020012005B962B6DB
:1092A40038BD7846FEF7B8F9EAE72046FFF74AFEEC
:1092B4000146EEE738B5044678B1EFF3108572B68F
:1092C400A088A16801448878C31EDBB2012B08D8AA
:1092D4002046FFF737FE0146F5E77846FEF79CF98E
:1092E400EBE7022814BF0020012005B962B638BD9F
:1092F40070B50C46064678B194B1EFF3108572B69A
:10930400A378012B10D0032B13D121463046FFF74D
:109314006CFE05B962B670BD7846FEF77DF9EBE7E1
:109324007846FEF779F9E8E721463046FFF778FEFC
:10933400EFE77846FEF770F9EBE710B5EFF310842A
:1093440072B68388816819448B78042B06D0887898
:10935400B0FA80F0400904B962B610BDFFF7F2FD1F
:109364000146F4E708B5064B986800221A605A6073
:109374009A60DA601A615A619A6104F057FF08BD75
:109384007437002000B585B00A4BDB6802228DF8E3
:10939400002001934FF480530293074A6946012049
:1093A40001F06EF918B9012005B05DF804FB002046
:1093B400FAE700BF743700209037002000B585B06D
:1093C4000A4B1B6802228DF8002001934FF480534E
:1093D4000293074A6946012001F052F918B90120A5
:1093E40005B05DF804FB0020FAE700BF94370020C5
:1093F40090370020164BDA68137951795B1A03F51C
:109404007F2303F6FF7302EB03339A4205D002F580
:1094140080520F4BDA600320704700B585B00D4BC6
:109424001B6801208DF8000001930B4B0393042368
:1094340002930A4A694601F023F918B1002005B0E5
:109444005DF804FB024B01221A760220F7E700BF05
:10945400743700209437002098370020903700207C
:1094640000B585B00C4BDA680C4B1B680433012043
:109474008DF800000192039340F6FC730293084AAE
:10948400694601F0FDF818B90120034B187600E095
:10949400002005B05DF804FB7437002094370020E9
:1094A4009037002000B585B00A4B1B6801208DF869
:1094B40000000193084B039304230293074A69466F
:1094C40001F0DEF818B9012005B05DF804FB0020B6
:1094D400FAE700BF9437002080370020903700203F
:1094E40010B584B0104BDA681478104B1B68043341
:1094F40001208DF800000193039202940C4A6946FE
:1095040001F0BEF868B9094B1B6804F0FC041C4464
:109514000434054B5C61D9680A780A441A61012055
:1095240000E0002004B010BD743700209437002000
:109534009037002008B50023092B09D8064A52F8B1
:109544002320824201D00133F6E7044A536002E04B
:109554007846FEF761F808BDC0480400743700205F
:1095640010B5214BDB6853B11F4B1B7E5BB91E4BFF
:109574005B68092B26D97846FEF74EF822E0784638
:10958400FEF74AF8F0E77846FEF746F8EFE7164AA2
:10959400536801335360092B21D97846FEF73CF810
:1095A4001DE0114B00225A6019E00F4B1B7E1BB1CA
:1095B4000D4B02221A7012E0FFF7D4FE0FE00A4BA3
:1095C4001B7E83B9084B5A68084B53F822309847DE
:1095D40004460228E9D00328E3D00128D7D0012C7F
:1095E400EDD0032CEBD010BD74370020C04804002C
:1095F400104B1B681B685A1E12F1030F18D8C3F3D3
:109604000B020AB10020704710B50B4AD360002347
:10961400137653760124147093600848FFF78AFF89
:109624000749204601F01AF8FFF79AFF204610BDBB
:10963400002070479437002074370020899302007B
:109644004996020008B50B78032B06D00B4B1B7808
:10965400012B06D0022B0BD008BD084B00221A7632
:10966400F4E7064B1B7E002BF6D1FFF779FFF3E7F7
:109674000B78032BF0D1FFF775FEEDE7743700206C
:1096840000B585B0174BDB6818784FF6FF7203F509
:109694008051184405F02EF9F0B10246114BD968F7
:1096A4000B780B44984219D00E4B5B7E93B10E4B52
:1096B40001208DF8000001920393042302930B4AC6
:1096C400694600F0DDFF58B90120064B187605B055
:1096D4005DF804FB064BEBE70120F8E70120F6E711
:1096E4000020F4E774370020384B04009037002042
:1096F400344B040008B5104BDB681878002203F5DE
:109704008051184405F0F6F808B1012008BD0A4B51
:10971400DA68137951795B1A03F57F2303F6FF7333
:1097240002EB03339A4205D002F58052024BDA6011
:109734000320EBE70220E9E774370020F0B585B099
:10974400514BDD686A792B79591E8A4214D005F58C
:1097540080510C780C444D490968081D0E79064463
:109764009B1A05EB03356388013B9BB247F6FE6207
:10977400934260D927461BE00120434B58767EE094
:109784007846FDF749FF16E027F47F6323F00F03C3
:1097940003F580531A7813449D4247D99C4247D21B
:1097A4005A88013A92B21F4647F6FE618A4210D99E
:1097B4003B88002BE4D03B8807EB830323F47F62D0
:1097C40022F00F029342DFD07A88B2F5FE4FE3D144
:1097D400DAE71C462FE07846FDF71EFF16E027F473
:1097E4007F6323F00F0303F580531A7813449D42DB
:1097F40020D99C423BD25A88013A92B21F4647F67E
:10980400FE618A4210D93B88002BE4D03B8807EBE9
:10981400830323F47F6222F00F029342DFD07A881D
:10982400B2F5FE4FE3D1DAE71C4604E0002402E07F
:10983400002400E00024E4B1144B1968628801F5A7
:109844008051304605F056F8064690B101200E4B83
:1098540018768DF8000001940D4B039304230293B2
:109864000C4A694600F00CFF58B92746CBE70024A0
:10987400E1E7B4FA84F46409034B5C76012005B093
:10988400F0BD0020FBE700BF7437002094370020B0
:10989400304B0400903700202DE9F04186B0644B32
:1098A4001B6923B1624B5B692BB1002748E0784602
:1098B400FDF7B2FEF6E77846FDF7AEFEF5E778462B
:1098C400FDF7AAFE17E028F47F6323F00F0303F5E6
:1098D40080531A7813449E421FD99C4221D25A883D
:1098E400013A92B2984647F6FE618A4213D9B8F813
:1098F4000030002BE3D0B8F8003008EB830323F4E6
:109904007F6222F00F029342DDD0B8F80220B2F554
:10991400FE4FE0D1D7E71C4600E000241CB10094C0
:1099240038E00024FAE700230093019B002B5AD16E
:109934000127002C76D0628847F6FF739A4271D0D3
:10994400002F73D13A4B5A6922F47F6525F00F0535
:10995400AD1A05F580551C69DE68337972799B1A56
:1099640006EB0336002301936388013B9BB247F661
:10997400FE629342D3D9A046B9E77846FDF74CFE80
:1099840023E024F47F6424F00F0404F58054237846
:1099940023441C46A642C8D92388019A02EB8302B9
:1099A4009542C2D9009B634023F47F6323F00F03E5
:1099B400002BBAD16388013B9BB247F6FE618B4210
:1099C400B3D801922388002BD7D0238804EB8303D8
:1099D40023F47F6222F00F029342D2D06288B2F560
:1099E400FE4FD6D1CDE7124A526901208DF8080006
:1099F4000392009A059204930E4A02A900F040FED5
:109A040070B90B49019B23F003024B6913444B616A
:109A140014B1074B1C618CE77846FDF7FDFDF8E7B0
:109A2400002000E0012006B0BDE8F0810120FAE743
:109A3400743700209037002008B54FF010235B697D
:109A4400B3F1FF3F09D04FF010235B692BB14FF006
:109A540010235B69A3F5805305E04FF080525169F0
:109A6400136903FB01F3A3F58053024A1360FFF764
:109A7400BFFD08BD9437002010B50446B0B1104BAB
:109A84001B78BBB10E4BD968E3685879A3EB00325D
:109A9400914211D31A79121A02F57F2202F6FF724B
:109AA40003EB0233994209D8012004E07846FDF71C
:109AB400B3FDE4E7002010BD0020FCE70020FAE736
:109AC40074370020024B1878003018BF012070470B
:109AD4007437002010B504460E4B1B7893B92378D5
:109AE400032B13D10B4B9C60E268DA6000225A60AE
:109AF4001A76012018705A76074900F0AFFDFFF777
:109B04002FFD10BD7846FDF787FDE8E77846FDF7A1
:109B140083FDE7E77437002049960200014B18687B
:109B2400704700BF9437002010B5044680B16368C5
:109B34001BB123680BB1A36813B97846FDF76CFD1C
:109B4400A3685A1E134207D10023E360236110BDAA
:109B54007846FDF761FDEAE77846FDF75DFDF3E73A
:109B640070B5F0B104468368EBB1EFF3108572B6BB
:109B74000369C068834210D0084621686268A668F9
:109B8400013E334003FB021108B11AF0E0F92369E6
:109B9400013323614DB962B608E005B962B6052503
:109BA40004E00E2502E0092500E00025284670BDEA
:109BB400C0F30B033BBB41B301F6FF71090B144B1C
:109BC4000222C3F80425124BD3F80034002BFAD038
:109BD400002202E000F5805001328A4208D20C4B88
:109BE400C3F808050A4BD3F80034002BFAD0F1E788
:109BF400074B0022C3F80425054BD3F80034002B8F
:109C0400FAD000207047102070470920704700BF29
:109C140000E0014010F0030F2FD111F0030F2FD1FA
:109C240082B312F0030F2FD110B49208174B012402
:109C3400C3F80445154BD3F80034002BFAD002E0E6
:109C4400043004312246541E52B10B68B3F1FF3F75
:109C5400F6D003600D4BD3F80034002BFAD0EFE7B5
:109C64000A4B0021C3F80415084BD3F80034002B29
:109C7400FAD010465DF8044B704710221046704726
:109C84001022FBE70922F9E70922F7E700E0014087
:109C94004388012B05D0022B01D104300860012038
:109CA400704704304860FAE708B5082202210848E2
:109CB40004F02DF938B1074A91684160127B0272B1
:109CC40004F05EF908BD044804F088FAFAE700BF1E
:109CD400A4370020F03700202C2E00200E4B1B78D8
:109CE400CBB910B50D4B5C6804F50054B4F1807F1A
:109CF40000D910BD04220121094804F008F930B14B
:109D04004460054A0121117004F03AF9F1E705486D
:109D140004F064FAEDE7704704380020F0370020BF
:109D2400A43700201C2E002010B5044608B1A0471B
:109D340010BD7846FDF770FCF9E7000008B5012175
:109D44000C4804F045F920B902210A4804F040F90E
:109D540028B1094804F042FAFFF7C0FF08BD074ADA
:109D64000023136053609360D3601361044A13703B
:109D7400F2E700BFA43700204C2E0020F03700206B
:109D8400C837002000B58DB00B4B1B7B012B0ED0C8
:109D9400094A926804928DF80830039002238DF8E2
:109DA400043001A8FFF76AF80DB05DF804FB024A1D
:109DB4009268013A0492EEE7F037002010B58CB0B7
:109DC4000C4682B94B88012B20D1134B1B7833B13D
:109DD4006268124B5A60104B00221A7016E07846E3
:109DE400FDF71AFCF4E7032A12D12C22002101A862
:109DF4001AF0D6F811238DF804300394084BDA686E
:109E040005921B69069301A8FFF738F80CB010BD42
:109E14007846FDF701FCE8E704380020F03700201D
:109E2400A437002000B583B001F090FF0021009119
:109E340001916B46134A144803F05EFF009B63B123
:109E4400019A52B1186811498860187908739342CD
:109E54000BD950B900220A600AE00C4B00221A60A8
:109E64009A601A73FFF720FF02E01268074B1A602A
:109E7400064B1A685A60FFF731FF01F0ABFF03B0DD
:109E84005DF804FB959C0200A4370020F037002005
:109E940008B504F0F7F9A0F5805008BD00B587B007
:109EA4000023009301930293039304930593FFF714
:109EB400EFFF009001230193064B03936946064884
:109EC40004F03DF910B907B05DF804FB034804F051
:109ED40085F9F8E7C19D0200A43700203C2E00203C
:109EE40010B50B4B00241C605C609C60DC601C6142
:109EF40001F0B2F9074B5860074A9A60074ADA60E2
:109F04001C615C61064B1C70FFF7C8FF10BD00BFED
:109F1400F0370020CC37002055A0020000879303BF
:109F24000538002008B5084B1B7803B108BD074865
:109F3400074B036000F05CFE064801F025F9024B74
:109F440001221A70F2E700BFA0370020E437002096
:109F54007DA10200CC37002010B501F0F7FE164BAE
:109F64001B7B0BBB144B9B7B1BBB134B1A8A41F211
:109F740082639A4204D8114B1B782BB1012300E071
:109F840001231BB9082410E00023FAE70A4B01223D
:109F94001A7300241C829A6801329A60FFF784FEC7
:109FA4002046FFF7EFFE00E0082401F013FF2046EF
:109FB40010BD0824F9E700BFF03700200538002061
:109FC40010B501F0C3FE204B5B7B9BB11E4B9B7B0A
:109FD400F3B91D4B1A8A41F282639A4204D81B4B8F
:109FE4001B782BB1012300E001239BB1012302E084
:109FF4000023FAE700231C460BB3134B00225A73C9
:10A004001B7B4BB1012B0ED07846FDF705FB16E008
:10A014000023F0E70023EEE7FFF79EFF78B17846D0
:10A02400FDF7FAFA0BE0084B00201860586018732B
:10A034001882FFF7A7FEFFF737FEFFF74FFE01F088
:10A04400C9FE204610BD00BFF037002005380020AF
:10A0540008B5214B1B7B7BB1012B20D07846FDF743
:10A06400DBFA1D4A138A013313821B4B5B8A13B13B
:10A07400013B194A538208BD174B1A8A41F2826385
:10A084009A4204D8154B1B783BB1012300E001230D
:10A09400002BE6D0FFF794FFE7E70023F8E70E4B29
:10A0A4001B8A41F28262934204D80C4A127872B13C
:10A0B400012200E00122002AD3D042F2B0129342DE
:10A0C40007D9054B01225A73FFF77AFFCDE7002227
:10A0D400F1E7FFF775FFC4E7F037002005380020EB
:10A0E40010B5244B1B7B002B35D10446214B5B8AD6
:10A0F4002BBB1AB91F4B9B688B4205D3FAB11D4B7E
:10A104009B6801338B421AD21A4B9B682A338B42C9
:10A1140023D3184B9B7B03BB164B996000221A6018
:10A124005A601A8242F6065159825A731A73FFF71B
:10A13400BBFDFFF7D3FD2046FFF724FE0DE062B11F
:10A144000C4B9B6801338B4207D10A4B01225A7393
:10A15400FFF736FF01E0012B00D010BD002AFCD12F
:10A16400044B9B688B42F8D1024B01225A73FFF7D0
:10A1740027FFF2E7F03700200378042B00D0704764
:10A1840043681B78002BFAD010B58468027E437EA6
:10A19400012A14BF00220122416904F11000FFF7D3
:10A1A4009FFF10BD10B5184B1A685B689A4226D2FF
:10A1B4000446154B1B7B012B14D0144B9A4213D22B
:10A1C400114B1A685B68403B9A4215D2EFF3108139
:10A1D40072B60D4A1368581C1060236001B962B648
:10A1E400002010BD0A4BE9E7074B01225A73FFF721
:10A1F400E7FE0028EAD1E3E7FFF770FDE6E7FFF7A3
:10A204006DFD0F20EDE700BFF0370020FFFF7F005A
:10A2140000E0FF0008B538B10D4B01229A730D4AD6
:10A2240013680133136008BD0A4B1B685BB1094A0C
:10A234001368013B1360002BF5D1054B00229A7380
:10A24400FFF7BEFEEFE77846FDF7E6F9EFE700BF5C
:10A25400F03700209C37002000B58DB0ADF8080021
:10A264008DF81020039103238DF8043001A8FEF724
:10A2740005FE0DB05DF804FB014B9868704700BF04
:10A28400F0370020054B1B7B012B02D0034B986851
:10A294007047024B98680138704700BFF0370020C0
:10A2A400044B9B68584010F0010F00D0013B184646
:10A2B400704700BFF0370020014B187B704700BF88
:10A2C400F037002038B50B4B1B780BB1082038BD94
:10A2D400084B01221A70084DA8602973FFF7E4FCAB
:10A2E4000020FFF74FFD00242C606C60FFF7F6FCA4
:10A2F4002046ECE7C8370020F03700202DE9F04174
:10A30400002722E02449BC2303FB04F3CA5A013288
:10A31400CA520221404602F020FD01360221404685
:10A3240002F0EBFC70B11C4ABC2303FB04239D68C0
:10A33400002DE7D0BC2303FB04F3D25A0146384670
:10A34400A847DFE796B90137FFB2022F20D83C4671
:10A35400BC2303FB07F308330F4D1D4405F1040828
:10A364000221404602F0C9FC0026DBE700214046FA
:10A3740002F05BFD0828E6D1074BBC2202FB043443
:10A38400A368002BDFD00022044938469847DAE757
:10A394000120BDE8F08100BF10380020E848040027
:10A3A40008B5082383731023437300F11C0343612E
:10A3B4000323037300F1180303610C3002F007FD5B
:10A3C40008BD000008B50378012B06D0022B06D087
:10A3D4007846FDF721F9002002E0292000E0014839
:10A3E40008BD00BF084C010008B50278012A07D057
:10A3F400022A13D07846FDF70FF94FF4FA7308E0F8
:10A4040083685B1A9B0803EB830003EBC00303F52B
:10A41400FA730748984228BF184608BD83685B1A38
:10A42400180B044B03FB00F303F5FA73F1E700BFC9
:10A4340060850100084C010038B5044601210C3048
:10A4440002F05BFC054678B1084BC4F89C3000234D
:10A45400C4F8A0306168FFF7C7FFC4F8A800C4F8C7
:10A46400AC40012384F8B830284638BD91A50200D9
:10A4740010B50446FFF7E0FF20B104F19C000EF094
:10A48400F7F900B910BD7846FDF7C6F8FAE7000001
:10A49400F8B506460C46174615680378012B18D103
:10A4A4001249A1FB043149098900B468641B8C4238
:10A4B40000D30C468CB1706825F00305F168224680
:10A4C40029442844FFF7A6FB58B93B681C443C6068
:10A4D400F8BD7846FDF7A0F8E2E77846FDF79CF86A
:10A4E400E9E77846FDF798F8EFE700BF7D0CCEC7A3
:10A4F400F8B507460C46164615680378022B16D1A4
:10A50400114BA3FB04231B0C1B03BC68641B9C4260
:10A5140000D31C467CB1786825F003052146284405
:10A52400FFF746FB58B933681C443460F8BD7846DD
:10A53400FDF772F8E4E77846FDF76EF8EBE7784646
:10A54400FDF76AF8EFE700BFEB0661C538B50546CD
:10A554000C4611462378012B06D0022B0FD07846E7
:10A56400FDF75AF8002304E0021D2046FFF790FF90
:10A57400A3686868984214BF0020012038BD021DFA
:10A584002046FFF7B5FFA368F3E700002DE9F84381
:10A594008846D1F8A860234B1B7863B90546A6F515
:10A5A400FA7601F10C090121484602F0A6FB0746A0
:10A5B40040B1002424E00EF097F9002388F8B83065
:10A5C400BDE8F8837846FDF727F8F2E70EF08CF93A
:10A5D4000121484602F0C1FB0023C8F8043088F882
:10A5E400B830114B186801F049FC4046FFF740FFB2
:10A5F400E6E72C1A3846FFF7E5FE2044B0420BD8B4
:10A60400321B39464046FFF7A1FF0028DED101F096
:10A6140075FA441BEED5ECE70EF066F94046FFF7F9
:10A6240027FFCDE70C3800200838002010B5084873
:10A6340001F004FC074B18600024022C07D8064BD9
:10A64400BC2000FB0430FFF7ABFE0134F5E710BD7E
:10A6540001A30200083800201038002038B5044651
:10A664000D46022805D8054BBC2202FB0434A56024
:10A6740038BD7846FCF7D0FFF5E700BF103800205E
:10A684002DE9F84306460C461746022816D8CCB1E5
:10A694002378012B1AD0022B3ED16368C3F30B033A
:10A6A400002B31D1A368C3F30B03002B30D1A36873
:10A6B400002B34D17846FCF7AFFF30E07846FCF746
:10A6C400ABFFE4E77846FCF7A7FFE1E7636813F024
:10A6D400030F0DD1E36813F0030F0DD1A36813F03A
:10A6E400030F0DD1A368D3B97846FCF795FF16E0A4
:10A6F4007846FCF791FFEDE77846FCF78DFFEDE730
:10A704007846FCF789FFEDE77846FCF785FFC9E753
:10A714007846FCF781FFCAE77846FCF77DFFEFF344
:10A72400108872B6BC2505FB06F505F108032A4D11
:10A734001D4404350021284602F0DFFA814678B32F
:10A744000021284602F009FB20686168A268E368DA
:10A75400C9F80000C9F80410C9F80820C9F80C3079
:10A764002FB11D4ABC2303FB06235B883B801A4A96
:10A77400BC2303FB06235A8801325A8093F8B8306D
:10A7840083B9164B1B7813B10024A1460CE0124B7D
:10A79400BC2000FB0630FFF74FFE8146002403E097
:10A7A400042401E00024A146B8F1000F00D162B6F0
:10A7B400B9F1000F09D0BC2000FB06F69836064814
:10A7C400304404300EF054F810B92046BDE8F88344
:10A7D4007846FCF721FFF8E7103800200C380020F9
:10A7E40038B50446EFF3108572B610B9164B1B68E2
:10A7F40073B18CB1144A136801331360124B1B6894
:10A80400003318BF0123114A137005B962B638BD6D
:10A814007846FCF701FFECE70B4B1C68013C1C601D
:10A8240034B1EBE7BC2000FB0420FFF721FE013428
:10A83400022CE3D8064ABC2303FB042393F8B83064
:10A84400002BF4D1EEE700BF443A00200C3800207E
:10A854001038002018B1830B024AD05C70470020E6
:10A86400704700BFF848040012DF704700B583B09A
:10A874001378A3B1022B14D0002110F8013C163B2D
:10A88400152B31D8DFE803F0593030303030303018
:10A8940030303030303030303030302E0F3A517D5F
:10A8A400EBE70721E9E7022901D007291CD110F8B9
:10A8B400021C013901F03CFFB0B1264B1B6813F0B8
:10A8C400400F11D0244B1B68012B0DDD234BD3F813
:10A8D40004350190224A009293222249022002F078
:10A8E400BBFC01E0022902D003B05DF804FB10F8C0
:10A8F400021C0139C9B213F073FBF5E70229F3D145
:10A9040010F8021C0139C9B203F072FF0028EBD021
:10A91400104B1B6813F0400FE6D00F4B1B68012B44
:10A92400E2DD0E4BD3F8043501900F4A0092A622C3
:10A934000C49022002F090FCD6E701884FF6E4634C
:10A944009942D1D110F8021C03390230FCF7B2FD50
:10A95400CAE700BF6C2E0020682E002000100140C2
:10A96400784904006B490400A449040070B58AB016
:10A974000EF034FD48B3064600238DF8103005ACC4
:10A9840005460FCD0FC42B682360727D052A04D9B8
:10A99400337D03F00F03072B1ED1174B1A688AB1BE
:10A9A40004AB0393337DC3F303038DF80430737D49
:10A9B400062B1BD9063B8DF8053006F11D030293C7
:10A9C40001A8904730460EF0E9FC0EF023FD80F01C
:10A9D4000100C0B20AB070BD307D04AB063A06F186
:10A9E4001D0100F00F000DF041FAD6E700238DF8A9
:10A9F40005300293E4E700BF4C3A00200B4B1B7870
:10AA0400032B00D0704700B58DB0084B04221A7098
:10AA14002C22002101A819F0C3FA1C238DF804305C
:10AA240001A8FEF72BFA0DB05DF804FB483A0020AC
:10AA340070B582B0354B1B78002B5CD100285ED0FA
:10AA4400067A0F2E01D0062E5BD1044605F0F6FEE1
:10AA5400E06870B1FCF7F2FD0DF10700FFF704FFA9
:10AA64000546002848D19DF80730012B04D0022563
:10AA740042E0FCF7F1FDEFE7FCF710FE00F070FB9D
:10AA8400304601F011F9E07800F094F900F002FF8B
:10AA94000DF070FE1E480EF059FD0DF089FBFFF716
:10AAA400C5FD04F0A5FF00F055FD05F087FE05F097
:10AAB4004FFC204601F048FDFDF7DCFE04F09AFA55
:10AAC400FCF7F8FC08B106281DD112480DF0B0F9C6
:10AAD4002A200DF041FA2B200DF03EFA29200DF02A
:10AAE4003BFA16200DF038FA0B4B00221A60074B84
:10AAF40001221A7000E00825284602B070BD0E2518
:10AB0400FAE70725F8E70546F6E700BF483A0020CC
:10AB140071A902005C2E00204C3A002010B582B0CE
:10AB24001E4B1B78012B0DD05AB282B3033BDBB210
:10AB3400012B2ED80DF08CFE044658BB174B022275
:10AB44001A7027E00EF008FC01F010FDFDF7D4FEAA
:10AB5400FCF7B0FC0446B8B1062815D0104B1B68AE
:10AB640013F4804F16D00F4B1B68012B12DD0E4BD4
:10AB7400D3F8043501900D4A009240F2A7120C4913
:10AB8400022002F069FB05E001F0BAF8D2E70824DC
:10AB940000E00824204602B010BD00BF483A00205F
:10ABA4006C2E0020682E002000100140FC48040098
:10ABB4006B49040008B50A4B1B78022B02D008230A
:10ABC400184608BD064B03221A7006480DF0F4FD22
:10ABD40003460028F4D07846FCF71EFD0023EFE777
:10ABE400483A002001AA020008B5FDF789FE08BD15
:10ABF40008B5FEF76BF908BD08B5FEF777F908BD8F
:10AC040008B500F00DFE002008BD08B507F01CF9DA
:10AC140008BD0000064A136801331360B3F1704F96
:10AC240002D0034B18687047134601221A60F8E7F4
:10AC3400503A002010B5044618B100232360636025
:10AC440010BD7846FCF7E8FCF7E738B50C46054636
:10AC540068B184B100236360EFF3108372B62A688D
:10AC64006AB16A6854606C6003B962B638BD7846EC
:10AC7400FCF7D2FCEDE77846FCF7CEFCEAE72C6063
:10AC8400F1E710B5044658B1EFF3108372B62068AB
:10AC940008B142682260226832B103B962B610BDBD
:10ACA4007846FCF7B9FCEFE76260F6E710B50446B6
:10ACB40008B1206810BD7846FCF7AEFCF9E738B55A
:10ACC4000C46054688B1A4B12046FFF7EFFF58B102
:10ACD4002846FFF7EBFF80B16B6822685A6063680F
:10ACE4006B602046FFF7A6FF38BD7846FCF794FC5E
:10ACF400E9E77846FCF790FCE6E794E8030085E88A
:10AD040003002046FFF796FFEEE7037A13B1002312
:10AD14000372704743681B6804334360704710B57F
:10AD240084B00446416803681A1D91420DD06368DB
:10AD340018682268516888421CD063681A6852688F
:10AD44001A600123237204B010BD019302930023FF
:10AD54008DF80C30029B1B68002BE8D062681268E7
:10AD64009A4203D001A8FFF7D0FFF3E701A8FFF749
:10AD7400D6FFE8E7934202D0043B5360DDE70023AB
:10AD84005360DAE735DF704708B54FF0FF30FFF75F
:10AD9400F9FFBFF34F8F0549CA6802F4E062044B20
:10ADA4001343CB60BFF34F8F00BFFDE700ED00E01E
:10ADB4000400FA05072814D8DFE800F0080C15048D
:10ADC400110F0A066420704714207047FA20704758
:10ADD4001E2070474FF4FA707047322070474B20A2
:10ADE4007047FA207047962070470000024B58685D
:10ADF400103840B2704700BF00ED00E00346002861
:10AE04000FDB5B11084A52F82330424200F01F0066
:10AE140002F01F0258BF504223FA00F000F0010074
:10AE2400704700F11F03ECE700E100E046DF7047E4
:10AE3400F8B504460D464B1EDBB2012B09D800229F
:10AE440022616261A261E2612046FFF7EFFF012007
:10AE54000AE07846FCF7E0FBF1E7CB7B5B00CB73C1
:10AE6400002F14DB0130C0B2A84217D8214611F9D3
:10AE7400207F00230E2BF0D8CA5CCE185200D2B229
:10AE8400767842EAD612CA5401339BB2F2E794F8B8
:10AE94002F3083F0870384F82F30E3E7F8BD2DE9E2
:10AEA400F04190B084460C4696461F4602F10F06C8
:10AEB40036111FFA86F804AD0068DCF80410DCF8DB
:10AEC4000820DCF80C300FC50EF00F05B8F1000FA8
:10AED40002D07DB1002300E00023984663B1012134
:10AEE40004A8FFF7A5FFB8F1000F1AD0701E0001E7
:10AEF40010230EE00123F0E70221F1E7013B9BB2AE
:10AF04002218D25C10A9194411F8101C4A400DF8FB
:10AF14000320002BF2D100250C950D950E950F956D
:10AF240026E0711EADB22A4604EB0111684619F001
:10AF34000EF880230DF805306B1C03E000220DF899
:10AF4400032001330F2BF9DD10230AE0013B9BB2F0
:10AF54001DF8032010A9194411F8101C4A400DF8DB
:10AF64000320002BF2D1D6E704A8FFF75FFF0135D9
:10AF7400731EAB420FDD28011023002BF4D0013BDC
:10AF84009BB210AA1A4412F8102C2118C95C4A402A
:10AF940008A9CA54F1E710230AE0013B9BB210AAA6
:10AFA400D11811F8402C11F8101C4A4008A9CA54B1
:10AFB400002BF2D104A8FFF739FF0CAC0FCC38609A
:10AFC4007960BA60FB6010B0BDE8F08110B504464A
:10AFD400134B1B684BB14068114B1B685B68C31A69
:10AFE400002B02DB0E4B19680DE00D4B1A686261F1
:10AFF4001C600B4A938801339BB2938063B1012395
:10B00400237010BD19464B691BB15A68121A002AE5
:10B01400F8DB63614C61ECE77846FCF7FDFAEEE798
:10B02400583A002038B505461CE07846FCF7F4FA97
:10B034006369204A13600023636193889BB2591E9D
:10B0440089B29180F3B1A36803B302232370A36888
:10B0540021692846984700F0FFF805462378DBB2BB
:10B06400022B17D0134B1B681BB3124B1B685B6876
:10B074005B1B642B1DD50F4B1C682378DBB2012BA3
:10B08400D6D0D2E77846FCF7C7FADCE77846FCF777
:10B09400C3FADAE7E26812B900232370E2E76368CF
:10B0A400134463605B1B642BF9D42046FFF78EFFC7
:10B0B400D8E738BD583A002010B50446144B1B6835
:10B0C400834207D0124B1B68D3B15A69A2420ED0F7
:10B0D4001346F9E743690E4A136093889BB2591EDD
:10B0E40089B2918063B97846FCF796FA08E0626900
:10B0F4005A6107498B889BB25A1E92B28A8013B157
:10B104000023237010BD7846FCF786FAF8E700BFE9
:10B11400583A002008B5064B1B6833B1044B1B6832
:10B124000449586800F046F908BD00F0A1F9FBE7AE
:10B13400583A002055B1020008B500F08DF8FFF729
:10B1440071FF00F089F8FFF7E5FF012008BD00005A
:10B1540008B5024B186800F091FE08BD543A00206F
:10B1640008B5064B00221A605A60054800F066FED6
:10B17400044B186000F063F808BD00BF583A002083
:10B184003DB10200543A002010B5044600F04AFFD5
:10B1940080B19CB1A368ABB12378DBB2012B15D08D
:10B1A400002363612046FFF711FF00F055F8FFF715
:10B1B400B1FF10BD7846FCF72FFAEAE77846FCF7B2
:10B1C4002BFAE7E77846FCF727FAE5E77846FCF739
:10B1D40023FAE5E710B5044600F024FF50B16CB142
:10B1E4002046FFF769FF0023636100F035F8FFF79D
:10B1F40091FF10BD7846FCF70FFAF0E77846FCF7AC
:10B204000BFAEDE738B504460D4600F00BFF70B1BC
:10B214008CB12046FFF750FF002363616560204630
:10B22400FFF7D4FE00F018F8FFF774FF38BD784636
:10B23400FCF7F2F9ECE77846FCF7EEF9E9E708B534
:10B2440016F0BEFE00B108BD16F02EFE0028FAD09E
:10B254007846FCF7E1F9F6E770B4EFF3108172B6C3
:10B26400184B1A68184BD3F80455D3F80431012B42
:10B2740022D001B962B645EA026500266B01EA0EE6
:10B284005B1B62EB0602510241EAD3515802431997
:10B2940041EB0600810141EA93619A01D31A61EB03
:10B2A40000005B1946EB000013F580437041DB0B93
:10B2B40043EA404070BC7047034BD3F80455013255
:10B2C400D7E700BF603A00200010014010B50A4BD8
:10B2D4004FF40032C3F84823C3F80823074B1B6814
:10B2E4002BB1064B1C68FFF7B7FFA04710BD78468B
:10B2F400FCF792F9F5E700BF001001406C3A00201A
:10B30400EFF3108172B6264B0022C3F80421254ABC
:10B3140013680133136001B962B6234B1B68002B19
:10B324003DD0214B1A68013A1A601B68002B36D1B4
:10B3340003F1804303F58833D3F804251B4B1B68C2
:10B344009A421ED2EFF3108272B6154BD3F804352D
:10B354000133164909688B4210D3114BD3F80435D5
:10B3640002330F49C1F8443502B962B60C4B4FF4AD
:10B374000032C3F84423C3F8042370470B4B1B6803
:10B38400EFE710B50A4B1B682BB1094B1C68FFF79C
:10B3940063FFA04710BD7846FCF73EF9F5E7704718
:10B3A40000100140603A0020643A0020683A00200E
:10B3B4006C3A002030B583B00446002301930D4657
:10B3C400002936D0244B1D60FFF746FF031B002BDA
:10B3D40033DB0023590CD803204C214A00230019E5
:10B3E4004FF0000444EB010118F06BFCEFF3108301
:10B3F400019372B61B4BD3F80435022838BF0220E0
:10B40400C3F1FF1202F57F42824218D30344154A66
:10B41400C2F844354FF40033C2F84433C2F804335D
:10B42400114A1460114A1460019B03B962B603B057
:10B4340030BD7846FCF7F0F8C4E7231ACAE70344A2
:10B4440003F17F4301331A0E013207490A6023F0E6
:10B454007F43064A1360E7E76C3A002020A1070007
:10B4640040420F0000100140643A0020683A002076
:10B47400074B4FF40032C3F84823C3F808230023D2
:10B48400044A1360044A1360044A1360704700BFFF
:10B4940000100140643A0020683A00206C3A002011
:10B4A40030DF704731DF704710B402684368A2EBA5
:10B4B4007312846883EAF4330360C1680C44446003
:10B4C400114481601344C36018465DF8044B70470F
:10B4D40070B582B00D46064608B100240BE07846EC
:10B4E400FCF79AF8F9E79DF807103019FFF7DAFF2F
:10B4F4009DF807301C44A5420DD90DF10700FFF754
:10B50400CFFF9DF80730002BF7D02A1B9342EAD9CE
:10B514008DF80720E7E702B070BD000030B583B0B6
:10B5240005460024019404210DEB0100FFF7D0FF30
:10B53400074B2B60019B6B60AB60EB6003E028461C
:10B54400FFF7B2FF0134132CF9D903B030BD00BFAB
:10B55400ED5EEAF1704748DF704749DF70474ADF24
:10B5640070470000044B01225A7143F2B0629A60A2
:10B5740043F69822DA607047BC3A0020094B032254
:10B584001A74094A5A611A6840F6D8639A4204D96F
:10B59400054B43F2B0629A607047034B40F6D862A1
:10B5A4009A6070479C3A0020BC3A002008B50F4BC3
:10B5B4001B78022B12D0032B08D0012B03D0784622
:10B5C400FCF72AF80EE0022303740BE0084B002278
:10B5D4005A71084999600849D96082710323037438
:10B5E400034B4361014B00221A7008BDCD3A002081
:10B5F400BC3A0020A0860100FF1FA10738B504460D
:10B6040000250574012343710E4A13680133136046
:10B6140000F0D2FA0DF0E2F923680B4A11682831E0
:10B6240001FB03F1094AA2FB0121A3EB9141084A62
:10B634007839284600F03CFA00B938BD7846FBF763
:10B64400EBFFFAE7D03A0020B83A002083DE1B4330
:10B6540081B5020010B5044600238360C36003680B
:10B664000D4A92680260817991B10121017403B994
:10B674000A4B991A6161B1F57A7F01D39A4202D9D2
:10B684004FF47A736361FFF76DFF0123A37110BD5B
:10B69400FFF7B4FFF7E700BFBC3A0020809698009C
:10B6A40010B50C4631B1C3680133C3604269036805
:10B6B4001344036083680133836001220274426986
:10B6C40052084261012B0DD0022B19D04269036844
:10B6D400134417498B4222D840F6D7639A4221D8A3
:10B6E40000231DE0B2F5FA7F05D040F6D8639A42F4
:10B6F400ECD84361EAE7002CF7D100234361E5E786
:10B70400C368022B06D0012BE0D1002CDED100232C
:10B714004361DBE70268064B9B1A4361D6E70023CB
:10B7240013B110BD0123FBE7FFF768FFF9E700BF82
:10B734008096980043791BB90D4B00221A7070470C
:10B7440010B504460DF066F920680A4B1B682833CF
:10B7540000FB03F3084AA2FB0323A0EB93407838D1
:10B7640000F05AFA00236371014B00221A7010BDD5
:10B77400CC3A0020B83A002083DE1B4308B5254BA1
:10B7840001221A71244B1B7813B1244B1B781BB371
:10B79400204B00221A7404281AD8DFE800F003149E
:10B7A400110C07001B48FFF755FF1CE00121194845
:10B7B400FFF776FF17E000211648FFF771FF12E04C
:10B7C4000DF0B8F80FE000F0B9F90DF0EDF80AE06B
:10B7D4007846FBF721FF06E000F090F90D4B186066
:10B7E4001846FFF7E3FE0B4B1B7C023BDBB2012B3D
:10B7F40008D9084B1B7C022B08D006480023037190
:10B80400103008BD0348FFF795FFF2E7014B012212
:10B814001A76F2E79C3A0020CD3A0020CC3A002078
:10B8240008B50438042814D8DFE800F018261403F7
:10B834000E00164B1B7E012B0BD1FFF78EFE40B181
:10B844007846FBF7E9FE04E0104B00221A760DF06F
:10B8540005F908BD7846FBF7DFFEFAE7FFF782FE3D
:10B864000B4840F6D8638360FFF779FE0028F0D0D8
:10B874007846FBF7D1FEECE70548FFF770FE002899
:10B88400E7D07846FBF7C8FEE3E700BF9C3A002008
:10B89400BC3A002010B40E4A002313701371012126
:10B8A400517143F2B064946043F69824D460094A19
:10B8B4001060094A1370094A1370094A1360094A4F
:10B8C400137153711360137691715DF8044B7047D3
:10B8D400BC3A0020B83A0020CC3A0020CD3A0020EF
:10B8E400D03A00209C3A002008B5104B1B7E012B57
:10B8F40009D05AB21AB1022B16D0002008BD0C4848
:10B90400FFF729FE40B90B48FFF729FE40B9074B62
:10B9140002221A760020F1E77846FBF77DFEF2E773
:10B924007846FBF779FEF2E71120E7E79C3A00201E
:10B9340081B70200BC3A00200B4B1B7C023BDBB2FC
:10B94400012B0BD9094B1B78012B09D0022B09D0F1
:10B95400032B01D00020704701207047012070475D
:10B9640001207047012070479C3A0020CD3A002006
:10B97400014B1868704700BF9C3A00200D4B5B795F
:10B984000BB90020704710B50A4B1C680A4B1B68A2
:10B99400283303FB04F3094AA2FB0323A4EB9344D7
:10B9A400783C00F0ABF80346201A00D410BD181BF5
:10B9B400FCE700BF9C3A0020B83A002083DE1B431A
:10B9C400014B5879704700BF9C3A0020014B18790D
:10B9D400704700BF9C3A0020024B187E003018BF0D
:10B9E400012070479C3A0020EFF3108372B6054A99
:10B9F400527922B1044A4FF48071C2F8001103B99C
:10BA040062B670479C3A002000E100E008B5054B9F
:10BA14001B7E022B00D008BD034B01221A70FFF7D6
:10BA2400E3FFF8E79C3A0020CD3A002008B5074B25
:10BA34001B7E022B00D008BD012805D00222044B36
:10BA44001A70FFF7D1FFF6E70322F8E79C3A0020CB
:10BA5400CD3A002008B5094B1B782BB148B9084BE7
:10BA64001B7813B1012300E00023044A107013B9BA
:10BA740008BD0023F9E7FFF7B7FFF9E7CC3A002048
:10BA8400CD3A002010B4094B00F15002002443F8D1
:10BA9400224000F110040122A240C3F8042300F55F
:10BAA400A87043F820105DF8044B704700800040F4
:10BAB400022817D810B5EFF310840C4B1C6072B633
:10BAC4000B4B43F820200B4B002243F820200A4B59
