:020000022000DC
:1060000000F003206D630200556302005763020035
:10601000596302005B6302005D6302000000000040
:106020000000000000000000000000005F630200AC
:106030006163020000000000636302006563020008
:106040006763020067630200676302006763020020
:1060500067630200676302002DB7030067630200F5
:1060600067630200C1B20300598303006763020043
:1060700067630200676302006763020067630200F0
:1060800067630200DD2B0400F9C1020067630200B0
:10609000412C04006763020089C3030067630200A8
:1060A00067630200676302006763020067630200C0
:1060B0006763020067630200000000000000000048
:1060C00067630200676302006763020067630200A0
:1060D0006763020067630200676302006763020090
:1060E000676302006763020067630200000000004C
:1060F0000000000067630200000000006763020008
:10610000000000000000000000000000000000008F
:10611000000000000000000000000000000000007F
:10612000000000000000000000000000000000006F
:10613000000000000000000000000000000000005F
:10614000000000000000000000000000000000004F
:10615000000000000000000000000000000000003F
:10616000000000000000000000000000000000002F
:10617000000000000000000000000000000000001F
:10618000000000000000000000000000000000000F
:1061900000000000000000000000000000000000FF
:1061A00000000000000000000000000000000000EF
:1061B00000000000000000000000000000000000DF
:1061C00000000000000000000000000000000000CF
:1061D00000000000000000000000000000000000BF
:1061E00000000000000000000000000000000000AF
:1061F000000000000000000000000000000000009F
:10620000344935480A1A02D0072291438D46334952
:1062100033480A1A06D00722914381F309880222E3
:1062200082F314882F483049304A00F042F8304851
:106230003049314A00F03DF830483149314A00F0E8
:1062400038F831483149324A00F033F831483249A0
:10625000324A00F02EF832483249334A00F029F829
:1062600032483349334A00F024F833483349002296
:1062700000F02AF832483349002200F025F832486D
:106280003249091A082902DB0022026041601F48D6
:106290001F49884205D00268043003B4904703BC0C
:1062A000F7E700208646EC4600200021284A904768
:1062B000FEE7884207D0521A05D0037801300B70F0
:1062C0000131013AF9D17047884202D002700130A1
:1062D000FAE7704700F0032000E8032000F00320F5
:1062E00000F0032018520400A02D0020642F00208D
:1062F000A4630200A46302006A310400185204007F
:10630000A02D0020A02D002094320400943204001F
:106310009432040094320400943204009432040055
:10632000943204009432040016520400DC5304003A
:10633000642F0020642F0020642F0020B458002018
:10634000B4580020B4580020B4580020B45C002099
:1063500071680200FEE7FEE7FEE7FEE7FEE7FEE704
:10636000FEE7FEE7FEE7FEE7704700BF094880470B
:1063700009484FF007018843854608488047084888
:10638000016841F470010160BFF34F8FBFF36F8F5D
:10639000FFF736BF6963020000F0032085C70300E2
:0463A00088ED00E0A4
:1063A40041DF7047014B1B680B8070478C2F002026
:1063B40000B58BB02022002101A81CF06FFE012340
:1063C4008DF8043007238DF8073006238DF80C3040
:1063D400084B0593084B0993084901A80AF060FB90
:1063E40010B90BB05DF804FB054AFA2116F0C0FAA7
:1063F400F7E700BFD565020001650200642F0020A5
:106404009833040000B583B0294A042146F2010000
:1064140006F0B4FF274B1B6813F4804F03D0264BC0
:106424001B68032B21DC1CF00DFC50BB01F060F950
:1064340001F07AF901F0A6F9FFF7BAFF00221F492B
:106444001F4814F0E5FC10BB1D4814F0DEFC1D4B86
:106454001880184B1B6813F4804F03D0164B1B682D
:10646400032B17DC03B05DF804FB174BD3F804359A
:10647400164A00924FF480721549042006F09AFFE0
:10648400D1E7144A4FF4817116F072FACEE716F090
:1064940061FAD9E70C4BD3F8043501900E4A009207
:1064A4004FF488720A49042006F084FFDAE700BF3B
:1064B40055D30200C82E0020C42E0020382E002000
:1064C400AC320400882F0020001001404C3304003B
:1064D4001B340400983304007833040008B5002109
:1064E400044800F0E7FD00B908BD034A832116F013
:1064F4003FFAF9E7A02D00209833040000B583B0DB
:106504000C4B1B6813F4804F03D00B4B1B68032BFD
:1065140004DCFFF7E3FF03B05DF804FB074BD3F89B
:106524000435074A0092EC220649042006F042FF93
:10653400EFE700BFC82E0020C42E00200010014049
:10654400243404001B34040008B50A4B196001F517
:106554000041094B1A8801FB02F1084A82FB01320F
:106564000A44C917C1EBE23292B20021044814F084
:1065740007FC08BD8C2F0020882F0020018000809C
:10658400AC32040000B583B00C4B1B6813F4804F8D
:1065940003D00B4B1B68032B04DC0AF0CFFA03B0C7
:1065A4005DF804FB074BD3F80435074A00928A22AE
:1065B4000649042006F0FEFEEFE700BFC82E0020C7
:1065C400C42E002000100140443404001B34040095
:1065D40008B503781C2B00D008BDFFF7D3FFFBE7F9
:1065E40030B587B06421154800F0E2FE144B1B78E7
:1065F4005BB1144814F0E6FC01F0E2F900F00EFF80
:106604000AF08EFAA0B907B030BD6C460E4D0FCD1E
:106614000FC495E8030084E80300684600F066FEB2
:106624000028E6D0094A40F2231116F0A1F9E0E768
:10663400064A4FF4957116F09BF9E4E7616802008D
:10664400642F0020AC320400943204009833040018
:1066540000B585B01A4B1B6813F4804F03D0194B57
:106664001B68032B12DC01F05FF801F08BF803A820
:1066740010F016F8124B1B6813F4804F03D0114B23
:106684001B68032B0DDC05B05DF804FB0E4BD3F83F
:1066940004350E4A0092DC220D49042006F08AFEDD
:1066A400E1E7094BD3F80435BDF80C200192094AFF
:1066B4000092E7220649042006F07CFEE3E700BFCF
:1066C400C82E0020C42E00200010014060340400B5
:1066D4001B3404007C34040070B584B00446514B70
:1066E4001B6813F4804F03D04F4B1B68032B08DC4B
:1066F400012C1ED08CB1032C29D0012C45D904B017
:1067040070BD4A4BD3F804350190494A009299224E
:106714004849042006F04EFEEAE7474B1B6813F590
:10672400804F04DDA3F58043434A1360E5E7434B00
:10673400FAE7414B1B6843F6FE72934204DC03F50F
:1067440080433D4A1360D8E747F6FF73F9E70AF040
:1067540099F998B9334B1B6813F4804FCDD0324B61
:106764001B68032BC9DD314BD3F80435344A00923E
:10677400BB223049042006F01DFEBEE70BF010FEDC
:106784000AF076F9FFF7FEFEB7E72B4BB3F90030BA
:1067940003F500432B4A128803FB02F32A4A82FBC7
:1067A40003121A44DB17C3EBE23292B200212748EA
:1067B40014F0E6FA264800F05FFC0446194B1B6807
:1067C40013F4804F03D0184B1B68032B16DC002CEA
:1067D40095D0144B1B6813F4804F90D0124B1B6858
:1067E400012B8CDD114BD3F804350194194A009226
:1067F400CC221049022006F0DDFD80E70B4BD3F8D4
:1068040004550D4B1E680021104814F0F7FA02904D
:106814000196114B00932B46C9220649042006F029
:10682400C9FDD4E7C82E0020C42E0020001001406A
:10683400B43204001B3404008C2F00200080FFFFBE
:10684400C8320400882F002001800080AC3204008C
:10685400A02D00201C330400003304003038042829
:1068640000D9704708B5FFF737FF08BD08B5FFF733
:10687400C9FDFFF7B5FEFFF793FDFCE708B5034B31
:1068840053F820300846984708BD00BFFC35040083
:1068940008B5034B53F820300846984708BD00BF9D
:1068A4000C360400C06F003018BF0120704790F808
:1068B4008030012B03D9022B0FD000207047836F47
:1068C400013B13F1030F04D8D0F884301BB9002026
:1068D40070470020704701207047836F013B13F11C
:1068E400030F04D8B0F984301BB90020704700208E
:1068F40070470120704710B582B0044630301BF059
:106904008EFE0023A36794F88030022B03D0B4F9E1
:106914007630A4F87430B4F97430ADF80030B4F9BA
:106924007630ADF8023000230193694620461BF00F
:106934002FFDA36EB4F974102046984702B010BD21
:1069440090F88030022B01D10020704770B50446C6
:1069540030301BF038FE4D01430145EAD0621B1A6A
:1069640062EB0102950045EA93759E002A463318AE
:1069740041EB0202D50045EA5375D9000B46D80B0A
:1069840040EA4540E90BA26F0023994208BF9042B8
:1069940001D3012070BD0020FCE70000F0B583B0F6
:1069A400044690F88030022B3FD0B0F97650B0F90D
:1069B4008860AD1BB6B230301BF005FE4F014301B9
:1069C40047EAD0621B1A62EB0102970047EA937709
:1069D4004FEA830C1CEB000347EB0101CA0042EAB7
:1069E4005372D800C30B43EA4243D20BE91705FBA9
:1069F40002F203FB0122A5FB03011144A26F002351
:106A04001CF019FA3044A4F87400A36EB4F974109D
:106A140020469847304B1B6813F4804F03D02F4B0C
:106A24001B68042B2FDC03B0F0BDB0F88650303067
:106A34001BF0C9FD4E01430146EAD0621B1A62EB0A
:106A44000102960046EA93769F0032463B1841EBDA
:106A54000202D10041EA5371D800C30B43EA414317
:106A6400C90BB4F98460F71703FB07F201FB062294
:106A7400A3FB06011144A26F00231CF0DCF9284497
:106A8400A4F87400C1E7164BD3F8045504F13000A0
:106A94001BF099FD4C01430144EAD0621B1A62EBDE
:106AA4000102940044EA93749E002246331841EB99
:106AB4000202D10041EA5371D800C30B43EA4143B7
:106AC4000193084B00932B464FF4A172064905200D
:106AD40006F070FCA7E700BFC82E0020C42E0020DB
:106AE40000100140E8350400DA350400F0B583B045
:106AF400044615462A4B1B6813F4804F03D0294BD8
:106B04001B68032B13DCE36E04F1740120469847E1
:106B1400B4F974302B80B4F976306B8094F88030FB
:106B2400022B10D094F89130A3B96B6010E01E4B87
:106B3400D3F804351D4A009240F28F121C490420F8
:106B440006F038FCDFE7A36F0BB14FF0FF336B6047
:106B540003B0F0BD94F89130DBB2012B02D1A36FE6
:106B64006B60F5E7A66F04F130001BF02CFD4C01BF
:106B7400430144EAD0621B1A62EB0102940044EA26
:106B840093749F0022463B1841EB0202D10041EA74
:106B94005371D800C30B43EA4143F31A6B60D7E740
:106BA400C82E0020C42E002000100140BC36040072
:106BB400DA350400F0B583B0044690F88030022B37
:106BC4004FD0D0F88450002DB8BF6D42002D4ED068
:106BD400A26F104600265301D10E9B1A61EB0601E9
:106BE4008A0042EA93729F001146381846EB01016D
:106BF400CB0043EA5073C200104619462A46334676
:106C04001CF0B2F806460F46002908BFB0F57A7F9B
:106C14003DD23F4B1B6813F4804F03D03D4B1B68A0
:106C2400032B28DC21220023C4E90E23384B1B68E4
:106C340013F4804F03D0374B1B68032B4DDC2046E5
:106C4400012300F8303F1BF0C1FC40B1304B1B68FE
:106C540013F4804F03D02F4B1B68002B4BDC03B085
:106C6400F0BDB0F98450002DB8BF6D42AEE7784650
:106C740000F068FEACE7284BD3F80435274A0092AD
:106C84004FF48D722649042006F094FBCAE7204B8A
:106C94001B6813F4804F03D01E4B1B68032B10DCBE
:106CA400F90341EA5641F0031E4D1F4A00234019DF
:106CB4004FF0000545EB01011CF056F8C4E90E0144
:106CC400B4E7154BD3F80435184A00924FF4907288
:106CD4001349042006F06EFBE2E70F4BD3F80435AA
:106CE400A26B0192124A00924FF492720C49042052
:106CF40006F060FBA3E7084BD3F804350D4A009275
:106D040040F22B120649012006F054FBA7E700BF0E
:106D1400C82E0020C42E002000100140E4340400DA
:106D2400DA35040020A1070040420F0008350400B2
:106D3400303504005035040010B582B004460022FA
:106D440080F83020C36F590CD8034FF47A720023B3
:106D540010F5FA7041F100011CF006F8C4E90E01C7
:106D640004F130001BF032FC40B10B4B1B6813F4F0
:106D7400804F03D0094B1B68002B01DC02B010BD0F
:106D8400074BD3F80435074A0092FB220649012039
:106D940006F010FBF2E700BFC82E0020C42E00202E
:106DA40000100140C4340400DA35040008B502467A
:106DB40003218C3009F06DF808BD000030B585B0B2
:106DC4000446089D002B34D019465B68C3670B68E2
:106DD4008367B2F90030002B33DD47F6FF73A4F864
:106DE4007630B2F90030A4F88430B4F97430A4F8E1
:106DF4008630022384F880301E4B1B6813F4804FC6
:106E040003D01D4B1B68032B20DC2246022104F116
:106E14008C0009F03EF855B1B4F974302B80B4F904
:106E240076306B80A36F0BB14FF0FF336B6005B00E
:106E340030BDC367036F13B11B688367C9E78367FA
:106E4400C7E74FF40043A4F87630CAE70B4BD3F8F6
:106E54000435B2F90020A16F0391E16F0291019210
:106E6400074A009240F249220649042006F0A2FA99
:106E7400CBE700BFC82E0020C42E00200010014024
:106E8400C8360400DA35040030B587B004460A9DDC
:106E940063B319465B68C3670B688367B2F9001074
:106EA400A4F87610002384F88030B4F97430A4F880
:106EB4008830CA1AC4F88420194B1B6813F4804F15
:106EC40003D0184B1B68032B18DC2246002104F165
:106ED4008C0008F0DEFF3DB1B4F974302B80B4F9B6
:106EE40076306B80A36F6B6007B030BDC367036FF0
:106EF40013B11B688367D1E78367CFE70A4BD3F8E5
:106F040004350492A26F0392E26F02920191074A40
:106F1400009240F2D1120649042006F04BFAD4E75D
:106F2400C82E0020C42E002000100140F8360400B2
:106F3400DA350400F0B585B0044617460A9E6BB3F3
:106F44001A465B68C36713688367012384F880303B
:106F54003A68414D85FB0235AB18D517C5EBE335CF
:106F6400C5EB0545551B201D1BF0BAFAF0B93B4B88
:106F74001B6813F4804F1DD0394B1B68032B19DD9C
:106F8400384BD3F804353A790192374A009240F2EB
:106F940001223649042006F00DFA0BE0C367036FA3
:106FA40013B11B688367D0E78367CEE7B4F9743005
:106FB400A4F88830B4F888302B44A4F87630C4F8A8
:106FC4008450264B1B6813F4804F03D0244B1B685A
:106FD400032B19DC214B1B6813F4804F03D0204B87
:106FE4001B68032B22DC2246012104F18C0008F0EB
:106FF40050FF3EB1B4F974303380B4F97630738005
:10700400A36F736005B0F0BD164BD3F80435A26FBF
:107014000392E26F02923A680192154A00924FF489
:1070240003721249042006F0C5F9D3E70D4BD3F8D7
:107034000435B4F98820B4F97410B4F976000390D7
:10704400029101920B4A009240F20F220749042058
:1070540006F0B0F9C7E700BF01800080C82E002009
:10706400C42E00200010014018360400DA35040054
:107074004C3604007836040010B582B00446C36E62
:1070840000F17401984704F130001BF0C8FAB4F918
:107094007420A4F876200023E367A367ADF80020EA
:1070A400ADF802200193694620461BF071F902B045
:1070B40010BD0000D8B110B50446826ED2B1C26EC4
:1070C400D2B10E4BC3621BF025F9034608B1184632
:1070D40010BD24640A4B63640A4904F18C0008F06F
:1070E400C2FE04F130001BF0ADFA0346EFE70E23B5
:1070F400184670470E23EAE70E23E8E780370400BA
:10710400B16D0200703704002B4B1B78002B52D05A
:1071140000B585B0012804D0032845D005B05DF83A
:1071240004FB0023029302A9012014F0D7FF40BB03
:1071340002A815F027F838BB0123039303A90DF126
:10714400060010F031F810BBBDF806000FF07AFC11
:107154000DF105010FF016FEE0B90AF097FE9DF857
:10716400051000200BF05CF9B8B903F025FEC0B996
:10717400114B00221A70114B1B68002BCED098477C
:10718400CCE715F0E7FBD3E715F0E4FBD4E715F003
:10719400E1FBD9E715F0DEFBDFE7784600F0D2FB30
:1071A400E3E715F0D7FBE3E715F062F80028B5D064
:1071B40015F0D0FBB2E77047B62F0020B82F00209F
:1071C40008B5064B01221A70054803F05FFE03F070
:1071D4003FFE00B908BD15F0BDFBFBE7B62F00204C
:1071E4004C2E002008B503781C2B00D008BD074B9B
:1071F4001B78002BFAD015F07FF818B9044803F077
:1072040049FEF3E715F0A6FBF8E700BFB62F002010
:107214004C2E002008B50849084816F041F80346EA
:1072240008B1184608BD0323002205490969054829
:1072340016F052F80346F4E7D02F00203C33002028
:10724400B82F00200832002008B50378023B082B31
:107254003FD8DFE803F01C05113E3E2C3E3E3600CD
:107264001E4B5B68002B34D0007A002831D01C4AB6
:107274000121117098472CE0184B9B684BB3184AB6
:10728400127832B3164A00211170984721E0154B49
:107294001B784BB9114BDB681BB1114A00211170EB
:1072A4009847FFF7B7FF14E0FFF78AFF11E01022B9
:1072B4000A4B59690C4816F09FF850B115F04AFB77
:1072C40007E08168C06809F073FB18B9054B012217
:1072D4001A7008BD15F03EFBF8E700BFB82F002078
:1072E400B42F0020B52F00200832002070B586B0DE
:1072F40004461F4A03AB07CA03C323F8022B120C2C
:107304001A701C4E35460FCC0FC594E8030085E86F
:107314000300736953B3184B009303AB174A18491E
:10732400184815F079FF034610B1184606B070BD31
:10733400154817F039FC0146124815F099FF034629
:107344000028F2D1114817F0F1FD03460028ECD1D2
:107354000E4817F021FE01460A4815F089FF03463E
:107364000028E2D1FFF756FF0346DEE70723DCE7F8
:1073740090370400B82F00204D720200D02F002057
:107384003C33002008320020F02F0020B8310020C8
:1073940008B5064B1B683BB112F052F9002803DB19
:1073A400024B1B689847F7E708BD00BF7C330020F9
:1073B40010B50C46144B1860144A012114481BF0F4
:1073C40079FC78B9610CE00341F26F7200238B42BF
:1073D40008BF82420BD24FF47A7200231BF0C4FC24
:1073E400014605E00B4A4A2115F0C2FAEAE70521F5
:1073F400002209481BF074FC00B910BD054A4B215A
:1074040015F0B6FAF9E700BF7C330020957302004B
:107414009C370400A037040080330020002869D082
:107424002DE9F043CFB00646334B1B6813F4804F6D
:1074340003D0324B1B68032B0BDC2F4B1B6813F45C
:10744400804F03D02D4B1B68032B2ADC4FB0BDE8C3
:10745400F08300230F2B0FD8F25C29490D68100923
:107464005900285C0DAC04F8130002F00F0201313E
:10747400AA5C62540133EDE70DAA00238DF8543061
:1074840003F1804303F58833D3F8043502921D4A8F
:1074940001921D4A009241221C49042005F08AFFF2
:1074A400CBE71B4BD3F80435B288F188307A747A71
:1074B400B57AF77A96F80CC096F80DE096F80E8037
:1074C40096F80F90CDF82C90CDF82880CDF824E0D4
:1074D400CDF820C007970695059404900391029275
:1074E400326801920B4A009246220849042005F0B2
:1074F40061FFABE7704700BFC82E0020C42E0020F8
:10750400CC2E00208C380400A03804007A38040003
:1075140000100140A838040072DF704773DF704721
:1075240074DF70472DE9F047A2B0074688469146BC
:10753400314C0026C4F80660E68130490B78C3EB71
:1075440043102F4D054425602E4A0244A2601F2299
:10755400A280A281013303F001030B704FF03C0AB7
:107564005246314613A81BF099FD06238DF84F307F
:10757400ADF8487001238DF84A30ADF85C3012AA9A
:107584001892ADF83C70ADF84090CDF844800DEB06
:107594000A021D928DF878305246314668461BF037
:1075A4007DFD02238DF80030221D294613A814F016
:1075B4008AFC90B9104B03F10C029968684614F0E8
:1075C40082FC68B9104A0C491048FFF7A5FF082847
:1075D40009D070B922B0BDE8F08715F0BBF9E9E72E
:1075E40015F0B8F9EEE7002203490848FFF794FFC5
:1075F400EFE715F0AFF9EDE7E4330020A033002006
:10760400A4330020F43300205C2E0020582E0020E8
:10761400B0F5202F04D2074BA3FB0023DB0801E0C5
:107624004FF6FF7308B103B90123034A93819160B4
:10763400704700BFCDCCCCCC5C2E002008B5012116
:10764400054B1878FFF76AFF18B9002004F0DAFA3E
:1076540008BD15F07FF9F8E7582E002008B5044B53
:107664001878FFF75DFF00B908BD15F073F9FBE763
:10767400582E002076DF70477ADF70477CDF704732
:1076840008B515F067F908BD08B503F007FC08BD97
:1076940000B583B0037823B1012B0BD003B05DF8A0
:1076A40004FB3B214088FFF7E5FF0028F6D015F0E6
:1076B40051F9F3E7094B1B6813F4804FEED0084BE4
:1076C4001B68032BEADD074BD3F80435064A009206
:1076D40068220649042005F06DFEDFE7C82E00206D
:1076E400C42E002000100140843904006A390400CB
:1076F40000B583B014F0BCFD68B90023019301A95F
:10770400012014F0EBFC48B901A814F03BFD40B98A
:1077140003B05DF804FB15F01DF9EEE715F01AF956
:10772400F2E715F017F9F3E700B585B09DF80C30D2
:10773400012262F3030362F307138DF80C3019225C
:107744000F4903A8FFF79AFF98B90023ADF8083052
:107754007823ADF80430C823ADF806304FF4C8736D
:10776400ADF80A3001A8FFF787FF28B905B05DF826
:1077740004FB15F0EFF8E8E715F0ECF8F6E700BFC6
:10778400E838040000B58BB00023ADF80830782247
:10779400ADF80420C822ADF806204FF4C872ADF845
:1077A4000A200693079301AB039340F6CD43049359
:1077B4004FF48033059303238DF81830064B089358
:1077C400064B099303A814F039FF10B90BB05DF808
:1077D40004FB15F0BFF8F9E7957602008576020000
:1077E4000620704700B587B041F2010398424CD09F
:1077F40020D944F2010398425DD044F20203984236
:1078040074D1464B1B6813F4804F1ED0444B1B6845
:10781400002B1ADD434BD3F80435108803905268CB
:1078240002920191404A00926C224049012005F0E5
:10783400C1FD0AE0012859D1384B1B6813F4804F6D
:1078440003D0374B1B68002B12DC4FF0A0434FF4DE
:10785400F032C3F81825C3F80C25EFF3108372B681
:107864004DF6AD6C324B1B78002B54D030BFF9E78A
:107874002C4BD3F80435029201912E4A00926022D7
:107884002A49012005F096FDDFE7244B1B6813F419
:10789400804FDAD0224B1B68002BD6DD214BD3F866
:1078A400043502920191244A009263221F49012067
:1078B40005F080FDC9E7194B1B6813F4804FC4D051
:1078C400174B1B68002BC0DD164BD3F8043510682A
:1078D400049050680390029192680192174A0092B2
:1078E40077221249012005F065FDAEE70B4B1B68BA
:1078F40013F4804FA9D00A4B1B68002BA5DD094B5C
:10790400D3F8043501910E4A00927B2207490120E5
:1079140005F050FD99E707B05DF804FBC82E002080
:10792400C42E002000100140683A0400163A0400F6
:10793400742E0020283A0400443A0400883A0400D3
:10794400AC3A040000B583B00023ADF80030054B19
:1079540001936A46014644F20200FFF743FF03B075
:107964005DF804FBA83A040010B40346044C006814
:1079740059689A68DB680FC45DF8044B704700BF10
:10798400343400200B4B0C4A92E8030083E80300D4
:1079940003F10802094903C982E80300DA790421E2
:1079A40061F30712DA711A7A022161F387121A72EB
:1079B400704700BF3434002060000010A4000010A1
:1079C400004870473434002000231F2B09D807498E
:1079D40001EBC30000224280426001F833200133EE
:1079E400F3E7034B00221A60704700BF44340020C1
:1079F4004435002030B405460F4B1B6800240AE0D0
:107A04001F230E4A12F83300A0B102EBC3025288BE
:107A1400AA4207D001341F2C0BD85A1E002BEFD0DA
:107A24001346EEE7054A02EBC30252688A42F1D1DB
:107A340000E0002030BC704744350020443400206E
:107A440030B40A4A13680A4C04EBC30568806960C1
:107A5400012104F833100B441360202B01D030BCF7
:107A64007047134600221A60F9E700BF443500202E
:107A740044340020C0F30C038B4204D2C91A0144DD
:107A8400A1F500507047C91A08447047C37D002B04
:107A940042D0C3780A7802F0800203F07F031343D4
:107AA4000B7002780B7803F07F0343EAC2130B7068
:107AB4000378002B41D030B48378082B14BF002204
:107AC40001224B7803F07F0343EAC2134B70C5884D
:107AD40003F08003C5F3861423434B708A7802F0C5
:107AE400030242EA8502D2B28A70057A02F0FC02ED
:107AF400C5F3C10422438A70CB7803F01F0343EA21
:107B04004513DBB2CB70427A03F0E00302F01F02AC
:107B14001343CB7030BC7047C3780A7802F0BF02BD
:107B24009B0103F0400313430B70027903F0C0037D
:107B340002F03F0213430B70B3E770470023032B9B
:107B44002DD810B402E00133032B24D8C3EBC302B5
:107B54001401144A224492F84820012AF3D1114A0C
:107B64002244948AC2899442EDD1C3EBC302140126
:107B74000C4A2244D2888A42E5D10A4A2244B2F805
:107B8400582012B1848AA242DDD1C3EBC3031A0187
:107B94000448104400E000205DF8044B70470020C6
:107BA400704700BFF4350020002300E00133032BAD
:107BB40014D8C3EBC3021101094A0A4492F84820BD
:107BC400022AF3D1064A0A44918A828A9142EDD16B
:107BD400C3EBC3031A0102481044704700207047E6
:107BE400F435002008B9042070470820704730B4E9
:107BF40003460C460978C17000214162A1680B2933
:107C040003D8217B01B3012100E001211970002078
:107C1400987029B1A1680731C908013959721872DD
:107C24000121D97503F10C0504F1100103C985E89C
:107C34000300E1899982A1691962217F9975216AFA
:107C4400D9629A6230BC70470021DFE70021174BEC
:107C54001B688B4227D90023154A02EBC1025268E4
:107C64009A421ED910B40FE060685DF8044B704767
:107C740001310E4B1B688B4211D900230C4A02EBD5
:107C8400C10252689A42F3D9094A52F8312002EBF0
:107C9400C30412F833208242E6D00133EEE7002019
:107CA400E3E70131D3E70020704700BF48350020E7
:107CB4004C35002070B58CB006460D4614462C2277
:107CC400002101A81BF0EAF90F238DF80430ADF868
:107CD40008604FF0000365F300038DF80A308DF857
:107CE4000B4001A801F016FA0CB070BD30B58DB090
:107CF40005460C462C22002101A81BF0CFF91023C5
:107D04008DF8043002958DF80C4001A801F002FAB8
:107D14000DB030BD00B58DB010B913F1020F06D10E
:107D2400074B186804F096F90DB05DF804FB0122C6
:107D34008DF80420029301A801F0ECF9F0E700BFEC
:107D440054350020D0B50446037853B1E3691F0AC3
:107D54001E06E188A069FFF78DFE301847F1000187
:107D6400D0BD7846FFF7EEFDF0E70000F8B5054614
:107D7400002400E00134032C20D8C4EBC4031A010E
:107D84000F4B134493F84830022BF3D10C4B13449C
:107D94009A8AAB8A9A42EDD12846FFF7D3FF06466A
:107DA4000F46C4EBC402130105481844FFF7CAFF89
:107DB4008F4208BF8642DDD2012000E00020F8BDDA
:107DC400F4350020F8B5064603783BB13046FFF79A
:107DD400B9FF04460D46B08A002304E07846FFF755
:107DE400B1FDF3E70133072B0ED81A0107498A5A6C
:107DF4008242F7D101EB0312D2E90267AF4208BF16
:107E0400A642EFD1104600E00020F8BD583500200E
:107E140038B504460D46037853B10023072B0ED81A
:107E2400A18A1A011248825A914205D00133F5E71A
:107E34007846FFF787FDF0E71B010021C1520D4A88
:107E44001368591C116003F00703A08A1A0108493A
:107E5400885255B16278064D05EB0315AA70204689
:107E6400FFF770FFC5E9020138BD0022F3E700BF48
:107E740058350020D8350020F8B5069C002962D07A
:107E84000F4616685568D2F808E0D2F80CC0E660D0
:107E94002561C4F814E0C4F818C016695569E66190
:107EA4002562002262700278D209227062B3042132
:107EB400B9424AD8E57D4DB3017801F07F01E17004
:107EC4000021A1709AB14278920102F4FE528178A5
:107ED40042EA9102E2808278D20002F01802C1786C
:107EE40042EA51122272C27802F01F0262721D46E7
:107EF400002363622B78032B21D82A78144B53F880
:107F04002230E3620020F8BD0121D1E70578C5F3F2
:107F14008015E570057805F03F05257142B190F9AB
:107F24000110002902DB0421A170CBE70821FBE743
:107F34000425A5702944B942C4D90920E3E7784649
:107F4400FFF700FDD9E70920DDE70920DBE700BFE3
:107F5400C83A040070B50C461E460378ABB104253C
:107F64002A44A26000F10C032360836A6360C36A3D
:107F7400E36000232374204604F0EAFB034610B9AF
:107F8400626915443560184670BD0125E8E72DE99E
:107F9400F0418EB00D4616461C46804600282DD072
:107FA400002D2FD0002C31D0636A0233059304F1E5
:107FB4000C00E378002B2DD00121A27801AF3B46C1
:107FC400082A14BF0022012204F089F90697CDF88B
:107FD4001C80B2B2ADF820200B9515440C95A37803
:107FE4008DF83430237B022B16D00023ADF82830D3
:107FF40005A804F06CF90EB0BDE8F0817846FFF7EF
:10800400A1FCCDE77846FFF79DFCCBE77846FFF768
:1080140099FCC9E70221D0E723692BB123690993AD
:108024001023ADF82830E3E77846FFF78BFCF5E73B
:108034002DE9F04188B004460D46C37D002B3CD0A9
:10804400082605FB06F8637AAB4238D0257201ABEB
:10805400324602A92046FFF77DFF074648BB4DB9CB
:1080640094F8533033B9A369C3F30C03E3800123B9
:1080740084F85330E37D7BB994F8523063B91DBB67
:10808400B4F84A10A27823468A1AE16E0846FFF72C
:108094007EFF012384F8523007992046FFF7F6FC4F
:1080A400E16E3246414401981AF0CFFF02A804F071
:1080B40075FB384608B0BDE8F0810C26C1E7B4F87A
:1080C4004A60A6EB0806C1E77846FFF73BFCD7E712
:1080D40070B505460E4609B100230B6095F8504073
:1080E400002104E0631C85F850300134E4B26B7A5B
:1080F400A34210D3EA6C0123A3401A42F5D12146CE
:108104002846FFF795FF014628B9002EEAD03368C8
:1081140001333360E6E7084670BDF0B589B0857871
:108124001544C37D7BB10B239D4224D816460F46CC
:10813400044601AB2A4602A9FFF70CFF054620B10D
:10814400284609B0F0BD0F23EEE707992046FFF754
:108154009DFCE37D43B13246394601981AF075FF20
:1081640002A804F01BFBEBE723463246019938468C
:10817400FFF70DFFF4E70925E2E7000010B5044618
:1081840090F84830012B0CD103F052F9237B012BDA
:108194000BD0094BD968014404F1300003F01EF9F7
:1081A40010BD7846FFF7CEFBEEE7A37D024AD16807
:1081B400126902FB0311EEE7DC35002030B583B011
:1081C400002403E02846FFF7D9FF0134032C19D813
:1081D400C4EBC4031A010C4B134493F84830012B2D
:1081E400F3D100230193C4EBC4021301064D1D44D3
:1081F40001A92846FFF76CFF0428E3D0019B002B5C
:10820400E3D0DFE703B030BDF435002038B50446D1
:1082140090F84830022B09D1064B1D6803F008F989
:10822400411904F1300003F0D9F838BD7846FFF75E
:1082340089FBF1E7DC35002038B5044690F8483076
:10824400022B10D10A4B5D7D5A689B6803FB052500
:1082540003F0EEF8411904F1500003F0BFF80123D4
:1082640084F8683038BD7846FFF76CFBEAE700BF56
:10827400DC35002010B50446808A02F039FC012860
:108284001CD1237BE3B194F91620002A1ADBE27D8A
:108294004AB1022B18D094F90330002B16DBA378D3
:1082A400B3B900200BE0E2780AB9012B12D123788C
:1082B40093B9A378042B11D1002000E0102010BD45
:1082C4001020FCE70720FAE71020F8E70720F6E77C
:1082D4000720F4E70720F2E70020F0E70720EEE7A5
:1082E40038B50446C2698169808A06F045FA0546B4
:1082F40008B9284638BDE169002201F00101A08ACD
:10830400FFF7D8FCF5E700002DE9F04780460E465C
:1083140017464B1EDBB2012B0FD8B7F5C07F10D820
:108324000024032C1AD8C4EBC4031A01304B1344A1
:1083340093F848304BB10134F3E77846FFF702FB7A
:10834400EBE77846FFF7FEFAEAE7DFF8A4A0154664
:108354005544384608F013FBE86600E000255DB399
:10836400EB6E002B42D043462A4608F1300ED3F878
:1083740000C05C689868D968C2F800C05460906016
:10838400D160103310327345F1D10023EB64A5F8AA
:108394004A70012E13D06FF00103AB62002385F8FD
:1083A4006830144BAB652D66134BAB632D64012011
:1083B40002F07EF885F848602846BDE8F0870F4B48
:1083C4001B7D85F85130002385F8523085F85330F1
:1083D40085F85030D8F828206A65A5F858306FF031
:1083E4000103AB62064BAB632D64E0E71D46E3E794
:1083F400F4350020478D02002D870200DC35002073
:108404007987020000B585B000238DF80F3098B14C
:108414000346084602330B600DF10F0103F05BFFC6
:108424009DF80F3043B10D4B1B6813F0040F03D0BC
:108434000B4B1B68032B04DC9DF80F0005B05DF8A3
:1084440004FB084BD3F80435074A009240F2374244
:108454000649042004F0AEFFEEE700BFC82E00205A
:10846400C42E002000100140003C0400F43B040032
:108474002DE9F0438FB004460E4615461F46D0F84A
:108484001890037823B1C1884846FFF7F3FAA06136
:1084940004F10C00E378002B37D00121A2780DF110
:1084A40028084346082A14BF0022012203F017FFBC
:1084B400C4F81890CDF808800396A378EA1A92B20B
:1084C400ADF810203244089207978DF82430002329
:1084D400ADF81830E37863B3237B022B17D025461D
:1084E400002345F8243F2A462179206A0FF088F9B1
:1084F400606A90B101A9FFF785FF00283ED12A46A2
:108504002179206A0FF07CF9F2E70221C6E71023F3
:10851400ADF8183023690593E1E7237B022B31D1B1
:1085240004F10C01E0890FF01DFA0028D4D10520D4
:1085340025E0237B012B01D0052020E0E389ADF861
:108544000030A38AADF80230002500E00135012D8A
:1085540012D82146002341F8243F0EAB03EB450318
:1085640033F8380C0FF069F901A9606AFFF74AFF84
:108574000028EBD0002002E0052000E000200FB02E
:10858400BDE8F0830520FAE770B5F0B00D46144657
:108594001E4610AB0A4601462046FFF769FF50B15C
:1085A400224B1B6813F0040F03D0214B1B68052BCF
:1085B4002FDC70B070BD2046FFF792FE0028F8D182
:1085C40003AB01228DF80C20A28AADF80E20002204
:1085D40004928DF8142010AA0692A278AD1AADF870
:1085E4001C5008AA93E8030082E803000AAB04F1D4
:1085F4000C0292E8030083E80300A37D8DF8383071
:10860400236A0C93636A0D930F9605A800F082FD0C
:10861400CFE7084BD3F80435074A009240F20E72B4
:108624000649062004F0C6FEC3E700BFC82E00209A
:10863400C42E002000100140243C0400F43B04003C
:1086440010B50446C06E08F09EF904F1300002F043
:10865400ADFE94F84830022B0AD070220021204647
:108664001AF01CFD002084F8480001F021FF10BD21
:1086740004F1500002F09AFEEFE710B58CB0044606
:1086840090F84830012B0CD101238DF80430636D30
:10869400029301A800F03EFD2046FFF7D1FF0CB085
:1086A40010BD7846FFF74EF9EEE7000030B585B00F
:1086B4000D460446A8B194F84830022B15D029463B
:1086C400606DFFF713FB2046FFF7BAFF114B1B68E1
:1086D40013F0040F03D0104B1B68032B0ADC05B006
:1086E40030BD7846FFF72EF9E5E700212046FFF775
:1086F4008FFBE4E7094BD3F8043594F8482002953E
:108704000192074A009240F22E220649042004F006
:1087140051FEE4E7C82E0020C42E002000100140C2
:10872400D83A0400F43B040008B508460021FFF7DA
:10873400BDFF08BD08B5037B012B02D0FFF79DFFE9
:1087440008BD0121FFF7B2FFFAE7000008B590F871
:10875400513053B1013B80F85130002380F8503040
:10876400034B186803F076FC08BDFFF7E3FFFBE753
:108774005435002010B50C4691F84830012B03D134
:108784002046FFF7E3FF10BD7846FFF7DBF8F7E775
:10879400062976D1F0B585B015460278910101F429
:1087A400FE5147788478C3781B0443EA0463047950
:1087B40043EA042344791C4356B241EA970128460C
:1087C400FFF7BCF90746E0B1002E2FDBC289A98A66
:1087D4008A422BD02B4B1B6813F0040F3ED02A4B3C
:1087E4001B68012B3ADD294BD3F804350291019221
:1087F400274A009240F28C622649022004F0DAFDF6
:108804002CE0204B1B6813F0040F27D01E4B1B6871
:10881400012B23DD1D4BD3F804351F4A009240F28F
:1088240084621C49022004F0C5FD17E0002E17DB0A
:10883400FD6C2543FD64BCB13B78D3B17B7A5A1CF3
:1088440001239340013B9D4217D0002187F850102B
:108854003846FFF73DFC3846FFF790FC05B0F0BD05
:10886400AB8AA7F85830E3E703213846FFF71EFF29
:10887400F4E77846FFF766F8E0E73846FFF7FDFED1
:10888400ECE77047C82E0020C42E002000100140E1
:10889400403B0400F43B0400103B04002DE9F0438A
:1088A4008BB007460E4614461D461046FFF718FDCA
:1088B40050B994F80380B8F1000F08D12B46224632
:1088C40031463846FFF764FF0BB0BDE8F0834046FD
:1088D400FFF7BCF981460028F6D08DF80480236A9E
:1088E4000793A38AADF8123005AB04F10C0292E8A9
:1088F400030083E80300A37D8DF8203002970396DC
:1089040023788DF81030E36A0993294601A8C847F3
:10891400DAE710B5547814F0010F03D0D47D14B104
:10892400FFF7BCFF10BDFFF72FFEFBE708B50139C9
:108934000130FFF7EEFF08BDF0B5C7B086781644E6
:10894400C37D2BB14FF48073B3427ED3002303E085
:108954004FF4C073F8E70133032B19D8C3EBC304F6
:1089640025013C4C2C4494F84840012CF3D1394C5B
:108974002C44A58A848AA542EDD1C3EBC304250106
:10898400344C2C44E589C489A542E4D1082455E03B
:1089940014460F4632460121FFF7B6FC054600286F
:1089A40055D022463946C06E1AF04FFB002345933A
:1089B40045A92846FFF78CFB044608B1042840D19A
:1089C400459B7BB9244B1B6813F0040F35D0234B14
:1089D4001B68032B31DDB5F84A70802F28BF802730
:1089E400002313E02846FFF7C9FBEBE7EA6ED25CED
:1089F4001B490C6810095900265C04A800F8136090
:108A040002F00F020131A25C42540133BB42EDD3A8
:108A140004AA002302F8173003F1804303F58833D6
:108A2400D3F8043502920F4A01920F4A009240F2A1
:108A340071520E49042004F0BDFC0024204647B0C6
:108A4400F0BD2846FFF7FCFDF8E70924F6E7042407
:108A5400F4E700BFF4350020C82E0020C42E002007
:108A6400CC2E0020843B0400A0380400F43B040016
:108A740070B504460D461646FFF7FCFB034638B9AD
:108A840023783BB1324629462046FFF755FF03467B
:108A9400184670BD324629462046FFF73EFB034682
:108AA400F6E7000038B504460D46CB695B780371E0
:108AB400CB691B7883F00103C370CB6943628B8A53
:108AC4000B2B07D8CB7A002B35D10B7B012B02D093
:108AD400002300E001232370002B31D0287B0228DF
:108AE4002BD0FFF77FF8A070AB8A03440B331748F1
:108AF40080FB03235B10013B63720023237200237A
:108B0400E37504F10C0395E8030083E80300AB6903
:108B140023622B89A382AB7AA3752B6AA362DF231A
:108B2400E36228460EF04CFF20B12B78012B0AD0CB
:108B3400FF23E36238BD0123CDE7054B987DD0E7E1
:108B44000423A370DBE72023F3E700BFABAAAA2A20
:108B5400DC35002010B54FF4E072002113481AF000
:108B64009DFA05F0BBFE0024114B1C6080222146B7
:108B740010481AF093FA104B104A1A60104A5A60BF
:108B84004CF250329A600F49D9601A6104221A7566
:108B94009C7508225A750C4803F03CFA0B4B18607C
:108BA4000B4B1C600B4805F09BFF10BDF4350020F7
:108BB400D835002058350020DC35002080969800F8
:108BC400F049020020A10700398D0200543500202D
:108BD40048350020197D020008B505F0C5FD08BD23
:108BE40098B110B58CB00446036983B1C36983B1ED
:108BF400836983B101466846FFF754FFA28A21695D
:108C04006846FFF735FF0CB010BD0E2070470E20EC
:108C1400F9E70E20F7E70E20F5E790B110B58CB018
:108C2400044642687AB182697AB10A4601466846C6
:108C3400FEF7DDFFA26861686846FFF719FF0CB014
:108C440010BD0E2070470E20F9E70E20F7E7000054
:108C5400037B012B01D00020704710B58CB000239A
:108C64000193CDF80730C288C2F3861492008DF8C0
:108C740001200A0E8DF802200A0C8DF803200A0A3E
:108C84008DF804208DF805104278022A14BF0022C2
:108C9400012244EAC2148DF8004006220592012202
:108CA4008DF81C20828AADF81E2008938DF80C30B4
:108CB400CDF810D0026A09928DF81830C389ADF846
:108CC4001A30C36A0B93837D43B98DF828306FF053
:108CD400010103A8FFF7A1FF0CB010BD024B5B7D9F
:108CE4008DF82830F3E700BFDC35002090F84830D9
:108CF400022B00D0704790F86830022BFAD110B5DF
:108D04000446C16CFFF7A4FF10B9002384F868304F
:108D140010BD000010B5002407E0C4EBC402130129
:108D240003481844FFF7E2FF0134032CF5D910BDC2
:108D3400F435002008B5FFF741FAFFF7EBFF0120F7
:108D440008BD10B50C4691F84830022B06D1022319
:108D540084F868302046FFF7C9FF10BD7846FEF757
:108D6400F1FDF4E72DE9F0438FB00646FEF7FEFF70
:108D7400002840F08E803046FFF724F8074600288C
:108D84003CD13046FEF710FF044658B13046FEF79A
:108D9400D9FF804689462046FEF7D4FF494508BFDF
:108DA400404553D3002C75D1757A6B1CF27D002A93
:108DB40052D0082505FB03F5002A4FD04FF48073E9
:108DC400AB424ED3F188B069FEF754FEF269014616
:108DD400B08A05F02DFD00285CD12A4602213046D8
:108DE400FFF792FA0446002854D100213046FFF7D9
:108DF4002FFF02210020FEF779FF4BE002AC35463D
:108E04000FCD0FC40FCD0FC495E80F0084E80F00F9
:108E1400BB788DF809307BB19DF8083073B19DF8AB
:108E240011104B1C01219940013902A8FFF710FFD2
:108E3400BB7813F0010F05D100242BE07846FEF730
:108E440081FDECE73046FFF74BFAF5E705212046B4
:108E5400FFF72CFC3C46A7E70C25ABE74FF4C073A7
:108E6400AEE70E4B1B6813F0040F03D00C4B1B68CA
:108E7400002B01DC3C460DE00A4BD3F80435019588
:108E8400094A009240F292320849012004F092FA11
:108E9400F0E7002420460FB0BDE8F083C82E002080
:108EA400C42E002000100140FC3A0400F43B0400EE
:108EB4002DE9F04182B00646884615461F46104605
:108EC400FFF750FF002847D00446434B1B6813F0BC
:108ED400040F03D0414B1B68032B40DC2046FFF7F3
:108EE40095F9237B012B48D0E16C2A7A0123934026
:108EF400194231D10B43E364A8F104082B7AEA7DCB
:108F0400002A42D04FF0080C0CFB03FC617A8B4220
:108F14003ED0002A41D00823434540D1A269AB6921
:108F24009A4209D204F10C0E0C350FCDAEE80F00B5
:108F340095E803008EE80300E06E4246311D60446C
:108F44001AF083F8E56C237873B3637A5A1C01230F
:108F54009340013B9D422BD002B0BDE8F081204BF1
:108F6400D3F804352A7A01921E4A00924FF47172A2
:108F74001D49042004F01EFAB0E794F86830002B71
:108F8400B2D12046FFF758F9AEE74FF00C0CBBE71F
:108F94000CEB0803A4F84A30C0E70C23BCE7042117
:108FA4002046FFF783FBD7E77846FEF7CBFCCCE7F8
:108FB400E16C2046FFF74CFE3B462246B4F84A10CB
:108FC400E06EFFF7A6FC01212046FEF721FF2046B4
:108FD400FFF736FBC0E700BFC82E0020C42E0020D8
:108FE40000100140143C0400F43B04002DE9F0415E
:108FF40090B0002842D08046002A41D01F46144633
:109004000E4604AB00933B46FEF736FF054618B107
:10901400284610B0BDE8F08104A8FFF72BF90546F7
:109024000028F5D12269E168208905F001FC0028B7
:10903400EED100230293039302A960880EF092FC00
:1090440038B19DF8113043F001038DF81130039BC2
:1090540008939DF81130002BDAD09DF8103033B10D
:109064003B4604AA31464046FFF722FFD0E73B4681
:1090740004AA31464046FFF759FCC9E70E25C7E765
:109084000E25C5E7F8B500B30546164B1F68F7B9BA
:109094000E463C46B4420ED205EBC4035B68CBB12A
:1090A40015F8340010F0800F16D1B8B1FEF7CEFDDC
:1090B400B0B90134EEE70C4B43F8375003EBC70368
:1090C4005E607B1C074A136002E00E2700E0042761
:1090D4003846F8BD0E27FBE70B27F9E70F27F7E71C
:1090E4000F27F5E7483500204C350020084B196858
:1090F40061B110B504E0064804F0C7F8214624B174
:109104000C680B79002BF9D0F5E710BD704700BF50
:10911400B837002038B5054630B1104B1C68ACB1E7
:109124000F4B01221A7004E07846FEF70BFCF4E7BB
:1091340024683CB12379002BFAD154F8043C284626
:109144009847F5E7064B1B78022B00D038BDFFF794
:10915400CDFF034B00221A70F8E700BFB837002098
:10916400B437002010B5044630B100232372211D0A
:10917400034804F05FF810BD7846FEF7E3FBF4E71C
:10918400B837002010B5044658B10A4B1B78013B90
:10919400DBB2012B09D8074B02221A700123237278
:1091A40010BD7846FEF7CEFBEFE7211D024804F020
:1091B4006CF8F5E7B4370020B83700200A888368D4
:1091C4009B5A07339BB223F0030313449BB20288D8
:1091D400043A934200D900230B80704710B582B043
:1091E40004468368C91AADF806100DF10601FFF7AD
:1091F400E5FFBDF80630A068184402B010BD008831
:10920400043880B2704743888268D018D152012351
:109214008370704782680023937043808380704713
:10922400073189B221F0030189B2428883889A42C6
:1092340004D29B1A99421EDC0020704710B59A4252
:109244000FD90488A41AA14217D98B4217D3032C2F
:1092540003D98368134404229A7000234380184678
:1092640004E0826813449B780BB1042010BDFFF71F
:10927400D1FF0020FAE7042070470020F6E704201D
:10928400F4E738B504460D468368828813448B425C
:1092940002D07846FEF756FB0023AB70211D204612
:1092A400FFF78CFFA288A36813449B78042B00D09B
:1092B40038BD0023A380FBE710B50C4683684288C1
:1092C40013448B4202D07846FEF73CFB0023A37084
:1092D40010BD70B5064615460C46002944D0002E34
:1092E40046D0B4F1005F08D94FF08053D3F80C3165
:1092F40003F50023B4EB832F0ED3B4F5000F08D984
:109304004FF08053D3F80C3103F50053B4EB832FA3
:1093140002D37846FEF716FB6B1E2344B3F1005FBD
:1093240008D94FF08052D2F80C2102F50022B3EB99
:10933400822F0ED3B3F5000F08D94FF08052D2F824
:109344000C2102F50052B3EB822F02D37846FEF7CC
:10935400F9FA042D10D9358000237380B380B460EA
:10936400043D2580A37070BD7846FEF7EBFAB6E79E
:109374007846FEF7E7FAB4E77846FEF7E3FAEAE759
:1093840038B50446A0B16288A36813449B78012BC6
:1093940012D0EFF3108572B6A388A16819448B78B4
:1093A400032B0DD02046FFF735FF05B962B638BD53
:1093B4007846FEF7C7FAE6E77846FEF7C3FAE8E729
:1093C4002046FFF70BFFA368C31A63800023837052
:1093D400EBE72DE9F0410E4615460446D0B1EEB157
:1093E4006288A36813449B78012B1BD025B32046C5
:1093F400FFF705FFA84221D3EFF3108872B6294680
:109404002046FFF70DFF074680B1B8F1000F16D1D3
:1094140062B614E07846FEF795FAE0E77846FEF780
:1094240091FADDE77846FEF78DFADFE72946204614
:10943400FFF7E9FE3060E8E7092700E0092738462E
:10944400BDE8F081F8B50C4616460546E0B1FCB11E
:10945400A378012B20D12388B34221D326B3EFF381
:10946400108772B626800223A370E9182846FFF7F6
:10947400A5FE6B88AA88934203D0AA6813440022ED
:109484009A7007B962B6F8BD7846FEF75BFADEE774
:109494007846FEF757FADBE77846FEF753FADAE741
:1094A4007846FEF74FFAD9E77846FEF74BFAD6E747
:1094B40070B50D46044690B1ADB1EFF3108672B6A7
:1094C400A288A36813449A78042A10D09A78022AAE
:1094D40015D0032A18D0052006B962B670BD7846A7
:1094E400FEF730FAE8E77846FEF72CFAE5E7211DA7
:1094F4002046FFF763FEA288A3681344E6E703222D
:109504009A702B600020E7E77846FEF71BFA0020EC
:10951400E2E738B5044680B1EFF3108572B6A0884F
:10952400A16801448B78042B0BD08878022814BFDF
:109534000020012005B962B638BD7846FEF702FA6C
:10954400EAE72046FFF74AFE0146EEE738B504464F
:1095540078B1EFF3108572B6A088A16801448878C9
:10956400C31EDBB2012B08D82046FFF737FE0146A5
:10957400F5E77846FEF7E6F9EBE7022814BF00208A
:10958400012005B962B638BD70B50C46064678B1FF
:1095940094B1EFF3108572B6A378012B10D0032B8E
:1095A40013D121463046FFF76CFE05B962B670BD93
:1095B4007846FEF7C7F9EBE77846FEF7C3F9E8E724
:1095C40021463046FFF778FEEFE77846FEF7BAF912
:1095D400EBE710B5EFF3108472B683888168194401
:1095E4008B78042B06D08878B0FA80F0400904B94F
:1095F40062B610BDFFF7F2FD0146F4E708B5064B6D
:10960400986800221A605A609A60DA601A615A6196
:109614009A6104F0B9FE08BDBC37002000B585B0DE
:109624000A4BDB6802228DF8002001934FF480532B
:109634000293074A6946012001F070F918B9012024
:1096440005B05DF804FB0020FAE700BFBC3700203A
:10965400D837002000B585B00A4B1B6802228DF86C
:10966400002001934FF480530293074A6946012076
:1096740001F054F918B9012005B05DF804FB00208D
:10968400FAE700BFDC370020D8370020164BDA6831
:10969400137951795B1A03F57F2303F6FF7302EB09
:1096A40003339A4205D002F580520F4BDA6003204F
:1096B400704700B585B00D4B1B6801208DF8000084
:1096C40001930B4B0393042302930A4A694601F066
:1096D40025F918B1002005B05DF804FB024B012206
:1096E4001A760220F7E700BFBC370020DC370020E1
:1096F400E0370020D837002000B585B00C4BDA687D
:109704000C4B1B68043301208DF800000192039375
:1097140040F6FC730293084A694601F0FFF818B951
:109724000120034B187600E0002005B05DF804FB2F
:10973400BC370020DC370020D837002000B585B0C6
:109744000A4B1B6801208DF800000193084B03931A
:1097540004230293074A694601F0E0F818B901208E
:1097640005B05DF804FB0020FAE700BFDC370020F9
:10977400C8370020D837002010B584B0104BDA6801
:109784001478104B1B68043301208DF800000193FA
:10979400039202940C4A694601F0C0F868B9094B77
:1097A4001B6804F0FC041C440434054B5C61D96858
:1097B4000A780A441A61012000E0002004B010BDB8
:1097C400BC370020DC370020D837002008B5002340
:1097D400092B09D8064A52F82320824201D00133CA
:1097E400F6E7044A536002E07846FEF7ABF808BD9A
:1097F400503C0400BC37002010B5214BDB6853B14A
:109804001F4B1B7E5BB91E4B5B68092B26D9784620
:10981400FEF798F822E07846FEF794F8F0E77846E9
:10982400FEF790F8EFE7164A536801335360092BAB
:1098340021D97846FEF786F81DE0114B00225A60C4
:1098440019E00F4B1B7E1BB10D4B02221A7012E064
:10985400FFF7D4FE0FE00A4B1B7E83B9084B5A680E
:10986400084B53F82230984704460228E9D00328CD
:10987400E3D00128D7D0012CEDD0032CEBD010BDC0
:10988400BC370020503C0400104B1B681B685A1E58
:1098940012F1030F18D8C3F30B020AB1002070476A
:1098A40010B50B4AD3600023137653760124147049
:1098B40093600848FFF78AFF0749204601F01CF827
:1098C400FFF79AFF204610BD00207047DC370020C8
:1098D400BC37002021960200E198020008B50B78FD
:1098E400032B06D00B4B1B78012B06D0022B0BD07D
:1098F40008BD084B00221A76F4E7064B1B7E002BAA
:10990400F6D1FFF779FFF3E70B78032BF0D1FFF7DC
:1099140075FEEDE7BC37002000B585B0174BDB685A
:1099240018784FF6FF7203F58051184405F08EF84D
:10993400F0B10246114BD9680B780B44984219D008
:109944000E4B5B7E93B10E4B01208DF8000001920B
:109954000393042302930B4A694600F0DFFF58B9CE
:109964000120064B187605B05DF804FB064BEBE7C7
:109974000120F8E70120F6E70020F4E7BC370020D7
:10998400143F0400D8370020103F040008B5104BE2
:10999400DB681878002203F58051184405F056F866
:1099A40008B1012008BD0A4BDA68137951795B1AB2
:1099B40003F57F2303F6FF7302EB03339A4205D0CA
:1099C40002F58052024BDA600320EBE70220E9E75C
:1099D400BC370020F0B585B0514BDD686A792B792E
:1099E400591E8A4214D005F580510C780C444D4917
:1099F4000968081D0E7906449B1A05EB0335638834
:109A0400013B9BB247F6FE62934260D927461BE0B6
:109A14000120434B58767EE07846FDF793FF16E02D
:109A240027F47F6323F00F0303F580531A7813445C
:109A34009D4247D99C4247D25A88013A92B21F4666
:109A440047F6FE618A4210D93B88002BE4D03B885C
:109A540007EB830323F47F6222F00F029342DFD0EB
:109A64007A88B2F5FE4FE3D1DAE71C462FE0784658
:109A7400FDF768FF16E027F47F6323F00F0303F577
:109A840080531A7813449D4220D99C423BD25A8871
:109A9400013A92B21F4647F6FE618A4210D93B88CA
:109AA400002BE4D03B8807EB830323F47F6222F08E
:109AB4000F029342DFD07A88B2F5FE4FE3D1DAE7A2
:109AC4001C4604E0002402E0002400E00024E4B189
:109AD400144B1968628801F58051304604F0B6FFD2
:109AE400064690B101200E4B18768DF800000194C3
:109AF4000D4B0393042302930C4A694600F00EFFB6
:109B040058B92746CBE70024E1E7B4FA84F46409A2
:109B1400034B5C76012005B0F0BD0020FBE700BFDD
:109B2400BC370020DC3700200C3F0400D83700206D
:109B34002DE9F04186B0644B1B6923B1624B5B692C
:109B44002BB1002748E07846FDF7FCFEF6E778469F
:109B5400FDF7F8FEF5E77846FDF7F4FE17E028F484
:109B64007F6323F00F0303F580531A7813449E4256
:109B74001FD99C4221D25A88013A92B2984647F69C
:109B8400FE618A4213D9B8F80030002BE3D0B8F84C
:109B9400003008EB830323F47F6222F00F02934228
:109BA400DDD0B8F80220B2F5FE4FE0D1D7E71C466D
:109BB40000E000241CB1009438E00024FAE70023FC
:109BC4000093019B002B5AD10127002C76D0628888
:109BD40047F6FF739A4271D0002F73D13A4B5A69FA
:109BE40022F47F6525F00F05AD1A05F580551C6933
:109BF400DE68337972799B1A06EB033600230193EE
:109C04006388013B9BB247F6FE629342D3D9A046D8
:109C1400B9E77846FDF796FE23E024F47F6424F048
:109C24000F0404F58054237823441C46A642C8D963
:109C34002388019A02EB83029542C2D9009B6340B8
:109C440023F47F6323F00F03002BBAD16388013B15
:109C54009BB247F6FE618B42B3D801922388002B56
:109C6400D7D0238804EB830323F47F6222F00F020E
:109C74009342D2D06288B2F5FE4FD6D1CDE7124AD4
:109C8400526901208DF808000392009A059204930A
:109C94000E4A02A900F042FE70B90B49019B23F061
:109CA40003024B6913444B6114B1074B1C618CE7ED
:109CB4007846FDF747FEF8E7002000E0012006B0F3
:109CC400BDE8F0810120FAE7BC370020D837002036
:109CD40008B54FF010235B69B3F1FF3F09D04FF093
:109CE40010235B692BB14FF010235B69A3F58053FC
:109CF40005E04FF080525169136903FB01F3A3F5AA
:109D04008053024A1360FFF7BFFD08BDDC37002013
:109D140010B50446B0B1104B1B78BBB10E4BD968DB
:109D2400E3685879A3EB0032914211D31A79121ADD
:109D340002F57F2202F6FF7203EB0233994209D83F
:109D4400012004E07846FDF7FDFDE4E7002010BDA6
:109D54000020FCE70020FAE7BC370020024B18780B
:109D6400003018BF01207047BC37002010B50446EE
:109D74000E4B1B7893B92378032B13D10B4B9C60A8
:109D8400E268DA6000225A601A76012018705A7666
:109D9400074900F0B1FDFFF72FFD10BD7846FDF730
:109DA400D1FDE8E77846FDF7CDFDE7E7BC370020B5
:109DB400E1980200014B1868704700BFDC370020AF
:109DC40010B5044680B163681BB123680BB1A36866
:109DD40013B97846FDF7B6FDA3685A1E134207D19E
:109DE4000023E360236110BD7846FDF7ABFDEAE78D
:109DF4007846FDF7A7FDF3E770B5F0B10446836834
:109E0400EBB1EFF3108572B60369C068834210D0DA
:109E1400084621686268A668013E334003FB0211CC
:109E240008B119F012F92369013323614DB962B6FF
:109E340008E005B962B6052504E00E2502E009250F
:109E440000E00025284670BD0246C0F30B0048BB65
:109E540051B310B401F6FF710C0B144B0221C3F87B
:109E64000415124BD3F80034002BFAD0014602E05B
:109E740002F580520131A14208D20C4BC3F80825E7
:109E84000A4BD3F80034002BFAD0F1E7074B002239
:109E9400C3F80425054BD3F80034002BFAD05DF841
:109EA400044B7047102070470920704700E00140C0
:109EB40010F0030F2FD111F0030F2FD182B312F042
:109EC400030F2FD110B49208174B0124C3F8044593
:109ED400154BD3F80034002BFAD002E004300431DF
:109EE4002246541E52B10B68B3F1FF3FF6D0036013
:109EF4000D4BD3F80034002BFAD0EFE70A4B0021C6
:109F0400C3F80415084BD3F80034002BFAD01046DC
:109F14005DF8044B70471022104670471022FBE78F
:109F24000922F9E70922F7E700E001404388012B01
:109F340005D0022B01D104300860012070470430A1
:109F44004860FAE708B508220221084804F08DF8B1
:109F540038B1074A91684160127B027204F0BEF87E
:109F640008BD044804F0E8F9FAE700BFEC37002024
:109F740038380020882E00200E4B1B78CBB910B542
:109F84000D4B5C6804F50054B4F1807F00D910BD1A
:109F940004220121094804F068F830B14460054AFC
:109FA4000121117004F09AF8F1E7054804F0C4F9AE
:109FB400EDE770474C38002038380020EC3700209B
:109FC400782E002010B5044608B1A04710BD78468D
:109FD400FDF7B8FCF9E7000008B501210C4804F0CE
:109FE400A5F820B902210A4804F0A0F828B10948CC
:109FF40004F0A2F9FFF7C0FF08BD074A002313606D
:10A0040053609360D3601361044A1370F2E700BF96
:10A01400EC370020A82E002038380020103800200B
:10A0240000B58DB00B4B1B7B012B0ED0094A9268F7
:10A0340004928DF80830039002238DF8043001A8AF
:10A04400FFF768F80DB05DF804FB024A9268013A24
:10A054000492EEE73838002010B58CB00C4682B973
:10A064004B88012B20D1134B1B7833B16268124B00
:10A074005A60104B00221A7016E07846FDF762FC15
:10A08400F4E7032A12D12C22002101A819F006F8C2
:10A0940011238DF804300394084BDA6805921B6988
:10A0A400069301A8FFF736F80CB010BD7846FDF70B
:10A0B40049FCE8E74C38002038380020EC37002011
:10A0C40000B583B001F02EFF0021009101916B4691
:10A0D400134A144803F0BEFE009B63B1019A52B1C7
:10A0E4001868114988601879087393420BD950B9DC
:10A0F40000220A600AE00C4B00221A609A601A736C
:10A10400FFF720FF02E01268074B1A60064B1A683B
:10A114005A60FFF731FF01F049FF03B05DF804FB1B
:10A12400319F0200EC3700203838002008B504F0D5
:10A1340057F9A0F5805008BD00B587B000230093FF
:10A1440001930293039304930593FFF7EFFF0090A9
:10A1540001230193064B03936946064804F09DF8D6
:10A1640010B907B05DF804FB034804F0E5F8F8E71C
:10A174005DA00200EC370020982E002010B50B4B98
:10A1840000241C605C609C60DC601C6101F050F980
:10A19400074B5860074A9A60074ADA601C615C61A1
:10A1A400064B1C70FFF7C8FF10BD00BF38380020F5
:10A1B40014380020F1A20200008793034D380020D8
:10A1C40008B5084B1B7803B108BD0748074B03606B
:10A1D40000F05CFE064801F0C3F8024B01221A703D
:10A1E400F2E700BFE83700202C38002019A4020051
:10A1F4001438002010B501F095FE164B1B7B0BBBE9
:10A20400144B9B7B1BBB134B1A8A41F282639A4209
:10A2140004D8114B1B782BB1012300E001231BB997
:10A22400082410E00023FAE70A4B01221A730024E1
:10A234001C829A6801329A60FFF784FE2046FFF779
:10A24400EFFE00E0082401F0B1FE204610BD082412
:10A25400F9E700BF383800204D38002010B501F070
:10A2640061FE204B5B7B9BB11E4B9B7BF3B91D4B6B
:10A274001A8A41F282639A4204D81B4B1B782BB191
:10A28400012300E001239BB1012302E00023FAE74C
:10A2940000231C460BB3134B00225A731B7B4BB198
:10A2A400012B0ED07846FDF74DFB16E00023F0E7B6
:10A2B4000023EEE7FFF79EFF78B17846FDF742FBF7
:10A2C4000BE0084B00201860586018731882FFF7E1
:10A2D400A7FEFFF737FEFFF74FFE01F067FE2046AB
:10A2E40010BD00BF383800204D38002008B5214B80
:10A2F4001B7B7BB1012B20D07846FDF723FB1D4A45
:10A30400138A013313821B4B5B8A13B1013B194A35
:10A31400538208BD174B1A8A41F282639A4204D8C9
:10A32400154B1B783BB1012300E00123002BE6D041
:10A33400FFF794FFE7E70023F8E70E4B1B8A41F28F
:10A344008262934204D80C4A127872B1012200E06E
:10A354000122002AD3D042F2B012934207D9054B0E
:10A3640001225A73FFF77AFFCDE70022F1E7FFF7E6
:10A3740075FFC4E7383800204D38002010B5244B51
:10A384001B7B002B35D10446214B5B8A2BBB1AB9AE
:10A394001F4B9B688B4205D3FAB11D4B9B6801335D
:10A3A4008B421AD21A4B9B682A338B4223D3184B05
:10A3B4009B7B03BB164B996000221A605A601A8279
:10A3C40042F6065159825A731A73FFF7BBFDFFF721
:10A3D400D3FD2046FFF724FE0DE062B10C4B9B68D1
:10A3E40001338B4207D10A4B01225A73FFF736FF20
:10A3F40001E0012B00D010BD002AFCD1044B9B6866
:10A404008B42F8D1024B01225A73FFF727FFF2E780
:10A41400383800200378042B00D0704743681B7839
:10A42400002BFAD010B58468027E437E012A14BF43
:10A4340000220122416904F11000FFF79FFF10BDC3
:10A4440010B5184B1A685B689A4226D20446154B1D
:10A454001B7B012B14D0144B9A4213D2114B1A6854
:10A464005B68403B9A4215D2EFF3108172B60D4AF5
:10A474001368581C1060236001B962B6002010BD37
:10A484000A4BE9E7074B01225A73FFF7E7FE00285E
:10A49400EAD1E3E7FFF770FDE6E7FFF76DFD0F2074
:10A4A400EDE700BF38380020FFFF7F0000E0FF0029
:10A4B40008B538B10D4B01229A730D4A1368013364
:10A4C400136008BD0A4B1B685BB1094A1368013B62
:10A4D4001360002BF5D1054B00229A73FFF7BEFEE3
:10A4E400EFE77846FDF72EFAEFE700BF3838002093
:10A4F400E437002000B58DB0ADF808008DF81020C9
:10A50400039103238DF8043001A8FEF703FE0DB078
:10A514005DF804FB014B9868704700BF3838002091
:10A52400054B1B7B012B02D0034B98687047024BF1
:10A5340098680138704700BF38380020044B9B6886
:10A54400584010F0010F00D0013B1846704700BF7F
:10A5540038380020014B187B704700BF3838002082
:10A5640038B50B4B1B780BB1082038BD084B0122C2
:10A574001A70084DA8602973FFF7E4FC0020FFF768
:10A584004FFD00242C606C60FFF7F6FC2046ECE7DE
:10A5940010380020383800202DE9F041002722E04F
:10A5A4002449BC2303FB04F3CA5A0132CA520221D0
:10A5B400404602F0AFFC01360221404602F07AFC2C
:10A5C40070B11C4ABC2303FB04239D68002DE7D013
:10A5D400BC2303FB04F3D25A01463846A847DFE7FD
:10A5E40096B90137FFB2022F20D83C46BC2303FBA7
:10A5F40007F308330F4D1D4405F1040802214046BA
:10A6040002F058FC0026DBE70021404602F0EAFC99
:10A614000828E6D1074BBC2202FB0434A368002BB4
:10A62400DFD00022044938469847DAE70120BDE824
:10A63400F08100BF58380020783C040008B5082396
:10A6440083731023437300F11C03436103230373D7
:10A6540000F1180303610C3002F096FC08BD000001
:10A6640008B50378012B06D0022B06D07846FDF7F7
:10A6740069F9002002E0292000E0014808BD00BF7C
:10A68400084C010008B50278012A07D0022A13D029
:10A694007846FDF757F94FF4FA7308E083685B1ABC
:10A6A4009B0803EB830003EBC00303F5FA7307482D
:10A6B400984228BF184608BD83685B1A180B044BE0
:10A6C40003FB00F303F5FA73F1E700BF60850100B3
:10A6D400084C010038B5044601210C3002F0EAFBB5
:10A6E400054678B1084BC4F89C300023C4F8A03068
:10A6F4006168FFF7C7FFC4F8A800C4F8AC400123A1
:10A7040084F8B830284638BD2DA8020010B5044698
:10A71400FFF7E0FF20B104F19C000DF0C7FE00B983
:10A7240010BD7846FDF70EF9FAE70000F8B50646C5
:10A734000C46174615680378012B18D11249A1FB62
:10A74400043149098900B468641B8C4200D30C4667
:10A754008CB1706825F00305F16822462944284429
:10A76400FFF7A6FB58B93B681C443C60F8BD78462B
:10A77400FDF7E8F8E2E77846FDF7E4F8E9E778461C
:10A78400FDF7E0F8EFE700BF7D0CCEC7F8B507464C
:10A794000C46164615680378022B16D1114BA3FB01
:10A7A40004231B0C1B03BC68641B9C4200D31C4683
:10A7B4007CB1786825F0030521462844FFF744FB63
:10A7C40058B933681C443460F8BD7846FDF7BAF8CC
:10A7D400E4E77846FDF7B6F8EBE77846FDF7B2F81C
:10A7E400EFE700BFEB0661C538B505460C461146D8
:10A7F4002378012B06D0022B0FD07846FDF7A2F860
:10A80400002304E0021D2046FFF790FFA368686858
:10A81400984214BF0020012038BD021D2046FFF7D6
:10A82400B5FFA368F3E700002DE9F8438846D1F8A3
:10A83400A860234B1B7863B90546A6F5FA7601F1A7
:10A844000C090121484602F035FB074640B10024BB
:10A8540024E00DF067FE002388F8B830BDE8F883E3
:10A864007846FDF76FF8F2E70DF05CFE01214846EB
:10A8740002F050FB0023C8F8043088F8B830114BBC
:10A88400186801F0E7FB4046FFF740FFE6E72C1AA3
:10A894003846FFF7E5FE2044B0420BD8321B394658
:10A8A4004046FFF7A1FF0028DED101F013FA441B54
:10A8B400EED5ECE70DF036FE4046FFF727FFCDE777
:10A8C400543800205038002010B5084801F0A2FB8D
:10A8D400074B18600024022C07D8064BBC2000FB51
:10A8E4000430FFF7ABFE0134F5E710BD9DA502006F
:10A8F400503800205838002038B504460D46022848
:10A9040005D8054BBC2202FB0434A56038BD78464B
:10A91400FDF718F8F5E700BF583800202DE9F84393
:10A9240006460C461746022816D8CCB12378012BCC
:10A934001AD0022B3ED16368C3F30B03002B31D131
:10A94400A368C3F30B03002B30D1A368002B34D1CD
:10A954007846FCF7F7FF30E07846FCF7F3FFE4E7CE
:10A964007846FCF7EFFFE1E7636813F0030F0DD1BE
:10A97400E36813F0030F0DD1A36813F0030F0DD197
:10A98400A368D3B97846FCF7DDFF16E07846FCF7F8
:10A99400D9FFEDE77846FCF7D5FFEDE77846FCF7FD
:10A9A400D1FFEDE77846FCF7CDFFC9E77846FCF721
:10A9B400C9FFCAE77846FCF7C5FFEFF3108872B603
:10A9C400BC2505FB06F505F108032A4D1D44043595
:10A9D4000021284602F06EFA814678B30021284609
:10A9E40002F098FA20686168A268E368C9F8000078
:10A9F400C9F80410C9F80820C9F80C302FB11D4A51
:10AA0400BC2303FB06235B883B801A4ABC2303FB5D
:10AA140006235A8801325A8093F8B83083B9164B0A
:10AA24001B7813B10024A1460CE0124BBC2000FBA0
:10AA34000630FFF74FFE8146002403E0042401E0C2
:10AA44000024A146B8F1000F00D162B6B9F1000F9D
:10AA540009D0BC2000FB06F6983606483044043082
:10AA64000DF024FD10B92046BDE8F8837846FCF7C4
:10AA740069FFF8E7583800205438002038B50446F8
:10AA8400EFF3108572B610B9164B1B6873B18CB115
:10AA9400144A136801331360124B1B68003318BF48
:10AAA4000123114A137005B962B638BD7846FCF724
:10AAB40049FFECE70B4B1C68013C1C6034B1EBE72D
:10AAC400BC2000FB0420FFF721FE0134022CE3D854
:10AAD400064ABC2303FB042393F8B830002BF4D1BB
:10AAE400EEE700BF8C3A002054380020583800208C
:10AAF40018B1830B024AD05C70470020704700BF36
:10AB0400883C040012DF704700B583B01378A3B10A
:10AB1400022B14D0002110F8013C163B152B31D820
:10AB2400DFE803F0593030303030303030303030FE
:10AB3400303030303030302E0F3A517DEBE7072182
:10AB4400E9E7022901D007291CD110F8021C0139B8
:10AB540001F0DAFEB0B1264B1B6813F0400F11D0A0
:10AB6400244B1B68012B0DDD234BD3F804350190D6
:10AB7400224A009293222249022002F01BFC01E0A7
:10AB8400022902D003B05DF804FB10F8021C01395D
:10AB9400C9B214F02BF8F5E70229F3D110F8021C1E
:10ABA4000139C9B203F0D0FE0028EBD0104B1B686A
:10ABB40013F0400FE6D00F4B1B68012BE2DD0E4B68
:10ABC400D3F8043501900F4A0092A6220C490220C2
:10ABD40002F0F0FBD6E701884FF6E4639942D1D145
:10ABE40010F8021C03390230FCF7FAFDCAE700BF73
:10ABF400C82E0020C42E002000100140203D040077
:10AC0400143D04004C3D040070B58AB00EF004FA03
:10AC140048B3064600238DF8103005AC05460FCD29
:10AC24000FC42B682360727D052A04D9337D03F099
:10AC34000F03072B1ED1174B1A688AB104AB039379
:10AC4400337DC3F303038DF80430737D062B1BD9C6
:10AC5400063B8DF8053006F11D03029301A89047C9
:10AC640030460EF0B9F90EF0F3F980F00100C0B2ED
:10AC74000AB070BD307D04AB063A06F11D0100F048
:10AC84000F000CF011FFD6E700238DF80530029376
:10AC9400E4E700BF943A00200B4B1B78032B00D051
:10ACA400704700B58DB0084B04221A702C22002185
:10ACB40001A818F0F3F91C238DF8043001A8FEF75D
:10ACC40029FA0DB05DF804FB903A002070B582B00B
:10ACD400354B1B78002B5CD100285ED0067A0F2EF2
:10ACE40001D0062E5BD1044605F048FEE06870B141
:10ACF400FCF73AFE0DF10700FFF704FF05460028B4
:10AD040048D19DF80730012B04D0022542E0FCF71E
:10AD140039FEEFE7FCF758FE00F00EFB304601F079
:10AD2400AFF8E07800F032F900F0A0FE0DF040FB3F
:10AD34001E480EF029FA0DF059F8FFF7C5FD04F08E
:10AD4400F7FE00F0F3FC05F0D9FD05F0A1FB204669
:10AD540001F0E6FCFDF7FEFE04F0ECF9FCF740FD23
:10AD640008B106281DD112480CF080FE2A200CF0F0
:10AD740011FF2B200CF00EFF29200CF00BFF1620E6
:10AD84000CF008FF0B4B00221A60074B01221A70CB
:10AD940000E00825284602B070BD0E25FAE7072515
:10ADA400F8E70546F6E700BF903A00200DAC020034
:10ADB400B82E0020943A002010B582B01E4B1B78A8
:10ADC400012B0DD05AB282B3033BDBB2012B2ED838
:10ADD4000DF05CFB044658BB174B02221A7027E0A7
:10ADE4000EF0D8F801F0AEFCFDF7F6FEFCF7F8FC27
:10ADF4000446B8B1062815D0104B1B6813F4804FD5
:10AE040016D00F4B1B68012B12DD0E4BD3F8043503
:10AE140001900D4A009240F2A7120C49022002F060
:10AE2400C9FA05E001F058F8D2E7082400E0082444
:10AE3400204602B010BD00BF903A0020C82E00206A
:10AE4400C42E0020001001408C3C0400143D04007A
:10AE540008B50A4B1B78022B02D00823184608BDFC
:10AE6400064B03221A7006480DF0C4FA0346002864
:10AE7400F4D07846FCF766FD0023EFE7903A002013
:10AE84009DAC020008B5FDF7ABFE08BD08B5FEF7A2
:10AE940069F908BD08B5FEF775F908BD08B500F0F5
:10AEA400ABFD002008BD08B507F062F808BD00003E
:10AEB400064A136801331360B3F1704F02D0034B99
:10AEC40018687047134601221A60F8E7983A002080
:10AED40010B5044618B100232360636010BD7846A2
:10AEE400FCF730FDF7E738B50C46054668B184B188
:10AEF40000236360EFF3108372B62A686AB16A684C
:10AF040054606C6003B962B638BD7846FCF71AFD2C
:10AF1400EDE77846FCF716FDEAE72C60F1E710B59B
:10AF2400044658B1EFF3108372B6206808B1426842
:10AF34002260226832B103B962B610BD7846FCF7CC
:10AF440001FDEFE76260F6E710B5044608B120683A
:10AF540010BD7846FCF7F6FCF9E735DF70470000D2
:10AF640008B54FF0FF30FFF7F8FFBFF34F8F0549E7
:10AF7400CA6802F4E062044B1343CB60BFF34F8F03
:10AF840000BFFDE700ED00E00400FA05072814D82F
:10AF9400DFE800F0080C1504110F0A06642070475E
:10AFA40014207047FA2070471E2070474FF4FA703F
:10AFB4007047322070474B207047FA207047962024
:10AFC40070470000024B5868103840B2704700BF09
:10AFD40000ED00E0034600280FDB5B11084A52F83D
:10AFE4002330424200F01F0002F01F0258BF5042BB
:10AFF40023FA00F000F00100704700F11F03ECE7B2
:10B0040000E100E046DF7047F8B504460D464B1EEC
:10B01400DBB2012B09D8002222616261A261E261E4
:10B024002046FFF7EFFF01200AE07846FCF78AFC90
:10B03400F1E7CB7B5B00CB73002F14DB0130C0B294
:10B04400A84217D8214611F9207F00230E2BF0D8EF
:10B05400CA5CCE185200D2B2767842EAD612CA54EA
:10B0640001339BB2F2E794F82F3083F0870384F81E
:10B074002F30E3E7F8BD2DE9F04190B084460C464B
:10B0840096461F4602F10F0636111FFA86F804ADE4
:10B094000068DCF80410DCF80820DCF80C300FC57C
:10B0A4000EF00F05B8F1000F02D07DB1002300E0CF
:10B0B4000023984663B1012104A8FFF7A5FFB8F166
:10B0C400000F1AD0701E000110230EE00123F0E7D8
:10B0D4000221F1E7013B9BB22218D25C10A919446A
:10B0E40011F8101C4A400DF80320002BF2D1002562
:10B0F4000C950D950E950F9526E0711EADB22A465E
:10B1040004EB0111684617F0A0FF80230DF8053009
:10B114006B1C03E000220DF8032001330F2BF9DD33
:10B1240010230AE0013B9BB21DF8032010A9194427
:10B1340011F8101C4A400DF80320002BF2D1D6E779
:10B1440004A8FFF75FFF0135731EAB420FDD280132
:10B154001023002BF4D0013B9BB210AA1A4412F81E
:10B16400102C2118C95C4A4008A9CA54F1E71023DD
:10B174000AE0013B9BB210AAD11811F8402C11F837
:10B18400101C4A4008A9CA54002BF2D104A8FFF7A6
:10B1940039FF0CAC0FCC38607960BA60FB6010B03A
:10B1A400BDE8F08110B50446134B1B684BB14068F1
:10B1B400114B1B685B68C31A002B02DB0E4B19682A
:10B1C4000DE00D4B1A6862611C600B4A93880133D1
:10B1D4009BB2938063B10123237010BD19464B6960
:10B1E4001BB15A68121A002AF8DB63614C61ECE760
:10B1F4007846FCF7A7FBEEE7A03A002038B50546F1
:10B204001CE07846FCF79EFB6369204A1360002328
:10B21400636193889BB2591E89B29180F3B1A3688C
:10B2240003B302232370A36821692846984700F0DA
:10B23400FFF805462378DBB2022B17D0134B1B68AB
:10B244001BB3124B1B685B685B1B642B1DD50F4B38
:10B254001C682378DBB2012BD6D0D2E77846FCF702
:10B2640071FBDCE77846FCF76DFBDAE7E26812B9BC
:10B2740000232370E2E76368134463605B1B642B61
:10B28400F9D42046FFF78EFFD8E738BDA03A002056
:10B2940010B50446144B1B68834207D0124B1B683D
:10B2A400D3B15A69A2420ED01346F9E743690E4A54
:10B2B400136093889BB2591E89B2918063B9784612
:10B2C400FCF740FB08E062695A6107498B889BB22E
:10B2D4005A1E92B28A8013B10023237010BD78469F
:10B2E400FCF730FBF8E700BFA03A002008B5064B96
:10B2F4001B6833B1044B1B680449586800F046F9D5
:10B3040008BD00F0A1F9FBE7A03A00202DB302002C
:10B3140008B500F08DF8FFF771FF00F089F8FFF72A
:10B32400E5FF012008BD000008B5024B186800F0D5
:10B3340091FE08BD9C3A002008B5064B00221A6015
:10B344005A60054800F066FE044B186000F063F88C
:10B3540008BD00BFA03A002015B302009C3A0020AB
:10B3640010B5044600F04AFF80B19CB1A368ABB1AC
:10B374002378DBB2012B15D0002363612046FFF74D
:10B3840011FF00F055F8FFF7B1FF10BD7846FCF748
:10B39400D9FAEAE77846FCF7D5FAE7E77846FCF706
:10B3A400D1FAE5E77846FCF7CDFAE5E710B50446AF
:10B3B40000F024FF50B16CB12046FFF769FF002371
:10B3C400636100F035F8FFF791FF10BD7846FCF794
:10B3D400B9FAF0E77846FCF7B5FAEDE738B5044674
:10B3E4000D4600F00BFF70B18CB12046FFF750FF03
:10B3F4000023636165602046FFF7D4FE00F018F86F
:10B40400FFF774FF38BD7846FCF79CFAECE7784602
:10B41400FCF798FAE9E708B517F0A0FC00B108BDFD
:10B4240017F010FC0028FAD07846FCF78BFAF6E700
:10B4340070B4EFF3108172B6184B1A68184BD3F836
:10B444000455D3F80431012B22D001B962B645EA80
:10B45400026500266B01EA0E5B1B62EB06025102D9
:10B4640041EAD3515802431941EB0600810141EAF4
:10B4740093619A01D31A61EB00005B1946EB00005B
:10B4840013F580437041DB0B43EA404070BC7047C6
:10B49400034BD3F804550132D7E700BFA83A002084
:10B4A4000010014010B50A4B4FF40032C3F8482392
:10B4B400C3F80823074B1B682BB1064B1C68FFF726
:10B4C400B7FFA04710BD7846FCF73CFAF5E700BF8C
:10B4D40000100140B43A0020EFF3108172B6264BFD
:10B4E4000022C3F80421254A13680133136001B90B
:10B4F40062B6234B1B68002B3DD0214B1A68013ADE
:10B504001A601B68002B36D103F1804303F588339E
:10B51400D3F804251B4B1B689A421ED2EFF310820A
:10B5240072B6154BD3F804350133164909688B42BA
:10B5340010D3114BD3F8043502330F49C1F8443505
:10B5440002B962B60C4B4FF40032C3F84423C3F87B
:10B55400042370470B4B1B68EFE710B50A4B1B68BD
:10B564002BB1094B1C68FFF763FFA04710BD784659
:10B57400FCF7E8F9F5E7704700100140A83A00200D
:10B58400AC3A0020B03A0020B43A002030B583B081
:10B594000446002301930D46002936D0244B1D6038
:10B5A400FFF746FF031B002B33DB0023590CD803A2
:10B5B400204C214A002300194FF0000444EB010100
:10B5C40017F0D2FBEFF31083019372B61B4BD3F841
:10B5D4000435022838BF0220C3F1FF1202F57F426E
:10B5E400824218D30344154AC2F844354FF4003359
:10B5F400C2F84433C2F80433114A1460114A146087
:10B60400019B03B962B603B030BD7846FCF79AF9E2
:10B61400C4E7231ACAE7034403F17F4301331A0E34
:10B62400013207490A6023F07F43064A1360E7E7C3
:10B63400B43A002020A1070040420F00001001404E
:10B64400AC3A0020B03A0020074B4FF40032C3F864
:10B654004823C3F808230023044A1360044A1360F0
:10B66400044A1360704700BF00100140AC3A002048
:10B67400B03A0020B43A002030DF704731DF704721
:10B6840010B402684368A2EB7312846883EAF4334B
:10B694000360C1680C444460114481601344C36076
:10B6A40018465DF8044B704770B582B00D460646E7
:10B6B40008B100240BE07846FCF744F9F9E79DF85B
:10B6C40007103019FFF7DAFF9DF807301C44A54234
:10B6D4000DD90DF10700FFF7CFFF9DF80730002BC0
:10B6E400F7D02A1B9342EAD98DF80720E7E702B086
:10B6F40070BD000030B583B00546002401940421D8
:10B704000DEB0100FFF7D0FF074B2B60019B6B6033
:10B71400AB60EB6003E02846FFF7B2FF0134132C63
:10B72400F9D903B030BD00BFED5EEAF1704748DFE0
:10B73400704749DF70474ADF70470000044B01221D
:10B744005A7143F2B0629A6043F69822DA60704705
:10B75400043B0020094B03221A74094A5A611A68EF
:10B7640040F6D8639A4204D9054B43F2B0629A601A
:10B774007047034B40F6D8629A607047E43A002061
:10B78400043B002008B50F4B1B78022B12D0032B6F
:10B7940008D0012B03D07846FCF7D4F80EE002233E
:10B7A40003740BE0084B00225A7108499960084958
:10B7B400D960827103230374034B4361014B00225C
:10B7C4001A7008BD153B0020043B0020A086010030
:10B7D400FF1FA10738B504460025057401234371F2
:10B7E4000E4A13680133136000F0D2FA0CF014FF10
:10B7F40023680B4A1168283101FB03F1094AA2FBB3
:10B804000121A3EB9141084A7839284600F03CFA1B
:10B8140000B938BD7846FCF795F8FAE7183B0020E4
:10B82400003B002083DE1B4359B7020010B50446D9
:10B8340000238360C36003680D4A926802608179C3
:10B8440091B10121017403B90A4B991A6161B1F5EF
:10B854007A7F01D39A4202D94FF47A736361FFF776
:10B864006DFF0123A37110BDFFF7B4FFF7E700BF1D
:10B87400043B00208096980010B50C4631B1C36893
:10B884000133C3604269036813440360836801336E
:10B89400836001220274426952084261012B0DD077
:10B8A400022B19D042690368134417498B4222D8EA
:10B8B40040F6D7639A4221D800231DE0B2F5FA7FFF
:10B8C40005D040F6D8639A42ECD84361EAE7002CED
:10B8D400F7D100234361E5E7C368022B06D0012BAF
:10B8E400E0D1002CDED100234361DBE70268064B84
:10B8F4009B1A4361D6E7002313B110BD0123FBE774
:10B90400FFF768FFF9E700BF8096980043791BB9F9
:10B914000D4B00221A70704710B504460CF098FEC7
:10B9240020680A4B1B68283300FB03F3084AA2FB78
:10B934000323A0EB9340783800F05AFA0023637194
:10B94400014B00221A7010BD143B0020003B002064
:10B9540083DE1B4308B5254B01221A71244B1B7847
:10B9640013B1244B1B781BB3204B00221A740428F8
:10B974001AD8DFE800F00314110C07001B48FFF786
:10B9840055FF1CE001211948FFF776FF17E000215D
:10B994001648FFF771FF12E00CF0EAFD0FE000F02B
:10B9A400B9F90CF01FFE0AE07846FBF7CBFF06E07E
:10B9B40000F090F90D4B18601846FFF7E3FE0B4BAF
:10B9C4001B7C023BDBB2012B08D9084B1B7C022BEE
:10B9D40008D0064800230371103008BD0348FFF760
:10B9E40095FFF2E7014B01221A76F2E7E43A0020D0
:10B9F400153B0020143B002008B50438042814D853
:10BA0400DFE800F0182614030E00164B1B7E012BF2
:10BA14000BD1FFF78EFE40B17846FBF793FF04E0AD
:10BA2400104B00221A760CF037FE08BD7846FBF75F
:10BA340089FFFAE7FFF782FE0B4840F6D86383607C
:10BA4400FFF779FE0028F0D07846FBF77BFFECE7A0
:10BA54000548FFF770FE0028E7D07846FBF772FF31
:10BA6400E3E700BFE43A0020043B002010B40E4A90
:10BA74000023137013710121517143F2B064946077
:10BA840043F69824D460094A1060094A1370094A9D
:10BA94001370094A1360094A1371537113601376C2
:10BAA40091715DF8044B7047043B0020003B00207B
:10BAB400143B0020153B0020183B0020E43A0020F2
:10BAC40008B5104B1B7E012B09D05AB21AB1022BB8
